{
  "contractName": "ShipmentManagement",
  "abi": [
    {
      "inputs": [
        {
          "internalType": "string",
          "name": "productName",
          "type": "string"
        },
        {
          "internalType": "string",
          "name": "description",
          "type": "string"
        },
        {
          "internalType": "string",
          "name": "origin",
          "type": "string"
        },
        {
          "internalType": "string",
          "name": "destination",
          "type": "string"
        },
        {
          "internalType": "string",
          "name": "deliveryDate",
          "type": "string"
        },
        {
          "internalType": "uint256",
          "name": "units",
          "type": "uint256"
        },
        {
          "internalType": "uint256",
          "name": "weight",
          "type": "uint256"
        }
      ],
      "name": "createShipment",
      "outputs": [],
      "stateMutability": "nonpayable",
      "type": "function"
    },
    {
      "inputs": [
        {
          "internalType": "uint256",
          "name": "shipmentId",
          "type": "uint256"
        },
        {
          "internalType": "address",
          "name": "newShipmentOwner",
          "type": "address"
        },
        {
          "internalType": "enum ShipmentManagement.State",
          "name": "newState",
          "type": "uint8"
        },
        {
          "internalType": "string",
          "name": "location",
          "type": "string"
        },
        {
          "internalType": "string",
          "name": "transferNotes",
          "type": "string"
        }
      ],
      "name": "shipmentTransfer",
      "outputs": [],
      "stateMutability": "nonpayable",
      "type": "function"
    },
    {
      "inputs": [
        {
          "internalType": "uint256",
          "name": "shipmentId",
          "type": "uint256"
        }
      ],
      "name": "getShipment",
      "outputs": [
        {
          "internalType": "uint256",
          "name": "id",
          "type": "uint256"
        },
        {
          "internalType": "string",
          "name": "name",
          "type": "string"
        },
        {
          "internalType": "string",
          "name": "description",
          "type": "string"
        },
        {
          "internalType": "string",
          "name": "origin",
          "type": "string"
        },
        {
          "internalType": "string",
          "name": "destination",
          "type": "string"
        },
        {
          "internalType": "string",
          "name": "deliveryDate",
          "type": "string"
        },
        {
          "internalType": "uint256",
          "name": "units",
          "type": "uint256"
        },
        {
          "internalType": "uint256",
          "name": "weight",
          "type": "uint256"
        },
        {
          "internalType": "uint256",
          "name": "currentState",
          "type": "uint256"
        },
        {
          "internalType": "address",
          "name": "currentOwner",
          "type": "address"
        }
      ],
      "stateMutability": "view",
      "type": "function"
    },
    {
      "inputs": [
        {
          "internalType": "uint256",
          "name": "shipmentId",
          "type": "uint256"
        }
      ],
      "name": "getTransfers",
      "outputs": [
        {
          "components": [
            {
              "internalType": "uint256",
              "name": "id",
              "type": "uint256"
            },
            {
              "internalType": "uint256",
              "name": "shipmentId",
              "type": "uint256"
            },
            {
              "internalType": "uint256",
              "name": "timestamp",
              "type": "uint256"
            },
            {
              "internalType": "enum ShipmentManagement.State",
              "name": "newState",
              "type": "uint8"
            },
            {
              "internalType": "string",
              "name": "location",
              "type": "string"
            },
            {
              "internalType": "address",
              "name": "newShipmentOwner",
              "type": "address"
            },
            {
              "internalType": "string",
              "name": "transferNotes",
              "type": "string"
            }
          ],
          "internalType": "struct ShipmentManagement.Transfer[]",
          "name": "",
          "type": "tuple[]"
        }
      ],
      "stateMutability": "view",
      "type": "function"
    },
    {
      "inputs": [],
      "name": "getNextShipmentId",
      "outputs": [
        {
          "internalType": "uint256",
          "name": "",
          "type": "uint256"
        }
      ],
      "stateMutability": "view",
      "type": "function"
    },
    {
      "inputs": [],
      "name": "getNextTransferId",
      "outputs": [
        {
          "internalType": "uint256",
          "name": "",
          "type": "uint256"
        }
      ],
      "stateMutability": "view",
      "type": "function"
    }
  ],
  "bytecode": "0x608060405260016000556001805534801561001957600080fd5b5061194d806100296000396000f3fe608060405234801561001057600080fd5b50600436106100625760003560e01c80630475811114610067578063092b374014610085578063a896fe45146100be578063b465a0f2146100da578063da9b3410146100f8578063fad8919f14610128575b600080fd5b61006f610144565b60405161007c9190610dea565b60405180910390f35b61009f600480360381019061009a9190610e45565b61014e565b6040516100b59a99989796959493929190610f4c565b60405180910390f35b6100d860048036038101906100d39190611191565b610548565b005b6100e2610800565b6040516100ef9190610dea565b60405180910390f35b610112600480360381019061010d9190610e45565b610809565b60405161011f9190611488565b60405180910390f35b610142600480360381019061013d91906114aa565b610ad7565b005b6000600154905090565b600060608060608060606000806000808a600081116101a2576040517f08c379a00000000000000000000000000000000000000000000000000000000081526004016101999061164a565b60405180910390fd5b60005481106101e6576040517f08c379a00000000000000000000000000000000000000000000000000000000081526004016101dd906116b6565b60405180910390fd5b6000600260008e8152602001908152602001600020905080600001548160010182600201836003018460040185600501866006015487600701548860080160009054906101000a900460ff1660038111156102445761024361127f565b5b8960080160019054906101000a900473ffffffffffffffffffffffffffffffffffffffff1688805461027590611705565b80601f01602080910402602001604051908101604052809291908181526020018280546102a190611705565b80156102ee5780601f106102c3576101008083540402835291602001916102ee565b820191906000526020600020905b8154815290600101906020018083116102d157829003601f168201915b5050505050985087805461030190611705565b80601f016020809104026020016040519081016040528092919081815260200182805461032d90611705565b801561037a5780601f1061034f5761010080835404028352916020019161037a565b820191906000526020600020905b81548152906001019060200180831161035d57829003601f168201915b5050505050975086805461038d90611705565b80601f01602080910402602001604051908101604052809291908181526020018280546103b990611705565b80156104065780601f106103db57610100808354040283529160200191610406565b820191906000526020600020905b8154815290600101906020018083116103e957829003601f168201915b5050505050965085805461041990611705565b80601f016020809104026020016040519081016040528092919081815260200182805461044590611705565b80156104925780601f1061046757610100808354040283529160200191610492565b820191906000526020600020905b81548152906001019060200180831161047557829003601f168201915b505050505095508480546104a590611705565b80601f01602080910402602001604051908101604052809291908181526020018280546104d190611705565b801561051e5780601f106104f35761010080835404028352916020019161051e565b820191906000526020600020905b81548152906001019060200180831161050157829003601f168201915b505050505094509b509b509b509b509b509b509b509b509b509b5050509193959799509193959799565b843373ffffffffffffffffffffffffffffffffffffffff166002600083815260200190815260200160002060080160019054906101000a900473ffffffffffffffffffffffffffffffffffffffff1673ffffffffffffffffffffffffffffffffffffffff16146105ed576040517f08c379a00000000000000000000000000000000000000000000000000000000081526004016105e4906117a8565b60405180910390fd5b6000600260008881526020019081526020016000209050858160080160016101000a81548173ffffffffffffffffffffffffffffffffffffffff021916908373ffffffffffffffffffffffffffffffffffffffff160217905550848160080160006101000a81548160ff0219169083600381111561066e5761066d61127f565b5b0217905550600060016000815480929190610688906117f7565b919050559050600360008981526020019081526020016000206040518060e001604052808381526020018a81526020014281526020018860038111156106d1576106d061127f565b5b81526020018781526020018973ffffffffffffffffffffffffffffffffffffffff16815260200186815250908060018154018082558091505060019003906000526020600020906007020160009091909190915060008201518160000155602082015181600101556040820151816002015560608201518160030160006101000a81548160ff0219169083600381111561076e5761076d61127f565b5b0217905550608082015181600401908051906020019061078f929190610d2e565b5060a08201518160050160006101000a81548173ffffffffffffffffffffffffffffffffffffffff021916908373ffffffffffffffffffffffffffffffffffffffff16021790555060c08201518160060190805190602001906107f3929190610d2e565b5050505050505050505050565b60008054905090565b6060816000811161084f576040517f08c379a00000000000000000000000000000000000000000000000000000000081526004016108469061164a565b60405180910390fd5b6000548110610893576040517f08c379a000000000000000000000000000000000000000000000000000000000815260040161088a906116b6565b60405180910390fd5b60036000848152602001908152602001600020805480602002602001604051908101604052809291908181526020016000905b82821015610acb57838290600052602060002090600702016040518060e00160405290816000820154815260200160018201548152602001600282015481526020016003820160009054906101000a900460ff16600381111561092c5761092b61127f565b5b600381111561093e5761093d61127f565b5b815260200160048201805461095290611705565b80601f016020809104026020016040519081016040528092919081815260200182805461097e90611705565b80156109cb5780601f106109a0576101008083540402835291602001916109cb565b820191906000526020600020905b8154815290600101906020018083116109ae57829003601f168201915b505050505081526020016005820160009054906101000a900473ffffffffffffffffffffffffffffffffffffffff1673ffffffffffffffffffffffffffffffffffffffff1673ffffffffffffffffffffffffffffffffffffffff168152602001600682018054610a3a90611705565b80601f0160208091040260200160405190810160405280929190818152602001828054610a6690611705565b8015610ab35780601f10610a8857610100808354040283529160200191610ab3565b820191906000526020600020905b815481529060010190602001808311610a9657829003601f168201915b505050505081525050815260200190600101906108c6565b50505050915050919050565b60008211610b1a576040517f08c379a0000000000000000000000000000000000000000000000000000000008152600401610b119061188b565b60405180910390fd5b60008111610b5d576040517f08c379a0000000000000000000000000000000000000000000000000000000008152600401610b54906118f7565b60405180910390fd5b6000806000815480929190610b71906117f7565b91905055905060405180610140016040528082815260200189815260200188815260200187815260200186815260200185815260200184815260200183815260200160006003811115610bc757610bc661127f565b5b81526020013373ffffffffffffffffffffffffffffffffffffffff1681525060026000838152602001908152602001600020600082015181600001556020820151816001019080519060200190610c1f929190610d2e565b506040820151816002019080519060200190610c3c929190610d2e565b506060820151816003019080519060200190610c59929190610d2e565b506080820151816004019080519060200190610c76929190610d2e565b5060a0820151816005019080519060200190610c93929190610d2e565b5060c0820151816006015560e082015181600701556101008201518160080160006101000a81548160ff02191690836003811115610cd457610cd361127f565b5b02179055506101208201518160080160016101000a81548173ffffffffffffffffffffffffffffffffffffffff021916908373ffffffffffffffffffffffffffffffffffffffff1602179055509050505050505050505050565b828054610d3a90611705565b90600052602060002090601f016020900481019282610d5c5760008555610da3565b82601f10610d7557805160ff1916838001178555610da3565b82800160010185558215610da3579182015b82811115610da2578251825591602001919060010190610d87565b5b509050610db09190610db4565b5090565b5b80821115610dcd576000816000905550600101610db5565b5090565b6000819050919050565b610de481610dd1565b82525050565b6000602082019050610dff6000830184610ddb565b92915050565b6000604051905090565b600080fd5b600080fd5b610e2281610dd1565b8114610e2d57600080fd5b50565b600081359050610e3f81610e19565b92915050565b600060208284031215610e5b57610e5a610e0f565b5b6000610e6984828501610e30565b91505092915050565b600081519050919050565b600082825260208201905092915050565b60005b83811015610eac578082015181840152602081019050610e91565b83811115610ebb576000848401525b50505050565b6000601f19601f8301169050919050565b6000610edd82610e72565b610ee78185610e7d565b9350610ef7818560208601610e8e565b610f0081610ec1565b840191505092915050565b600073ffffffffffffffffffffffffffffffffffffffff82169050919050565b6000610f3682610f0b565b9050919050565b610f4681610f2b565b82525050565b600061014082019050610f62600083018d610ddb565b8181036020830152610f74818c610ed2565b90508181036040830152610f88818b610ed2565b90508181036060830152610f9c818a610ed2565b90508181036080830152610fb08189610ed2565b905081810360a0830152610fc48188610ed2565b9050610fd360c0830187610ddb565b610fe060e0830186610ddb565b610fee610100830185610ddb565b610ffc610120830184610f3d565b9b9a5050505050505050505050565b61101481610f2b565b811461101f57600080fd5b50565b6000813590506110318161100b565b92915050565b6004811061104457600080fd5b50565b60008135905061105681611037565b92915050565b600080fd5b600080fd5b7f4e487b7100000000000000000000000000000000000000000000000000000000600052604160045260246000fd5b61109e82610ec1565b810181811067ffffffffffffffff821117156110bd576110bc611066565b5b80604052505050565b60006110d0610e05565b90506110dc8282611095565b919050565b600067ffffffffffffffff8211156110fc576110fb611066565b5b61110582610ec1565b9050602081019050919050565b82818337600083830152505050565b600061113461112f846110e1565b6110c6565b9050828152602081018484840111156111505761114f611061565b5b61115b848285611112565b509392505050565b600082601f8301126111785761117761105c565b5b8135611188848260208601611121565b91505092915050565b600080600080600060a086880312156111ad576111ac610e0f565b5b60006111bb88828901610e30565b95505060206111cc88828901611022565b94505060406111dd88828901611047565b935050606086013567ffffffffffffffff8111156111fe576111fd610e14565b5b61120a88828901611163565b925050608086013567ffffffffffffffff81111561122b5761122a610e14565b5b61123788828901611163565b9150509295509295909350565b600081519050919050565b600082825260208201905092915050565b6000819050602082019050919050565b61127981610dd1565b82525050565b7f4e487b7100000000000000000000000000000000000000000000000000000000600052602160045260246000fd5b600481106112bf576112be61127f565b5b50565b60008190506112d0826112ae565b919050565b60006112e0826112c2565b9050919050565b6112f0816112d5565b82525050565b600082825260208201905092915050565b600061131282610e72565b61131c81856112f6565b935061132c818560208601610e8e565b61133581610ec1565b840191505092915050565b61134981610f2b565b82525050565b600060e0830160008301516113676000860182611270565b50602083015161137a6020860182611270565b50604083015161138d6040860182611270565b5060608301516113a060608601826112e7565b50608083015184820360808601526113b88282611307565b91505060a08301516113cd60a0860182611340565b5060c083015184820360c08601526113e58282611307565b9150508091505092915050565b60006113fe838361134f565b905092915050565b6000602082019050919050565b600061141e82611244565b611428818561124f565b93508360208202850161143a85611260565b8060005b85811015611476578484038952815161145785826113f2565b945061146283611406565b925060208a0199505060018101905061143e565b50829750879550505050505092915050565b600060208201905081810360008301526114a28184611413565b905092915050565b600080600080600080600060e0888a0312156114c9576114c8610e0f565b5b600088013567ffffffffffffffff8111156114e7576114e6610e14565b5b6114f38a828b01611163565b975050602088013567ffffffffffffffff81111561151457611513610e14565b5b6115208a828b01611163565b965050604088013567ffffffffffffffff81111561154157611540610e14565b5b61154d8a828b01611163565b955050606088013567ffffffffffffffff81111561156e5761156d610e14565b5b61157a8a828b01611163565b945050608088013567ffffffffffffffff81111561159b5761159a610e14565b5b6115a78a828b01611163565b93505060a06115b88a828b01610e30565b92505060c06115c98a828b01610e30565b91505092959891949750929550565b7f536869706d656e74204944206d7573742062652067726561746572207468616e60008201527f20302e0000000000000000000000000000000000000000000000000000000000602082015250565b6000611634602383610e7d565b915061163f826115d8565b604082019050919050565b6000602082019050818103600083015261166381611627565b9050919050565b7f536869706d656e7420646f6573206e6f742065786973742e0000000000000000600082015250565b60006116a0601883610e7d565b91506116ab8261166a565b602082019050919050565b600060208201905081810360008301526116cf81611693565b9050919050565b7f4e487b7100000000000000000000000000000000000000000000000000000000600052602260045260246000fd5b6000600282049050600182168061171d57607f821691505b6020821081036117305761172f6116d6565b5b50919050565b7f4f6e6c79207468652063757272656e74206f776e65722063616e20706572666f60008201527f726d207468697320616374696f6e2e0000000000000000000000000000000000602082015250565b6000611792602f83610e7d565b915061179d82611736565b604082019050919050565b600060208201905081810360008301526117c181611785565b9050919050565b7f4e487b7100000000000000000000000000000000000000000000000000000000600052601160045260246000fd5b600061180282610dd1565b91507fffffffffffffffffffffffffffffffffffffffffffffffffffffffffffffffff8203611834576118336117c8565b5b600182019050919050565b7f556e697473206d7573742062652067726561746572207468616e20302e000000600082015250565b6000611875601d83610e7d565b91506118808261183f565b602082019050919050565b600060208201905081810360008301526118a481611868565b9050919050565b7f576569676874206d7573742062652067726561746572207468616e20302e0000600082015250565b60006118e1601e83610e7d565b91506118ec826118ab565b602082019050919050565b60006020820190508181036000830152611910816118d4565b905091905056fea2646970667358221220feb7e982116a544150f4a9d355045edf29d9ee36f9a5bc9864b6e35775becd5a64736f6c634300080d0033",
  "immutableReferences": {},
  "source": "// SPDX-License-Identifier: MIT\r\npragma solidity ^0.8.0;\r\n\r\ncontract ShipmentManagement {\r\n    enum State { CREATED, IN_TRANSIT, STORED, DELIVERED }\r\n\r\n    struct Shipment {\r\n        uint256 id;\r\n        string name;\r\n        string description;\r\n        string origin;\r\n        string destination;\r\n        string deliveryDate;\r\n        uint256 units;\r\n        uint256 weight;\r\n        State currentState;\r\n        address currentOwner;\r\n    }\r\n\r\n    struct Transfer {\r\n        uint256 id;\r\n        uint256 shipmentId;\r\n        uint256 timestamp;\r\n        State newState;\r\n        string location;\r\n        address newShipmentOwner;\r\n        string transferNotes;\r\n    }\r\n\r\n    uint256 private nextShipmentId = 1;\r\n    uint256 private nextTransferId = 1;\r\n\r\n    mapping(uint256 => Shipment) private shipments;\r\n    mapping(uint256 => Transfer[]) private transfersByShipment;\r\n\r\n    modifier onlyOwner(uint256 shipmentId) {\r\n        require(shipments[shipmentId].currentOwner == msg.sender, \"Only the current owner can perform this action.\");\r\n        _;\r\n    }\r\n\r\n    modifier exists(uint256 shipmentId) {\r\n        require(shipmentId > 0, \"Shipment ID must be greater than 0.\");\r\n        require(shipmentId < nextShipmentId, \"Shipment does not exist.\");\r\n        _;\r\n    }\r\n\r\n    function createShipment(\r\n        string memory productName,\r\n        string memory description,\r\n        string memory origin,\r\n        string memory destination,\r\n        string memory deliveryDate,\r\n        uint256 units,\r\n        uint256 weight\r\n    ) public {\r\n        require(units > 0, \"Units must be greater than 0.\");\r\n        require(weight > 0, \"Weight must be greater than 0.\");\r\n        \r\n        uint256 shipmentId = nextShipmentId++;\r\n        shipments[shipmentId] = Shipment({\r\n            id: shipmentId,\r\n            name: productName,\r\n            description: description,\r\n            origin: origin,\r\n            destination: destination,\r\n            deliveryDate: deliveryDate,\r\n            units: units,\r\n            weight: weight,\r\n            currentState: State.CREATED,\r\n            currentOwner: msg.sender\r\n        });\r\n    }\r\n\r\n    function shipmentTransfer(\r\n        uint256 shipmentId,\r\n        address newShipmentOwner,\r\n        State newState,\r\n        string memory location,\r\n        string memory transferNotes\r\n    ) public onlyOwner(shipmentId) {\r\n        Shipment storage shipment = shipments[shipmentId];\r\n        \r\n        shipment.currentOwner = newShipmentOwner;\r\n        shipment.currentState = newState;\r\n\r\n        uint256 transferId = nextTransferId++;\r\n        transfersByShipment[shipmentId].push(Transfer({\r\n            id: transferId,\r\n            shipmentId: shipmentId,\r\n            timestamp: block.timestamp,\r\n            newState: newState,\r\n            location: location,\r\n            newShipmentOwner: newShipmentOwner,\r\n            transferNotes: transferNotes\r\n        }));\r\n    }\r\n\r\n    function getShipment(uint256 shipmentId) public view exists(shipmentId) \r\n        returns (\r\n            uint256 id, \r\n            string memory name, \r\n            string memory description, \r\n            string memory origin, \r\n            string memory destination, \r\n            string memory deliveryDate, \r\n            uint256 units, \r\n            uint256 weight, \r\n            uint256 currentState, \r\n            address currentOwner\r\n        ) \r\n    {    \r\n        Shipment storage shipment = shipments[shipmentId];\r\n\r\n        return (\r\n            shipment.id,\r\n            shipment.name,\r\n            shipment.description,\r\n            shipment.origin,\r\n            shipment.destination,\r\n            shipment.deliveryDate,\r\n            shipment.units,\r\n            shipment.weight,\r\n            uint256(shipment.currentState),\r\n            shipment.currentOwner\r\n        );\r\n    }\r\n\r\n    function getTransfers(uint256 shipmentId) public view exists(shipmentId) returns (Transfer[] memory) {\r\n        return transfersByShipment[shipmentId];\r\n    }\r\n\r\n    function getNextShipmentId() public view returns (uint256) {\r\n        return nextShipmentId;\r\n    }\r\n\r\n    function getNextTransferId() public view returns (uint256) {\r\n        return nextTransferId;\r\n    }\r\n}\r\n",
  "sourcePath": "C:\\Users\\Usuario\\OneDrive\\Documentos\\GitHub\\blocked-supply\\blocked-supply-truffle\\contracts\\ShipmentManagement.sol",
  "compiler": {
    "name": "solc",
    "version": "0.8.13+commit.abaa5c0e.Emscripten.clang"
  },
  "schemaVersion": "3.4.16",
  "updatedAt": "2025-04-14T20:58:50.879Z",
  "devdoc": {
    "kind": "dev",
    "methods": {},
    "version": 1
  },
  "userdoc": {
    "kind": "user",
    "methods": {},
    "version": 1
  }
}