{
  "contractName": "ProductRegistry",
  "abi": [
    {
      "anonymous": false,
      "inputs": [
        {
          "indexed": true,
          "internalType": "uint256",
          "name": "productId",
          "type": "uint256"
        },
        {
          "indexed": false,
          "internalType": "string",
          "name": "name",
          "type": "string"
        },
        {
          "indexed": false,
          "internalType": "string",
          "name": "description",
          "type": "string"
        },
        {
          "indexed": false,
          "internalType": "string",
          "name": "origin",
          "type": "string"
        },
        {
          "indexed": true,
          "internalType": "address",
          "name": "owner",
          "type": "address"
        },
        {
          "indexed": false,
          "internalType": "uint256",
          "name": "timestamp",
          "type": "uint256"
        }
      ],
      "name": "ProductCreated",
      "type": "event"
    },
    {
      "inputs": [
        {
          "internalType": "string",
          "name": "name",
          "type": "string"
        },
        {
          "internalType": "string",
          "name": "description",
          "type": "string"
        },
        {
          "internalType": "string",
          "name": "origin",
          "type": "string"
        }
      ],
      "name": "createProduct",
      "outputs": [],
      "stateMutability": "nonpayable",
      "type": "function"
    },
    {
      "inputs": [
        {
          "internalType": "uint256",
          "name": "productId",
          "type": "uint256"
        }
      ],
      "name": "getProduct",
      "outputs": [
        {
          "internalType": "uint256",
          "name": "id",
          "type": "uint256"
        },
        {
          "internalType": "string",
          "name": "name",
          "type": "string"
        },
        {
          "internalType": "string",
          "name": "description",
          "type": "string"
        },
        {
          "internalType": "string",
          "name": "origin",
          "type": "string"
        },
        {
          "internalType": "address",
          "name": "currentOwner",
          "type": "address"
        },
        {
          "internalType": "uint256",
          "name": "creationTimestamp",
          "type": "uint256"
        }
      ],
      "stateMutability": "view",
      "type": "function"
    },
    {
      "inputs": [],
      "name": "getAllProductIds",
      "outputs": [
        {
          "internalType": "uint256[]",
          "name": "",
          "type": "uint256[]"
        }
      ],
      "stateMutability": "view",
      "type": "function"
    }
  ],
  "bytecode": "0x60806040526001600255348015610014575f80fd5b50611087806100225f395ff3fe608060405234801561000f575f80fd5b506004361061003f575f3560e01c8063663c01af14610043578063b9db15b414610061578063d768468b14610096575b5f80fd5b61004b6100b2565b60405161005891906107d5565b60405180910390f35b61007b60048036038101906100769190610827565b610108565b60405161008d9695949392919061092a565b60405180910390f35b6100b060048036038101906100ab91906109ff565b6103cd565b005b606060018054806020026020016040519081016040528092919081815260200182805480156100fe57602002820191905f5260205f20905b8154815260200190600101908083116100ea575b5050505050905090565b5f60608060605f805f805f8981526020019081526020015f205f015403610164576040517f08c379a000000000000000000000000000000000000000000000000000000000815260040161015b90610af9565b60405180910390fd5b5f805f8981526020019081526020015f206040518060c00160405290815f820154815260200160018201805461019990610b44565b80601f01602080910402602001604051908101604052809291908181526020018280546101c590610b44565b80156102105780601f106101e757610100808354040283529160200191610210565b820191905f5260205f20905b8154815290600101906020018083116101f357829003601f168201915b5050505050815260200160028201805461022990610b44565b80601f016020809104026020016040519081016040528092919081815260200182805461025590610b44565b80156102a05780601f10610277576101008083540402835291602001916102a0565b820191905f5260205f20905b81548152906001019060200180831161028357829003601f168201915b505050505081526020016003820180546102b990610b44565b80601f01602080910402602001604051908101604052809291908181526020018280546102e590610b44565b80156103305780601f1061030757610100808354040283529160200191610330565b820191905f5260205f20905b81548152906001019060200180831161031357829003601f168201915b50505050508152602001600482015f9054906101000a900473ffffffffffffffffffffffffffffffffffffffff1673ffffffffffffffffffffffffffffffffffffffff1673ffffffffffffffffffffffffffffffffffffffff1681526020016005820154815250509050805f015181602001518260400151836060015184608001518560a001519650965096509650965096505091939550919395565b6002545f805f8381526020019081526020015f205f015414610424576040517f08c379a000000000000000000000000000000000000000000000000000000000815260040161041b90610bbe565b60405180910390fd5b5f8787905011610469576040517f08c379a000000000000000000000000000000000000000000000000000000000815260040161046090610c26565b60405180910390fd5b5f83839050116104ae576040517f08c379a00000000000000000000000000000000000000000000000000000000081526004016104a590610c8e565b60405180910390fd5b5f6040518060c00160405280600254815260200189898080601f0160208091040260200160405190810160405280939291908181526020018383808284375f81840152601f19601f82011690508083019250505050505050815260200187878080601f0160208091040260200160405190810160405280939291908181526020018383808284375f81840152601f19601f82011690508083019250505050505050815260200185858080601f0160208091040260200160405190810160405280939291908181526020018383808284375f81840152601f19601f8201169050808301925050505050505081526020013373ffffffffffffffffffffffffffffffffffffffff168152602001428152509050805f8060025481526020019081526020015f205f820151815f015560208201518160010190816105ef9190610e76565b5060408201518160020190816106059190610e76565b50606082015181600301908161061b9190610e76565b506080820151816004015f6101000a81548173ffffffffffffffffffffffffffffffffffffffff021916908373ffffffffffffffffffffffffffffffffffffffff16021790555060a082015181600501559050506001600254908060018154018082558091505060019003905f5260205f20015f90919091909150553373ffffffffffffffffffffffffffffffffffffffff166002547f8dcb539ac5fe8b9c2a62b7f298c066c404dfd42df2c6d55110e4c58b0a0a40208a8a8a8a8a8a426040516106ec9796959493929190610f7f565b60405180910390a360025f8154809291906107069061100a565b91905055505050505050505050565b5f81519050919050565b5f82825260208201905092915050565b5f819050602082019050919050565b5f819050919050565b6107508161073e565b82525050565b5f6107618383610747565b60208301905092915050565b5f602082019050919050565b5f61078382610715565b61078d818561071f565b93506107988361072f565b805f5b838110156107c85781516107af8882610756565b97506107ba8361076d565b92505060018101905061079b565b5085935050505092915050565b5f6020820190508181035f8301526107ed8184610779565b905092915050565b5f80fd5b5f80fd5b6108068161073e565b8114610810575f80fd5b50565b5f81359050610821816107fd565b92915050565b5f6020828403121561083c5761083b6107f5565b5b5f61084984828501610813565b91505092915050565b61085b8161073e565b82525050565b5f81519050919050565b5f82825260208201905092915050565b5f5b8381101561089857808201518184015260208101905061087d565b5f8484015250505050565b5f601f19601f8301169050919050565b5f6108bd82610861565b6108c7818561086b565b93506108d781856020860161087b565b6108e0816108a3565b840191505092915050565b5f73ffffffffffffffffffffffffffffffffffffffff82169050919050565b5f610914826108eb565b9050919050565b6109248161090a565b82525050565b5f60c08201905061093d5f830189610852565b818103602083015261094f81886108b3565b9050818103604083015261096381876108b3565b9050818103606083015261097781866108b3565b9050610986608083018561091b565b61099360a0830184610852565b979650505050505050565b5f80fd5b5f80fd5b5f80fd5b5f8083601f8401126109bf576109be61099e565b5b8235905067ffffffffffffffff8111156109dc576109db6109a2565b5b6020830191508360018202830111156109f8576109f76109a6565b5b9250929050565b5f805f805f8060608789031215610a1957610a186107f5565b5b5f87013567ffffffffffffffff811115610a3657610a356107f9565b5b610a4289828a016109aa565b9650965050602087013567ffffffffffffffff811115610a6557610a646107f9565b5b610a7189828a016109aa565b9450945050604087013567ffffffffffffffff811115610a9457610a936107f9565b5b610aa089828a016109aa565b92509250509295509295509295565b7f50726f6475637420646f6573206e6f74206578697374000000000000000000005f82015250565b5f610ae360168361086b565b9150610aee82610aaf565b602082019050919050565b5f6020820190508181035f830152610b1081610ad7565b9050919050565b7f4e487b71000000000000000000000000000000000000000000000000000000005f52602260045260245ffd5b5f6002820490506001821680610b5b57607f821691505b602082108103610b6e57610b6d610b17565b5b50919050565b7f50726f6475637420616c726561647920657869737473000000000000000000005f82015250565b5f610ba860168361086b565b9150610bb382610b74565b602082019050919050565b5f6020820190508181035f830152610bd581610b9c565b9050919050565b7f50726f64756374206e616d652063616e6e6f7420626520656d707479000000005f82015250565b5f610c10601c8361086b565b9150610c1b82610bdc565b602082019050919050565b5f6020820190508181035f830152610c3d81610c04565b9050919050565b7f4f726967696e2063616e6e6f7420626520656d707479000000000000000000005f82015250565b5f610c7860168361086b565b9150610c8382610c44565b602082019050919050565b5f6020820190508181035f830152610ca581610c6c565b9050919050565b7f4e487b71000000000000000000000000000000000000000000000000000000005f52604160045260245ffd5b5f819050815f5260205f209050919050565b5f6020601f8301049050919050565b5f82821b905092915050565b5f60088302610d357fffffffffffffffffffffffffffffffffffffffffffffffffffffffffffffffff82610cfa565b610d3f8683610cfa565b95508019841693508086168417925050509392505050565b5f819050919050565b5f610d7a610d75610d708461073e565b610d57565b61073e565b9050919050565b5f819050919050565b610d9383610d60565b610da7610d9f82610d81565b848454610d06565b825550505050565b5f90565b610dbb610daf565b610dc6818484610d8a565b505050565b5b81811015610de957610dde5f82610db3565b600181019050610dcc565b5050565b601f821115610e2e57610dff81610cd9565b610e0884610ceb565b81016020851015610e17578190505b610e2b610e2385610ceb565b830182610dcb565b50505b505050565b5f82821c905092915050565b5f610e4e5f1984600802610e33565b1980831691505092915050565b5f610e668383610e3f565b9150826002028217905092915050565b610e7f82610861565b67ffffffffffffffff811115610e9857610e97610cac565b5b610ea28254610b44565b610ead828285610ded565b5f60209050601f831160018114610ede575f8415610ecc578287015190505b610ed68582610e5b565b865550610f3d565b601f198416610eec86610cd9565b5f5b82811015610f1357848901518255600182019150602085019450602081019050610eee565b86831015610f305784890151610f2c601f891682610e3f565b8355505b6001600288020188555050505b505050505050565b828183375f83830152505050565b5f610f5e838561086b565b9350610f6b838584610f45565b610f74836108a3565b840190509392505050565b5f6080820190508181035f830152610f9881898b610f53565b90508181036020830152610fad818789610f53565b90508181036040830152610fc2818587610f53565b9050610fd16060830184610852565b98975050505050505050565b7f4e487b71000000000000000000000000000000000000000000000000000000005f52601160045260245ffd5b5f6110148261073e565b91507fffffffffffffffffffffffffffffffffffffffffffffffffffffffffffffffff820361104657611045610fdd565b5b60018201905091905056fea264697066735822122068a05bffdd2050ee186c7905fc58dc8cccf916974868347ee478d3bed6125e5e64736f6c63430008150033",
  "immutableReferences": {},
  "source": "// SPDX-License-Identifier: MIT\r\npragma solidity ^0.8.0;\r\n\r\n/// @title ProductRegistry - Gestin de productos en la cadena de suministro.\r\ncontract ProductRegistry {\r\n    // Estructura de un producto\r\n    struct Product {\r\n        uint256 id;\r\n        string name;\r\n        string description;\r\n        string origin;\r\n        address currentOwner;\r\n        uint256 creationTimestamp; \r\n    }\r\n\r\n    // Mapeo para almacenar los productos por su ID nico\r\n    mapping(uint256 => Product) private products;\r\n\r\n    // Lista de IDs de productos (opcional para facilidad de consulta)\r\n    uint256[] private productIds;\r\n\r\n    // Evento para notificar la creacin de un nuevo producto\r\n    event ProductCreated(\r\n        uint256 indexed productId,\r\n        string name,\r\n        string description,\r\n        string origin,\r\n        address indexed owner,\r\n        uint256 timestamp\r\n    );\r\n\r\n    // Contador para generar IDs nicos\r\n    uint256 private nextProductId = 1;\r\n\r\n    // Modificador para verificar que un producto no exista ya\r\n    modifier productDoesNotExist(uint256 productId) {\r\n        require(products[productId].id == 0, \"Product already exists\");\r\n        _;\r\n    }\r\n\r\n    // Funcin para crear un nuevo producto\r\n    function createProduct(\r\n        string calldata name,\r\n        string calldata description,\r\n        string calldata origin\r\n    ) external productDoesNotExist(nextProductId) {\r\n        require(bytes(name).length > 0, \"Product name cannot be empty\");\r\n        require(bytes(origin).length > 0, \"Origin cannot be empty\");\r\n\r\n        // Crear un nuevo producto\r\n        Product memory newProduct = Product({\r\n            id: nextProductId,\r\n            name: name,\r\n            description: description,\r\n            origin: origin,\r\n            currentOwner: msg.sender,\r\n            creationTimestamp: block.timestamp\r\n        });\r\n\r\n        // Almacenar el producto en el mapeo\r\n        products[nextProductId] = newProduct;\r\n\r\n        // Registrar el ID en la lista\r\n        productIds.push(nextProductId);\r\n\r\n        // Emitir un evento de creacin\r\n        emit ProductCreated(\r\n            nextProductId,\r\n            name,\r\n            description,\r\n            origin,\r\n            msg.sender,\r\n            block.timestamp\r\n        );\r\n\r\n        // Incrementar el contador de IDs\r\n        nextProductId++;\r\n    }\r\n\r\n    // Funcin para obtener los detalles de un producto por ID\r\n    function getProduct(uint256 productId)\r\n        external\r\n        view\r\n        returns (\r\n            uint256 id,\r\n            string memory name,\r\n            string memory description,\r\n            string memory origin,\r\n            address currentOwner,\r\n            uint256 creationTimestamp\r\n        )\r\n    {\r\n        require(products[productId].id != 0, \"Product does not exist\");\r\n\r\n        Product memory product = products[productId];\r\n        return (\r\n            product.id,\r\n            product.name,\r\n            product.description,\r\n            product.origin,\r\n            product.currentOwner,\r\n            product.creationTimestamp\r\n        );\r\n    }\r\n\r\n    // Funcin para obtener todos los IDs de productos\r\n    function getAllProductIds() external view returns (uint256[] memory) {\r\n        return productIds;\r\n    }\r\n}\r\n",
  "sourcePath": "C:\\Users\\Usuario\\OneDrive\\Documentos\\GitHub\\blocked-supply\\blocked-supply-truffle\\contracts\\ProductRegistry.sol",
  "compiler": {
    "name": "solc",
    "version": "0.8.21+commit.d9974bed.Emscripten.clang"
  },
  "schemaVersion": "3.4.16",
  "updatedAt": "2025-01-22T14:39:57.707Z",
  "devdoc": {
    "kind": "dev",
    "methods": {},
    "title": "ProductRegistry - Gestin de productos en la cadena de suministro.",
    "version": 1
  },
  "userdoc": {
    "kind": "user",
    "methods": {},
    "version": 1
  }
}