{
  "contractName": "ShipmentManagement",
  "abi": [
    {
      "anonymous": false,
      "inputs": [
        {
          "indexed": true,
          "internalType": "uint256",
          "name": "id",
          "type": "uint256"
        },
        {
          "indexed": false,
          "internalType": "string",
          "name": "name",
          "type": "string"
        },
        {
          "indexed": false,
          "internalType": "string",
          "name": "description",
          "type": "string"
        },
        {
          "indexed": false,
          "internalType": "string",
          "name": "origin",
          "type": "string"
        },
        {
          "indexed": false,
          "internalType": "string",
          "name": "destination",
          "type": "string"
        },
        {
          "indexed": false,
          "internalType": "uint256",
          "name": "units",
          "type": "uint256"
        },
        {
          "indexed": false,
          "internalType": "uint256",
          "name": "weight",
          "type": "uint256"
        },
        {
          "indexed": false,
          "internalType": "uint256",
          "name": "currentState",
          "type": "uint256"
        },
        {
          "indexed": false,
          "internalType": "address",
          "name": "currentOwner",
          "type": "address"
        }
      ],
      "name": "ShipmentRetrieved",
      "type": "event"
    },
    {
      "anonymous": false,
      "inputs": [
        {
          "indexed": true,
          "internalType": "uint256",
          "name": "id",
          "type": "uint256"
        },
        {
          "indexed": false,
          "internalType": "uint256",
          "name": "shipmentId",
          "type": "uint256"
        },
        {
          "indexed": false,
          "internalType": "uint256",
          "name": "timestamp",
          "type": "uint256"
        },
        {
          "indexed": false,
          "internalType": "uint256",
          "name": "newState",
          "type": "uint256"
        },
        {
          "indexed": false,
          "internalType": "string",
          "name": "location",
          "type": "string"
        },
        {
          "indexed": false,
          "internalType": "address",
          "name": "newShipmentOwner",
          "type": "address"
        },
        {
          "indexed": false,
          "internalType": "string",
          "name": "transferNotes",
          "type": "string"
        }
      ],
      "name": "TransferRetrieved",
      "type": "event"
    },
    {
      "inputs": [
        {
          "internalType": "string",
          "name": "productName",
          "type": "string"
        },
        {
          "internalType": "string",
          "name": "description",
          "type": "string"
        },
        {
          "internalType": "string",
          "name": "origin",
          "type": "string"
        },
        {
          "internalType": "string",
          "name": "destination",
          "type": "string"
        },
        {
          "internalType": "uint256",
          "name": "units",
          "type": "uint256"
        },
        {
          "internalType": "uint256",
          "name": "weight",
          "type": "uint256"
        }
      ],
      "name": "createShipment",
      "outputs": [],
      "stateMutability": "nonpayable",
      "type": "function"
    },
    {
      "inputs": [
        {
          "internalType": "uint256",
          "name": "shipmentId",
          "type": "uint256"
        },
        {
          "internalType": "address",
          "name": "newShipmentOwner",
          "type": "address"
        },
        {
          "internalType": "enum ShipmentManagement.State",
          "name": "newState",
          "type": "uint8"
        },
        {
          "internalType": "string",
          "name": "location",
          "type": "string"
        },
        {
          "internalType": "string",
          "name": "transferNotes",
          "type": "string"
        }
      ],
      "name": "shipmentTransfer",
      "outputs": [],
      "stateMutability": "nonpayable",
      "type": "function"
    },
    {
      "inputs": [
        {
          "internalType": "uint256",
          "name": "shipmentId",
          "type": "uint256"
        }
      ],
      "name": "getShipment",
      "outputs": [],
      "stateMutability": "nonpayable",
      "type": "function"
    },
    {
      "inputs": [
        {
          "internalType": "uint256",
          "name": "shipmentId",
          "type": "uint256"
        },
        {
          "internalType": "uint256",
          "name": "index",
          "type": "uint256"
        }
      ],
      "name": "getTransferByIndex",
      "outputs": [],
      "stateMutability": "nonpayable",
      "type": "function"
    },
    {
      "inputs": [
        {
          "internalType": "uint256",
          "name": "shipmentId",
          "type": "uint256"
        }
      ],
      "name": "getTransferCount",
      "outputs": [
        {
          "internalType": "uint256",
          "name": "",
          "type": "uint256"
        }
      ],
      "stateMutability": "view",
      "type": "function"
    },
    {
      "inputs": [],
      "name": "getNextShipmentId",
      "outputs": [
        {
          "internalType": "uint256",
          "name": "",
          "type": "uint256"
        }
      ],
      "stateMutability": "view",
      "type": "function"
    },
    {
      "inputs": [],
      "name": "getNextTransferId",
      "outputs": [
        {
          "internalType": "uint256",
          "name": "",
          "type": "uint256"
        }
      ],
      "stateMutability": "view",
      "type": "function"
    }
  ],
  "bytecode": "0x608060405260016000556001805534801561001957600080fd5b50611265806100296000396000f3fe608060405234801561001057600080fd5b506004361061007c5760003560e01c80633fd185061161005b5780633fd18506146100eb57806398facc3b14610107578063a896fe4514610123578063b465a0f21461013f5761007c565b80623a4a0f1461008157806304758111146100b1578063092b3740146100cf575b600080fd5b61009b60048036038101906100969190610956565b61015d565b6040516100a89190610992565b60405180910390f35b6100b961017d565b6040516100c69190610992565b60405180910390f35b6100e960048036038101906100e49190610956565b610187565b005b61010560048036038101906101009190610af3565b610247565b005b610121600480360381019061011c9190610bf0565b610479565b005b61013d60048036038101906101389190610cb3565b6105a8565b005b610147610860565b6040516101549190610992565b60405180910390f35b600060036000838152602001908152602001600020805490509050919050565b6000600154905090565b600060026000838152602001908152602001600020905080600001547f831e0e8dc3ed954b099430b92578e7986428aea5da8dbbb51bfbddbce460b7af82600101836002018460030185600401866005015487600601548860070160009054906101000a900460ff16600381111561020257610201610d66565b5b8960070160019054906101000a900473ffffffffffffffffffffffffffffffffffffffff1660405161023b989796959493929190610eaa565b60405180910390a25050565b6000821161028a576040517f08c379a000000000000000000000000000000000000000000000000000000000815260040161028190610f90565b60405180910390fd5b600081116102cd576040517f08c379a00000000000000000000000000000000000000000000000000000000081526004016102c490610ffc565b60405180910390fd5b60008060008154809291906102e19061104b565b9190505590506040518061012001604052808281526020018881526020018781526020018681526020018581526020018481526020018381526020016000600381111561033157610330610d66565b5b81526020013373ffffffffffffffffffffffffffffffffffffffff1681525060026000838152602001908152602001600020600082015181600001556020820151816001019080519060200190610389929190610869565b5060408201518160020190805190602001906103a6929190610869565b5060608201518160030190805190602001906103c3929190610869565b5060808201518160040190805190602001906103e0929190610869565b5060a0820151816005015560c0820151816006015560e08201518160070160006101000a81548160ff021916908360038111156104205761041f610d66565b5b02179055506101008201518160070160016101000a81548173ffffffffffffffffffffffffffffffffffffffff021916908373ffffffffffffffffffffffffffffffffffffffff16021790555090505050505050505050565b600360008381526020019081526020016000208054905081106104d1576040517f08c379a00000000000000000000000000000000000000000000000000000000081526004016104c8906110df565b60405180910390fd5b60006003600084815260200190815260200160002082815481106104f8576104f76110ff565b5b9060005260206000209060070201905080600001547fcd3a3f2736fc1d326c90624a647d8290aaa56c1bc81375e79ca971e40da12d65826001015483600201548460030160009054906101000a900460ff16600381111561055c5761055b610d66565b5b856004018660050160009054906101000a900473ffffffffffffffffffffffffffffffffffffffff168760060160405161059b9695949392919061112e565b60405180910390a2505050565b843373ffffffffffffffffffffffffffffffffffffffff166002600083815260200190815260200160002060070160019054906101000a900473ffffffffffffffffffffffffffffffffffffffff1673ffffffffffffffffffffffffffffffffffffffff161461064d576040517f08c379a00000000000000000000000000000000000000000000000000000000081526004016106449061120f565b60405180910390fd5b6000600260008881526020019081526020016000209050858160070160016101000a81548173ffffffffffffffffffffffffffffffffffffffff021916908373ffffffffffffffffffffffffffffffffffffffff160217905550848160070160006101000a81548160ff021916908360038111156106ce576106cd610d66565b5b02179055506000600160008154809291906106e89061104b565b919050559050600360008981526020019081526020016000206040518060e001604052808381526020018a815260200142815260200188600381111561073157610730610d66565b5b81526020018781526020018973ffffffffffffffffffffffffffffffffffffffff16815260200186815250908060018154018082558091505060019003906000526020600020906007020160009091909190915060008201518160000155602082015181600101556040820151816002015560608201518160030160006101000a81548160ff021916908360038111156107ce576107cd610d66565b5b021790555060808201518160040190805190602001906107ef929190610869565b5060a08201518160050160006101000a81548173ffffffffffffffffffffffffffffffffffffffff021916908373ffffffffffffffffffffffffffffffffffffffff16021790555060c0820151816006019080519060200190610853929190610869565b5050505050505050505050565b60008054905090565b82805461087590610dc4565b90600052602060002090601f01602090048101928261089757600085556108de565b82601f106108b057805160ff19168380011785556108de565b828001600101855582156108de579182015b828111156108dd5782518255916020019190600101906108c2565b5b5090506108eb91906108ef565b5090565b5b808211156109085760008160009055506001016108f0565b5090565b6000604051905090565b600080fd5b600080fd5b6000819050919050565b61093381610920565b811461093e57600080fd5b50565b6000813590506109508161092a565b92915050565b60006020828403121561096c5761096b610916565b5b600061097a84828501610941565b91505092915050565b61098c81610920565b82525050565b60006020820190506109a76000830184610983565b92915050565b600080fd5b600080fd5b6000601f19601f8301169050919050565b7f4e487b7100000000000000000000000000000000000000000000000000000000600052604160045260246000fd5b610a00826109b7565b810181811067ffffffffffffffff82111715610a1f57610a1e6109c8565b5b80604052505050565b6000610a3261090c565b9050610a3e82826109f7565b919050565b600067ffffffffffffffff821115610a5e57610a5d6109c8565b5b610a67826109b7565b9050602081019050919050565b82818337600083830152505050565b6000610a96610a9184610a43565b610a28565b905082815260208101848484011115610ab257610ab16109b2565b5b610abd848285610a74565b509392505050565b600082601f830112610ada57610ad96109ad565b5b8135610aea848260208601610a83565b91505092915050565b60008060008060008060c08789031215610b1057610b0f610916565b5b600087013567ffffffffffffffff811115610b2e57610b2d61091b565b5b610b3a89828a01610ac5565b965050602087013567ffffffffffffffff811115610b5b57610b5a61091b565b5b610b6789828a01610ac5565b955050604087013567ffffffffffffffff811115610b8857610b8761091b565b5b610b9489828a01610ac5565b945050606087013567ffffffffffffffff811115610bb557610bb461091b565b5b610bc189828a01610ac5565b9350506080610bd289828a01610941565b92505060a0610be389828a01610941565b9150509295509295509295565b60008060408385031215610c0757610c06610916565b5b6000610c1585828601610941565b9250506020610c2685828601610941565b9150509250929050565b600073ffffffffffffffffffffffffffffffffffffffff82169050919050565b6000610c5b82610c30565b9050919050565b610c6b81610c50565b8114610c7657600080fd5b50565b600081359050610c8881610c62565b92915050565b60048110610c9b57600080fd5b50565b600081359050610cad81610c8e565b92915050565b600080600080600060a08688031215610ccf57610cce610916565b5b6000610cdd88828901610941565b9550506020610cee88828901610c79565b9450506040610cff88828901610c9e565b935050606086013567ffffffffffffffff811115610d2057610d1f61091b565b5b610d2c88828901610ac5565b925050608086013567ffffffffffffffff811115610d4d57610d4c61091b565b5b610d5988828901610ac5565b9150509295509295909350565b7f4e487b7100000000000000000000000000000000000000000000000000000000600052602160045260246000fd5b7f4e487b7100000000000000000000000000000000000000000000000000000000600052602260045260246000fd5b60006002820490506001821680610ddc57607f821691505b602082108103610def57610dee610d95565b5b50919050565b600082825260208201905092915050565b60008190508160005260206000209050919050565b60008154610e2881610dc4565b610e328186610df5565b94506001821660008114610e4d5760018114610e5f57610e92565b60ff1983168652602086019350610e92565b610e6885610e06565b60005b83811015610e8a57815481890152600182019150602081019050610e6b565b808801955050505b50505092915050565b610ea481610c50565b82525050565b6000610100820190508181036000830152610ec5818b610e1b565b90508181036020830152610ed9818a610e1b565b90508181036040830152610eed8189610e1b565b90508181036060830152610f018188610e1b565b9050610f106080830187610983565b610f1d60a0830186610983565b610f2a60c0830185610983565b610f3760e0830184610e9b565b9998505050505050505050565b7f556e697473206d7573742062652067726561746572207468616e20302e000000600082015250565b6000610f7a601d83610df5565b9150610f8582610f44565b602082019050919050565b60006020820190508181036000830152610fa981610f6d565b9050919050565b7f576569676874206d7573742062652067726561746572207468616e20302e0000600082015250565b6000610fe6601e83610df5565b9150610ff182610fb0565b602082019050919050565b6000602082019050818103600083015261101581610fd9565b9050919050565b7f4e487b7100000000000000000000000000000000000000000000000000000000600052601160045260246000fd5b600061105682610920565b91507fffffffffffffffffffffffffffffffffffffffffffffffffffffffffffffffff82036110885761108761101c565b5b600182019050919050565b7f496e646578206f7574206f6620626f756e647300000000000000000000000000600082015250565b60006110c9601383610df5565b91506110d482611093565b602082019050919050565b600060208201905081810360008301526110f8816110bc565b9050919050565b7f4e487b7100000000000000000000000000000000000000000000000000000000600052603260045260246000fd5b600060c0820190506111436000830189610983565b6111506020830188610983565b61115d6040830187610983565b818103606083015261116f8186610e1b565b905061117e6080830185610e9b565b81810360a08301526111908184610e1b565b9050979650505050505050565b7f4f6e6c79207468652063757272656e74206f776e65722063616e20706572666f60008201527f726d207468697320616374696f6e2e0000000000000000000000000000000000602082015250565b60006111f9602f83610df5565b91506112048261119d565b604082019050919050565b60006020820190508181036000830152611228816111ec565b905091905056fea26469706673582212201a5b7633354942f1a8fbda11614ce0997924ca5af2df1a9dd434e1d921ee091164736f6c634300080d0033",
  "immutableReferences": {},
  "source": "// SPDX-License-Identifier: MIT\r\npragma solidity ^0.8.0;\r\n\r\ncontract ShipmentManagement {\r\n    enum State { CREATED, IN_TRANSIT, STORED, DELIVERED }\r\n\r\n    struct Shipment {\r\n        uint256 id;\r\n        string name;\r\n        string description;\r\n        string origin;\r\n        string destination;\r\n        uint256 units;\r\n        uint256 weight;\r\n        State currentState;\r\n        address currentOwner;\r\n    }\r\n\r\n    struct Transfer {\r\n        uint256 id;\r\n        uint256 shipmentId;\r\n        uint256 timestamp;\r\n        State newState;\r\n        string location;\r\n        address newShipmentOwner;\r\n        string transferNotes;\r\n    }\r\n\r\n    event ShipmentRetrieved(\r\n        uint256 indexed id,\r\n        string name,\r\n        string description,\r\n        string origin,\r\n        string destination,\r\n        uint256 units,\r\n        uint256 weight,\r\n        uint256 currentState,\r\n        address currentOwner\r\n    );\r\n\r\n    event TransferRetrieved(\r\n        uint256 indexed id,\r\n        uint256 shipmentId,\r\n        uint256 timestamp,\r\n        uint256 newState,\r\n        string location,\r\n        address newShipmentOwner,\r\n        string transferNotes\r\n    );\r\n\r\n    uint256 private nextShipmentId = 1;\r\n    uint256 private nextTransferId = 1;\r\n\r\n    mapping(uint256 => Shipment) private shipments;\r\n    mapping(uint256 => Transfer[]) private transfersByShipment;\r\n\r\n    modifier onlyOwner(uint256 shipmentId) {\r\n        require(shipments[shipmentId].currentOwner == msg.sender, \"Only the current owner can perform this action.\");\r\n        _;\r\n    }\r\n\r\n    function createShipment(\r\n        string memory productName,\r\n        string memory description,\r\n        string memory origin,\r\n        string memory destination,\r\n        uint256 units,\r\n        uint256 weight\r\n    ) public {\r\n        require(units > 0, \"Units must be greater than 0.\");\r\n        require(weight > 0, \"Weight must be greater than 0.\");\r\n        \r\n        uint256 shipmentId = nextShipmentId++;\r\n        shipments[shipmentId] = Shipment({\r\n            id: shipmentId,\r\n            name: productName,\r\n            description: description,\r\n            origin: origin,\r\n            destination: destination,\r\n            units: units,\r\n            weight: weight,\r\n            currentState: State.CREATED,\r\n            currentOwner: msg.sender\r\n        });\r\n    }\r\n\r\n    function shipmentTransfer(\r\n        uint256 shipmentId,\r\n        address newShipmentOwner,\r\n        State newState,\r\n        string memory location,\r\n        string memory transferNotes\r\n    ) public onlyOwner(shipmentId) {\r\n        Shipment storage shipment = shipments[shipmentId];\r\n\r\n        shipment.currentOwner = newShipmentOwner;\r\n        shipment.currentState = newState;\r\n\r\n        uint256 transferId = nextTransferId++;\r\n        transfersByShipment[shipmentId].push(Transfer({\r\n            id: transferId,\r\n            shipmentId: shipmentId,\r\n            timestamp: block.timestamp,\r\n            newState: newState,\r\n            location: location,\r\n            newShipmentOwner: newShipmentOwner,\r\n            transferNotes: transferNotes\r\n        }));\r\n    }\r\n\r\n    function getShipment(uint256 shipmentId) public {    \r\n        \r\n        Shipment storage shipment = shipments[shipmentId];\r\n\r\n        emit ShipmentRetrieved(\r\n            shipment.id,\r\n            shipment.name,\r\n            shipment.description,\r\n            shipment.origin,\r\n            shipment.destination,\r\n            shipment.units,\r\n            shipment.weight,\r\n            uint256(shipment.currentState),\r\n            shipment.currentOwner\r\n        );\r\n    }\r\n\r\n    function getTransferByIndex(uint256 shipmentId, uint256 index) public {\r\n        require(index < transfersByShipment[shipmentId].length, \"Index out of bounds\");\r\n\r\n        Transfer storage transfer = transfersByShipment[shipmentId][index];\r\n\r\n        emit TransferRetrieved(\r\n            transfer.id,\r\n            transfer.shipmentId,\r\n            transfer.timestamp,\r\n            uint256(transfer.newState),\r\n            transfer.location,\r\n            transfer.newShipmentOwner,\r\n            transfer.transferNotes\r\n        );\r\n    }\r\n\r\n    function getTransferCount(uint256 shipmentId) public view returns (uint256) {\r\n        return transfersByShipment[shipmentId].length;\r\n    }\r\n\r\n    function getNextShipmentId() public view returns (uint256) {\r\n        return nextShipmentId;\r\n    }\r\n\r\n    function getNextTransferId() public view returns (uint256) {\r\n        return nextTransferId;\r\n    }\r\n}\r\n",
  "sourcePath": "C:\\Users\\Usuario\\OneDrive\\Documentos\\GitHub\\blocked-supply\\blocked-supply-truffle\\contracts\\ShipmentManagement.sol",
  "compiler": {
    "name": "solc",
    "version": "0.8.13+commit.abaa5c0e.Emscripten.clang"
  },
  "schemaVersion": "3.4.16",
  "updatedAt": "2025-03-05T22:20:20.756Z",
  "devdoc": {
    "kind": "dev",
    "methods": {},
    "version": 1
  },
  "userdoc": {
    "kind": "user",
    "methods": {},
    "version": 1
  }
}