{
  "contractName": "ShipmentManagement",
  "abi": [
    {
      "anonymous": false,
      "inputs": [
        {
          "indexed": true,
          "internalType": "uint256",
          "name": "id",
          "type": "uint256"
        },
        {
          "indexed": false,
          "internalType": "string",
          "name": "name",
          "type": "string"
        },
        {
          "indexed": false,
          "internalType": "string",
          "name": "description",
          "type": "string"
        },
        {
          "indexed": false,
          "internalType": "string",
          "name": "origin",
          "type": "string"
        },
        {
          "indexed": false,
          "internalType": "string",
          "name": "destination",
          "type": "string"
        },
        {
          "indexed": false,
          "internalType": "uint256",
          "name": "units",
          "type": "uint256"
        },
        {
          "indexed": false,
          "internalType": "uint256",
          "name": "weight",
          "type": "uint256"
        },
        {
          "indexed": false,
          "internalType": "uint256",
          "name": "currentState",
          "type": "uint256"
        },
        {
          "indexed": false,
          "internalType": "address",
          "name": "currentOwner",
          "type": "address"
        }
      ],
      "name": "ShipmentRetrieved",
      "type": "event"
    },
    {
      "inputs": [
        {
          "internalType": "string",
          "name": "productName",
          "type": "string"
        },
        {
          "internalType": "string",
          "name": "description",
          "type": "string"
        },
        {
          "internalType": "string",
          "name": "origin",
          "type": "string"
        },
        {
          "internalType": "string",
          "name": "destination",
          "type": "string"
        },
        {
          "internalType": "uint256",
          "name": "units",
          "type": "uint256"
        },
        {
          "internalType": "uint256",
          "name": "weight",
          "type": "uint256"
        }
      ],
      "name": "createShipment",
      "outputs": [],
      "stateMutability": "nonpayable",
      "type": "function"
    },
    {
      "inputs": [
        {
          "internalType": "uint256",
          "name": "shipmentId",
          "type": "uint256"
        },
        {
          "internalType": "address",
          "name": "newShipmentOwner",
          "type": "address"
        },
        {
          "internalType": "enum ShipmentManagement.State",
          "name": "newState",
          "type": "uint8"
        },
        {
          "internalType": "string",
          "name": "transferNotes",
          "type": "string"
        }
      ],
      "name": "shipmentTransfer",
      "outputs": [],
      "stateMutability": "nonpayable",
      "type": "function"
    },
    {
      "inputs": [
        {
          "internalType": "uint256",
          "name": "shipmentId",
          "type": "uint256"
        }
      ],
      "name": "fetchShipment",
      "outputs": [],
      "stateMutability": "nonpayable",
      "type": "function"
    },
    {
      "inputs": [
        {
          "internalType": "uint256",
          "name": "shipmentId",
          "type": "uint256"
        }
      ],
      "name": "getTransferHistory",
      "outputs": [
        {
          "components": [
            {
              "internalType": "uint256",
              "name": "id",
              "type": "uint256"
            },
            {
              "internalType": "uint256",
              "name": "shipmentId",
              "type": "uint256"
            },
            {
              "internalType": "uint256",
              "name": "timestamp",
              "type": "uint256"
            },
            {
              "internalType": "address",
              "name": "newShipmentOwner",
              "type": "address"
            },
            {
              "internalType": "string",
              "name": "transferNotes",
              "type": "string"
            }
          ],
          "internalType": "struct ShipmentManagement.Transfer[]",
          "name": "",
          "type": "tuple[]"
        }
      ],
      "stateMutability": "view",
      "type": "function"
    },
    {
      "inputs": [],
      "name": "getNextShipmentId",
      "outputs": [
        {
          "internalType": "uint256",
          "name": "",
          "type": "uint256"
        }
      ],
      "stateMutability": "view",
      "type": "function"
    },
    {
      "inputs": [],
      "name": "getNextTransferId",
      "outputs": [
        {
          "internalType": "uint256",
          "name": "",
          "type": "uint256"
        }
      ],
      "stateMutability": "view",
      "type": "function"
    }
  ],
  "bytecode": "0x608060405260016000556001805534801561001957600080fd5b50611459806100296000396000f3fe608060405234801561001057600080fd5b50600436106100625760003560e01c806304758111146100675780633fd18506146100855780638bb27d02146100a1578063b465a0f2146100d1578063f020df82146100ef578063f0d4e2571461010b575b600080fd5b61006f610127565b60405161007c9190610a27565b60405180910390f35b61009f600480360381019061009a9190610bc8565b610131565b005b6100bb60048036038101906100b69190610cc5565b610363565b6040516100c89190610f02565b60405180910390f35b6100d96104db565b6040516100e69190610a27565b60405180910390f35b61010960048036038101906101049190610cc5565b6104e4565b005b61012560048036038101906101209190610f75565b6105a4565b005b6000600154905090565b60008211610174576040517f08c379a000000000000000000000000000000000000000000000000000000000815260040161016b90611055565b60405180910390fd5b600081116101b7576040517f08c379a00000000000000000000000000000000000000000000000000000000081526004016101ae906110c1565b60405180910390fd5b60008060008154809291906101cb90611110565b9190505590506040518061012001604052808281526020018881526020018781526020018681526020018581526020018481526020018381526020016000600381111561021b5761021a611158565b5b81526020013373ffffffffffffffffffffffffffffffffffffffff168152506002600083815260200190815260200160002060008201518160000155602082015181600101908051906020019061027392919061096b565b50604082015181600201908051906020019061029092919061096b565b5060608201518160030190805190602001906102ad92919061096b565b5060808201518160040190805190602001906102ca92919061096b565b5060a0820151816005015560c0820151816006015560e08201518160070160006101000a81548160ff0219169083600381111561030a57610309611158565b5b02179055506101008201518160070160016101000a81548173ffffffffffffffffffffffffffffffffffffffff021916908373ffffffffffffffffffffffffffffffffffffffff16021790555090505050505050505050565b606060036000838152602001908152602001600020805480602002602001604051908101604052809291908181526020016000905b828210156104d057838290600052602060002090600502016040518060a00160405290816000820154815260200160018201548152602001600282015481526020016003820160009054906101000a900473ffffffffffffffffffffffffffffffffffffffff1673ffffffffffffffffffffffffffffffffffffffff1673ffffffffffffffffffffffffffffffffffffffff16815260200160048201805461043f906111b6565b80601f016020809104026020016040519081016040528092919081815260200182805461046b906111b6565b80156104b85780601f1061048d576101008083540402835291602001916104b8565b820191906000526020600020905b81548152906001019060200180831161049b57829003601f168201915b50505050508152505081526020019060010190610398565b505050509050919050565b60008054905090565b600060026000838152602001908152602001600020905080600001547f831e0e8dc3ed954b099430b92578e7986428aea5da8dbbb51bfbddbce460b7af82600101836002018460030185600401866005015487600601548860070160009054906101000a900460ff16600381111561055f5761055e611158565b5b8960070160019054906101000a900473ffffffffffffffffffffffffffffffffffffffff1660405161059898979695949392919061128b565b60405180910390a25050565b833373ffffffffffffffffffffffffffffffffffffffff166002600083815260200190815260200160002060070160019054906101000a900473ffffffffffffffffffffffffffffffffffffffff1673ffffffffffffffffffffffffffffffffffffffff1614610649576040517f08c379a000000000000000000000000000000000000000000000000000000000815260040161064090611397565b60405180910390fd5b6002600086815260200190815260200160002060070160009054906101000a900460ff16836000600381111561068257610681611158565b5b82600381111561069557610694611158565b5b1480156106c65750600160038111156106b1576106b0611158565b5b8160038111156106c4576106c3611158565b5b145b806107255750600160038111156106e0576106df611158565b5b8260038111156106f3576106f2611158565b5b14801561072457506002600381111561070f5761070e611158565b5b81600381111561072257610721611158565b5b145b5b8061078357506002600381111561073f5761073e611158565b5b82600381111561075257610751611158565b5b148015610782575060038081111561076d5761076c611158565b5b8160038111156107805761077f611158565b5b145b5b6107c2576040517f08c379a00000000000000000000000000000000000000000000000000000000081526004016107b990611403565b60405180910390fd5b6000600260008981526020019081526020016000209050868160070160016101000a81548173ffffffffffffffffffffffffffffffffffffffff021916908373ffffffffffffffffffffffffffffffffffffffff160217905550858160070160006101000a81548160ff0219169083600381111561084357610842611158565b5b021790555060006001600081548092919061085d90611110565b919050559050600360008a81526020019081526020016000206040518060a001604052808381526020018b81526020014281526020018a73ffffffffffffffffffffffffffffffffffffffff16815260200188815250908060018154018082558091505060019003906000526020600020906005020160009091909190915060008201518160000155602082015181600101556040820151816002015560608201518160030160006101000a81548173ffffffffffffffffffffffffffffffffffffffff021916908373ffffffffffffffffffffffffffffffffffffffff160217905550608082015181600401908051906020019061095d92919061096b565b505050505050505050505050565b828054610977906111b6565b90600052602060002090601f01602090048101928261099957600085556109e0565b82601f106109b257805160ff19168380011785556109e0565b828001600101855582156109e0579182015b828111156109df5782518255916020019190600101906109c4565b5b5090506109ed91906109f1565b5090565b5b80821115610a0a5760008160009055506001016109f2565b5090565b6000819050919050565b610a2181610a0e565b82525050565b6000602082019050610a3c6000830184610a18565b92915050565b6000604051905090565b600080fd5b600080fd5b600080fd5b600080fd5b6000601f19601f8301169050919050565b7f4e487b7100000000000000000000000000000000000000000000000000000000600052604160045260246000fd5b610aa982610a60565b810181811067ffffffffffffffff82111715610ac857610ac7610a71565b5b80604052505050565b6000610adb610a42565b9050610ae78282610aa0565b919050565b600067ffffffffffffffff821115610b0757610b06610a71565b5b610b1082610a60565b9050602081019050919050565b82818337600083830152505050565b6000610b3f610b3a84610aec565b610ad1565b905082815260208101848484011115610b5b57610b5a610a5b565b5b610b66848285610b1d565b509392505050565b600082601f830112610b8357610b82610a56565b5b8135610b93848260208601610b2c565b91505092915050565b610ba581610a0e565b8114610bb057600080fd5b50565b600081359050610bc281610b9c565b92915050565b60008060008060008060c08789031215610be557610be4610a4c565b5b600087013567ffffffffffffffff811115610c0357610c02610a51565b5b610c0f89828a01610b6e565b965050602087013567ffffffffffffffff811115610c3057610c2f610a51565b5b610c3c89828a01610b6e565b955050604087013567ffffffffffffffff811115610c5d57610c5c610a51565b5b610c6989828a01610b6e565b945050606087013567ffffffffffffffff811115610c8a57610c89610a51565b5b610c9689828a01610b6e565b9350506080610ca789828a01610bb3565b92505060a0610cb889828a01610bb3565b9150509295509295509295565b600060208284031215610cdb57610cda610a4c565b5b6000610ce984828501610bb3565b91505092915050565b600081519050919050565b600082825260208201905092915050565b6000819050602082019050919050565b610d2781610a0e565b82525050565b600073ffffffffffffffffffffffffffffffffffffffff82169050919050565b6000610d5882610d2d565b9050919050565b610d6881610d4d565b82525050565b600081519050919050565b600082825260208201905092915050565b60005b83811015610da8578082015181840152602081019050610d8d565b83811115610db7576000848401525b50505050565b6000610dc882610d6e565b610dd28185610d79565b9350610de2818560208601610d8a565b610deb81610a60565b840191505092915050565b600060a083016000830151610e0e6000860182610d1e565b506020830151610e216020860182610d1e565b506040830151610e346040860182610d1e565b506060830151610e476060860182610d5f565b5060808301518482036080860152610e5f8282610dbd565b9150508091505092915050565b6000610e788383610df6565b905092915050565b6000602082019050919050565b6000610e9882610cf2565b610ea28185610cfd565b935083602082028501610eb485610d0e565b8060005b85811015610ef05784840389528151610ed18582610e6c565b9450610edc83610e80565b925060208a01995050600181019050610eb8565b50829750879550505050505092915050565b60006020820190508181036000830152610f1c8184610e8d565b905092915050565b610f2d81610d4d565b8114610f3857600080fd5b50565b600081359050610f4a81610f24565b92915050565b60048110610f5d57600080fd5b50565b600081359050610f6f81610f50565b92915050565b60008060008060808587031215610f8f57610f8e610a4c565b5b6000610f9d87828801610bb3565b9450506020610fae87828801610f3b565b9350506040610fbf87828801610f60565b925050606085013567ffffffffffffffff811115610fe057610fdf610a51565b5b610fec87828801610b6e565b91505092959194509250565b600082825260208201905092915050565b7f556e697473206d7573742062652067726561746572207468616e20302e000000600082015250565b600061103f601d83610ff8565b915061104a82611009565b602082019050919050565b6000602082019050818103600083015261106e81611032565b9050919050565b7f576569676874206d7573742062652067726561746572207468616e20302e0000600082015250565b60006110ab601e83610ff8565b91506110b682611075565b602082019050919050565b600060208201905081810360008301526110da8161109e565b9050919050565b7f4e487b7100000000000000000000000000000000000000000000000000000000600052601160045260246000fd5b600061111b82610a0e565b91507fffffffffffffffffffffffffffffffffffffffffffffffffffffffffffffffff820361114d5761114c6110e1565b5b600182019050919050565b7f4e487b7100000000000000000000000000000000000000000000000000000000600052602160045260246000fd5b7f4e487b7100000000000000000000000000000000000000000000000000000000600052602260045260246000fd5b600060028204905060018216806111ce57607f821691505b6020821081036111e1576111e0611187565b5b50919050565b60008190508160005260206000209050919050565b60008154611209816111b6565b6112138186610ff8565b9450600182166000811461122e576001811461124057611273565b60ff1983168652602086019350611273565b611249856111e7565b60005b8381101561126b5781548189015260018201915060208101905061124c565b808801955050505b50505092915050565b61128581610d4d565b82525050565b60006101008201905081810360008301526112a6818b6111fc565b905081810360208301526112ba818a6111fc565b905081810360408301526112ce81896111fc565b905081810360608301526112e281886111fc565b90506112f16080830187610a18565b6112fe60a0830186610a18565b61130b60c0830185610a18565b61131860e083018461127c565b9998505050505050505050565b7f4f6e6c79207468652063757272656e74206f776e65722063616e20706572666f60008201527f726d207468697320616374696f6e2e0000000000000000000000000000000000602082015250565b6000611381602f83610ff8565b915061138c82611325565b604082019050919050565b600060208201905081810360008301526113b081611374565b9050919050565b7f496e76616c6964207374617465207472616e736974696f6e0000000000000000600082015250565b60006113ed601883610ff8565b91506113f8826113b7565b602082019050919050565b6000602082019050818103600083015261141c816113e0565b905091905056fea26469706673582212203614a083853e44a8d00eebe992921875a05912320e73122ec70b282465bcdecd64736f6c634300080d0033",
  "immutableReferences": {},
  "source": "// SPDX-License-Identifier: MIT\r\npragma solidity ^0.8.0;\r\n\r\ncontract ShipmentManagement {\r\n    enum State { CREATED, IN_TRANSIT, STORED, DELIVERED }\r\n\r\n    struct Shipment {\r\n        uint256 id;\r\n        string name;\r\n        string description;\r\n        string origin;\r\n        string destination;\r\n        uint256 units;\r\n        uint256 weight;\r\n        State currentState;\r\n        address currentOwner;\r\n    }\r\n\r\n    event ShipmentRetrieved(\r\n        uint256 indexed id,\r\n        string name,\r\n        string description,\r\n        string origin,\r\n        string destination,\r\n        uint256 units,\r\n        uint256 weight,\r\n        uint256 currentState,\r\n        address currentOwner\r\n    );\r\n\r\n    struct Transfer {\r\n        uint256 id;\r\n        uint256 shipmentId;\r\n        uint256 timestamp;\r\n        address newShipmentOwner;\r\n        string transferNotes;\r\n    }\r\n\r\n    uint256 private nextShipmentId = 1;\r\n    uint256 private nextTransferId = 1;\r\n\r\n    mapping(uint256 => Shipment) private shipments;\r\n    mapping(uint256 => Transfer[]) private transfersByShipment;\r\n\r\n    //event ShipmentCreated(uint256 shipmentId, string name, address owner);\r\n    //event ShipmentTransfer(uint256 shipmentId, uint256 timestamp, address indexed previousOwner, address indexed newShipmentOwner, State newState, string transferNotes);\r\n\r\n    // Modifiers\r\n\r\n    modifier onlyOwner(uint256 shipmentId) {\r\n        require(shipments[shipmentId].currentOwner == msg.sender, \"Only the current owner can perform this action.\");\r\n        _;\r\n    }\r\n    \r\n    modifier validStateChange(State oldState, State newState) {\r\n        require(\r\n            (oldState == State.CREATED && newState == State.IN_TRANSIT) ||\r\n            (oldState == State.IN_TRANSIT && newState == State.STORED) ||\r\n            (oldState == State.STORED && newState == State.DELIVERED),\r\n            \"Invalid state transition\"\r\n        );\r\n        _;\r\n    }\r\n    \r\n    // Functions\r\n\r\n    function createShipment(\r\n        string memory productName,\r\n        string memory description,\r\n        string memory origin,\r\n        string memory destination,\r\n        uint256 units,\r\n        uint256 weight\r\n    ) public {\r\n        require(units > 0, \"Units must be greater than 0.\");\r\n        require(weight > 0, \"Weight must be greater than 0.\");\r\n        \r\n        uint256 shipmentId = nextShipmentId++;\r\n        shipments[shipmentId] = Shipment({\r\n            id: shipmentId,\r\n            name: productName,\r\n            description: description,\r\n            origin: origin,\r\n            destination: destination,\r\n            units: units,\r\n            weight: weight,\r\n            currentState: State.CREATED,\r\n            currentOwner: msg.sender\r\n        });\r\n\r\n        //emit ShipmentCreated(shipmentId, productName, msg.sender);\r\n    }\r\n\r\n    function shipmentTransfer(\r\n        uint256 shipmentId,\r\n        address newShipmentOwner,\r\n        State newState,\r\n        string memory transferNotes\r\n    ) public onlyOwner(shipmentId) validStateChange(shipments[shipmentId].currentState, newState) {\r\n        Shipment storage shipment = shipments[shipmentId];\r\n\r\n        //address previousOwner = shipment.currentOwner;\r\n        shipment.currentOwner = newShipmentOwner;\r\n        shipment.currentState = newState;\r\n\r\n        uint256 transferId = nextTransferId++;\r\n        transfersByShipment[shipmentId].push(Transfer({\r\n            id: transferId,\r\n            shipmentId: shipmentId,\r\n            timestamp: block.timestamp,\r\n            newShipmentOwner: newShipmentOwner,\r\n            transferNotes: transferNotes\r\n        }));\r\n\r\n        //emit ShipmentTransfer(shipmentId, block.timestamp, previousOwner, newShipmentOwner, newState, transferNotes);\r\n    }\r\n\r\n    function fetchShipment(uint256 shipmentId) public {\r\n        Shipment storage shipment = shipments[shipmentId];\r\n\r\n        emit ShipmentRetrieved(\r\n            shipment.id,\r\n            shipment.name,\r\n            shipment.description,\r\n            shipment.origin,\r\n            shipment.destination,\r\n            shipment.units,\r\n            shipment.weight,\r\n            uint256(shipment.currentState),\r\n            shipment.currentOwner\r\n        );\r\n    }\r\n\r\n    function getTransferHistory(uint256 shipmentId) public view returns (Transfer[] memory) {\r\n        return transfersByShipment[shipmentId];\r\n    }\r\n\r\n    function getNextShipmentId() public view returns (uint256) {\r\n        return nextShipmentId;\r\n    }\r\n\r\n    function getNextTransferId() public view returns (uint256) {\r\n        return nextTransferId;\r\n    }\r\n}\r\n",
  "sourcePath": "C:\\Users\\Usuario\\OneDrive\\Documentos\\GitHub\\blocked-supply\\blocked-supply-truffle\\contracts\\ShipmentManagement.sol",
  "compiler": {
    "name": "solc",
    "version": "0.8.13+commit.abaa5c0e.Emscripten.clang"
  },
  "schemaVersion": "3.4.16",
  "updatedAt": "2025-02-07T20:02:50.782Z",
  "devdoc": {
    "kind": "dev",
    "methods": {},
    "version": 1
  },
  "userdoc": {
    "kind": "user",
    "methods": {},
    "version": 1
  }
}