{
  "contractName": "ShipmentManagement",
  "abi": [
    {
      "anonymous": false,
      "inputs": [
        {
          "indexed": false,
          "internalType": "uint256",
          "name": "shipmentId",
          "type": "uint256"
        },
        {
          "indexed": false,
          "internalType": "string",
          "name": "productName",
          "type": "string"
        },
        {
          "indexed": false,
          "internalType": "string",
          "name": "description",
          "type": "string"
        },
        {
          "indexed": false,
          "internalType": "string",
          "name": "origin",
          "type": "string"
        },
        {
          "indexed": false,
          "internalType": "string",
          "name": "destination",
          "type": "string"
        },
        {
          "indexed": false,
          "internalType": "uint256",
          "name": "units",
          "type": "uint256"
        },
        {
          "indexed": false,
          "internalType": "uint256",
          "name": "weight",
          "type": "uint256"
        },
        {
          "indexed": true,
          "internalType": "address",
          "name": "owner",
          "type": "address"
        }
      ],
      "name": "ShipmentCreated",
      "type": "event"
    },
    {
      "anonymous": false,
      "inputs": [
        {
          "indexed": false,
          "internalType": "uint256",
          "name": "shipmentId",
          "type": "uint256"
        },
        {
          "indexed": false,
          "internalType": "uint256",
          "name": "timestamp",
          "type": "uint256"
        },
        {
          "indexed": true,
          "internalType": "address",
          "name": "previousOwner",
          "type": "address"
        },
        {
          "indexed": true,
          "internalType": "address",
          "name": "newShipmentOwner",
          "type": "address"
        },
        {
          "indexed": false,
          "internalType": "string",
          "name": "newState",
          "type": "string"
        },
        {
          "indexed": false,
          "internalType": "string",
          "name": "transferNotes",
          "type": "string"
        }
      ],
      "name": "ShipmentTransfer",
      "type": "event"
    },
    {
      "anonymous": false,
      "inputs": [
        {
          "indexed": true,
          "internalType": "address",
          "name": "userAddress",
          "type": "address"
        },
        {
          "indexed": false,
          "internalType": "string",
          "name": "name",
          "type": "string"
        },
        {
          "indexed": false,
          "internalType": "string",
          "name": "email",
          "type": "string"
        },
        {
          "indexed": false,
          "internalType": "string[]",
          "name": "roles",
          "type": "string[]"
        }
      ],
      "name": "UserRegistered",
      "type": "event"
    },
    {
      "inputs": [
        {
          "internalType": "string",
          "name": "name",
          "type": "string"
        },
        {
          "internalType": "string[]",
          "name": "roles",
          "type": "string[]"
        },
        {
          "internalType": "string",
          "name": "email",
          "type": "string"
        }
      ],
      "name": "registerUser",
      "outputs": [],
      "stateMutability": "nonpayable",
      "type": "function"
    },
    {
      "inputs": [
        {
          "internalType": "string",
          "name": "productName",
          "type": "string"
        },
        {
          "internalType": "string",
          "name": "description",
          "type": "string"
        },
        {
          "internalType": "string",
          "name": "origin",
          "type": "string"
        },
        {
          "internalType": "string",
          "name": "destination",
          "type": "string"
        },
        {
          "internalType": "uint256",
          "name": "units",
          "type": "uint256"
        },
        {
          "internalType": "uint256",
          "name": "weight",
          "type": "uint256"
        }
      ],
      "name": "createShipment",
      "outputs": [],
      "stateMutability": "nonpayable",
      "type": "function"
    },
    {
      "inputs": [
        {
          "internalType": "uint256",
          "name": "shipmentId",
          "type": "uint256"
        },
        {
          "internalType": "address",
          "name": "newShipmentOwner",
          "type": "address"
        },
        {
          "internalType": "string",
          "name": "newState",
          "type": "string"
        },
        {
          "internalType": "string",
          "name": "transferNotes",
          "type": "string"
        }
      ],
      "name": "shipmentTransfer",
      "outputs": [],
      "stateMutability": "nonpayable",
      "type": "function"
    },
    {
      "inputs": [
        {
          "internalType": "uint256",
          "name": "shipmentId",
          "type": "uint256"
        }
      ],
      "name": "getShipment",
      "outputs": [
        {
          "components": [
            {
              "internalType": "uint256",
              "name": "id",
              "type": "uint256"
            },
            {
              "internalType": "string",
              "name": "name",
              "type": "string"
            },
            {
              "internalType": "string",
              "name": "description",
              "type": "string"
            },
            {
              "internalType": "string",
              "name": "origin",
              "type": "string"
            },
            {
              "internalType": "string",
              "name": "destination",
              "type": "string"
            },
            {
              "internalType": "uint256",
              "name": "units",
              "type": "uint256"
            },
            {
              "internalType": "uint256",
              "name": "weight",
              "type": "uint256"
            },
            {
              "internalType": "string",
              "name": "currentState",
              "type": "string"
            },
            {
              "internalType": "address",
              "name": "currentOwner",
              "type": "address"
            },
            {
              "internalType": "uint256[]",
              "name": "transferHistory",
              "type": "uint256[]"
            }
          ],
          "internalType": "struct ShipmentManagement.Shipment",
          "name": "",
          "type": "tuple"
        }
      ],
      "stateMutability": "view",
      "type": "function"
    },
    {
      "inputs": [
        {
          "internalType": "uint256",
          "name": "shipmentId",
          "type": "uint256"
        }
      ],
      "name": "getTransferHistory",
      "outputs": [
        {
          "components": [
            {
              "internalType": "uint256",
              "name": "id",
              "type": "uint256"
            },
            {
              "internalType": "uint256",
              "name": "shipmentId",
              "type": "uint256"
            },
            {
              "internalType": "uint256",
              "name": "timestamp",
              "type": "uint256"
            },
            {
              "internalType": "address",
              "name": "newShipmentOwner",
              "type": "address"
            },
            {
              "internalType": "string",
              "name": "transferNotes",
              "type": "string"
            }
          ],
          "internalType": "struct ShipmentManagement.Transfer[]",
          "name": "",
          "type": "tuple[]"
        }
      ],
      "stateMutability": "view",
      "type": "function"
    },
    {
      "inputs": [
        {
          "internalType": "address",
          "name": "userAddress",
          "type": "address"
        }
      ],
      "name": "getUser",
      "outputs": [
        {
          "components": [
            {
              "internalType": "address",
              "name": "userAddress",
              "type": "address"
            },
            {
              "internalType": "string",
              "name": "username",
              "type": "string"
            },
            {
              "internalType": "string[]",
              "name": "roles",
              "type": "string[]"
            },
            {
              "internalType": "string",
              "name": "email",
              "type": "string"
            }
          ],
          "internalType": "struct ShipmentManagement.User",
          "name": "",
          "type": "tuple"
        }
      ],
      "stateMutability": "view",
      "type": "function"
    }
  ],
  "bytecode": "0x608060405260405180608001604052806040518060400160405280600781526020017f435245415445440000000000000000000000000000000000000000000000000081525081526020016040518060400160405280600a81526020017f494e5f5452414e5349540000000000000000000000000000000000000000000081525081526020016040518060400160405280600681526020017f53544f524544000000000000000000000000000000000000000000000000000081525081526020016040518060400160405280600981526020017f44454c495645524544000000000000000000000000000000000000000000000081525081525060009060046200010b92919062000228565b5060405180608001604052806040518060400160405280600581526020017f41444d494e00000000000000000000000000000000000000000000000000000081525081526020016040518060400160405280600881526020017f435553544f4d455200000000000000000000000000000000000000000000000081525081526020016040518060400160405280600b81526020017f5452414e53504f5254455200000000000000000000000000000000000000000081525081526020016040518060400160405280600981526020017f57415245484f555345000000000000000000000000000000000000000000000081525081525060019060046200021392919062000228565b503480156200022157600080fd5b5062000411565b8280548282559060005260206000209081019282156200027c579160200282015b828111156200027b5782518290805190602001906200026a9291906200028f565b509160200191906001019062000249565b5b5090506200028b919062000320565b5090565b8280546200029d90620003dc565b90600052602060002090601f016020900481019282620002c157600085556200030d565b82601f10620002dc57805160ff19168380011785556200030d565b828001600101855582156200030d579182015b828111156200030c578251825591602001919060010190620002ef565b5b5090506200031c919062000348565b5090565b5b808211156200034457600081816200033a919062000367565b5060010162000321565b5090565b5b808211156200036357600081600090555060010162000349565b5090565b5080546200037590620003dc565b6000825580601f10620003895750620003aa565b601f016020900490600052602060002090810190620003a9919062000348565b5b50565b7f4e487b7100000000000000000000000000000000000000000000000000000000600052602260045260246000fd5b60006002820490506001821680620003f557607f821691505b6020821081036200040b576200040a620003ad565b5b50919050565b61317780620004216000396000f3fe608060405234801561001057600080fd5b50600436106100625760003560e01c8063092b3740146100675780633fd18506146100975780636f77926b146100b35780638bb27d02146100e3578063c00afe2d14610113578063d3a0ace31461012f575b600080fd5b610081600480360381019061007c9190611f49565b61014b565b60405161008e919061220b565b60405180910390f35b6100b160048036038101906100ac9190612362565b610784565b005b6100cd60048036038101906100c8919061248b565b610c6c565b6040516100da91906125eb565b60405180910390f35b6100fd60048036038101906100f89190611f49565b61117d565b60405161010a9190612745565b60405180910390f35b61012d60048036038101906101289190612767565b61155a565b005b610149600480360381019061014491906128ec565b611908565b005b610153611ca4565b6040518060400160405280600581526020017f41444d494e0000000000000000000000000000000000000000000000000000008152506000600660003373ffffffffffffffffffffffffffffffffffffffff1673ffffffffffffffffffffffffffffffffffffffff1681526020019081526020016000209050600073ffffffffffffffffffffffffffffffffffffffff168160000160009054906101000a900473ffffffffffffffffffffffffffffffffffffffff1673ffffffffffffffffffffffffffffffffffffffff160361025f576040517f08c379a0000000000000000000000000000000000000000000000000000000008152600401610256906129f0565b60405180910390fd5b6000805b826002018054905081101561037457836040516020016102839190612a4c565b604051602081830303815290604052805190602001208360020182815481106102af576102ae612a63565b5b906000526020600020016040516020016102c99190612b86565b60405160208183030381529060405280519060200120148061035357506040516020016102f590612be9565b6040516020818303038152906040528051906020012083600201828154811061032157610320612a63565b5b9060005260206000200160405160200161033b9190612b86565b60405160208183030381529060405280519060200120145b156103615760019150610374565b808061036c90612c2d565b915050610263565b50806103b5576040517f08c379a00000000000000000000000000000000000000000000000000000000081526004016103ac90612cc1565b60405180910390fd5b6004600086815260200190815260200160002060405180610140016040529081600082015481526020016001820180546103ee90612ac1565b80601f016020809104026020016040519081016040528092919081815260200182805461041a90612ac1565b80156104675780601f1061043c57610100808354040283529160200191610467565b820191906000526020600020905b81548152906001019060200180831161044a57829003601f168201915b5050505050815260200160028201805461048090612ac1565b80601f01602080910402602001604051908101604052809291908181526020018280546104ac90612ac1565b80156104f95780601f106104ce576101008083540402835291602001916104f9565b820191906000526020600020905b8154815290600101906020018083116104dc57829003601f168201915b5050505050815260200160038201805461051290612ac1565b80601f016020809104026020016040519081016040528092919081815260200182805461053e90612ac1565b801561058b5780601f106105605761010080835404028352916020019161058b565b820191906000526020600020905b81548152906001019060200180831161056e57829003601f168201915b505050505081526020016004820180546105a490612ac1565b80601f01602080910402602001604051908101604052809291908181526020018280546105d090612ac1565b801561061d5780601f106105f25761010080835404028352916020019161061d565b820191906000526020600020905b81548152906001019060200180831161060057829003601f168201915b50505050508152602001600582015481526020016006820154815260200160078201805461064a90612ac1565b80601f016020809104026020016040519081016040528092919081815260200182805461067690612ac1565b80156106c35780601f10610698576101008083540402835291602001916106c3565b820191906000526020600020905b8154815290600101906020018083116106a657829003601f168201915b505050505081526020016008820160009054906101000a900473ffffffffffffffffffffffffffffffffffffffff1673ffffffffffffffffffffffffffffffffffffffff1673ffffffffffffffffffffffffffffffffffffffff1681526020016009820180548060200260200160405190810160405280929190818152602001828054801561077157602002820191906000526020600020905b81548152602001906001019080831161075d575b5050505050815250509350505050919050565b6040518060400160405280600581526020017f41444d494e0000000000000000000000000000000000000000000000000000008152506000600660003373ffffffffffffffffffffffffffffffffffffffff1673ffffffffffffffffffffffffffffffffffffffff1681526020019081526020016000209050600073ffffffffffffffffffffffffffffffffffffffff168160000160009054906101000a900473ffffffffffffffffffffffffffffffffffffffff1673ffffffffffffffffffffffffffffffffffffffff1603610890576040517f08c379a0000000000000000000000000000000000000000000000000000000008152600401610887906129f0565b60405180910390fd5b6000805b82600201805490508110156109a557836040516020016108b49190612a4c565b604051602081830303815290604052805190602001208360020182815481106108e0576108df612a63565b5b906000526020600020016040516020016108fa9190612b86565b604051602081830303815290604052805190602001201480610984575060405160200161092690612be9565b6040516020818303038152906040528051906020012083600201828154811061095257610951612a63565b5b9060005260206000200160405160200161096c9190612b86565b60405160208183030381529060405280519060200120145b1561099257600191506109a5565b808061099d90612c2d565b915050610894565b50806109e6576040517f08c379a00000000000000000000000000000000000000000000000000000000081526004016109dd90612cc1565b60405180910390fd5b6000600260008154809291906109fb90612c2d565b9190505590506040518061014001604052808281526020018b81526020018a81526020018981526020018881526020018781526020018681526020016040518060400160405280600781526020017f435245415445440000000000000000000000000000000000000000000000000081525081526020013373ffffffffffffffffffffffffffffffffffffffff168152602001600067ffffffffffffffff811115610aa957610aa8612237565b5b604051908082528060200260200182016040528015610ad75781602001602082028036833780820191505090505b5081525060046000838152602001908152602001600020600082015181600001556020820151816001019080519060200190610b14929190611d0d565b506040820151816002019080519060200190610b31929190611d0d565b506060820151816003019080519060200190610b4e929190611d0d565b506080820151816004019080519060200190610b6b929190611d0d565b5060a0820151816005015560c0820151816006015560e0820151816007019080519060200190610b9c929190611d0d565b506101008201518160080160006101000a81548173ffffffffffffffffffffffffffffffffffffffff021916908373ffffffffffffffffffffffffffffffffffffffff160217905550610120820151816009019080519060200190610c02929190611d93565b509050503373ffffffffffffffffffffffffffffffffffffffff167f6e4aba77af1b5f8491619072c6ce5c2f2913827ce84ff883e18d40e6a43e3cfc828c8c8c8c8c8c604051610c589796959493929190612d29565b60405180910390a250505050505050505050565b610c74611de0565b6040518060400160405280600581526020017f41444d494e0000000000000000000000000000000000000000000000000000008152506000600660003373ffffffffffffffffffffffffffffffffffffffff1673ffffffffffffffffffffffffffffffffffffffff1681526020019081526020016000209050600073ffffffffffffffffffffffffffffffffffffffff168160000160009054906101000a900473ffffffffffffffffffffffffffffffffffffffff1673ffffffffffffffffffffffffffffffffffffffff1603610d80576040517f08c379a0000000000000000000000000000000000000000000000000000000008152600401610d77906129f0565b60405180910390fd5b6000805b8260020180549050811015610e955783604051602001610da49190612a4c565b60405160208183030381529060405280519060200120836002018281548110610dd057610dcf612a63565b5b90600052602060002001604051602001610dea9190612b86565b604051602081830303815290604052805190602001201480610e745750604051602001610e1690612be9565b60405160208183030381529060405280519060200120836002018281548110610e4257610e41612a63565b5b90600052602060002001604051602001610e5c9190612b86565b60405160208183030381529060405280519060200120145b15610e825760019150610e95565b8080610e8d90612c2d565b915050610d84565b5080610ed6576040517f08c379a0000000000000000000000000000000000000000000000000000000008152600401610ecd90612cc1565b60405180910390fd5b600660008673ffffffffffffffffffffffffffffffffffffffff1673ffffffffffffffffffffffffffffffffffffffff1681526020019081526020016000206040518060800160405290816000820160009054906101000a900473ffffffffffffffffffffffffffffffffffffffff1673ffffffffffffffffffffffffffffffffffffffff1673ffffffffffffffffffffffffffffffffffffffff168152602001600182018054610f8690612ac1565b80601f0160208091040260200160405190810160405280929190818152602001828054610fb290612ac1565b8015610fff5780601f10610fd457610100808354040283529160200191610fff565b820191906000526020600020905b815481529060010190602001808311610fe257829003601f168201915b5050505050815260200160028201805480602002602001604051908101604052809291908181526020016000905b828210156110d957838290600052602060002001805461104c90612ac1565b80601f016020809104026020016040519081016040528092919081815260200182805461107890612ac1565b80156110c55780601f1061109a576101008083540402835291602001916110c5565b820191906000526020600020905b8154815290600101906020018083116110a857829003601f168201915b50505050508152602001906001019061102d565b5050505081526020016003820180546110f190612ac1565b80601f016020809104026020016040519081016040528092919081815260200182805461111d90612ac1565b801561116a5780601f1061113f5761010080835404028352916020019161116a565b820191906000526020600020905b81548152906001019060200180831161114d57829003601f168201915b5050505050815250509350505050919050565b60606040518060400160405280600881526020017f435553544f4d45520000000000000000000000000000000000000000000000008152506000600660003373ffffffffffffffffffffffffffffffffffffffff1673ffffffffffffffffffffffffffffffffffffffff1681526020019081526020016000209050600073ffffffffffffffffffffffffffffffffffffffff168160000160009054906101000a900473ffffffffffffffffffffffffffffffffffffffff1673ffffffffffffffffffffffffffffffffffffffff160361128b576040517f08c379a0000000000000000000000000000000000000000000000000000000008152600401611282906129f0565b60405180910390fd5b6000805b82600201805490508110156113a057836040516020016112af9190612a4c565b604051602081830303815290604052805190602001208360020182815481106112db576112da612a63565b5b906000526020600020016040516020016112f59190612b86565b60405160208183030381529060405280519060200120148061137f575060405160200161132190612be9565b6040516020818303038152906040528051906020012083600201828154811061134d5761134c612a63565b5b906000526020600020016040516020016113679190612b86565b60405160208183030381529060405280519060200120145b1561138d57600191506113a0565b808061139890612c2d565b91505061128f565b50806113e1576040517f08c379a00000000000000000000000000000000000000000000000000000000081526004016113d890612cc1565b60405180910390fd5b60056000868152602001908152602001600020805480602002602001604051908101604052809291908181526020016000905b8282101561154c57838290600052602060002090600502016040518060a00160405290816000820154815260200160018201548152602001600282015481526020016003820160009054906101000a900473ffffffffffffffffffffffffffffffffffffffff1673ffffffffffffffffffffffffffffffffffffffff1673ffffffffffffffffffffffffffffffffffffffff1681526020016004820180546114bb90612ac1565b80601f01602080910402602001604051908101604052809291908181526020018280546114e790612ac1565b80156115345780601f1061150957610100808354040283529160200191611534565b820191906000526020600020905b81548152906001019060200180831161151757829003601f168201915b50505050508152505081526020019060010190611414565b505050509350505050919050565b833373ffffffffffffffffffffffffffffffffffffffff166004600083815260200190815260200160002060080160009054906101000a900473ffffffffffffffffffffffffffffffffffffffff1673ffffffffffffffffffffffffffffffffffffffff16146115ff576040517f08c379a00000000000000000000000000000000000000000000000000000000081526004016115f690612e26565b60405180910390fd5b6000805b60008054905081101561169c576000818154811061162457611623612a63565b5b9060005260206000200160405160200161163e9190612b86565b60405160208183030381529060405280519060200120856040516020016116659190612a4c565b6040516020818303038152906040528051906020012003611689576001915061169c565b808061169490612c2d565b915050611603565b50806116dd576040517f08c379a00000000000000000000000000000000000000000000000000000000081526004016116d490612e92565b60405180910390fd5b6000600460008881526020019081526020016000209050858160080160006101000a81548173ffffffffffffffffffffffffffffffffffffffff021916908373ffffffffffffffffffffffffffffffffffffffff1602179055508481600701908051906020019061174f929190611d0d565b5060006003600081548092919061176590612c2d565b919050559050600560008981526020019081526020016000206040518060a001604052808381526020018a81526020014281526020018973ffffffffffffffffffffffffffffffffffffffff16815260200187815250908060018154018082558091505060019003906000526020600020906005020160009091909190915060008201518160000155602082015181600101556040820151816002015560608201518160030160006101000a81548173ffffffffffffffffffffffffffffffffffffffff021916908373ffffffffffffffffffffffffffffffffffffffff1602179055506080820151816004019080519060200190611865929190611d0d565b505050816009018190806001815401808255809150506001900390600052602060002001600090919091909150558673ffffffffffffffffffffffffffffffffffffffff163373ffffffffffffffffffffffffffffffffffffffff167fd69adf76a589dee5f11fc53daa70309b4fcfe5b050845746bfadf73c7793c3608a428a8a6040516118f69493929190612eb2565b60405180910390a35050505050505050565b600073ffffffffffffffffffffffffffffffffffffffff16600660003373ffffffffffffffffffffffffffffffffffffffff1673ffffffffffffffffffffffffffffffffffffffff16815260200190815260200160002060000160009054906101000a900473ffffffffffffffffffffffffffffffffffffffff1673ffffffffffffffffffffffffffffffffffffffff16146119d9576040517f08c379a00000000000000000000000000000000000000000000000000000000081526004016119d090612f51565b60405180910390fd5b6000825111611a1d576040517f08c379a0000000000000000000000000000000000000000000000000000000008152600401611a1490612fe3565b60405180910390fd5b6000805b8351811015611af45760005b600180549050811015611ae05760018181548110611a4e57611a4d612a63565b5b90600052602060002001604051602001611a689190612b86565b60405160208183030381529060405280519060200120858381518110611a9157611a90612a63565b5b6020026020010151604051602001611aa99190612a4c565b6040516020818303038152906040528051906020012003611acd5760019250611ae0565b8080611ad890612c2d565b915050611a2d565b508080611aec90612c2d565b915050611a21565b5080611b35576040517f08c379a0000000000000000000000000000000000000000000000000000000008152600401611b2c9061304f565b60405180910390fd5b60405180608001604052803373ffffffffffffffffffffffffffffffffffffffff16815260200185815260200184815260200183815250600660003373ffffffffffffffffffffffffffffffffffffffff1673ffffffffffffffffffffffffffffffffffffffff16815260200190815260200160002060008201518160000160006101000a81548173ffffffffffffffffffffffffffffffffffffffff021916908373ffffffffffffffffffffffffffffffffffffffff1602179055506020820151816001019080519060200190611c0e929190611d0d565b506040820151816002019080519060200190611c2b929190611e1e565b506060820151816003019080519060200190611c48929190611d0d565b509050503373ffffffffffffffffffffffffffffffffffffffff167f9dca0e96f2bb072d23c844aaab3f8a25a4c83051d5a70d2ec693152c580829d4858486604051611c96939291906130f5565b60405180910390a250505050565b6040518061014001604052806000815260200160608152602001606081526020016060815260200160608152602001600081526020016000815260200160608152602001600073ffffffffffffffffffffffffffffffffffffffff168152602001606081525090565b828054611d1990612ac1565b90600052602060002090601f016020900481019282611d3b5760008555611d82565b82601f10611d5457805160ff1916838001178555611d82565b82800160010185558215611d82579182015b82811115611d81578251825591602001919060010190611d66565b5b509050611d8f9190611e7e565b5090565b828054828255906000526020600020908101928215611dcf579160200282015b82811115611dce578251825591602001919060010190611db3565b5b509050611ddc9190611e7e565b5090565b6040518060800160405280600073ffffffffffffffffffffffffffffffffffffffff1681526020016060815260200160608152602001606081525090565b828054828255906000526020600020908101928215611e6d579160200282015b82811115611e6c578251829080519060200190611e5c929190611d0d565b5091602001919060010190611e3e565b5b509050611e7a9190611e9b565b5090565b5b80821115611e97576000816000905550600101611e7f565b5090565b5b80821115611ebb5760008181611eb29190611ebf565b50600101611e9c565b5090565b508054611ecb90612ac1565b6000825580601f10611edd5750611efc565b601f016020900490600052602060002090810190611efb9190611e7e565b5b50565b6000604051905090565b600080fd5b600080fd5b6000819050919050565b611f2681611f13565b8114611f3157600080fd5b50565b600081359050611f4381611f1d565b92915050565b600060208284031215611f5f57611f5e611f09565b5b6000611f6d84828501611f34565b91505092915050565b611f7f81611f13565b82525050565b600081519050919050565b600082825260208201905092915050565b60005b83811015611fbf578082015181840152602081019050611fa4565b83811115611fce576000848401525b50505050565b6000601f19601f8301169050919050565b6000611ff082611f85565b611ffa8185611f90565b935061200a818560208601611fa1565b61201381611fd4565b840191505092915050565b600073ffffffffffffffffffffffffffffffffffffffff82169050919050565b60006120498261201e565b9050919050565b6120598161203e565b82525050565b600081519050919050565b600082825260208201905092915050565b6000819050602082019050919050565b60006120978383611f76565b60208301905092915050565b6000602082019050919050565b60006120bb8261205f565b6120c5818561206a565b93506120d08361207b565b8060005b838110156121015781516120e8888261208b565b97506120f3836120a3565b9250506001810190506120d4565b5085935050505092915050565b6000610140830160008301516121276000860182611f76565b506020830151848203602086015261213f8282611fe5565b915050604083015184820360408601526121598282611fe5565b915050606083015184820360608601526121738282611fe5565b9150506080830151848203608086015261218d8282611fe5565b91505060a08301516121a260a0860182611f76565b5060c08301516121b560c0860182611f76565b5060e083015184820360e08601526121cd8282611fe5565b9150506101008301516121e4610100860182612050565b506101208301518482036101208601526121fe82826120b0565b9150508091505092915050565b60006020820190508181036000830152612225818461210e565b905092915050565b600080fd5b600080fd5b7f4e487b7100000000000000000000000000000000000000000000000000000000600052604160045260246000fd5b61226f82611fd4565b810181811067ffffffffffffffff8211171561228e5761228d612237565b5b80604052505050565b60006122a1611eff565b90506122ad8282612266565b919050565b600067ffffffffffffffff8211156122cd576122cc612237565b5b6122d682611fd4565b9050602081019050919050565b82818337600083830152505050565b6000612305612300846122b2565b612297565b90508281526020810184848401111561232157612320612232565b5b61232c8482856122e3565b509392505050565b600082601f8301126123495761234861222d565b5b81356123598482602086016122f2565b91505092915050565b60008060008060008060c0878903121561237f5761237e611f09565b5b600087013567ffffffffffffffff81111561239d5761239c611f0e565b5b6123a989828a01612334565b965050602087013567ffffffffffffffff8111156123ca576123c9611f0e565b5b6123d689828a01612334565b955050604087013567ffffffffffffffff8111156123f7576123f6611f0e565b5b61240389828a01612334565b945050606087013567ffffffffffffffff81111561242457612423611f0e565b5b61243089828a01612334565b935050608061244189828a01611f34565b92505060a061245289828a01611f34565b9150509295509295509295565b6124688161203e565b811461247357600080fd5b50565b6000813590506124858161245f565b92915050565b6000602082840312156124a1576124a0611f09565b5b60006124af84828501612476565b91505092915050565b600081519050919050565b600082825260208201905092915050565b6000819050602082019050919050565b60006124f08383611fe5565b905092915050565b6000602082019050919050565b6000612510826124b8565b61251a81856124c3565b93508360208202850161252c856124d4565b8060005b85811015612568578484038952815161254985826124e4565b9450612554836124f8565b925060208a01995050600181019050612530565b50829750879550505050505092915050565b60006080830160008301516125926000860182612050565b50602083015184820360208601526125aa8282611fe5565b915050604083015184820360408601526125c48282612505565b915050606083015184820360608601526125de8282611fe5565b9150508091505092915050565b60006020820190508181036000830152612605818461257a565b905092915050565b600081519050919050565b600082825260208201905092915050565b6000819050602082019050919050565b600060a0830160008301516126516000860182611f76565b5060208301516126646020860182611f76565b5060408301516126776040860182611f76565b50606083015161268a6060860182612050565b50608083015184820360808601526126a28282611fe5565b9150508091505092915050565b60006126bb8383612639565b905092915050565b6000602082019050919050565b60006126db8261260d565b6126e58185612618565b9350836020820285016126f785612629565b8060005b85811015612733578484038952815161271485826126af565b945061271f836126c3565b925060208a019950506001810190506126fb565b50829750879550505050505092915050565b6000602082019050818103600083015261275f81846126d0565b905092915050565b6000806000806080858703121561278157612780611f09565b5b600061278f87828801611f34565b94505060206127a087828801612476565b935050604085013567ffffffffffffffff8111156127c1576127c0611f0e565b5b6127cd87828801612334565b925050606085013567ffffffffffffffff8111156127ee576127ed611f0e565b5b6127fa87828801612334565b91505092959194509250565b600067ffffffffffffffff82111561282157612820612237565b5b602082029050602081019050919050565b600080fd5b600061284a61284584612806565b612297565b9050808382526020820190506020840283018581111561286d5761286c612832565b5b835b818110156128b457803567ffffffffffffffff8111156128925761289161222d565b5b80860161289f8982612334565b8552602085019450505060208101905061286f565b5050509392505050565b600082601f8301126128d3576128d261222d565b5b81356128e3848260208601612837565b91505092915050565b60008060006060848603121561290557612904611f09565b5b600084013567ffffffffffffffff81111561292357612922611f0e565b5b61292f86828701612334565b935050602084013567ffffffffffffffff8111156129505761294f611f0e565b5b61295c868287016128be565b925050604084013567ffffffffffffffff81111561297d5761297c611f0e565b5b61298986828701612334565b9150509250925092565b600082825260208201905092915050565b7f55736572206e6f7420726567697374657265642e000000000000000000000000600082015250565b60006129da601483612993565b91506129e5826129a4565b602082019050919050565b60006020820190508181036000830152612a09816129cd565b9050919050565b600081905092915050565b6000612a2682611f85565b612a308185612a10565b9350612a40818560208601611fa1565b80840191505092915050565b6000612a588284612a1b565b915081905092915050565b7f4e487b7100000000000000000000000000000000000000000000000000000000600052603260045260246000fd5b7f4e487b7100000000000000000000000000000000000000000000000000000000600052602260045260246000fd5b60006002820490506001821680612ad957607f821691505b602082108103612aec57612aeb612a92565b5b50919050565b60008190508160005260206000209050919050565b60008154612b1481612ac1565b612b1e8186612a10565b94506001821660008114612b395760018114612b4a57612b7d565b60ff19831686528186019350612b7d565b612b5385612af2565b60005b83811015612b7557815481890152600182019150602081019050612b56565b838801955050505b50505092915050565b6000612b928284612b07565b915081905092915050565b7f41444d494e000000000000000000000000000000000000000000000000000000600082015250565b6000612bd3600583612a10565b9150612bde82612b9d565b600582019050919050565b6000612bf482612bc6565b9150819050919050565b7f4e487b7100000000000000000000000000000000000000000000000000000000600052601160045260246000fd5b6000612c3882611f13565b91507fffffffffffffffffffffffffffffffffffffffffffffffffffffffffffffffff8203612c6a57612c69612bfe565b5b600182019050919050565b7f4e6f7420617574686f72697a656420666f72207468697320726f6c652e000000600082015250565b6000612cab601d83612993565b9150612cb682612c75565b602082019050919050565b60006020820190508181036000830152612cda81612c9e565b9050919050565b612cea81611f13565b82525050565b6000612cfb82611f85565b612d058185612993565b9350612d15818560208601611fa1565b612d1e81611fd4565b840191505092915050565b600060e082019050612d3e600083018a612ce1565b8181036020830152612d508189612cf0565b90508181036040830152612d648188612cf0565b90508181036060830152612d788187612cf0565b90508181036080830152612d8c8186612cf0565b9050612d9b60a0830185612ce1565b612da860c0830184612ce1565b98975050505050505050565b7f4f6e6c79207468652063757272656e74206f776e65722063616e20706572666f60008201527f726d207468697320616374696f6e2e0000000000000000000000000000000000602082015250565b6000612e10602f83612993565b9150612e1b82612db4565b604082019050919050565b60006020820190508181036000830152612e3f81612e03565b9050919050565b7f496e76616c696420736869706d656e742073746174652e000000000000000000600082015250565b6000612e7c601783612993565b9150612e8782612e46565b602082019050919050565b60006020820190508181036000830152612eab81612e6f565b9050919050565b6000608082019050612ec76000830187612ce1565b612ed46020830186612ce1565b8181036040830152612ee68185612cf0565b90508181036060830152612efa8184612cf0565b905095945050505050565b7f5573657220616c726561647920726567697374657265642e0000000000000000600082015250565b6000612f3b601883612993565b9150612f4682612f05565b602082019050919050565b60006020820190508181036000830152612f6a81612f2e565b9050919050565b7f55736572206d7573742068617665206174206c65617374206f6e6520726f6c6560008201527f2e00000000000000000000000000000000000000000000000000000000000000602082015250565b6000612fcd602183612993565b9150612fd882612f71565b604082019050919050565b60006020820190508181036000830152612ffc81612fc0565b9050919050565b7f496e76616c696420726f6c652070726f76696465642e00000000000000000000600082015250565b6000613039601683612993565b915061304482613003565b602082019050919050565b600060208201905081810360008301526130688161302c565b9050919050565b600082825260208201905092915050565b600061308b826124b8565b613095818561306f565b9350836020820285016130a7856124d4565b8060005b858110156130e357848403895281516130c485826124e4565b94506130cf836124f8565b925060208a019950506001810190506130ab565b50829750879550505050505092915050565b6000606082019050818103600083015261310f8186612cf0565b905081810360208301526131238185612cf0565b905081810360408301526131378184613080565b905094935050505056fea2646970667358221220e926c21f3dc9377f1d0703ca566b1daf905389c1bd60713d4ea747751045917264736f6c634300080d0033",
  "immutableReferences": {},
  "source": "// SPDX-License-Identifier: MIT\r\npragma solidity ^0.8.0;\r\n\r\ncontract ShipmentManagement {\r\n\r\n    string[] shipmentStates = [\"CREATED\", \"IN_TRANSIT\", \"STORED\", \"DELIVERED\"];\r\n    string[] userRoles = [\"ADMIN\", \"CUSTOMER\", \"TRANSPORTER\", \"WAREHOUSE\"];\r\n\r\n    struct Shipment {\r\n        uint256 id;\r\n        string name;\r\n        string description;\r\n        string origin;\r\n        string destination;\r\n        uint256 units;\r\n        uint256 weight;\r\n        string currentState;\r\n        address currentOwner;\r\n        uint256[] transferHistory;\r\n    }\r\n\r\n    struct Transfer {\r\n        uint256 id;\r\n        uint256 shipmentId;\r\n        uint256 timestamp;\r\n        address newShipmentOwner;\r\n        string transferNotes;\r\n    }\r\n\r\n    struct User {\r\n        address userAddress;\r\n        string username;\r\n        string[] roles;\r\n        string email;\r\n    }\r\n\r\n    uint256 private nextShipmentId;\r\n    uint256 private nextTransferId;\r\n\r\n    mapping(uint256 => Shipment) private shipments;\r\n    mapping(uint256 => Transfer[]) private transfersByShipment;\r\n    mapping(address => User) private users;\r\n\r\n    event ShipmentCreated(uint256 shipmentId, string productName, string description, string origin, string destination, uint256 units, uint256 weight, address indexed owner);\r\n    event ShipmentTransfer(uint256 shipmentId, uint256 timestamp, address indexed previousOwner, address indexed newShipmentOwner, string newState, string transferNotes);\r\n    event UserRegistered(address indexed userAddress, string name, string email, string[] roles);\r\n\r\n    // Modifiers\r\n\r\n    modifier onlyOwner(uint256 shipmentId) {\r\n        require(shipments[shipmentId].currentOwner == msg.sender, \"Only the current owner can perform this action.\");\r\n        _;\r\n    }\r\n\r\n    modifier onlyAuthorized(string memory requiredRole) {\r\n        User storage user = users[msg.sender];\r\n        require(user.userAddress != address(0), \"User not registered.\");\r\n\r\n        bool hasRole = false;\r\n        for (uint256 i = 0; i < user.roles.length; i++) {\r\n            if (keccak256(abi.encodePacked(user.roles[i])) == keccak256(abi.encodePacked(requiredRole)) || keccak256(abi.encodePacked(user.roles[i])) == keccak256(abi.encodePacked(\"ADMIN\"))) {\r\n                hasRole = true;\r\n                break;\r\n            } \r\n        }\r\n        \r\n        require(hasRole, \"Not authorized for this role.\");\r\n        _;\r\n    }\r\n    \r\n    // Functions\r\n\r\n    function registerUser(string memory name, string[] memory roles, string memory email) public {\r\n        require(users[msg.sender].userAddress == address(0), \"User already registered.\");\r\n        require(roles.length > 0, \"User must have at least one role.\");\r\n\r\n        bool validRole = false;\r\n        for (uint256 i = 0; i < roles.length; i++) {\r\n            for (uint256 j = 0; j < userRoles.length; j++) {\r\n                if (keccak256(abi.encodePacked(roles[i])) == keccak256(abi.encodePacked(userRoles[j]))) {\r\n                    validRole = true;\r\n                    break;\r\n                }\r\n            }\r\n        }\r\n        require(validRole, \"Invalid role provided.\");\r\n\r\n        users[msg.sender] = User({\r\n            userAddress: msg.sender,\r\n            username: name,\r\n            roles: roles,\r\n            email: email\r\n        });\r\n\r\n        emit UserRegistered(msg.sender, name, email, roles);\r\n    }\r\n\r\n    // Create a new shipment\r\n    function createShipment(\r\n        string memory productName,\r\n        string memory description,\r\n        string memory origin,\r\n        string memory destination,\r\n        uint256 units,\r\n        uint256 weight\r\n    ) public onlyAuthorized(\"ADMIN\") {\r\n        uint256 shipmentId = nextShipmentId++;\r\n        shipments[shipmentId] = Shipment({\r\n            id: shipmentId,\r\n            name: productName,\r\n            description: description,\r\n            origin: origin,\r\n            destination: destination,\r\n            units: units,\r\n            weight: weight,\r\n            currentState: \"CREATED\",\r\n            currentOwner: msg.sender,\r\n            transferHistory: new uint256[](0) \r\n        });\r\n    \r\n        emit ShipmentCreated(shipmentId, productName, description, origin, destination, units, weight, msg.sender);\r\n    }\r\n\r\n    // Transfer ownership of a shipment\r\n    function shipmentTransfer(uint256 shipmentId, address newShipmentOwner, string memory newState, string memory transferNotes) public onlyOwner(shipmentId) {\r\n        bool validState = false;\r\n        for (uint256 i = 0; i < shipmentStates.length; i++) {\r\n            if (keccak256(abi.encodePacked(newState)) == keccak256(abi.encodePacked(shipmentStates[i]))) {\r\n                validState = true;\r\n                break;\r\n            }\r\n        }\r\n        require(validState, \"Invalid shipment state.\");\r\n        \r\n        Shipment storage shipment = shipments[shipmentId];\r\n        \r\n        shipment.currentOwner = newShipmentOwner;\r\n        shipment.currentState = newState;\r\n\r\n        uint256 transferId = nextTransferId++;\r\n        transfersByShipment[shipmentId].push(Transfer({\r\n            id: transferId,\r\n            shipmentId: shipmentId,\r\n            timestamp: block.timestamp,\r\n            newShipmentOwner: newShipmentOwner,\r\n            transferNotes: transferNotes\r\n        }));\r\n        shipment.transferHistory.push(transferId);\r\n\r\n        emit ShipmentTransfer(shipmentId, block.timestamp, msg.sender, newShipmentOwner, newState, transferNotes);\r\n    }\r\n\r\n    // Get shipment details\r\n    function getShipment(uint256 shipmentId) public view onlyAuthorized(\"ADMIN\") returns (Shipment memory) {\r\n        return shipments[shipmentId];\r\n    }\r\n\r\n    // Get transfer history for a shipment\r\n    function getTransferHistory(uint256 shipmentId) public onlyAuthorized(\"CUSTOMER\") view returns (Transfer[] memory) {\r\n        return transfersByShipment[shipmentId];\r\n    }\r\n\r\n    // Get user details\r\n    function getUser(address userAddress) public onlyAuthorized(\"ADMIN\") view returns (User memory) {\r\n        return users[userAddress];\r\n    }\r\n}",
  "sourcePath": "C:\\Users\\Usuario\\OneDrive\\Documentos\\GitHub\\blocked-supply\\blocked-supply-truffle\\contracts\\ShipmentManagement.sol",
  "compiler": {
    "name": "solc",
    "version": "0.8.13+commit.abaa5c0e.Emscripten.clang"
  },
  "schemaVersion": "3.4.16",
  "updatedAt": "2025-02-02T16:09:21.327Z",
  "devdoc": {
    "kind": "dev",
    "methods": {},
    "version": 1
  },
  "userdoc": {
    "kind": "user",
    "methods": {},
    "version": 1
  }
}