{
  "contractName": "ShipmentManagement",
  "abi": [
    {
      "anonymous": false,
      "inputs": [
        {
          "indexed": true,
          "internalType": "uint256",
          "name": "id",
          "type": "uint256"
        },
        {
          "indexed": false,
          "internalType": "string",
          "name": "name",
          "type": "string"
        },
        {
          "indexed": false,
          "internalType": "string",
          "name": "description",
          "type": "string"
        },
        {
          "indexed": false,
          "internalType": "string",
          "name": "origin",
          "type": "string"
        },
        {
          "indexed": false,
          "internalType": "string",
          "name": "destination",
          "type": "string"
        },
        {
          "indexed": false,
          "internalType": "uint256",
          "name": "units",
          "type": "uint256"
        },
        {
          "indexed": false,
          "internalType": "uint256",
          "name": "weight",
          "type": "uint256"
        },
        {
          "indexed": false,
          "internalType": "uint256",
          "name": "currentState",
          "type": "uint256"
        },
        {
          "indexed": false,
          "internalType": "address",
          "name": "currentOwner",
          "type": "address"
        }
      ],
      "name": "ShipmentRetrieved",
      "type": "event"
    },
    {
      "anonymous": false,
      "inputs": [
        {
          "indexed": true,
          "internalType": "uint256",
          "name": "id",
          "type": "uint256"
        },
        {
          "indexed": false,
          "internalType": "uint256",
          "name": "shipmentId",
          "type": "uint256"
        },
        {
          "indexed": false,
          "internalType": "uint256",
          "name": "timestamp",
          "type": "uint256"
        },
        {
          "indexed": false,
          "internalType": "uint256",
          "name": "newState",
          "type": "uint256"
        },
        {
          "indexed": false,
          "internalType": "string",
          "name": "location",
          "type": "string"
        },
        {
          "indexed": false,
          "internalType": "address",
          "name": "newShipmentOwner",
          "type": "address"
        },
        {
          "indexed": false,
          "internalType": "string",
          "name": "transferNotes",
          "type": "string"
        }
      ],
      "name": "TransferRetrieved",
      "type": "event"
    },
    {
      "inputs": [
        {
          "internalType": "string",
          "name": "productName",
          "type": "string"
        },
        {
          "internalType": "string",
          "name": "description",
          "type": "string"
        },
        {
          "internalType": "string",
          "name": "origin",
          "type": "string"
        },
        {
          "internalType": "string",
          "name": "destination",
          "type": "string"
        },
        {
          "internalType": "uint256",
          "name": "units",
          "type": "uint256"
        },
        {
          "internalType": "uint256",
          "name": "weight",
          "type": "uint256"
        }
      ],
      "name": "createShipment",
      "outputs": [],
      "stateMutability": "nonpayable",
      "type": "function"
    },
    {
      "inputs": [
        {
          "internalType": "uint256",
          "name": "shipmentId",
          "type": "uint256"
        },
        {
          "internalType": "address",
          "name": "newShipmentOwner",
          "type": "address"
        },
        {
          "internalType": "enum ShipmentManagement.State",
          "name": "newState",
          "type": "uint8"
        },
        {
          "internalType": "string",
          "name": "location",
          "type": "string"
        },
        {
          "internalType": "string",
          "name": "transferNotes",
          "type": "string"
        }
      ],
      "name": "shipmentTransfer",
      "outputs": [],
      "stateMutability": "nonpayable",
      "type": "function"
    },
    {
      "inputs": [
        {
          "internalType": "uint256",
          "name": "shipmentId",
          "type": "uint256"
        }
      ],
      "name": "getShipment",
      "outputs": [],
      "stateMutability": "nonpayable",
      "type": "function"
    },
    {
      "inputs": [
        {
          "internalType": "uint256",
          "name": "shipmentId",
          "type": "uint256"
        },
        {
          "internalType": "uint256",
          "name": "index",
          "type": "uint256"
        }
      ],
      "name": "getTransferByIndex",
      "outputs": [],
      "stateMutability": "nonpayable",
      "type": "function"
    },
    {
      "inputs": [
        {
          "internalType": "uint256",
          "name": "shipmentId",
          "type": "uint256"
        }
      ],
      "name": "getTransferCount",
      "outputs": [
        {
          "internalType": "uint256",
          "name": "",
          "type": "uint256"
        }
      ],
      "stateMutability": "view",
      "type": "function"
    },
    {
      "inputs": [
        {
          "internalType": "address",
          "name": "owner",
          "type": "address"
        }
      ],
      "name": "getShipmentsByOwner",
      "outputs": [
        {
          "internalType": "uint256[]",
          "name": "",
          "type": "uint256[]"
        }
      ],
      "stateMutability": "view",
      "type": "function"
    },
    {
      "inputs": [],
      "name": "getNextShipmentId",
      "outputs": [
        {
          "internalType": "uint256",
          "name": "",
          "type": "uint256"
        }
      ],
      "stateMutability": "view",
      "type": "function"
    },
    {
      "inputs": [],
      "name": "getNextTransferId",
      "outputs": [
        {
          "internalType": "uint256",
          "name": "",
          "type": "uint256"
        }
      ],
      "stateMutability": "view",
      "type": "function"
    }
  ],
  "bytecode": "0x608060405260016000556001805534801561001957600080fd5b506117fd806100296000396000f3fe608060405234801561001057600080fd5b50600436106100875760003560e01c806398facc3b1161005b57806398facc3b146101125780639eb685911461012e578063a896fe451461015e578063b465a0f21461017a57610087565b80623a4a0f1461008c57806304758111146100bc578063092b3740146100da5780633fd18506146100f6575b600080fd5b6100a660048036038101906100a19190610cec565b610198565b6040516100b39190610d28565b60405180910390f35b6100c4610241565b6040516100d19190610d28565b60405180910390f35b6100f460048036038101906100ef9190610cec565b61024b565b005b610110600480360381019061010b9190610e89565b610394565b005b61012c60048036038101906101279190610f86565b61062c565b005b61014860048036038101906101439190611024565b610703565b604051610155919061110f565b60405180910390f35b61017860048036038101906101739190611156565b61079a565b005b610182610aec565b60405161018f9190610d28565b60405180910390f35b600081600081116101de576040517f08c379a00000000000000000000000000000000000000000000000000000000081526004016101d59061128c565b60405180910390fd5b6000548110610222576040517f08c379a0000000000000000000000000000000000000000000000000000000008152600401610219906112f8565b60405180910390fd5b6003600084815260200190815260200160002080549050915050919050565b6000600154905090565b806000811161028f576040517f08c379a00000000000000000000000000000000000000000000000000000000081526004016102869061128c565b60405180910390fd5b60005481106102d3576040517f08c379a00000000000000000000000000000000000000000000000000000000081526004016102ca906112f8565b60405180910390fd5b600060026000848152602001908152602001600020905080600001547f831e0e8dc3ed954b099430b92578e7986428aea5da8dbbb51bfbddbce460b7af82600101836002018460030185600401866005015487600601548860070160009054906101000a900460ff16600381111561034e5761034d611318565b5b8960070160019054906101000a900473ffffffffffffffffffffffffffffffffffffffff1660405161038798979695949392919061144b565b60405180910390a2505050565b600082116103d7576040517f08c379a00000000000000000000000000000000000000000000000000000000081526004016103ce90611531565b60405180910390fd5b6000811161041a576040517f08c379a00000000000000000000000000000000000000000000000000000000081526004016104119061159d565b60405180910390fd5b600080600081548092919061042e906115ec565b9190505590506040518061012001604052808281526020018881526020018781526020018681526020018581526020018481526020018381526020016000600381111561047e5761047d611318565b5b81526020013373ffffffffffffffffffffffffffffffffffffffff16815250600260008381526020019081526020016000206000820151816000015560208201518160010190805190602001906104d6929190610bff565b5060408201518160020190805190602001906104f3929190610bff565b506060820151816003019080519060200190610510929190610bff565b50608082015181600401908051906020019061052d929190610bff565b5060a0820151816005015560c0820151816006015560e08201518160070160006101000a81548160ff0219169083600381111561056d5761056c611318565b5b02179055506101008201518160070160016101000a81548173ffffffffffffffffffffffffffffffffffffffff021916908373ffffffffffffffffffffffffffffffffffffffff160217905550905050600460003373ffffffffffffffffffffffffffffffffffffffff1673ffffffffffffffffffffffffffffffffffffffff16815260200190815260200160002081908060018154018082558091505060019003906000526020600020016000909190919091505550505050505050565b600060036000848152602001908152602001600020828154811061065357610652611634565b5b9060005260206000209060070201905080600001547fcd3a3f2736fc1d326c90624a647d8290aaa56c1bc81375e79ca971e40da12d65826001015483600201548460030160009054906101000a900460ff1660038111156106b7576106b6611318565b5b856004018660050160009054906101000a900473ffffffffffffffffffffffffffffffffffffffff16876006016040516106f696959493929190611663565b60405180910390a2505050565b6060600460008373ffffffffffffffffffffffffffffffffffffffff1673ffffffffffffffffffffffffffffffffffffffff16815260200190815260200160002080548060200260200160405190810160405280929190818152602001828054801561078e57602002820191906000526020600020905b81548152602001906001019080831161077a575b50505050509050919050565b843373ffffffffffffffffffffffffffffffffffffffff166002600083815260200190815260200160002060070160019054906101000a900473ffffffffffffffffffffffffffffffffffffffff1673ffffffffffffffffffffffffffffffffffffffff161461083f576040517f08c379a000000000000000000000000000000000000000000000000000000000815260040161083690611744565b60405180910390fd5b600060026000888152602001908152602001600020905060008160070160019054906101000a900473ffffffffffffffffffffffffffffffffffffffff1690506108898189610af5565b600460008873ffffffffffffffffffffffffffffffffffffffff1673ffffffffffffffffffffffffffffffffffffffff168152602001908152602001600020889080600181540180825580915050600190039060005260206000200160009091909190915055868260070160016101000a81548173ffffffffffffffffffffffffffffffffffffffff021916908373ffffffffffffffffffffffffffffffffffffffff160217905550858260070160006101000a81548160ff0219169083600381111561095957610958611318565b5b0217905550600060016000815480929190610973906115ec565b919050559050600360008a81526020019081526020016000206040518060e001604052808381526020018b81526020014281526020018960038111156109bc576109bb611318565b5b81526020018881526020018a73ffffffffffffffffffffffffffffffffffffffff16815260200187815250908060018154018082558091505060019003906000526020600020906007020160009091909190915060008201518160000155602082015181600101556040820151816002015560608201518160030160006101000a81548160ff02191690836003811115610a5957610a58611318565b5b02179055506080820151816004019080519060200190610a7a929190610bff565b5060a08201518160050160006101000a81548173ffffffffffffffffffffffffffffffffffffffff021916908373ffffffffffffffffffffffffffffffffffffffff16021790555060c0820151816006019080519060200190610ade929190610bff565b505050505050505050505050565b60008054905090565b6000600460008473ffffffffffffffffffffffffffffffffffffffff1673ffffffffffffffffffffffffffffffffffffffff168152602001908152602001600020905060005b8180549050811015610bf95782828281548110610b5b57610b5a611634565b5b906000526020600020015403610be6578160018380549050610b7d9190611764565b81548110610b8e57610b8d611634565b5b9060005260206000200154828281548110610bac57610bab611634565b5b906000526020600020018190555081805480610bcb57610bca611798565b5b60019003818190600052602060002001600090559055610bf9565b8080610bf1906115ec565b915050610b3b565b50505050565b828054610c0b90611376565b90600052602060002090601f016020900481019282610c2d5760008555610c74565b82601f10610c4657805160ff1916838001178555610c74565b82800160010185558215610c74579182015b82811115610c73578251825591602001919060010190610c58565b5b509050610c819190610c85565b5090565b5b80821115610c9e576000816000905550600101610c86565b5090565b6000604051905090565b600080fd5b600080fd5b6000819050919050565b610cc981610cb6565b8114610cd457600080fd5b50565b600081359050610ce681610cc0565b92915050565b600060208284031215610d0257610d01610cac565b5b6000610d1084828501610cd7565b91505092915050565b610d2281610cb6565b82525050565b6000602082019050610d3d6000830184610d19565b92915050565b600080fd5b600080fd5b6000601f19601f8301169050919050565b7f4e487b7100000000000000000000000000000000000000000000000000000000600052604160045260246000fd5b610d9682610d4d565b810181811067ffffffffffffffff82111715610db557610db4610d5e565b5b80604052505050565b6000610dc8610ca2565b9050610dd48282610d8d565b919050565b600067ffffffffffffffff821115610df457610df3610d5e565b5b610dfd82610d4d565b9050602081019050919050565b82818337600083830152505050565b6000610e2c610e2784610dd9565b610dbe565b905082815260208101848484011115610e4857610e47610d48565b5b610e53848285610e0a565b509392505050565b600082601f830112610e7057610e6f610d43565b5b8135610e80848260208601610e19565b91505092915050565b60008060008060008060c08789031215610ea657610ea5610cac565b5b600087013567ffffffffffffffff811115610ec457610ec3610cb1565b5b610ed089828a01610e5b565b965050602087013567ffffffffffffffff811115610ef157610ef0610cb1565b5b610efd89828a01610e5b565b955050604087013567ffffffffffffffff811115610f1e57610f1d610cb1565b5b610f2a89828a01610e5b565b945050606087013567ffffffffffffffff811115610f4b57610f4a610cb1565b5b610f5789828a01610e5b565b9350506080610f6889828a01610cd7565b92505060a0610f7989828a01610cd7565b9150509295509295509295565b60008060408385031215610f9d57610f9c610cac565b5b6000610fab85828601610cd7565b9250506020610fbc85828601610cd7565b9150509250929050565b600073ffffffffffffffffffffffffffffffffffffffff82169050919050565b6000610ff182610fc6565b9050919050565b61100181610fe6565b811461100c57600080fd5b50565b60008135905061101e81610ff8565b92915050565b60006020828403121561103a57611039610cac565b5b60006110488482850161100f565b91505092915050565b600081519050919050565b600082825260208201905092915050565b6000819050602082019050919050565b61108681610cb6565b82525050565b6000611098838361107d565b60208301905092915050565b6000602082019050919050565b60006110bc82611051565b6110c6818561105c565b93506110d18361106d565b8060005b838110156111025781516110e9888261108c565b97506110f4836110a4565b9250506001810190506110d5565b5085935050505092915050565b6000602082019050818103600083015261112981846110b1565b905092915050565b6004811061113e57600080fd5b50565b60008135905061115081611131565b92915050565b600080600080600060a0868803121561117257611171610cac565b5b600061118088828901610cd7565b95505060206111918882890161100f565b94505060406111a288828901611141565b935050606086013567ffffffffffffffff8111156111c3576111c2610cb1565b5b6111cf88828901610e5b565b925050608086013567ffffffffffffffff8111156111f0576111ef610cb1565b5b6111fc88828901610e5b565b9150509295509295909350565b600082825260208201905092915050565b7f536869706d656e74204944206d7573742062652067726561746572207468616e60008201527f20302e0000000000000000000000000000000000000000000000000000000000602082015250565b6000611276602383611209565b91506112818261121a565b604082019050919050565b600060208201905081810360008301526112a581611269565b9050919050565b7f536869706d656e7420646f6573206e6f742065786973742e0000000000000000600082015250565b60006112e2601883611209565b91506112ed826112ac565b602082019050919050565b60006020820190508181036000830152611311816112d5565b9050919050565b7f4e487b7100000000000000000000000000000000000000000000000000000000600052602160045260246000fd5b7f4e487b7100000000000000000000000000000000000000000000000000000000600052602260045260246000fd5b6000600282049050600182168061138e57607f821691505b6020821081036113a1576113a0611347565b5b50919050565b60008190508160005260206000209050919050565b600081546113c981611376565b6113d38186611209565b945060018216600081146113ee576001811461140057611433565b60ff1983168652602086019350611433565b611409856113a7565b60005b8381101561142b5781548189015260018201915060208101905061140c565b808801955050505b50505092915050565b61144581610fe6565b82525050565b6000610100820190508181036000830152611466818b6113bc565b9050818103602083015261147a818a6113bc565b9050818103604083015261148e81896113bc565b905081810360608301526114a281886113bc565b90506114b16080830187610d19565b6114be60a0830186610d19565b6114cb60c0830185610d19565b6114d860e083018461143c565b9998505050505050505050565b7f556e697473206d7573742062652067726561746572207468616e20302e000000600082015250565b600061151b601d83611209565b9150611526826114e5565b602082019050919050565b6000602082019050818103600083015261154a8161150e565b9050919050565b7f576569676874206d7573742062652067726561746572207468616e20302e0000600082015250565b6000611587601e83611209565b915061159282611551565b602082019050919050565b600060208201905081810360008301526115b68161157a565b9050919050565b7f4e487b7100000000000000000000000000000000000000000000000000000000600052601160045260246000fd5b60006115f782610cb6565b91507fffffffffffffffffffffffffffffffffffffffffffffffffffffffffffffffff8203611629576116286115bd565b5b600182019050919050565b7f4e487b7100000000000000000000000000000000000000000000000000000000600052603260045260246000fd5b600060c0820190506116786000830189610d19565b6116856020830188610d19565b6116926040830187610d19565b81810360608301526116a481866113bc565b90506116b3608083018561143c565b81810360a08301526116c581846113bc565b9050979650505050505050565b7f4f6e6c79207468652063757272656e74206f776e65722063616e20706572666f60008201527f726d207468697320616374696f6e2e0000000000000000000000000000000000602082015250565b600061172e602f83611209565b9150611739826116d2565b604082019050919050565b6000602082019050818103600083015261175d81611721565b9050919050565b600061176f82610cb6565b915061177a83610cb6565b92508282101561178d5761178c6115bd565b5b828203905092915050565b7f4e487b7100000000000000000000000000000000000000000000000000000000600052603160045260246000fdfea26469706673582212201418fe2e629da67f9295c97e03f98be1b11ffbf2549f758d59a019dc75fc333064736f6c634300080d0033",
  "immutableReferences": {},
  "source": "// SPDX-License-Identifier: MIT\r\npragma solidity ^0.8.0;\r\n\r\ncontract ShipmentManagement {\r\n    enum State { CREATED, IN_TRANSIT, STORED, DELIVERED }\r\n\r\n    struct Shipment {\r\n        uint256 id;\r\n        string name;\r\n        string description;\r\n        string origin;\r\n        string destination;\r\n        uint256 units;\r\n        uint256 weight;\r\n        State currentState;\r\n        address currentOwner;\r\n    }\r\n\r\n    struct Transfer {\r\n        uint256 id;\r\n        uint256 shipmentId;\r\n        uint256 timestamp;\r\n        State newState;\r\n        string location;\r\n        address newShipmentOwner;\r\n        string transferNotes;\r\n    }\r\n\r\n    event ShipmentRetrieved(\r\n        uint256 indexed id,\r\n        string name,\r\n        string description,\r\n        string origin,\r\n        string destination,\r\n        uint256 units,\r\n        uint256 weight,\r\n        uint256 currentState,\r\n        address currentOwner\r\n    );\r\n\r\n    event TransferRetrieved(\r\n        uint256 indexed id,\r\n        uint256 shipmentId,\r\n        uint256 timestamp,\r\n        uint256 newState,\r\n        string location,\r\n        address newShipmentOwner,\r\n        string transferNotes\r\n    );\r\n\r\n    uint256 private nextShipmentId = 1;\r\n    uint256 private nextTransferId = 1;\r\n\r\n    mapping(uint256 => Shipment) private shipments;\r\n    mapping(uint256 => Transfer[]) private transfersByShipment;\r\n    mapping(address => uint256[]) shipmentsByOwner;\r\n\r\n    modifier onlyOwner(uint256 shipmentId) {\r\n        require(shipments[shipmentId].currentOwner == msg.sender, \"Only the current owner can perform this action.\");\r\n        _;\r\n    }\r\n\r\n    modifier exists(uint256 shipmentId) {\r\n        require(shipmentId > 0, \"Shipment ID must be greater than 0.\");\r\n        require(shipmentId < nextShipmentId, \"Shipment does not exist.\");\r\n        _;\r\n    }\r\n\r\n\r\n    function createShipment(\r\n        string memory productName,\r\n        string memory description,\r\n        string memory origin,\r\n        string memory destination,\r\n        uint256 units,\r\n        uint256 weight\r\n    ) public {\r\n        require(units > 0, \"Units must be greater than 0.\");\r\n        require(weight > 0, \"Weight must be greater than 0.\");\r\n        \r\n        uint256 shipmentId = nextShipmentId++;\r\n        shipments[shipmentId] = Shipment({\r\n            id: shipmentId,\r\n            name: productName,\r\n            description: description,\r\n            origin: origin,\r\n            destination: destination,\r\n            units: units,\r\n            weight: weight,\r\n            currentState: State.CREATED,\r\n            currentOwner: msg.sender\r\n        });\r\n\r\n        shipmentsByOwner[msg.sender].push(shipmentId);\r\n    }\r\n\r\n    function shipmentTransfer(\r\n        uint256 shipmentId,\r\n        address newShipmentOwner,\r\n        State newState,\r\n        string memory location,\r\n        string memory transferNotes\r\n    ) public onlyOwner(shipmentId) {\r\n        Shipment storage shipment = shipments[shipmentId];\r\n        address previousOwner = shipment.currentOwner;\r\n\r\n        removeShipmentFromOwner(previousOwner, shipmentId);\r\n        shipmentsByOwner[newShipmentOwner].push(shipmentId);\r\n\r\n        shipment.currentOwner = newShipmentOwner;\r\n        shipment.currentState = newState;\r\n\r\n        uint256 transferId = nextTransferId++;\r\n        transfersByShipment[shipmentId].push(Transfer({\r\n            id: transferId,\r\n            shipmentId: shipmentId,\r\n            timestamp: block.timestamp,\r\n            newState: newState,\r\n            location: location,\r\n            newShipmentOwner: newShipmentOwner,\r\n            transferNotes: transferNotes\r\n        }));\r\n    }\r\n\r\n    function removeShipmentFromOwner(address owner, uint256 shipmentId) private {\r\n        uint256[] storage ids = shipmentsByOwner[owner];\r\n\r\n        for (uint256 i = 0; i < ids.length; i++) {\r\n            if (ids[i] == shipmentId) {\r\n                ids[i] = ids[ids.length - 1];\r\n                ids.pop();\r\n                break;\r\n            }\r\n        }\r\n    }\r\n\r\n    function getShipment(uint256 shipmentId) public exists(shipmentId){    \r\n        \r\n        Shipment storage shipment = shipments[shipmentId];\r\n\r\n        emit ShipmentRetrieved(\r\n            shipment.id,\r\n            shipment.name,\r\n            shipment.description,\r\n            shipment.origin,\r\n            shipment.destination,\r\n            shipment.units,\r\n            shipment.weight,\r\n            uint256(shipment.currentState),\r\n            shipment.currentOwner\r\n        );\r\n    }\r\n\r\n    function getTransferByIndex(uint256 shipmentId, uint256 index) public {\r\n        Transfer storage transfer = transfersByShipment[shipmentId][index];\r\n\r\n        emit TransferRetrieved(\r\n            transfer.id,\r\n            transfer.shipmentId,\r\n            transfer.timestamp,\r\n            uint256(transfer.newState),\r\n            transfer.location,\r\n            transfer.newShipmentOwner,\r\n            transfer.transferNotes\r\n        );\r\n    }\r\n\r\n    function getTransferCount(uint256 shipmentId) public exists(shipmentId) view returns (uint256) {\r\n        return transfersByShipment[shipmentId].length;\r\n    }\r\n\r\n    function getShipmentsByOwner(address owner) public view returns (uint256[] memory) {\r\n        return shipmentsByOwner[owner];\r\n    }\r\n\r\n    function getNextShipmentId() public view returns (uint256) {\r\n        return nextShipmentId;\r\n    }\r\n\r\n    function getNextTransferId() public view returns (uint256) {\r\n        return nextTransferId;\r\n    }\r\n}\r\n",
  "sourcePath": "C:\\Users\\Usuario\\OneDrive\\Documentos\\GitHub\\blocked-supply\\blocked-supply-truffle\\contracts\\ShipmentManagement.sol",
  "compiler": {
    "name": "solc",
    "version": "0.8.13+commit.abaa5c0e.Emscripten.clang"
  },
  "schemaVersion": "3.4.16",
  "updatedAt": "2025-03-06T20:18:15.249Z",
  "devdoc": {
    "kind": "dev",
    "methods": {},
    "version": 1
  },
  "userdoc": {
    "kind": "user",
    "methods": {},
    "version": 1
  }
}