{
  "contractName": "ShipmentManagement",
  "abi": [
    {
      "anonymous": false,
      "inputs": [
        {
          "indexed": true,
          "internalType": "uint256",
          "name": "id",
          "type": "uint256"
        },
        {
          "indexed": false,
          "internalType": "address",
          "name": "currentOwner",
          "type": "address"
        }
      ],
      "name": "ShipmentCreated",
      "type": "event"
    },
    {
      "anonymous": false,
      "inputs": [
        {
          "indexed": true,
          "internalType": "uint256",
          "name": "id",
          "type": "uint256"
        },
        {
          "indexed": false,
          "internalType": "string",
          "name": "name",
          "type": "string"
        },
        {
          "indexed": false,
          "internalType": "string",
          "name": "description",
          "type": "string"
        },
        {
          "indexed": false,
          "internalType": "string",
          "name": "origin",
          "type": "string"
        },
        {
          "indexed": false,
          "internalType": "string",
          "name": "destination",
          "type": "string"
        },
        {
          "indexed": false,
          "internalType": "uint256",
          "name": "units",
          "type": "uint256"
        },
        {
          "indexed": false,
          "internalType": "uint256",
          "name": "weight",
          "type": "uint256"
        },
        {
          "indexed": false,
          "internalType": "uint256",
          "name": "currentState",
          "type": "uint256"
        },
        {
          "indexed": false,
          "internalType": "address",
          "name": "currentOwner",
          "type": "address"
        }
      ],
      "name": "ShipmentRetrieved",
      "type": "event"
    },
    {
      "anonymous": false,
      "inputs": [
        {
          "indexed": false,
          "internalType": "uint256",
          "name": "shipmentId",
          "type": "uint256"
        },
        {
          "indexed": false,
          "internalType": "uint256",
          "name": "newState",
          "type": "uint256"
        }
      ],
      "name": "TransferCreated",
      "type": "event"
    },
    {
      "anonymous": false,
      "inputs": [
        {
          "indexed": true,
          "internalType": "uint256",
          "name": "id",
          "type": "uint256"
        },
        {
          "indexed": false,
          "internalType": "uint256",
          "name": "shipmentId",
          "type": "uint256"
        },
        {
          "indexed": false,
          "internalType": "uint256",
          "name": "timestamp",
          "type": "uint256"
        },
        {
          "indexed": false,
          "internalType": "uint256",
          "name": "newState",
          "type": "uint256"
        },
        {
          "indexed": false,
          "internalType": "string",
          "name": "location",
          "type": "string"
        },
        {
          "indexed": false,
          "internalType": "address",
          "name": "newShipmentOwner",
          "type": "address"
        },
        {
          "indexed": false,
          "internalType": "string",
          "name": "transferNotes",
          "type": "string"
        }
      ],
      "name": "TransferRetrieved",
      "type": "event"
    },
    {
      "inputs": [
        {
          "internalType": "string",
          "name": "productName",
          "type": "string"
        },
        {
          "internalType": "string",
          "name": "description",
          "type": "string"
        },
        {
          "internalType": "string",
          "name": "origin",
          "type": "string"
        },
        {
          "internalType": "string",
          "name": "destination",
          "type": "string"
        },
        {
          "internalType": "uint256",
          "name": "units",
          "type": "uint256"
        },
        {
          "internalType": "uint256",
          "name": "weight",
          "type": "uint256"
        }
      ],
      "name": "createShipment",
      "outputs": [],
      "stateMutability": "nonpayable",
      "type": "function"
    },
    {
      "inputs": [
        {
          "internalType": "uint256",
          "name": "shipmentId",
          "type": "uint256"
        },
        {
          "internalType": "address",
          "name": "newShipmentOwner",
          "type": "address"
        },
        {
          "internalType": "enum ShipmentManagement.State",
          "name": "newState",
          "type": "uint8"
        },
        {
          "internalType": "string",
          "name": "location",
          "type": "string"
        },
        {
          "internalType": "string",
          "name": "transferNotes",
          "type": "string"
        }
      ],
      "name": "shipmentTransfer",
      "outputs": [],
      "stateMutability": "nonpayable",
      "type": "function"
    },
    {
      "inputs": [
        {
          "internalType": "uint256",
          "name": "shipmentId",
          "type": "uint256"
        }
      ],
      "name": "getShipment",
      "outputs": [],
      "stateMutability": "nonpayable",
      "type": "function"
    },
    {
      "inputs": [
        {
          "internalType": "uint256",
          "name": "shipmentId",
          "type": "uint256"
        },
        {
          "internalType": "uint256",
          "name": "index",
          "type": "uint256"
        }
      ],
      "name": "getTransferByIndex",
      "outputs": [],
      "stateMutability": "nonpayable",
      "type": "function"
    },
    {
      "inputs": [
        {
          "internalType": "uint256",
          "name": "shipmentId",
          "type": "uint256"
        }
      ],
      "name": "getTransferCount",
      "outputs": [
        {
          "internalType": "uint256",
          "name": "",
          "type": "uint256"
        }
      ],
      "stateMutability": "view",
      "type": "function"
    },
    {
      "inputs": [
        {
          "internalType": "address",
          "name": "owner",
          "type": "address"
        }
      ],
      "name": "getShipmentsByOwner",
      "outputs": [
        {
          "internalType": "uint256[]",
          "name": "",
          "type": "uint256[]"
        }
      ],
      "stateMutability": "view",
      "type": "function"
    },
    {
      "inputs": [],
      "name": "getNextShipmentId",
      "outputs": [
        {
          "internalType": "uint256",
          "name": "",
          "type": "uint256"
        }
      ],
      "stateMutability": "view",
      "type": "function"
    },
    {
      "inputs": [],
      "name": "getNextTransferId",
      "outputs": [
        {
          "internalType": "uint256",
          "name": "",
          "type": "uint256"
        }
      ],
      "stateMutability": "view",
      "type": "function"
    }
  ],
  "bytecode": "0x608060405260016000556001805534801561001957600080fd5b506118c4806100296000396000f3fe608060405234801561001057600080fd5b50600436106100875760003560e01c806398facc3b1161005b57806398facc3b146101125780639eb685911461012e578063a896fe451461015e578063b465a0f21461017a57610087565b80623a4a0f1461008c57806304758111146100bc578063092b3740146100da5780633fd18506146100f6575b600080fd5b6100a660048036038101906100a19190610d6f565b610198565b6040516100b39190610dab565b60405180910390f35b6100c4610241565b6040516100d19190610dab565b60405180910390f35b6100f460048036038101906100ef9190610d6f565b61024b565b005b610110600480360381019061010b9190610f0c565b610394565b005b61012c60048036038101906101279190611009565b610664565b005b610148600480360381019061014391906110a7565b61073b565b6040516101559190611192565b60405180910390f35b610178600480360381019061017391906111d9565b6107d2565b005b610182610b6f565b60405161018f9190610dab565b60405180910390f35b600081600081116101de576040517f08c379a00000000000000000000000000000000000000000000000000000000081526004016101d59061130f565b60405180910390fd5b6000548110610222576040517f08c379a00000000000000000000000000000000000000000000000000000000081526004016102199061137b565b60405180910390fd5b6003600084815260200190815260200160002080549050915050919050565b6000600154905090565b806000811161028f576040517f08c379a00000000000000000000000000000000000000000000000000000000081526004016102869061130f565b60405180910390fd5b60005481106102d3576040517f08c379a00000000000000000000000000000000000000000000000000000000081526004016102ca9061137b565b60405180910390fd5b600060026000848152602001908152602001600020905080600001547f831e0e8dc3ed954b099430b92578e7986428aea5da8dbbb51bfbddbce460b7af82600101836002018460030185600401866005015487600601548860070160009054906101000a900460ff16600381111561034e5761034d61139b565b5b8960070160019054906101000a900473ffffffffffffffffffffffffffffffffffffffff166040516103879897969594939291906114ce565b60405180910390a2505050565b600082116103d7576040517f08c379a00000000000000000000000000000000000000000000000000000000081526004016103ce906115b4565b60405180910390fd5b6000811161041a576040517f08c379a000000000000000000000000000000000000000000000000000000000815260040161041190611620565b60405180910390fd5b600080600081548092919061042e9061166f565b9190505590506040518061012001604052808281526020018881526020018781526020018681526020018581526020018481526020018381526020016000600381111561047e5761047d61139b565b5b81526020013373ffffffffffffffffffffffffffffffffffffffff16815250600260008381526020019081526020016000206000820151816000015560208201518160010190805190602001906104d6929190610c82565b5060408201518160020190805190602001906104f3929190610c82565b506060820151816003019080519060200190610510929190610c82565b50608082015181600401908051906020019061052d929190610c82565b5060a0820151816005015560c0820151816006015560e08201518160070160006101000a81548160ff0219169083600381111561056d5761056c61139b565b5b02179055506101008201518160070160016101000a81548173ffffffffffffffffffffffffffffffffffffffff021916908373ffffffffffffffffffffffffffffffffffffffff160217905550905050600460003373ffffffffffffffffffffffffffffffffffffffff1673ffffffffffffffffffffffffffffffffffffffff168152602001908152602001600020819080600181540180825580915050600190039060005260206000200160009091909190915055807fe0f5cc97a7413c8504a43a017dde74af4822f66c59d6014c80548654138bc7363360405161065391906116b7565b60405180910390a250505050505050565b600060036000848152602001908152602001600020828154811061068b5761068a6116d2565b5b9060005260206000209060070201905080600001547fcd3a3f2736fc1d326c90624a647d8290aaa56c1bc81375e79ca971e40da12d65826001015483600201548460030160009054906101000a900460ff1660038111156106ef576106ee61139b565b5b856004018660050160009054906101000a900473ffffffffffffffffffffffffffffffffffffffff168760060160405161072e96959493929190611701565b60405180910390a2505050565b6060600460008373ffffffffffffffffffffffffffffffffffffffff1673ffffffffffffffffffffffffffffffffffffffff1681526020019081526020016000208054806020026020016040519081016040528092919081815260200182805480156107c657602002820191906000526020600020905b8154815260200190600101908083116107b2575b50505050509050919050565b843373ffffffffffffffffffffffffffffffffffffffff166002600083815260200190815260200160002060070160019054906101000a900473ffffffffffffffffffffffffffffffffffffffff1673ffffffffffffffffffffffffffffffffffffffff1614610877576040517f08c379a000000000000000000000000000000000000000000000000000000000815260040161086e906117e2565b60405180910390fd5b600060026000888152602001908152602001600020905060008160070160019054906101000a900473ffffffffffffffffffffffffffffffffffffffff1690506108c18189610b78565b600460008873ffffffffffffffffffffffffffffffffffffffff1673ffffffffffffffffffffffffffffffffffffffff168152602001908152602001600020889080600181540180825580915050600190039060005260206000200160009091909190915055868260070160016101000a81548173ffffffffffffffffffffffffffffffffffffffff021916908373ffffffffffffffffffffffffffffffffffffffff160217905550858260070160006101000a81548160ff021916908360038111156109915761099061139b565b5b02179055506000600160008154809291906109ab9061166f565b919050559050600360008a81526020019081526020016000206040518060e001604052808381526020018b81526020014281526020018960038111156109f4576109f361139b565b5b81526020018881526020018a73ffffffffffffffffffffffffffffffffffffffff16815260200187815250908060018154018082558091505060019003906000526020600020906007020160009091909190915060008201518160000155602082015181600101556040820151816002015560608201518160030160006101000a81548160ff02191690836003811115610a9157610a9061139b565b5b02179055506080820151816004019080519060200190610ab2929190610c82565b5060a08201518160050160006101000a81548173ffffffffffffffffffffffffffffffffffffffff021916908373ffffffffffffffffffffffffffffffffffffffff16021790555060c0820151816006019080519060200190610b16929190610c82565b5050507f8b787dd444d18433253cf8599645cbb4fe62e7cf6fa82ce67ab60f56ac39577089886003811115610b4e57610b4d61139b565b5b604051610b5c929190611802565b60405180910390a1505050505050505050565b60008054905090565b6000600460008473ffffffffffffffffffffffffffffffffffffffff1673ffffffffffffffffffffffffffffffffffffffff168152602001908152602001600020905060005b8180549050811015610c7c5782828281548110610bde57610bdd6116d2565b5b906000526020600020015403610c69578160018380549050610c00919061182b565b81548110610c1157610c106116d2565b5b9060005260206000200154828281548110610c2f57610c2e6116d2565b5b906000526020600020018190555081805480610c4e57610c4d61185f565b5b60019003818190600052602060002001600090559055610c7c565b8080610c749061166f565b915050610bbe565b50505050565b828054610c8e906113f9565b90600052602060002090601f016020900481019282610cb05760008555610cf7565b82601f10610cc957805160ff1916838001178555610cf7565b82800160010185558215610cf7579182015b82811115610cf6578251825591602001919060010190610cdb565b5b509050610d049190610d08565b5090565b5b80821115610d21576000816000905550600101610d09565b5090565b6000604051905090565b600080fd5b600080fd5b6000819050919050565b610d4c81610d39565b8114610d5757600080fd5b50565b600081359050610d6981610d43565b92915050565b600060208284031215610d8557610d84610d2f565b5b6000610d9384828501610d5a565b91505092915050565b610da581610d39565b82525050565b6000602082019050610dc06000830184610d9c565b92915050565b600080fd5b600080fd5b6000601f19601f8301169050919050565b7f4e487b7100000000000000000000000000000000000000000000000000000000600052604160045260246000fd5b610e1982610dd0565b810181811067ffffffffffffffff82111715610e3857610e37610de1565b5b80604052505050565b6000610e4b610d25565b9050610e578282610e10565b919050565b600067ffffffffffffffff821115610e7757610e76610de1565b5b610e8082610dd0565b9050602081019050919050565b82818337600083830152505050565b6000610eaf610eaa84610e5c565b610e41565b905082815260208101848484011115610ecb57610eca610dcb565b5b610ed6848285610e8d565b509392505050565b600082601f830112610ef357610ef2610dc6565b5b8135610f03848260208601610e9c565b91505092915050565b60008060008060008060c08789031215610f2957610f28610d2f565b5b600087013567ffffffffffffffff811115610f4757610f46610d34565b5b610f5389828a01610ede565b965050602087013567ffffffffffffffff811115610f7457610f73610d34565b5b610f8089828a01610ede565b955050604087013567ffffffffffffffff811115610fa157610fa0610d34565b5b610fad89828a01610ede565b945050606087013567ffffffffffffffff811115610fce57610fcd610d34565b5b610fda89828a01610ede565b9350506080610feb89828a01610d5a565b92505060a0610ffc89828a01610d5a565b9150509295509295509295565b600080604083850312156110205761101f610d2f565b5b600061102e85828601610d5a565b925050602061103f85828601610d5a565b9150509250929050565b600073ffffffffffffffffffffffffffffffffffffffff82169050919050565b600061107482611049565b9050919050565b61108481611069565b811461108f57600080fd5b50565b6000813590506110a18161107b565b92915050565b6000602082840312156110bd576110bc610d2f565b5b60006110cb84828501611092565b91505092915050565b600081519050919050565b600082825260208201905092915050565b6000819050602082019050919050565b61110981610d39565b82525050565b600061111b8383611100565b60208301905092915050565b6000602082019050919050565b600061113f826110d4565b61114981856110df565b9350611154836110f0565b8060005b8381101561118557815161116c888261110f565b975061117783611127565b925050600181019050611158565b5085935050505092915050565b600060208201905081810360008301526111ac8184611134565b905092915050565b600481106111c157600080fd5b50565b6000813590506111d3816111b4565b92915050565b600080600080600060a086880312156111f5576111f4610d2f565b5b600061120388828901610d5a565b955050602061121488828901611092565b9450506040611225888289016111c4565b935050606086013567ffffffffffffffff81111561124657611245610d34565b5b61125288828901610ede565b925050608086013567ffffffffffffffff81111561127357611272610d34565b5b61127f88828901610ede565b9150509295509295909350565b600082825260208201905092915050565b7f536869706d656e74204944206d7573742062652067726561746572207468616e60008201527f20302e0000000000000000000000000000000000000000000000000000000000602082015250565b60006112f960238361128c565b91506113048261129d565b604082019050919050565b60006020820190508181036000830152611328816112ec565b9050919050565b7f536869706d656e7420646f6573206e6f742065786973742e0000000000000000600082015250565b600061136560188361128c565b91506113708261132f565b602082019050919050565b6000602082019050818103600083015261139481611358565b9050919050565b7f4e487b7100000000000000000000000000000000000000000000000000000000600052602160045260246000fd5b7f4e487b7100000000000000000000000000000000000000000000000000000000600052602260045260246000fd5b6000600282049050600182168061141157607f821691505b602082108103611424576114236113ca565b5b50919050565b60008190508160005260206000209050919050565b6000815461144c816113f9565b611456818661128c565b945060018216600081146114715760018114611483576114b6565b60ff19831686526020860193506114b6565b61148c8561142a565b60005b838110156114ae5781548189015260018201915060208101905061148f565b808801955050505b50505092915050565b6114c881611069565b82525050565b60006101008201905081810360008301526114e9818b61143f565b905081810360208301526114fd818a61143f565b90508181036040830152611511818961143f565b90508181036060830152611525818861143f565b90506115346080830187610d9c565b61154160a0830186610d9c565b61154e60c0830185610d9c565b61155b60e08301846114bf565b9998505050505050505050565b7f556e697473206d7573742062652067726561746572207468616e20302e000000600082015250565b600061159e601d8361128c565b91506115a982611568565b602082019050919050565b600060208201905081810360008301526115cd81611591565b9050919050565b7f576569676874206d7573742062652067726561746572207468616e20302e0000600082015250565b600061160a601e8361128c565b9150611615826115d4565b602082019050919050565b60006020820190508181036000830152611639816115fd565b9050919050565b7f4e487b7100000000000000000000000000000000000000000000000000000000600052601160045260246000fd5b600061167a82610d39565b91507fffffffffffffffffffffffffffffffffffffffffffffffffffffffffffffffff82036116ac576116ab611640565b5b600182019050919050565b60006020820190506116cc60008301846114bf565b92915050565b7f4e487b7100000000000000000000000000000000000000000000000000000000600052603260045260246000fd5b600060c0820190506117166000830189610d9c565b6117236020830188610d9c565b6117306040830187610d9c565b8181036060830152611742818661143f565b905061175160808301856114bf565b81810360a0830152611763818461143f565b9050979650505050505050565b7f4f6e6c79207468652063757272656e74206f776e65722063616e20706572666f60008201527f726d207468697320616374696f6e2e0000000000000000000000000000000000602082015250565b60006117cc602f8361128c565b91506117d782611770565b604082019050919050565b600060208201905081810360008301526117fb816117bf565b9050919050565b60006040820190506118176000830185610d9c565b6118246020830184610d9c565b9392505050565b600061183682610d39565b915061184183610d39565b92508282101561185457611853611640565b5b828203905092915050565b7f4e487b7100000000000000000000000000000000000000000000000000000000600052603160045260246000fdfea2646970667358221220cc96accef750003cf113864a73049f5d61bee56dae4699c46808d56809ba01ca64736f6c634300080d0033",
  "immutableReferences": {},
  "source": "// SPDX-License-Identifier: MIT\r\npragma solidity ^0.8.0;\r\n\r\ncontract ShipmentManagement {\r\n    enum State { CREATED, IN_TRANSIT, STORED, DELIVERED }\r\n\r\n    struct Shipment {\r\n        uint256 id;\r\n        string name;\r\n        string description;\r\n        string origin;\r\n        string destination;\r\n        uint256 units;\r\n        uint256 weight;\r\n        State currentState;\r\n        address currentOwner;\r\n    }\r\n\r\n    struct Transfer {\r\n        uint256 id;\r\n        uint256 shipmentId;\r\n        uint256 timestamp;\r\n        State newState;\r\n        string location;\r\n        address newShipmentOwner;\r\n        string transferNotes;\r\n    }\r\n\r\n    event ShipmentCreated(\r\n        uint256 indexed id,\r\n        address currentOwner\r\n    );\r\n\r\n    event TransferCreated(\r\n        uint256 shipmentId,\r\n        uint256 newState\r\n    );\r\n\r\n    event ShipmentRetrieved(\r\n        uint256 indexed id,\r\n        string name,\r\n        string description,\r\n        string origin,\r\n        string destination,\r\n        uint256 units,\r\n        uint256 weight,\r\n        uint256 currentState,\r\n        address currentOwner\r\n    );\r\n\r\n    event TransferRetrieved(\r\n        uint256 indexed id,\r\n        uint256 shipmentId,\r\n        uint256 timestamp,\r\n        uint256 newState,\r\n        string location,\r\n        address newShipmentOwner,\r\n        string transferNotes\r\n    );\r\n\r\n    uint256 private nextShipmentId = 1;\r\n    uint256 private nextTransferId = 1;\r\n\r\n    mapping(uint256 => Shipment) private shipments;\r\n    mapping(uint256 => Transfer[]) private transfersByShipment;\r\n    mapping(address => uint256[]) shipmentsByOwner;\r\n\r\n    modifier onlyOwner(uint256 shipmentId) {\r\n        require(shipments[shipmentId].currentOwner == msg.sender, \"Only the current owner can perform this action.\");\r\n        _;\r\n    }\r\n\r\n    modifier exists(uint256 shipmentId) {\r\n        require(shipmentId > 0, \"Shipment ID must be greater than 0.\");\r\n        require(shipmentId < nextShipmentId, \"Shipment does not exist.\");\r\n        _;\r\n    }\r\n\r\n\r\n    function createShipment(\r\n        string memory productName,\r\n        string memory description,\r\n        string memory origin,\r\n        string memory destination,\r\n        uint256 units,\r\n        uint256 weight\r\n    ) public {\r\n        require(units > 0, \"Units must be greater than 0.\");\r\n        require(weight > 0, \"Weight must be greater than 0.\");\r\n        \r\n        uint256 shipmentId = nextShipmentId++;\r\n        shipments[shipmentId] = Shipment({\r\n            id: shipmentId,\r\n            name: productName,\r\n            description: description,\r\n            origin: origin,\r\n            destination: destination,\r\n            units: units,\r\n            weight: weight,\r\n            currentState: State.CREATED,\r\n            currentOwner: msg.sender\r\n        });\r\n\r\n        shipmentsByOwner[msg.sender].push(shipmentId);\r\n\r\n        emit ShipmentCreated(shipmentId, msg.sender);\r\n    }\r\n\r\n    function shipmentTransfer(\r\n        uint256 shipmentId,\r\n        address newShipmentOwner,\r\n        State newState,\r\n        string memory location,\r\n        string memory transferNotes\r\n    ) public onlyOwner(shipmentId) {\r\n        Shipment storage shipment = shipments[shipmentId];\r\n        address previousOwner = shipment.currentOwner;\r\n\r\n        removeShipmentFromOwner(previousOwner, shipmentId);\r\n        shipmentsByOwner[newShipmentOwner].push(shipmentId);\r\n\r\n        shipment.currentOwner = newShipmentOwner;\r\n        shipment.currentState = newState;\r\n\r\n        uint256 transferId = nextTransferId++;\r\n        transfersByShipment[shipmentId].push(Transfer({\r\n            id: transferId,\r\n            shipmentId: shipmentId,\r\n            timestamp: block.timestamp,\r\n            newState: newState,\r\n            location: location,\r\n            newShipmentOwner: newShipmentOwner,\r\n            transferNotes: transferNotes\r\n        }));\r\n\r\n        emit TransferCreated(shipmentId, uint256(newState));\r\n    }\r\n\r\n    function removeShipmentFromOwner(address owner, uint256 shipmentId) private {\r\n        uint256[] storage ids = shipmentsByOwner[owner];\r\n\r\n        for (uint256 i = 0; i < ids.length; i++) {\r\n            if (ids[i] == shipmentId) {\r\n                ids[i] = ids[ids.length - 1];\r\n                ids.pop();\r\n                break;\r\n            }\r\n        }\r\n    }\r\n\r\n    function getShipment(uint256 shipmentId) public exists(shipmentId){    \r\n        \r\n        Shipment storage shipment = shipments[shipmentId];\r\n\r\n        emit ShipmentRetrieved(\r\n            shipment.id,\r\n            shipment.name,\r\n            shipment.description,\r\n            shipment.origin,\r\n            shipment.destination,\r\n            shipment.units,\r\n            shipment.weight,\r\n            uint256(shipment.currentState),\r\n            shipment.currentOwner\r\n        );\r\n    }\r\n\r\n    function getTransferByIndex(uint256 shipmentId, uint256 index) public {\r\n        Transfer storage transfer = transfersByShipment[shipmentId][index];\r\n\r\n        emit TransferRetrieved(\r\n            transfer.id,\r\n            transfer.shipmentId,\r\n            transfer.timestamp,\r\n            uint256(transfer.newState),\r\n            transfer.location,\r\n            transfer.newShipmentOwner,\r\n            transfer.transferNotes\r\n        );\r\n    }\r\n\r\n    function getTransferCount(uint256 shipmentId) public exists(shipmentId) view returns (uint256) {\r\n        return transfersByShipment[shipmentId].length;\r\n    }\r\n\r\n    function getShipmentsByOwner(address owner) public view returns (uint256[] memory) {\r\n        return shipmentsByOwner[owner];\r\n    }\r\n\r\n    function getNextShipmentId() public view returns (uint256) {\r\n        return nextShipmentId;\r\n    }\r\n\r\n    function getNextTransferId() public view returns (uint256) {\r\n        return nextTransferId;\r\n    }\r\n}\r\n",
  "sourcePath": "C:\\Users\\Usuario\\OneDrive\\Documentos\\GitHub\\blocked-supply\\blocked-supply-truffle\\contracts\\ShipmentManagement.sol",
  "compiler": {
    "name": "solc",
    "version": "0.8.13+commit.abaa5c0e.Emscripten.clang"
  },
  "schemaVersion": "3.4.16",
  "updatedAt": "2025-03-08T00:12:04.162Z",
  "devdoc": {
    "kind": "dev",
    "methods": {},
    "version": 1
  },
  "userdoc": {
    "kind": "user",
    "methods": {},
    "version": 1
  }
}