{
  "contractName": "ShipmentManagement",
  "abi": [
    {
      "anonymous": false,
      "inputs": [
        {
          "indexed": false,
          "internalType": "uint256",
          "name": "shipmentId",
          "type": "uint256"
        },
        {
          "indexed": false,
          "internalType": "string",
          "name": "productName",
          "type": "string"
        },
        {
          "indexed": true,
          "internalType": "address",
          "name": "owner",
          "type": "address"
        }
      ],
      "name": "ShipmentCreated",
      "type": "event"
    },
    {
      "anonymous": false,
      "inputs": [
        {
          "indexed": false,
          "internalType": "uint256",
          "name": "shipmentId",
          "type": "uint256"
        },
        {
          "indexed": true,
          "internalType": "address",
          "name": "previousOwner",
          "type": "address"
        },
        {
          "indexed": true,
          "internalType": "address",
          "name": "newShipmentOwner",
          "type": "address"
        },
        {
          "indexed": false,
          "internalType": "enum ShipmentManagement.ShipmentState",
          "name": "newState",
          "type": "uint8"
        }
      ],
      "name": "ShipmentTransfer",
      "type": "event"
    },
    {
      "anonymous": false,
      "inputs": [
        {
          "indexed": true,
          "internalType": "address",
          "name": "userAddress",
          "type": "address"
        },
        {
          "indexed": false,
          "internalType": "string",
          "name": "name",
          "type": "string"
        },
        {
          "indexed": false,
          "internalType": "string[]",
          "name": "roles",
          "type": "string[]"
        }
      ],
      "name": "UserRegistered",
      "type": "event"
    },
    {
      "inputs": [
        {
          "internalType": "string",
          "name": "name",
          "type": "string"
        },
        {
          "internalType": "string[]",
          "name": "roles",
          "type": "string[]"
        },
        {
          "internalType": "string",
          "name": "email",
          "type": "string"
        }
      ],
      "name": "registerUser",
      "outputs": [],
      "stateMutability": "nonpayable",
      "type": "function"
    },
    {
      "inputs": [
        {
          "internalType": "string",
          "name": "productName",
          "type": "string"
        },
        {
          "internalType": "string",
          "name": "description",
          "type": "string"
        },
        {
          "internalType": "string",
          "name": "origin",
          "type": "string"
        },
        {
          "internalType": "string",
          "name": "destination",
          "type": "string"
        },
        {
          "internalType": "uint256",
          "name": "units",
          "type": "uint256"
        },
        {
          "internalType": "uint256",
          "name": "weight",
          "type": "uint256"
        }
      ],
      "name": "createShipment",
      "outputs": [],
      "stateMutability": "nonpayable",
      "type": "function"
    },
    {
      "inputs": [
        {
          "internalType": "uint256",
          "name": "shipmentId",
          "type": "uint256"
        },
        {
          "internalType": "address",
          "name": "newShipmentOwner",
          "type": "address"
        },
        {
          "internalType": "enum ShipmentManagement.ShipmentState",
          "name": "newState",
          "type": "uint8"
        },
        {
          "internalType": "string",
          "name": "transferNotes",
          "type": "string"
        }
      ],
      "name": "shipmentTransfer",
      "outputs": [],
      "stateMutability": "nonpayable",
      "type": "function"
    },
    {
      "inputs": [
        {
          "internalType": "uint256",
          "name": "shipmentId",
          "type": "uint256"
        }
      ],
      "name": "getShipment",
      "outputs": [
        {
          "internalType": "uint256",
          "name": "id",
          "type": "uint256"
        },
        {
          "internalType": "string",
          "name": "productName",
          "type": "string"
        },
        {
          "internalType": "string",
          "name": "description",
          "type": "string"
        },
        {
          "internalType": "string",
          "name": "origin",
          "type": "string"
        },
        {
          "internalType": "string",
          "name": "destination",
          "type": "string"
        },
        {
          "internalType": "uint256",
          "name": "units",
          "type": "uint256"
        },
        {
          "internalType": "uint256",
          "name": "weight",
          "type": "uint256"
        },
        {
          "internalType": "enum ShipmentManagement.ShipmentState",
          "name": "currentState",
          "type": "uint8"
        },
        {
          "internalType": "address",
          "name": "currentOwner",
          "type": "address"
        },
        {
          "internalType": "uint256[]",
          "name": "transferHistory",
          "type": "uint256[]"
        }
      ],
      "stateMutability": "view",
      "type": "function",
      "constant": true
    },
    {
      "inputs": [
        {
          "internalType": "uint256",
          "name": "shipmentId",
          "type": "uint256"
        }
      ],
      "name": "getTransferHistory",
      "outputs": [
        {
          "components": [
            {
              "internalType": "uint256",
              "name": "id",
              "type": "uint256"
            },
            {
              "internalType": "uint256",
              "name": "shipmentId",
              "type": "uint256"
            },
            {
              "internalType": "uint256",
              "name": "timestamp",
              "type": "uint256"
            },
            {
              "internalType": "address",
              "name": "newShipmentOwner",
              "type": "address"
            },
            {
              "internalType": "string",
              "name": "transferNotes",
              "type": "string"
            }
          ],
          "internalType": "struct ShipmentManagement.Transfer[]",
          "name": "",
          "type": "tuple[]"
        }
      ],
      "stateMutability": "view",
      "type": "function",
      "constant": true
    },
    {
      "inputs": [
        {
          "internalType": "address",
          "name": "userAddress",
          "type": "address"
        }
      ],
      "name": "getUser",
      "outputs": [
        {
          "components": [
            {
              "internalType": "address",
              "name": "userAddress",
              "type": "address"
            },
            {
              "internalType": "string",
              "name": "name",
              "type": "string"
            },
            {
              "internalType": "string[]",
              "name": "roles",
              "type": "string[]"
            },
            {
              "internalType": "string",
              "name": "email",
              "type": "string"
            }
          ],
          "internalType": "struct ShipmentManagement.User",
          "name": "",
          "type": "tuple"
        }
      ],
      "stateMutability": "view",
      "type": "function",
      "constant": true
    }
  ],
  "bytecode": "0x608060405234801561001057600080fd5b50612bd4806100206000396000f3fe608060405234801561001057600080fd5b50600436106100625760003560e01c8063092b3740146100675780633fd18506146100a05780636f77926b146100bc5780638bb27d02146100ec578063d3a0ace31461011c578063f0d4e25714610138575b600080fd5b610081600480360381019061007c9190611b89565b610154565b6040516100979a99989796959493929190611dd4565b60405180910390f35b6100ba60048036038101906100b59190611fc8565b6105fd565b005b6100d660048036038101906100d191906120f1565b610c92565b6040516100e391906122aa565b60405180910390f35b61010660048036038101906101019190611b89565b61100f565b6040516101139190612404565b60405180910390f35b6101366004803603810190610131919061250c565b611258565b005b610152600480360381019061014d91906125d8565b61166f565b005b60006060806060806000806000806060600073ffffffffffffffffffffffffffffffffffffffff16600460003373ffffffffffffffffffffffffffffffffffffffff1673ffffffffffffffffffffffffffffffffffffffff16815260200190815260200160002060000160009054906101000a900473ffffffffffffffffffffffffffffffffffffffff1673ffffffffffffffffffffffffffffffffffffffff1603610235576040517f08c379a000000000000000000000000000000000000000000000000000000000815260040161022c906126a7565b60405180910390fd5b6000600260008d81526020019081526020016000206040518061014001604052908160008201548152602001600182018054610270906126f6565b80601f016020809104026020016040519081016040528092919081815260200182805461029c906126f6565b80156102e95780601f106102be576101008083540402835291602001916102e9565b820191906000526020600020905b8154815290600101906020018083116102cc57829003601f168201915b50505050508152602001600282018054610302906126f6565b80601f016020809104026020016040519081016040528092919081815260200182805461032e906126f6565b801561037b5780601f106103505761010080835404028352916020019161037b565b820191906000526020600020905b81548152906001019060200180831161035e57829003601f168201915b50505050508152602001600382018054610394906126f6565b80601f01602080910402602001604051908101604052809291908181526020018280546103c0906126f6565b801561040d5780601f106103e25761010080835404028352916020019161040d565b820191906000526020600020905b8154815290600101906020018083116103f057829003601f168201915b50505050508152602001600482018054610426906126f6565b80601f0160208091040260200160405190810160405280929190818152602001828054610452906126f6565b801561049f5780601f106104745761010080835404028352916020019161049f565b820191906000526020600020905b81548152906001019060200180831161048257829003601f168201915b5050505050815260200160058201548152602001600682015481526020016007820160009054906101000a900460ff1660038111156104e1576104e0611c5e565b5b60038111156104f3576104f2611c5e565b5b81526020016007820160019054906101000a900473ffffffffffffffffffffffffffffffffffffffff1673ffffffffffffffffffffffffffffffffffffffff1673ffffffffffffffffffffffffffffffffffffffff1681526020016008820180548060200260200160405190810160405280929190818152602001828054801561059c57602002820191906000526020600020905b815481526020019060010190808311610588575b5050505050815250509050806000015181602001518260400151836060015184608001518560a001518660c001518760e001518861010001518961012001519a509a509a509a509a509a509a509a509a509a50509193959799509193959799565b6040518060400160405280600781526020017f4d616e61676572000000000000000000000000000000000000000000000000008152506000600460003373ffffffffffffffffffffffffffffffffffffffff1673ffffffffffffffffffffffffffffffffffffffff1681526020019081526020016000206040518060800160405290816000820160009054906101000a900473ffffffffffffffffffffffffffffffffffffffff1673ffffffffffffffffffffffffffffffffffffffff1673ffffffffffffffffffffffffffffffffffffffff1681526020016001820180546106e5906126f6565b80601f0160208091040260200160405190810160405280929190818152602001828054610711906126f6565b801561075e5780601f106107335761010080835404028352916020019161075e565b820191906000526020600020905b81548152906001019060200180831161074157829003601f168201915b5050505050815260200160028201805480602002602001604051908101604052809291908181526020016000905b828210156108385783829060005260206000200180546107ab906126f6565b80601f01602080910402602001604051908101604052809291908181526020018280546107d7906126f6565b80156108245780601f106107f957610100808354040283529160200191610824565b820191906000526020600020905b81548152906001019060200180831161080757829003601f168201915b50505050508152602001906001019061078c565b505050508152602001600382018054610850906126f6565b80601f016020809104026020016040519081016040528092919081815260200182805461087c906126f6565b80156108c95780601f1061089e576101008083540402835291602001916108c9565b820191906000526020600020905b8154815290600101906020018083116108ac57829003601f168201915b5050505050815250509050600073ffffffffffffffffffffffffffffffffffffffff16816000015173ffffffffffffffffffffffffffffffffffffffff1603610947576040517f08c379a000000000000000000000000000000000000000000000000000000000815260040161093e906126a7565b60405180910390fd5b6000805b8260400151518110156109e557836040516020016109699190612763565b60405160208183030381529060405280519060200120836040015182815181106109965761099561277a565b5b60200260200101516040516020016109ae9190612763565b60405160208183030381529060405280519060200120036109d257600191506109e5565b80806109dd906127d8565b91505061094b565b5080610a26576040517f08c379a0000000000000000000000000000000000000000000000000000000008152600401610a1d9061286c565b60405180910390fd5b6000806000815480929190610a3a906127d8565b9190505590506040518061014001604052808281526020018b81526020018a815260200189815260200188815260200187815260200186815260200160006003811115610a8a57610a89611c5e565b5b81526020013373ffffffffffffffffffffffffffffffffffffffff168152602001600067ffffffffffffffff811115610ac657610ac5611e9d565b5b604051908082528060200260200182016040528015610af45781602001602082028036833780820191505090505b5081525060026000838152602001908152602001600020600082015181600001556020820151816001019080519060200190610b3192919061194d565b506040820151816002019080519060200190610b4e92919061194d565b506060820151816003019080519060200190610b6b92919061194d565b506080820151816004019080519060200190610b8892919061194d565b5060a0820151816005015560c0820151816006015560e08201518160070160006101000a81548160ff02191690836003811115610bc857610bc7611c5e565b5b02179055506101008201518160070160016101000a81548173ffffffffffffffffffffffffffffffffffffffff021916908373ffffffffffffffffffffffffffffffffffffffff160217905550610120820151816008019080519060200190610c329291906119d3565b509050503373ffffffffffffffffffffffffffffffffffffffff167f8e4c701ce5fb405651e38e1b8e96ea0a29ddec2fc923811b52b9c87f1da33ef4828c604051610c7e92919061288c565b60405180910390a250505050505050505050565b610c9a611a20565b600073ffffffffffffffffffffffffffffffffffffffff16600460003373ffffffffffffffffffffffffffffffffffffffff1673ffffffffffffffffffffffffffffffffffffffff16815260200190815260200160002060000160009054906101000a900473ffffffffffffffffffffffffffffffffffffffff1673ffffffffffffffffffffffffffffffffffffffff1603610d6b576040517f08c379a0000000000000000000000000000000000000000000000000000000008152600401610d62906126a7565b60405180910390fd5b600460008373ffffffffffffffffffffffffffffffffffffffff1673ffffffffffffffffffffffffffffffffffffffff1681526020019081526020016000206040518060800160405290816000820160009054906101000a900473ffffffffffffffffffffffffffffffffffffffff1673ffffffffffffffffffffffffffffffffffffffff1673ffffffffffffffffffffffffffffffffffffffff168152602001600182018054610e1b906126f6565b80601f0160208091040260200160405190810160405280929190818152602001828054610e47906126f6565b8015610e945780601f10610e6957610100808354040283529160200191610e94565b820191906000526020600020905b815481529060010190602001808311610e7757829003601f168201915b5050505050815260200160028201805480602002602001604051908101604052809291908181526020016000905b82821015610f6e578382906000526020600020018054610ee1906126f6565b80601f0160208091040260200160405190810160405280929190818152602001828054610f0d906126f6565b8015610f5a5780601f10610f2f57610100808354040283529160200191610f5a565b820191906000526020600020905b815481529060010190602001808311610f3d57829003601f168201915b505050505081526020019060010190610ec2565b505050508152602001600382018054610f86906126f6565b80601f0160208091040260200160405190810160405280929190818152602001828054610fb2906126f6565b8015610fff5780601f10610fd457610100808354040283529160200191610fff565b820191906000526020600020905b815481529060010190602001808311610fe257829003601f168201915b5050505050815250509050919050565b6060600073ffffffffffffffffffffffffffffffffffffffff16600460003373ffffffffffffffffffffffffffffffffffffffff1673ffffffffffffffffffffffffffffffffffffffff16815260200190815260200160002060000160009054906101000a900473ffffffffffffffffffffffffffffffffffffffff1673ffffffffffffffffffffffffffffffffffffffff16036110e2576040517f08c379a00000000000000000000000000000000000000000000000000000000081526004016110d9906126a7565b60405180910390fd5b60036000838152602001908152602001600020805480602002602001604051908101604052809291908181526020016000905b8282101561124d57838290600052602060002090600502016040518060a00160405290816000820154815260200160018201548152602001600282015481526020016003820160009054906101000a900473ffffffffffffffffffffffffffffffffffffffff1673ffffffffffffffffffffffffffffffffffffffff1673ffffffffffffffffffffffffffffffffffffffff1681526020016004820180546111bc906126f6565b80601f01602080910402602001604051908101604052809291908181526020018280546111e8906126f6565b80156112355780601f1061120a57610100808354040283529160200191611235565b820191906000526020600020905b81548152906001019060200180831161121857829003601f168201915b50505050508152505081526020019060010190611115565b505050509050919050565b600073ffffffffffffffffffffffffffffffffffffffff16600460003373ffffffffffffffffffffffffffffffffffffffff1673ffffffffffffffffffffffffffffffffffffffff16815260200190815260200160002060000160009054906101000a900473ffffffffffffffffffffffffffffffffffffffff1673ffffffffffffffffffffffffffffffffffffffff1614611329576040517f08c379a000000000000000000000000000000000000000000000000000000000815260040161132090612908565b60405180910390fd5b600082511161136d576040517f08c379a00000000000000000000000000000000000000000000000000000000081526004016113649061299a565b60405180910390fd5b60005b8251811015611502577f6d439300980e333f0256d64be2c9f67e86f4493ce25f82498d6db7f4be3d9e6f8382815181106113ad576113ac61277a565b5b60200260200101516040516020016113c59190612763565b60405160208183030381529060405280519060200120148061144657507f71b43d66088715f0148d07b45a38f510fffe2d5fd108ee7701691e554738d61b8382815181106114165761141561277a565b5b602002602001015160405160200161142e9190612763565b60405160208183030381529060405280519060200120145b806114b057507f25b0d18cf2326f98dd77bebd7e49544e2b790cdfea059f27b3335e791c24c0d78382815181106114805761147f61277a565b5b60200260200101516040516020016114989190612763565b60405160208183030381529060405280519060200120145b6114ef576040517f08c379a00000000000000000000000000000000000000000000000000000000081526004016114e690612a06565b60405180910390fd5b80806114fa906127d8565b915050611370565b5060405180608001604052803373ffffffffffffffffffffffffffffffffffffffff16815260200184815260200183815260200182815250600460003373ffffffffffffffffffffffffffffffffffffffff1673ffffffffffffffffffffffffffffffffffffffff16815260200190815260200160002060008201518160000160006101000a81548173ffffffffffffffffffffffffffffffffffffffff021916908373ffffffffffffffffffffffffffffffffffffffff16021790555060208201518160010190805190602001906115dc92919061194d565b5060408201518160020190805190602001906115f9929190611a5e565b50606082015181600301908051906020019061161692919061194d565b509050503373ffffffffffffffffffffffffffffffffffffffff167fa829c8622530f92e2b272cea9a11acaf81bbd6fb95ac0e5ec4af90790f7db6cb8484604051611662929190612aac565b60405180910390a2505050565b833373ffffffffffffffffffffffffffffffffffffffff166002600083815260200190815260200160002060070160019054906101000a900473ffffffffffffffffffffffffffffffffffffffff1673ffffffffffffffffffffffffffffffffffffffff1614611714576040517f08c379a000000000000000000000000000000000000000000000000000000000815260040161170b90612b55565b60405180910390fd5b6000600260008781526020019081526020016000209050848160070160016101000a81548173ffffffffffffffffffffffffffffffffffffffff021916908373ffffffffffffffffffffffffffffffffffffffff160217905550838160070160006101000a81548160ff0219169083600381111561179557611794611c5e565b5b02179055506000600160008154809291906117af906127d8565b919050559050600360008881526020019081526020016000206040518060a001604052808381526020018981526020014281526020018873ffffffffffffffffffffffffffffffffffffffff16815260200186815250908060018154018082558091505060019003906000526020600020906005020160009091909190915060008201518160000155602082015181600101556040820151816002015560608201518160030160006101000a81548173ffffffffffffffffffffffffffffffffffffffff021916908373ffffffffffffffffffffffffffffffffffffffff16021790555060808201518160040190805190602001906118af92919061194d565b505050816008018190806001815401808255809150506001900390600052602060002001600090919091909150558573ffffffffffffffffffffffffffffffffffffffff163373ffffffffffffffffffffffffffffffffffffffff167fe59ca647a5502871b930c7e58c9f1672aef089ff05084e0b47828427a7696d2d898860405161193c929190612b75565b60405180910390a350505050505050565b828054611959906126f6565b90600052602060002090601f01602090048101928261197b57600085556119c2565b82601f1061199457805160ff19168380011785556119c2565b828001600101855582156119c2579182015b828111156119c15782518255916020019190600101906119a6565b5b5090506119cf9190611abe565b5090565b828054828255906000526020600020908101928215611a0f579160200282015b82811115611a0e5782518255916020019190600101906119f3565b5b509050611a1c9190611abe565b5090565b6040518060800160405280600073ffffffffffffffffffffffffffffffffffffffff1681526020016060815260200160608152602001606081525090565b828054828255906000526020600020908101928215611aad579160200282015b82811115611aac578251829080519060200190611a9c92919061194d565b5091602001919060010190611a7e565b5b509050611aba9190611adb565b5090565b5b80821115611ad7576000816000905550600101611abf565b5090565b5b80821115611afb5760008181611af29190611aff565b50600101611adc565b5090565b508054611b0b906126f6565b6000825580601f10611b1d5750611b3c565b601f016020900490600052602060002090810190611b3b9190611abe565b5b50565b6000604051905090565b600080fd5b600080fd5b6000819050919050565b611b6681611b53565b8114611b7157600080fd5b50565b600081359050611b8381611b5d565b92915050565b600060208284031215611b9f57611b9e611b49565b5b6000611bad84828501611b74565b91505092915050565b611bbf81611b53565b82525050565b600081519050919050565b600082825260208201905092915050565b60005b83811015611bff578082015181840152602081019050611be4565b83811115611c0e576000848401525b50505050565b6000601f19601f8301169050919050565b6000611c3082611bc5565b611c3a8185611bd0565b9350611c4a818560208601611be1565b611c5381611c14565b840191505092915050565b7f4e487b7100000000000000000000000000000000000000000000000000000000600052602160045260246000fd5b60048110611c9e57611c9d611c5e565b5b50565b6000819050611caf82611c8d565b919050565b6000611cbf82611ca1565b9050919050565b611ccf81611cb4565b82525050565b600073ffffffffffffffffffffffffffffffffffffffff82169050919050565b6000611d0082611cd5565b9050919050565b611d1081611cf5565b82525050565b600081519050919050565b600082825260208201905092915050565b6000819050602082019050919050565b611d4b81611b53565b82525050565b6000611d5d8383611d42565b60208301905092915050565b6000602082019050919050565b6000611d8182611d16565b611d8b8185611d21565b9350611d9683611d32565b8060005b83811015611dc7578151611dae8882611d51565b9750611db983611d69565b925050600181019050611d9a565b5085935050505092915050565b600061014082019050611dea600083018d611bb6565b8181036020830152611dfc818c611c25565b90508181036040830152611e10818b611c25565b90508181036060830152611e24818a611c25565b90508181036080830152611e388189611c25565b9050611e4760a0830188611bb6565b611e5460c0830187611bb6565b611e6160e0830186611cc6565b611e6f610100830185611d07565b818103610120830152611e828184611d76565b90509b9a5050505050505050505050565b600080fd5b600080fd5b7f4e487b7100000000000000000000000000000000000000000000000000000000600052604160045260246000fd5b611ed582611c14565b810181811067ffffffffffffffff82111715611ef457611ef3611e9d565b5b80604052505050565b6000611f07611b3f565b9050611f138282611ecc565b919050565b600067ffffffffffffffff821115611f3357611f32611e9d565b5b611f3c82611c14565b9050602081019050919050565b82818337600083830152505050565b6000611f6b611f6684611f18565b611efd565b905082815260208101848484011115611f8757611f86611e98565b5b611f92848285611f49565b509392505050565b600082601f830112611faf57611fae611e93565b5b8135611fbf848260208601611f58565b91505092915050565b60008060008060008060c08789031215611fe557611fe4611b49565b5b600087013567ffffffffffffffff81111561200357612002611b4e565b5b61200f89828a01611f9a565b965050602087013567ffffffffffffffff8111156120305761202f611b4e565b5b61203c89828a01611f9a565b955050604087013567ffffffffffffffff81111561205d5761205c611b4e565b5b61206989828a01611f9a565b945050606087013567ffffffffffffffff81111561208a57612089611b4e565b5b61209689828a01611f9a565b93505060806120a789828a01611b74565b92505060a06120b889828a01611b74565b9150509295509295509295565b6120ce81611cf5565b81146120d957600080fd5b50565b6000813590506120eb816120c5565b92915050565b60006020828403121561210757612106611b49565b5b6000612115848285016120dc565b91505092915050565b61212781611cf5565b82525050565b600082825260208201905092915050565b600061214982611bc5565b612153818561212d565b9350612163818560208601611be1565b61216c81611c14565b840191505092915050565b600081519050919050565b600082825260208201905092915050565b6000819050602082019050919050565b60006121af838361213e565b905092915050565b6000602082019050919050565b60006121cf82612177565b6121d98185612182565b9350836020820285016121eb85612193565b8060005b85811015612227578484038952815161220885826121a3565b9450612213836121b7565b925060208a019950506001810190506121ef565b50829750879550505050505092915050565b6000608083016000830151612251600086018261211e565b5060208301518482036020860152612269828261213e565b9150506040830151848203604086015261228382826121c4565b9150506060830151848203606086015261229d828261213e565b9150508091505092915050565b600060208201905081810360008301526122c48184612239565b905092915050565b600081519050919050565b600082825260208201905092915050565b6000819050602082019050919050565b600060a0830160008301516123106000860182611d42565b5060208301516123236020860182611d42565b5060408301516123366040860182611d42565b506060830151612349606086018261211e565b5060808301518482036080860152612361828261213e565b9150508091505092915050565b600061237a83836122f8565b905092915050565b6000602082019050919050565b600061239a826122cc565b6123a481856122d7565b9350836020820285016123b6856122e8565b8060005b858110156123f257848403895281516123d3858261236e565b94506123de83612382565b925060208a019950506001810190506123ba565b50829750879550505050505092915050565b6000602082019050818103600083015261241e818461238f565b905092915050565b600067ffffffffffffffff82111561244157612440611e9d565b5b602082029050602081019050919050565b600080fd5b600061246a61246584612426565b611efd565b9050808382526020820190506020840283018581111561248d5761248c612452565b5b835b818110156124d457803567ffffffffffffffff8111156124b2576124b1611e93565b5b8086016124bf8982611f9a565b8552602085019450505060208101905061248f565b5050509392505050565b600082601f8301126124f3576124f2611e93565b5b8135612503848260208601612457565b91505092915050565b60008060006060848603121561252557612524611b49565b5b600084013567ffffffffffffffff81111561254357612542611b4e565b5b61254f86828701611f9a565b935050602084013567ffffffffffffffff8111156125705761256f611b4e565b5b61257c868287016124de565b925050604084013567ffffffffffffffff81111561259d5761259c611b4e565b5b6125a986828701611f9a565b9150509250925092565b600481106125c057600080fd5b50565b6000813590506125d2816125b3565b92915050565b600080600080608085870312156125f2576125f1611b49565b5b600061260087828801611b74565b9450506020612611878288016120dc565b9350506040612622878288016125c3565b925050606085013567ffffffffffffffff81111561264357612642611b4e565b5b61264f87828801611f9a565b91505092959194509250565b7f55736572206e6f7420726567697374657265642e000000000000000000000000600082015250565b6000612691601483611bd0565b915061269c8261265b565b602082019050919050565b600060208201905081810360008301526126c081612684565b9050919050565b7f4e487b7100000000000000000000000000000000000000000000000000000000600052602260045260246000fd5b6000600282049050600182168061270e57607f821691505b602082108103612721576127206126c7565b5b50919050565b600081905092915050565b600061273d82611bc5565b6127478185612727565b9350612757818560208601611be1565b80840191505092915050565b600061276f8284612732565b915081905092915050565b7f4e487b7100000000000000000000000000000000000000000000000000000000600052603260045260246000fd5b7f4e487b7100000000000000000000000000000000000000000000000000000000600052601160045260246000fd5b60006127e382611b53565b91507fffffffffffffffffffffffffffffffffffffffffffffffffffffffffffffffff8203612815576128146127a9565b5b600182019050919050565b7f4e6f7420617574686f72697a656420666f72207468697320726f6c652e000000600082015250565b6000612856601d83611bd0565b915061286182612820565b602082019050919050565b6000602082019050818103600083015261288581612849565b9050919050565b60006040820190506128a16000830185611bb6565b81810360208301526128b38184611c25565b90509392505050565b7f5573657220616c726561647920726567697374657265642e0000000000000000600082015250565b60006128f2601883611bd0565b91506128fd826128bc565b602082019050919050565b60006020820190508181036000830152612921816128e5565b9050919050565b7f55736572206d7573742068617665206174206c65617374206f6e6520726f6c6560008201527f2e00000000000000000000000000000000000000000000000000000000000000602082015250565b6000612984602183611bd0565b915061298f82612928565b604082019050919050565b600060208201905081810360008301526129b381612977565b9050919050565b7f496e76616c696420726f6c652070726f76696465642e00000000000000000000600082015250565b60006129f0601683611bd0565b91506129fb826129ba565b602082019050919050565b60006020820190508181036000830152612a1f816129e3565b9050919050565b600082825260208201905092915050565b6000612a4282612177565b612a4c8185612a26565b935083602082028501612a5e85612193565b8060005b85811015612a9a5784840389528151612a7b85826121a3565b9450612a86836121b7565b925060208a01995050600181019050612a62565b50829750879550505050505092915050565b60006040820190508181036000830152612ac68185611c25565b90508181036020830152612ada8184612a37565b90509392505050565b7f4f6e6c79207468652063757272656e74206f776e65722063616e20706572666f60008201527f726d207468697320616374696f6e2e0000000000000000000000000000000000602082015250565b6000612b3f602f83611bd0565b9150612b4a82612ae3565b604082019050919050565b60006020820190508181036000830152612b6e81612b32565b9050919050565b6000604082019050612b8a6000830185611bb6565b612b976020830184611cc6565b939250505056fea2646970667358221220ab54b84cf28a355a73a7c2eca8a38f80c2234e1da15ae861ecb5bfcf1cf044ae64736f6c634300080d0033",
  "immutableReferences": {},
  "source": "// SPDX-License-Identifier: MIT\r\npragma solidity ^0.8.0;\r\n\r\ncontract ShipmentManagement {\r\n\r\n    enum ShipmentState { Created, InTransit, Stored, Delivered }\r\n    enum UserRoles { Manager, Operator, Viewer }\r\n\r\n    struct Shipment {\r\n        uint256 id;\r\n        string productName;\r\n        string description;\r\n        string origin;\r\n        string destination;\r\n        uint256 units;\r\n        uint256 weight;\r\n        ShipmentState currentState;\r\n        address currentOwner;\r\n        uint256[] transferHistory;\r\n    }\r\n\r\n    struct Transfer {\r\n        uint256 id;\r\n        uint256 shipmentId;\r\n        uint256 timestamp;\r\n        address newShipmentOwner;\r\n        string transferNotes;\r\n    }\r\n\r\n    struct User {\r\n        address userAddress;\r\n        string name;\r\n        string[] roles;\r\n        string email;\r\n    }\r\n\r\n    uint256 private nextShipmentId;\r\n    uint256 private nextTransferId;\r\n\r\n    mapping(uint256 => Shipment) private shipments;\r\n    mapping(uint256 => Transfer[]) private transfersByShipment;\r\n    mapping(address => User) private users;\r\n\r\n    event ShipmentCreated(uint256 shipmentId, string productName, address indexed owner);\r\n    event ShipmentTransfer(uint256 shipmentId, address indexed previousOwner, address indexed newShipmentOwner, ShipmentState newState);\r\n    event UserRegistered(address indexed userAddress, string name, string[] roles);\r\n\r\n    // Modifiers\r\n\r\n    modifier onlyRegistered() {\r\n        require(users[msg.sender].userAddress != address(0), \"User not registered.\");\r\n        _;\r\n    }\r\n\r\n    modifier onlyOwner(uint256 shipmentId) {\r\n        require(shipments[shipmentId].currentOwner == msg.sender, \"Only the current owner can perform this action.\");\r\n        _;\r\n    }\r\n\r\n    modifier onlyAuthorized(string memory requiredRole) {\r\n        User memory user = users[msg.sender];\r\n        require(user.userAddress != address(0), \"User not registered.\");\r\n        \r\n        bool hasRole = false;\r\n        for (uint256 i = 0; i < user.roles.length; i++) {\r\n            if (keccak256(abi.encodePacked(user.roles[i])) == keccak256(abi.encodePacked(requiredRole))) {\r\n                hasRole = true;\r\n                break;\r\n            }\r\n        }\r\n        require(hasRole, \"Not authorized for this role.\");\r\n        _;\r\n    }\r\n\r\n\r\n    // Functions\r\n\r\n    function registerUser(string memory name, string[] memory roles, string memory email) public {\r\n        require(users[msg.sender].userAddress == address(0), \"User already registered.\");\r\n        require(roles.length > 0, \"User must have at least one role.\");\r\n\r\n        // Validate roles\r\n        for (uint256 i = 0; i < roles.length; i++) {\r\n            require(\r\n                keccak256(abi.encodePacked(roles[i])) == keccak256(\"Manager\") ||\r\n                keccak256(abi.encodePacked(roles[i])) == keccak256(\"Operator\") ||\r\n                keccak256(abi.encodePacked(roles[i])) == keccak256(\"Viewer\"),\r\n                \"Invalid role provided.\"\r\n            );\r\n        }\r\n\r\n        users[msg.sender] = User({\r\n            userAddress: msg.sender,\r\n            name: name,\r\n            roles: roles,\r\n            email: email\r\n        });\r\n\r\n        emit UserRegistered(msg.sender, name, roles);\r\n    }\r\n\r\n    // Create a new shipment\r\n    function createShipment(\r\n        string memory productName,\r\n        string memory description,\r\n        string memory origin,\r\n        string memory destination,\r\n        uint256 units,\r\n        uint256 weight\r\n    ) public onlyAuthorized(\"Manager\") {\r\n        uint256 shipmentId = nextShipmentId++;\r\n        shipments[shipmentId] = Shipment({\r\n            id: shipmentId,\r\n            productName: productName,\r\n            description: description,\r\n            origin: origin,\r\n            destination: destination,\r\n            units: units,\r\n            weight: weight,\r\n            currentState: ShipmentState.Created,\r\n            currentOwner: msg.sender,\r\n            transferHistory: new uint256[](0)\r\n        });\r\n        emit ShipmentCreated(shipmentId, productName, msg.sender);\r\n    }\r\n\r\n    // Transfer ownership of a shipment\r\n    function shipmentTransfer(uint256 shipmentId, address newShipmentOwner, ShipmentState newState, string memory transferNotes) public onlyOwner(shipmentId) {\r\n        Shipment storage shipment = shipments[shipmentId];\r\n        \r\n        shipment.currentOwner = newShipmentOwner;\r\n        shipment.currentState = newState;\r\n\r\n        uint256 transferId = nextTransferId++;\r\n        transfersByShipment[shipmentId].push(Transfer({\r\n            id: transferId,\r\n            shipmentId: shipmentId,\r\n            timestamp: block.timestamp,\r\n            newShipmentOwner: newShipmentOwner,\r\n            transferNotes: transferNotes\r\n        }));\r\n        shipment.transferHistory.push(transferId);\r\n\r\n        emit ShipmentTransfer(shipmentId, msg.sender, newShipmentOwner, newState);\r\n    }\r\n\r\n    // Get shipment details\r\n    function getShipment(uint256 shipmentId) public onlyRegistered() view returns (\r\n        uint256 id,\r\n        string memory productName,\r\n        string memory description,\r\n        string memory origin,\r\n        string memory destination,\r\n        uint256 units,\r\n        uint256 weight,\r\n        ShipmentState currentState,\r\n        address currentOwner,\r\n        uint256[] memory transferHistory\r\n    ) {\r\n        Shipment memory shipment = shipments[shipmentId];\r\n        return (\r\n            shipment.id,\r\n            shipment.productName,\r\n            shipment.description,\r\n            shipment.origin,\r\n            shipment.destination,\r\n            shipment.units,\r\n            shipment.weight,\r\n            shipment.currentState,\r\n            shipment.currentOwner,\r\n            shipment.transferHistory\r\n        );\r\n    }\r\n\r\n    // Get transfer history for a shipment\r\n    function getTransferHistory(uint256 shipmentId) public onlyRegistered() view returns (Transfer[] memory) {\r\n        return transfersByShipment[shipmentId];\r\n    }\r\n\r\n    // Get user details\r\n    function getUser(address userAddress) public onlyRegistered() view returns (User memory) {\r\n        return users[userAddress];\r\n    }\r\n}\r\n",
  "sourcePath": "C:\\Users\\Usuario\\OneDrive\\Documentos\\GitHub\\blocked-supply\\blocked-supply-truffle\\contracts\\ShipmentManagement.sol",
  "compiler": {
    "name": "solc",
    "version": "0.8.13+commit.abaa5c0e.Emscripten.clang"
  },
  "schemaVersion": "3.4.16",
  "updatedAt": "2025-01-27T21:03:12.330Z",
  "networkType": "ethereum",
  "devdoc": {
    "kind": "dev",
    "methods": {},
    "version": 1
  },
  "userdoc": {
    "kind": "user",
    "methods": {},
    "version": 1
  }
}