{
  "contractName": "ShipmentManager",
  "abi": [
    {
      "anonymous": false,
      "inputs": [
        {
          "indexed": false,
          "internalType": "uint256",
          "name": "shipmentId",
          "type": "uint256"
        },
        {
          "indexed": true,
          "internalType": "address",
          "name": "newOwner",
          "type": "address"
        },
        {
          "indexed": true,
          "internalType": "address",
          "name": "previousOwner",
          "type": "address"
        }
      ],
      "name": "OwnershipTransferred",
      "type": "event"
    },
    {
      "anonymous": false,
      "inputs": [
        {
          "indexed": false,
          "internalType": "uint256",
          "name": "shipmentId",
          "type": "uint256"
        },
        {
          "indexed": true,
          "internalType": "address",
          "name": "owner",
          "type": "address"
        }
      ],
      "name": "ShipmentCreated",
      "type": "event"
    },
    {
      "anonymous": false,
      "inputs": [
        {
          "indexed": false,
          "internalType": "uint256",
          "name": "shipmentId",
          "type": "uint256"
        },
        {
          "indexed": false,
          "internalType": "string",
          "name": "newState",
          "type": "string"
        },
        {
          "indexed": true,
          "internalType": "address",
          "name": "updatedBy",
          "type": "address"
        }
      ],
      "name": "ShipmentUpdated",
      "type": "event"
    },
    {
      "anonymous": false,
      "inputs": [
        {
          "indexed": true,
          "internalType": "address",
          "name": "userAddress",
          "type": "address"
        },
        {
          "indexed": false,
          "internalType": "string",
          "name": "name",
          "type": "string"
        },
        {
          "indexed": false,
          "internalType": "string",
          "name": "role",
          "type": "string"
        }
      ],
      "name": "UserRegistered",
      "type": "event"
    },
    {
      "inputs": [
        {
          "internalType": "string",
          "name": "name",
          "type": "string"
        },
        {
          "internalType": "string",
          "name": "role",
          "type": "string"
        },
        {
          "internalType": "string",
          "name": "email",
          "type": "string"
        }
      ],
      "name": "registerUser",
      "outputs": [],
      "stateMutability": "nonpayable",
      "type": "function"
    },
    {
      "inputs": [
        {
          "internalType": "string",
          "name": "productName",
          "type": "string"
        },
        {
          "internalType": "string",
          "name": "description",
          "type": "string"
        },
        {
          "internalType": "string",
          "name": "origin",
          "type": "string"
        },
        {
          "internalType": "string",
          "name": "destination",
          "type": "string"
        },
        {
          "internalType": "uint256",
          "name": "units",
          "type": "uint256"
        },
        {
          "internalType": "uint256",
          "name": "weight",
          "type": "uint256"
        }
      ],
      "name": "createShipment",
      "outputs": [],
      "stateMutability": "nonpayable",
      "type": "function"
    },
    {
      "inputs": [
        {
          "internalType": "uint256",
          "name": "shipmentId",
          "type": "uint256"
        },
        {
          "internalType": "string",
          "name": "newState",
          "type": "string"
        }
      ],
      "name": "updateShipment",
      "outputs": [],
      "stateMutability": "nonpayable",
      "type": "function"
    },
    {
      "inputs": [
        {
          "internalType": "uint256",
          "name": "shipmentId",
          "type": "uint256"
        },
        {
          "internalType": "address",
          "name": "newOwner",
          "type": "address"
        }
      ],
      "name": "transferOwnership",
      "outputs": [],
      "stateMutability": "nonpayable",
      "type": "function"
    },
    {
      "inputs": [
        {
          "internalType": "uint256",
          "name": "shipmentId",
          "type": "uint256"
        }
      ],
      "name": "getShipment",
      "outputs": [
        {
          "components": [
            {
              "internalType": "uint256",
              "name": "id",
              "type": "uint256"
            },
            {
              "internalType": "string",
              "name": "productName",
              "type": "string"
            },
            {
              "internalType": "string",
              "name": "description",
              "type": "string"
            },
            {
              "internalType": "string",
              "name": "origin",
              "type": "string"
            },
            {
              "internalType": "string",
              "name": "destination",
              "type": "string"
            },
            {
              "internalType": "uint256",
              "name": "units",
              "type": "uint256"
            },
            {
              "internalType": "uint256",
              "name": "weight",
              "type": "uint256"
            },
            {
              "internalType": "string",
              "name": "currentState",
              "type": "string"
            },
            {
              "internalType": "address",
              "name": "currentOwner",
              "type": "address"
            },
            {
              "internalType": "uint256[]",
              "name": "history",
              "type": "uint256[]"
            }
          ],
          "internalType": "struct ShipmentManager.Shipment",
          "name": "",
          "type": "tuple"
        }
      ],
      "stateMutability": "view",
      "type": "function"
    },
    {
      "inputs": [
        {
          "internalType": "uint256",
          "name": "shipmentId",
          "type": "uint256"
        }
      ],
      "name": "getTransferHistory",
      "outputs": [
        {
          "components": [
            {
              "internalType": "uint256",
              "name": "id",
              "type": "uint256"
            },
            {
              "internalType": "uint256",
              "name": "shipmentId",
              "type": "uint256"
            },
            {
              "internalType": "uint256",
              "name": "timestamp",
              "type": "uint256"
            },
            {
              "internalType": "address",
              "name": "newOwner",
              "type": "address"
            }
          ],
          "internalType": "struct ShipmentManager.Transfer[]",
          "name": "",
          "type": "tuple[]"
        }
      ],
      "stateMutability": "view",
      "type": "function"
    },
    {
      "inputs": [
        {
          "internalType": "address",
          "name": "userAddress",
          "type": "address"
        }
      ],
      "name": "getUser",
      "outputs": [
        {
          "components": [
            {
              "internalType": "address",
              "name": "userAddress",
              "type": "address"
            },
            {
              "internalType": "string",
              "name": "name",
              "type": "string"
            },
            {
              "internalType": "string",
              "name": "role",
              "type": "string"
            },
            {
              "internalType": "string",
              "name": "email",
              "type": "string"
            }
          ],
          "internalType": "struct ShipmentManager.User",
          "name": "",
          "type": "tuple"
        }
      ],
      "stateMutability": "view",
      "type": "function"
    }
  ],
  "bytecode": "0x608060405234801561000f575f80fd5b506121738061001d5f395ff3fe608060405234801561000f575f80fd5b506004361061007b575f3560e01c80635f22ba3b116100595780635f22ba3b146100e75780636f77926b146101035780638bb27d0214610133578063d637dcfa146101635761007b565b8063092b37401461007f57806329507f73146100af5780633fd18506146100cb575b5f80fd5b610099600480360381019061009491906112c5565b61017f565b6040516100a6919061156a565b60405180910390f35b6100c960048036038101906100c491906115b4565b610543565b005b6100e560048036038101906100e0919061171e565b61078d565b005b61010160048036038101906100fc9190611817565b610adc565b005b61011d60048036038101906101189190611871565b610c21565b60405161012a919061190a565b60405180910390f35b61014d600480360381019061014891906112c5565b610e7c565b60405161015a9190611a25565b60405180910390f35b61017d60048036038101906101789190611a45565b610f5b565b005b610187611179565b60025f8381526020019081526020015f20604051806101400160405290815f82015481526020016001820180546101bd90611b16565b80601f01602080910402602001604051908101604052809291908181526020018280546101e990611b16565b80156102345780601f1061020b57610100808354040283529160200191610234565b820191905f5260205f20905b81548152906001019060200180831161021757829003601f168201915b5050505050815260200160028201805461024d90611b16565b80601f016020809104026020016040519081016040528092919081815260200182805461027990611b16565b80156102c45780601f1061029b576101008083540402835291602001916102c4565b820191905f5260205f20905b8154815290600101906020018083116102a757829003601f168201915b505050505081526020016003820180546102dd90611b16565b80601f016020809104026020016040519081016040528092919081815260200182805461030990611b16565b80156103545780601f1061032b57610100808354040283529160200191610354565b820191905f5260205f20905b81548152906001019060200180831161033757829003601f168201915b5050505050815260200160048201805461036d90611b16565b80601f016020809104026020016040519081016040528092919081815260200182805461039990611b16565b80156103e45780601f106103bb576101008083540402835291602001916103e4565b820191905f5260205f20905b8154815290600101906020018083116103c757829003601f168201915b50505050508152602001600582015481526020016006820154815260200160078201805461041190611b16565b80601f016020809104026020016040519081016040528092919081815260200182805461043d90611b16565b80156104885780601f1061045f57610100808354040283529160200191610488565b820191905f5260205f20905b81548152906001019060200180831161046b57829003601f168201915b50505050508152602001600882015f9054906101000a900473ffffffffffffffffffffffffffffffffffffffff1673ffffffffffffffffffffffffffffffffffffffff1673ffffffffffffffffffffffffffffffffffffffff1681526020016009820180548060200260200160405190810160405280929190818152602001828054801561053357602002820191905f5260205f20905b81548152602001906001019080831161051f575b5050505050815250509050919050565b813373ffffffffffffffffffffffffffffffffffffffff1660025f8381526020019081526020015f206008015f9054906101000a900473ffffffffffffffffffffffffffffffffffffffff1673ffffffffffffffffffffffffffffffffffffffff16146105e5576040517f08c379a00000000000000000000000000000000000000000000000000000000081526004016105dc90611bc6565b60405180910390fd5b5f60025f8581526020019081526020015f20905082816008015f6101000a81548173ffffffffffffffffffffffffffffffffffffffff021916908373ffffffffffffffffffffffffffffffffffffffff16021790555060035f8581526020019081526020015f20604051806080016040528060015f81548092919061066990611c11565b9190505581526020018681526020014281526020018573ffffffffffffffffffffffffffffffffffffffff16815250908060018154018082558091505060019003905f5260205f2090600402015f909190919091505f820151815f015560208201518160010155604082015181600201556060820151816003015f6101000a81548173ffffffffffffffffffffffffffffffffffffffff021916908373ffffffffffffffffffffffffffffffffffffffff16021790555050503373ffffffffffffffffffffffffffffffffffffffff168373ffffffffffffffffffffffffffffffffffffffff167f16b85f49bf01212961345d3016c9a531894accf62eb7680f2045d79185cc0ec08660405161077f9190611c67565b60405180910390a350505050565b6040518060400160405280600781526020017f6d616e6167657200000000000000000000000000000000000000000000000000815250806040516020016107d49190611cba565b6040516020818303038152906040528051906020012060045f3373ffffffffffffffffffffffffffffffffffffffff1673ffffffffffffffffffffffffffffffffffffffff1681526020019081526020015f2060020160405160200161083a9190611d62565b6040516020818303038152906040528051906020012014610890576040517f08c379a000000000000000000000000000000000000000000000000000000000815260040161088790611dc2565b60405180910390fd5b5f805f8154809291906108a290611c11565b9190505590506040518061014001604052808281526020018981526020018881526020018781526020018681526020018581526020018481526020016040518060400160405280600781526020017f437265617465640000000000000000000000000000000000000000000000000081525081526020013373ffffffffffffffffffffffffffffffffffffffff1681526020015f67ffffffffffffffff81111561094f5761094e6115fa565b5b60405190808252806020026020018201604052801561097d5781602001602082028036833780820191505090505b5081525060025f8381526020019081526020015f205f820151815f015560208201518160010190816109af9190611f6b565b5060408201518160020190816109c59190611f6b565b5060608201518160030190816109db9190611f6b565b5060808201518160040190816109f19190611f6b565b5060a0820151816005015560c0820151816006015560e0820151816007019081610a1b9190611f6b565b50610100820151816008015f6101000a81548173ffffffffffffffffffffffffffffffffffffffff021916908373ffffffffffffffffffffffffffffffffffffffff160217905550610120820151816009019080519060200190610a809291906111de565b509050503373ffffffffffffffffffffffffffffffffffffffff167fe0f5cc97a7413c8504a43a017dde74af4822f66c59d6014c80548654138bc73682604051610aca9190611c67565b60405180910390a25050505050505050565b813373ffffffffffffffffffffffffffffffffffffffff1660025f8381526020019081526020015f206008015f9054906101000a900473ffffffffffffffffffffffffffffffffffffffff1673ffffffffffffffffffffffffffffffffffffffff1614610b7e576040517f08c379a0000000000000000000000000000000000000000000000000000000008152600401610b7590611bc6565b60405180910390fd5b5f60025f8581526020019081526020015f20905082816007019081610ba39190611f6b565b508060090142908060018154018082558091505060019003905f5260205f20015f90919091909150553373ffffffffffffffffffffffffffffffffffffffff167e7d88a715ce3c0b25565d23e1695d4231dfc14a582a283182fcbac2fc8ef8348585604051610c13929190612072565b60405180910390a250505050565b610c29611229565b60045f8373ffffffffffffffffffffffffffffffffffffffff1673ffffffffffffffffffffffffffffffffffffffff1681526020019081526020015f206040518060800160405290815f82015f9054906101000a900473ffffffffffffffffffffffffffffffffffffffff1673ffffffffffffffffffffffffffffffffffffffff1673ffffffffffffffffffffffffffffffffffffffff168152602001600182018054610cd590611b16565b80601f0160208091040260200160405190810160405280929190818152602001828054610d0190611b16565b8015610d4c5780601f10610d2357610100808354040283529160200191610d4c565b820191905f5260205f20905b815481529060010190602001808311610d2f57829003601f168201915b50505050508152602001600282018054610d6590611b16565b80601f0160208091040260200160405190810160405280929190818152602001828054610d9190611b16565b8015610ddc5780601f10610db357610100808354040283529160200191610ddc565b820191905f5260205f20905b815481529060010190602001808311610dbf57829003601f168201915b50505050508152602001600382018054610df590611b16565b80601f0160208091040260200160405190810160405280929190818152602001828054610e2190611b16565b8015610e6c5780601f10610e4357610100808354040283529160200191610e6c565b820191905f5260205f20905b815481529060010190602001808311610e4f57829003601f168201915b5050505050815250509050919050565b606060035f8381526020019081526020015f20805480602002602001604051908101604052809291908181526020015f905b82821015610f50578382905f5260205f2090600402016040518060800160405290815f82015481526020016001820154815260200160028201548152602001600382015f9054906101000a900473ffffffffffffffffffffffffffffffffffffffff1673ffffffffffffffffffffffffffffffffffffffff1673ffffffffffffffffffffffffffffffffffffffff168152505081526020019060010190610eae565b505050509050919050565b5f73ffffffffffffffffffffffffffffffffffffffff1660045f3373ffffffffffffffffffffffffffffffffffffffff1673ffffffffffffffffffffffffffffffffffffffff1681526020019081526020015f205f015f9054906101000a900473ffffffffffffffffffffffffffffffffffffffff1673ffffffffffffffffffffffffffffffffffffffff1614611027576040517f08c379a000000000000000000000000000000000000000000000000000000000815260040161101e906120ea565b60405180910390fd5b60405180608001604052803373ffffffffffffffffffffffffffffffffffffffff1681526020018481526020018381526020018281525060045f3373ffffffffffffffffffffffffffffffffffffffff1673ffffffffffffffffffffffffffffffffffffffff1681526020019081526020015f205f820151815f015f6101000a81548173ffffffffffffffffffffffffffffffffffffffff021916908373ffffffffffffffffffffffffffffffffffffffff16021790555060208201518160010190816110f49190611f6b565b50604082015181600201908161110a9190611f6b565b5060608201518160030190816111209190611f6b565b509050503373ffffffffffffffffffffffffffffffffffffffff167f92822564bab8864c3a47b34e8d23fbce5c46234eb5da261f94087b995ac0f33b848460405161116c929190612108565b60405180910390a2505050565b6040518061014001604052805f8152602001606081526020016060815260200160608152602001606081526020015f81526020015f8152602001606081526020015f73ffffffffffffffffffffffffffffffffffffffff168152602001606081525090565b828054828255905f5260205f20908101928215611218579160200282015b828111156112175782518255916020019190600101906111fc565b5b5090506112259190611266565b5090565b60405180608001604052805f73ffffffffffffffffffffffffffffffffffffffff1681526020016060815260200160608152602001606081525090565b5b8082111561127d575f815f905550600101611267565b5090565b5f604051905090565b5f80fd5b5f80fd5b5f819050919050565b6112a481611292565b81146112ae575f80fd5b50565b5f813590506112bf8161129b565b92915050565b5f602082840312156112da576112d961128a565b5b5f6112e7848285016112b1565b91505092915050565b6112f981611292565b82525050565b5f81519050919050565b5f82825260208201905092915050565b5f5b8381101561133657808201518184015260208101905061131b565b5f8484015250505050565b5f601f19601f8301169050919050565b5f61135b826112ff565b6113658185611309565b9350611375818560208601611319565b61137e81611341565b840191505092915050565b5f73ffffffffffffffffffffffffffffffffffffffff82169050919050565b5f6113b282611389565b9050919050565b6113c2816113a8565b82525050565b5f81519050919050565b5f82825260208201905092915050565b5f819050602082019050919050565b5f6113fc83836112f0565b60208301905092915050565b5f602082019050919050565b5f61141e826113c8565b61142881856113d2565b9350611433836113e2565b805f5b8381101561146357815161144a88826113f1565b975061145583611408565b925050600181019050611436565b5085935050505092915050565b5f61014083015f8301516114865f8601826112f0565b506020830151848203602086015261149e8282611351565b915050604083015184820360408601526114b88282611351565b915050606083015184820360608601526114d28282611351565b915050608083015184820360808601526114ec8282611351565b91505060a083015161150160a08601826112f0565b5060c083015161151460c08601826112f0565b5060e083015184820360e086015261152c8282611351565b9150506101008301516115436101008601826113b9565b5061012083015184820361012086015261155d8282611414565b9150508091505092915050565b5f6020820190508181035f8301526115828184611470565b905092915050565b611593816113a8565b811461159d575f80fd5b50565b5f813590506115ae8161158a565b92915050565b5f80604083850312156115ca576115c961128a565b5b5f6115d7858286016112b1565b92505060206115e8858286016115a0565b9150509250929050565b5f80fd5b5f80fd5b7f4e487b71000000000000000000000000000000000000000000000000000000005f52604160045260245ffd5b61163082611341565b810181811067ffffffffffffffff8211171561164f5761164e6115fa565b5b80604052505050565b5f611661611281565b905061166d8282611627565b919050565b5f67ffffffffffffffff82111561168c5761168b6115fa565b5b61169582611341565b9050602081019050919050565b828183375f83830152505050565b5f6116c26116bd84611672565b611658565b9050828152602081018484840111156116de576116dd6115f6565b5b6116e98482856116a2565b509392505050565b5f82601f830112611705576117046115f2565b5b81356117158482602086016116b0565b91505092915050565b5f805f805f8060c087890312156117385761173761128a565b5b5f87013567ffffffffffffffff8111156117555761175461128e565b5b61176189828a016116f1565b965050602087013567ffffffffffffffff8111156117825761178161128e565b5b61178e89828a016116f1565b955050604087013567ffffffffffffffff8111156117af576117ae61128e565b5b6117bb89828a016116f1565b945050606087013567ffffffffffffffff8111156117dc576117db61128e565b5b6117e889828a016116f1565b93505060806117f989828a016112b1565b92505060a061180a89828a016112b1565b9150509295509295509295565b5f806040838503121561182d5761182c61128a565b5b5f61183a858286016112b1565b925050602083013567ffffffffffffffff81111561185b5761185a61128e565b5b611867858286016116f1565b9150509250929050565b5f602082840312156118865761188561128a565b5b5f611893848285016115a0565b91505092915050565b5f608083015f8301516118b15f8601826113b9565b50602083015184820360208601526118c98282611351565b915050604083015184820360408601526118e38282611351565b915050606083015184820360608601526118fd8282611351565b9150508091505092915050565b5f6020820190508181035f830152611922818461189c565b905092915050565b5f81519050919050565b5f82825260208201905092915050565b5f819050602082019050919050565b608082015f8201516119675f8501826112f0565b50602082015161197a60208501826112f0565b50604082015161198d60408501826112f0565b5060608201516119a060608501826113b9565b50505050565b5f6119b18383611953565b60808301905092915050565b5f602082019050919050565b5f6119d38261192a565b6119dd8185611934565b93506119e883611944565b805f5b83811015611a185781516119ff88826119a6565b9750611a0a836119bd565b9250506001810190506119eb565b5085935050505092915050565b5f6020820190508181035f830152611a3d81846119c9565b905092915050565b5f805f60608486031215611a5c57611a5b61128a565b5b5f84013567ffffffffffffffff811115611a7957611a7861128e565b5b611a85868287016116f1565b935050602084013567ffffffffffffffff811115611aa657611aa561128e565b5b611ab2868287016116f1565b925050604084013567ffffffffffffffff811115611ad357611ad261128e565b5b611adf868287016116f1565b9150509250925092565b7f4e487b71000000000000000000000000000000000000000000000000000000005f52602260045260245ffd5b5f6002820490506001821680611b2d57607f821691505b602082108103611b4057611b3f611ae9565b5b50919050565b5f82825260208201905092915050565b7f4f6e6c79207468652063757272656e74206f776e65722063616e20706572666f5f8201527f726d207468697320616374696f6e2e0000000000000000000000000000000000602082015250565b5f611bb0602f83611b46565b9150611bbb82611b56565b604082019050919050565b5f6020820190508181035f830152611bdd81611ba4565b9050919050565b7f4e487b71000000000000000000000000000000000000000000000000000000005f52601160045260245ffd5b5f611c1b82611292565b91507fffffffffffffffffffffffffffffffffffffffffffffffffffffffffffffffff8203611c4d57611c4c611be4565b5b600182019050919050565b611c6181611292565b82525050565b5f602082019050611c7a5f830184611c58565b92915050565b5f81905092915050565b5f611c94826112ff565b611c9e8185611c80565b9350611cae818560208601611319565b80840191505092915050565b5f611cc58284611c8a565b915081905092915050565b5f819050815f5260205f209050919050565b5f8154611cee81611b16565b611cf88186611c80565b9450600182165f8114611d125760018114611d2757611d59565b60ff1983168652811515820286019350611d59565b611d3085611cd0565b5f5b83811015611d5157815481890152600182019150602081019050611d32565b838801955050505b50505092915050565b5f611d6d8284611ce2565b915081905092915050565b7f4e6f7420617574686f72697a65642e00000000000000000000000000000000005f82015250565b5f611dac600f83611b46565b9150611db782611d78565b602082019050919050565b5f6020820190508181035f830152611dd981611da0565b9050919050565b5f6020601f8301049050919050565b5f82821b905092915050565b5f60088302611e2a7fffffffffffffffffffffffffffffffffffffffffffffffffffffffffffffffff82611def565b611e348683611def565b95508019841693508086168417925050509392505050565b5f819050919050565b5f611e6f611e6a611e6584611292565b611e4c565b611292565b9050919050565b5f819050919050565b611e8883611e55565b611e9c611e9482611e76565b848454611dfb565b825550505050565b5f90565b611eb0611ea4565b611ebb818484611e7f565b505050565b5b81811015611ede57611ed35f82611ea8565b600181019050611ec1565b5050565b601f821115611f2357611ef481611cd0565b611efd84611de0565b81016020851015611f0c578190505b611f20611f1885611de0565b830182611ec0565b50505b505050565b5f82821c905092915050565b5f611f435f1984600802611f28565b1980831691505092915050565b5f611f5b8383611f34565b9150826002028217905092915050565b611f74826112ff565b67ffffffffffffffff811115611f8d57611f8c6115fa565b5b611f978254611b16565b611fa2828285611ee2565b5f60209050601f831160018114611fd3575f8415611fc1578287015190505b611fcb8582611f50565b865550612032565b601f198416611fe186611cd0565b5f5b8281101561200857848901518255600182019150602085019450602081019050611fe3565b868310156120255784890151612021601f891682611f34565b8355505b6001600288020188555050505b505050505050565b5f612044826112ff565b61204e8185611b46565b935061205e818560208601611319565b61206781611341565b840191505092915050565b5f6040820190506120855f830185611c58565b8181036020830152612097818461203a565b90509392505050565b7f5573657220616c726561647920726567697374657265642e00000000000000005f82015250565b5f6120d4601883611b46565b91506120df826120a0565b602082019050919050565b5f6020820190508181035f830152612101816120c8565b9050919050565b5f6040820190508181035f830152612120818561203a565b90508181036020830152612134818461203a565b9050939250505056fea2646970667358221220cb1c790c3b1e13f5e100013181fa3ecffe4bb8cc8d92b365e4d5a648933d397e64736f6c63430008150033",
  "immutableReferences": {},
  "source": "// SPDX-License-Identifier: MIT\r\npragma solidity ^0.8.0;\r\n\r\ncontract ShipmentManager {\r\n\r\n    struct Shipment {\r\n        uint256 id;\r\n        string productName;\r\n        string description;\r\n        string origin;\r\n        string destination;\r\n        uint256 units;\r\n        uint256 weight;\r\n        string currentState;\r\n        address currentOwner;\r\n        uint256[] history;\r\n    }\r\n\r\n    struct Transfer {\r\n        uint256 id;\r\n        uint256 shipmentId;\r\n        uint256 timestamp;\r\n        address newOwner;\r\n    }\r\n\r\n    struct User {\r\n        address userAddress;\r\n        string name;\r\n        string role;\r\n        string email;\r\n    }\r\n\r\n    uint256 private nextShipmentId;\r\n    uint256 private nextTransferId;\r\n\r\n    mapping(uint256 => Shipment) private shipments; // shipmentId => Shipment\r\n    mapping(uint256 => Transfer[]) private transfersByShipment; // shipmentId => array of Transfers\r\n    mapping(address => User) private users; // userAddress => User\r\n\r\n    // Events\r\n    event ShipmentCreated(uint256 shipmentId, address indexed owner);\r\n    event ShipmentUpdated(uint256 shipmentId, string newState, address indexed updatedBy);\r\n    event OwnershipTransferred(uint256 shipmentId, address indexed newOwner, address indexed previousOwner);\r\n    event UserRegistered(address indexed userAddress, string name, string role);\r\n\r\n    // Modifiers\r\n    modifier onlyOwner(uint256 shipmentId) {\r\n        require(shipments[shipmentId].currentOwner == msg.sender, \"Only the current owner can perform this action.\");\r\n        _;\r\n    }\r\n\r\n    modifier onlyAuthorized(string memory requiredRole) {\r\n        require(keccak256(abi.encodePacked(users[msg.sender].role)) == keccak256(abi.encodePacked(requiredRole)), \"Not authorized.\");\r\n        _;\r\n    }\r\n\r\n    // Functions\r\n\r\n    // Register a new user\r\n    function registerUser(string memory name, string memory role, string memory email) public {\r\n        require(users[msg.sender].userAddress == address(0), \"User already registered.\");\r\n        users[msg.sender] = User({userAddress: msg.sender, name: name, role: role, email: email});\r\n        emit UserRegistered(msg.sender, name, role);\r\n    }\r\n\r\n    // Create a new shipment\r\n    function createShipment(\r\n        string memory productName,\r\n        string memory description,\r\n        string memory origin,\r\n        string memory destination,\r\n        uint256 units,\r\n        uint256 weight\r\n    ) public onlyAuthorized(\"manager\") {\r\n        uint256 shipmentId = nextShipmentId++;\r\n        shipments[shipmentId] = Shipment({\r\n            id: shipmentId,\r\n            productName: productName,\r\n            description: description,\r\n            origin: origin,\r\n            destination: destination,\r\n            units: units,\r\n            weight: weight,\r\n            currentState: \"Created\",\r\n            currentOwner: msg.sender,\r\n            history: new uint256[](0)\r\n        });\r\n        emit ShipmentCreated(shipmentId, msg.sender);\r\n    }\r\n\r\n    // Update the shipment state\r\n    function updateShipment(uint256 shipmentId, string memory newState) public onlyOwner(shipmentId) {\r\n        Shipment storage shipment = shipments[shipmentId];\r\n        shipment.currentState = newState;\r\n        shipment.history.push(block.timestamp);\r\n        emit ShipmentUpdated(shipmentId, newState, msg.sender);\r\n    }\r\n\r\n    // Transfer ownership of a shipment\r\n    function transferOwnership(uint256 shipmentId, address newOwner) public onlyOwner(shipmentId) {\r\n        Shipment storage shipment = shipments[shipmentId];\r\n        shipment.currentOwner = newOwner;\r\n\r\n        // Record the transfer\r\n        transfersByShipment[shipmentId].push(Transfer({\r\n            id: nextTransferId++,\r\n            shipmentId: shipmentId,\r\n            timestamp: block.timestamp,\r\n            newOwner: newOwner\r\n        }));\r\n\r\n        emit OwnershipTransferred(shipmentId, newOwner, msg.sender);\r\n    }\r\n\r\n    // Get shipment details\r\n    function getShipment(uint256 shipmentId) public view returns (Shipment memory) {\r\n        return shipments[shipmentId];\r\n    }\r\n\r\n    // Get transfer history for a shipment\r\n    function getTransferHistory(uint256 shipmentId) public view returns (Transfer[] memory) {\r\n        return transfersByShipment[shipmentId];\r\n    }\r\n\r\n    // Get user details\r\n    function getUser(address userAddress) public view returns (User memory) {\r\n        return users[userAddress];\r\n    }\r\n}\r\n",
  "sourcePath": "C:\\Users\\Usuario\\OneDrive\\Documentos\\GitHub\\blocked-supply\\blocked-supply-truffle\\contracts\\ShipmentManagemer.sol",
  "compiler": {
    "name": "solc",
    "version": "0.8.21+commit.d9974bed.Emscripten.clang"
  },
  "schemaVersion": "3.4.16",
  "updatedAt": "2025-01-24T20:32:34.073Z",
  "devdoc": {
    "kind": "dev",
    "methods": {},
    "version": 1
  },
  "userdoc": {
    "kind": "user",
    "methods": {},
    "version": 1
  }
}