{
  "contractName": "ShipmentManagement",
  "abi": [
    {
      "anonymous": false,
      "inputs": [
        {
          "indexed": false,
          "internalType": "uint256",
          "name": "shipmentId",
          "type": "uint256"
        },
        {
          "indexed": false,
          "internalType": "string",
          "name": "productName",
          "type": "string"
        },
        {
          "indexed": false,
          "internalType": "string",
          "name": "description",
          "type": "string"
        },
        {
          "indexed": false,
          "internalType": "string",
          "name": "origin",
          "type": "string"
        },
        {
          "indexed": false,
          "internalType": "string",
          "name": "destination",
          "type": "string"
        },
        {
          "indexed": false,
          "internalType": "uint256",
          "name": "units",
          "type": "uint256"
        },
        {
          "indexed": false,
          "internalType": "uint256",
          "name": "weight",
          "type": "uint256"
        },
        {
          "indexed": true,
          "internalType": "address",
          "name": "owner",
          "type": "address"
        }
      ],
      "name": "ShipmentCreated",
      "type": "event"
    },
    {
      "anonymous": false,
      "inputs": [
        {
          "indexed": false,
          "internalType": "uint256",
          "name": "shipmentId",
          "type": "uint256"
        },
        {
          "indexed": false,
          "internalType": "uint256",
          "name": "timestamp",
          "type": "uint256"
        },
        {
          "indexed": true,
          "internalType": "address",
          "name": "previousOwner",
          "type": "address"
        },
        {
          "indexed": true,
          "internalType": "address",
          "name": "newShipmentOwner",
          "type": "address"
        },
        {
          "indexed": false,
          "internalType": "enum ShipmentManagement.ShipmentState",
          "name": "newState",
          "type": "uint8"
        },
        {
          "indexed": false,
          "internalType": "string",
          "name": "transferNotes",
          "type": "string"
        }
      ],
      "name": "ShipmentTransfer",
      "type": "event"
    },
    {
      "anonymous": false,
      "inputs": [
        {
          "indexed": true,
          "internalType": "address",
          "name": "userAddress",
          "type": "address"
        },
        {
          "indexed": false,
          "internalType": "string",
          "name": "name",
          "type": "string"
        },
        {
          "indexed": false,
          "internalType": "string",
          "name": "email",
          "type": "string"
        },
        {
          "indexed": false,
          "internalType": "enum ShipmentManagement.UserRoles[]",
          "name": "roles",
          "type": "uint8[]"
        }
      ],
      "name": "UserRegistered",
      "type": "event"
    },
    {
      "inputs": [
        {
          "internalType": "string",
          "name": "name",
          "type": "string"
        },
        {
          "internalType": "enum ShipmentManagement.UserRoles[]",
          "name": "roles",
          "type": "uint8[]"
        },
        {
          "internalType": "string",
          "name": "email",
          "type": "string"
        }
      ],
      "name": "registerUser",
      "outputs": [],
      "stateMutability": "nonpayable",
      "type": "function"
    },
    {
      "inputs": [
        {
          "internalType": "string",
          "name": "productName",
          "type": "string"
        },
        {
          "internalType": "string",
          "name": "description",
          "type": "string"
        },
        {
          "internalType": "string",
          "name": "origin",
          "type": "string"
        },
        {
          "internalType": "string",
          "name": "destination",
          "type": "string"
        },
        {
          "internalType": "uint256",
          "name": "units",
          "type": "uint256"
        },
        {
          "internalType": "uint256",
          "name": "weight",
          "type": "uint256"
        }
      ],
      "name": "createShipment",
      "outputs": [],
      "stateMutability": "nonpayable",
      "type": "function"
    },
    {
      "inputs": [
        {
          "internalType": "uint256",
          "name": "shipmentId",
          "type": "uint256"
        },
        {
          "internalType": "address",
          "name": "newShipmentOwner",
          "type": "address"
        },
        {
          "internalType": "enum ShipmentManagement.ShipmentState",
          "name": "newState",
          "type": "uint8"
        },
        {
          "internalType": "string",
          "name": "transferNotes",
          "type": "string"
        }
      ],
      "name": "shipmentTransfer",
      "outputs": [],
      "stateMutability": "nonpayable",
      "type": "function"
    },
    {
      "inputs": [
        {
          "internalType": "uint256",
          "name": "shipmentId",
          "type": "uint256"
        }
      ],
      "name": "getShipment",
      "outputs": [
        {
          "components": [
            {
              "internalType": "uint256",
              "name": "id",
              "type": "uint256"
            },
            {
              "internalType": "string",
              "name": "name",
              "type": "string"
            },
            {
              "internalType": "string",
              "name": "description",
              "type": "string"
            },
            {
              "internalType": "string",
              "name": "origin",
              "type": "string"
            },
            {
              "internalType": "string",
              "name": "destination",
              "type": "string"
            },
            {
              "internalType": "uint256",
              "name": "units",
              "type": "uint256"
            },
            {
              "internalType": "uint256",
              "name": "weight",
              "type": "uint256"
            },
            {
              "internalType": "enum ShipmentManagement.ShipmentState",
              "name": "currentState",
              "type": "uint8"
            },
            {
              "internalType": "address",
              "name": "currentOwner",
              "type": "address"
            },
            {
              "internalType": "uint256[]",
              "name": "transferHistory",
              "type": "uint256[]"
            }
          ],
          "internalType": "struct ShipmentManagement.Shipment",
          "name": "",
          "type": "tuple"
        }
      ],
      "stateMutability": "view",
      "type": "function"
    },
    {
      "inputs": [
        {
          "internalType": "uint256",
          "name": "shipmentId",
          "type": "uint256"
        }
      ],
      "name": "getTransferHistory",
      "outputs": [
        {
          "components": [
            {
              "internalType": "uint256",
              "name": "id",
              "type": "uint256"
            },
            {
              "internalType": "uint256",
              "name": "shipmentId",
              "type": "uint256"
            },
            {
              "internalType": "uint256",
              "name": "timestamp",
              "type": "uint256"
            },
            {
              "internalType": "address",
              "name": "newShipmentOwner",
              "type": "address"
            },
            {
              "internalType": "string",
              "name": "transferNotes",
              "type": "string"
            }
          ],
          "internalType": "struct ShipmentManagement.Transfer[]",
          "name": "",
          "type": "tuple[]"
        }
      ],
      "stateMutability": "view",
      "type": "function"
    },
    {
      "inputs": [
        {
          "internalType": "address",
          "name": "userAddress",
          "type": "address"
        }
      ],
      "name": "getUser",
      "outputs": [
        {
          "components": [
            {
              "internalType": "address",
              "name": "userAddress",
              "type": "address"
            },
            {
              "internalType": "string",
              "name": "username",
              "type": "string"
            },
            {
              "internalType": "enum ShipmentManagement.UserRoles[]",
              "name": "roles",
              "type": "uint8[]"
            },
            {
              "internalType": "string",
              "name": "email",
              "type": "string"
            }
          ],
          "internalType": "struct ShipmentManagement.User",
          "name": "",
          "type": "tuple"
        }
      ],
      "stateMutability": "view",
      "type": "function"
    }
  ],
  "bytecode": "0x608060405234801561001057600080fd5b50612de2806100206000396000f3fe608060405234801561001057600080fd5b50600436106100625760003560e01c8063092b3740146100675780633fd185061461009757806357fb5eca146100b35780636f77926b146100cf5780638bb27d02146100ff578063f0d4e2571461012f575b600080fd5b610081600480360381019061007c9190611cd9565b61014b565b60405161008e919061200b565b60405180910390f35b6100b160048036038101906100ac9190612162565b6106d7565b005b6100cd60048036038101906100c8919061234c565b610b59565b005b6100e960048036038101906100e4919061241f565b610f57565b6040516100f691906125b4565b60405180910390f35b61011960048036038101906101149190611cd9565b6113c6565b604051610126919061270e565b60405180910390f35b61014960048036038101906101449190612755565b61174e565b005b610153611a30565b600080600460003373ffffffffffffffffffffffffffffffffffffffff1673ffffffffffffffffffffffffffffffffffffffff1681526020019081526020016000209050600073ffffffffffffffffffffffffffffffffffffffff168160000160009054906101000a900473ffffffffffffffffffffffffffffffffffffffff1673ffffffffffffffffffffffffffffffffffffffff160361022a576040517f08c379a000000000000000000000000000000000000000000000000000000000815260040161022190612835565b60405180910390fd5b6000805b826002018054905081101561031e578360038111156102505761024f611dae565b5b83600201828154811061026657610265612855565b5b90600052602060002090602091828204019190069054906101000a900460ff16600381111561029857610297611dae565b5b14806102fd5750600060038111156102b3576102b2611dae565b5b8360020182815481106102c9576102c8612855565b5b90600052602060002090602091828204019190069054906101000a900460ff1660038111156102fb576102fa611dae565b5b145b1561030b576001915061031e565b8080610316906128b3565b91505061022e565b508061035f576040517f08c379a000000000000000000000000000000000000000000000000000000000815260040161035690612947565b60405180910390fd5b60026000868152602001908152602001600020604051806101400160405290816000820154815260200160018201805461039890612996565b80601f01602080910402602001604051908101604052809291908181526020018280546103c490612996565b80156104115780601f106103e657610100808354040283529160200191610411565b820191906000526020600020905b8154815290600101906020018083116103f457829003601f168201915b5050505050815260200160028201805461042a90612996565b80601f016020809104026020016040519081016040528092919081815260200182805461045690612996565b80156104a35780601f10610478576101008083540402835291602001916104a3565b820191906000526020600020905b81548152906001019060200180831161048657829003601f168201915b505050505081526020016003820180546104bc90612996565b80601f01602080910402602001604051908101604052809291908181526020018280546104e890612996565b80156105355780601f1061050a57610100808354040283529160200191610535565b820191906000526020600020905b81548152906001019060200180831161051857829003601f168201915b5050505050815260200160048201805461054e90612996565b80601f016020809104026020016040519081016040528092919081815260200182805461057a90612996565b80156105c75780601f1061059c576101008083540402835291602001916105c7565b820191906000526020600020905b8154815290600101906020018083116105aa57829003601f168201915b5050505050815260200160058201548152602001600682015481526020016007820160009054906101000a900460ff16600381111561060957610608611dae565b5b600381111561061b5761061a611dae565b5b81526020016007820160019054906101000a900473ffffffffffffffffffffffffffffffffffffffff1673ffffffffffffffffffffffffffffffffffffffff1673ffffffffffffffffffffffffffffffffffffffff168152602001600882018054806020026020016040519081016040528092919081815260200182805480156106c457602002820191906000526020600020905b8154815260200190600101908083116106b0575b5050505050815250509350505050919050565b600080600460003373ffffffffffffffffffffffffffffffffffffffff1673ffffffffffffffffffffffffffffffffffffffff1681526020019081526020016000209050600073ffffffffffffffffffffffffffffffffffffffff168160000160009054906101000a900473ffffffffffffffffffffffffffffffffffffffff1673ffffffffffffffffffffffffffffffffffffffff16036107ae576040517f08c379a00000000000000000000000000000000000000000000000000000000081526004016107a590612835565b60405180910390fd5b6000805b82600201805490508110156108a2578360038111156107d4576107d3611dae565b5b8360020182815481106107ea576107e9612855565b5b90600052602060002090602091828204019190069054906101000a900460ff16600381111561081c5761081b611dae565b5b148061088157506000600381111561083757610836611dae565b5b83600201828154811061084d5761084c612855565b5b90600052602060002090602091828204019190069054906101000a900460ff16600381111561087f5761087e611dae565b5b145b1561088f57600191506108a2565b808061089a906128b3565b9150506107b2565b50806108e3576040517f08c379a00000000000000000000000000000000000000000000000000000000081526004016108da90612947565b60405180910390fd5b60008060008154809291906108f7906128b3565b9190505590506040518061014001604052808281526020018b81526020018a81526020018981526020018881526020018781526020018681526020016000600381111561094757610946611dae565b5b81526020013373ffffffffffffffffffffffffffffffffffffffff168152602001600067ffffffffffffffff81111561098357610982612037565b5b6040519080825280602002602001820160405280156109b15781602001602082028036833780820191505090505b50815250600260008381526020019081526020016000206000820151816000015560208201518160010190805190602001906109ee929190611aab565b506040820151816002019080519060200190610a0b929190611aab565b506060820151816003019080519060200190610a28929190611aab565b506080820151816004019080519060200190610a45929190611aab565b5060a0820151816005015560c0820151816006015560e08201518160070160006101000a81548160ff02191690836003811115610a8557610a84611dae565b5b02179055506101008201518160070160016101000a81548173ffffffffffffffffffffffffffffffffffffffff021916908373ffffffffffffffffffffffffffffffffffffffff160217905550610120820151816008019080519060200190610aef929190611b31565b509050503373ffffffffffffffffffffffffffffffffffffffff167f6e4aba77af1b5f8491619072c6ce5c2f2913827ce84ff883e18d40e6a43e3cfc828c8c8c8c8c8c604051610b459796959493929190612a0f565b60405180910390a250505050505050505050565b600073ffffffffffffffffffffffffffffffffffffffff16600460003373ffffffffffffffffffffffffffffffffffffffff1673ffffffffffffffffffffffffffffffffffffffff16815260200190815260200160002060000160009054906101000a900473ffffffffffffffffffffffffffffffffffffffff1673ffffffffffffffffffffffffffffffffffffffff1614610c2a576040517f08c379a0000000000000000000000000000000000000000000000000000000008152600401610c2190612ae6565b60405180910390fd5b6000825111610c6e576040517f08c379a0000000000000000000000000000000000000000000000000000000008152600401610c6590612b78565b60405180910390fd5b60005b8251811015610de85760006003811115610c8e57610c8d611dae565b5b838281518110610ca157610ca0612855565b5b60200260200101516003811115610cbb57610cba611dae565b5b1480610d05575060016003811115610cd657610cd5611dae565b5b838281518110610ce957610ce8612855565b5b60200260200101516003811115610d0357610d02611dae565b5b145b80610d4e575060026003811115610d1f57610d1e611dae565b5b838281518110610d3257610d31612855565b5b60200260200101516003811115610d4c57610d4b611dae565b5b145b80610d965750600380811115610d6757610d66611dae565b5b838281518110610d7a57610d79612855565b5b60200260200101516003811115610d9457610d93611dae565b5b145b610dd5576040517f08c379a0000000000000000000000000000000000000000000000000000000008152600401610dcc90612be4565b60405180910390fd5b8080610de0906128b3565b915050610c71565b5060405180608001604052803373ffffffffffffffffffffffffffffffffffffffff16815260200184815260200183815260200182815250600460003373ffffffffffffffffffffffffffffffffffffffff1673ffffffffffffffffffffffffffffffffffffffff16815260200190815260200160002060008201518160000160006101000a81548173ffffffffffffffffffffffffffffffffffffffff021916908373ffffffffffffffffffffffffffffffffffffffff1602179055506020820151816001019080519060200190610ec2929190611aab565b506040820151816002019080519060200190610edf929190611b7e565b506060820151816003019080519060200190610efc929190611aab565b509050503373ffffffffffffffffffffffffffffffffffffffff167fe188483f9b22fd36f23286d7e19bfa4a09a7e3b9f87e0f49e27479815e340f16848385604051610f4a93929190612c73565b60405180910390a2505050565b610f5f611c34565b600080600460003373ffffffffffffffffffffffffffffffffffffffff1673ffffffffffffffffffffffffffffffffffffffff1681526020019081526020016000209050600073ffffffffffffffffffffffffffffffffffffffff168160000160009054906101000a900473ffffffffffffffffffffffffffffffffffffffff1673ffffffffffffffffffffffffffffffffffffffff1603611036576040517f08c379a000000000000000000000000000000000000000000000000000000000815260040161102d90612835565b60405180910390fd5b6000805b826002018054905081101561112a5783600381111561105c5761105b611dae565b5b83600201828154811061107257611071612855565b5b90600052602060002090602091828204019190069054906101000a900460ff1660038111156110a4576110a3611dae565b5b14806111095750600060038111156110bf576110be611dae565b5b8360020182815481106110d5576110d4612855565b5b90600052602060002090602091828204019190069054906101000a900460ff16600381111561110757611106611dae565b5b145b15611117576001915061112a565b8080611122906128b3565b91505061103a565b508061116b576040517f08c379a000000000000000000000000000000000000000000000000000000000815260040161116290612947565b60405180910390fd5b600460008673ffffffffffffffffffffffffffffffffffffffff1673ffffffffffffffffffffffffffffffffffffffff1681526020019081526020016000206040518060800160405290816000820160009054906101000a900473ffffffffffffffffffffffffffffffffffffffff1673ffffffffffffffffffffffffffffffffffffffff1673ffffffffffffffffffffffffffffffffffffffff16815260200160018201805461121b90612996565b80601f016020809104026020016040519081016040528092919081815260200182805461124790612996565b80156112945780601f1061126957610100808354040283529160200191611294565b820191906000526020600020905b81548152906001019060200180831161127757829003601f168201915b505050505081526020016002820180548060200260200160405190810160405280929190818152602001828054801561132157602002820191906000526020600020906000905b82829054906101000a900460ff1660038111156112fb576112fa611dae565b5b815260200190600101906020826000010492830192600103820291508084116112db5790505b5050505050815260200160038201805461133a90612996565b80601f016020809104026020016040519081016040528092919081815260200182805461136690612996565b80156113b35780601f10611388576101008083540402835291602001916113b3565b820191906000526020600020905b81548152906001019060200180831161139657829003601f168201915b5050505050815250509350505050919050565b606060016000600460003373ffffffffffffffffffffffffffffffffffffffff1673ffffffffffffffffffffffffffffffffffffffff1681526020019081526020016000209050600073ffffffffffffffffffffffffffffffffffffffff168160000160009054906101000a900473ffffffffffffffffffffffffffffffffffffffff1673ffffffffffffffffffffffffffffffffffffffff16036114a0576040517f08c379a000000000000000000000000000000000000000000000000000000000815260040161149790612835565b60405180910390fd5b6000805b8260020180549050811015611594578360038111156114c6576114c5611dae565b5b8360020182815481106114dc576114db612855565b5b90600052602060002090602091828204019190069054906101000a900460ff16600381111561150e5761150d611dae565b5b148061157357506000600381111561152957611528611dae565b5b83600201828154811061153f5761153e612855565b5b90600052602060002090602091828204019190069054906101000a900460ff16600381111561157157611570611dae565b5b145b156115815760019150611594565b808061158c906128b3565b9150506114a4565b50806115d5576040517f08c379a00000000000000000000000000000000000000000000000000000000081526004016115cc90612947565b60405180910390fd5b60036000868152602001908152602001600020805480602002602001604051908101604052809291908181526020016000905b8282101561174057838290600052602060002090600502016040518060a00160405290816000820154815260200160018201548152602001600282015481526020016003820160009054906101000a900473ffffffffffffffffffffffffffffffffffffffff1673ffffffffffffffffffffffffffffffffffffffff1673ffffffffffffffffffffffffffffffffffffffff1681526020016004820180546116af90612996565b80601f01602080910402602001604051908101604052809291908181526020018280546116db90612996565b80156117285780601f106116fd57610100808354040283529160200191611728565b820191906000526020600020905b81548152906001019060200180831161170b57829003601f168201915b50505050508152505081526020019060010190611608565b505050509350505050919050565b833373ffffffffffffffffffffffffffffffffffffffff166002600083815260200190815260200160002060070160019054906101000a900473ffffffffffffffffffffffffffffffffffffffff1673ffffffffffffffffffffffffffffffffffffffff16146117f3576040517f08c379a00000000000000000000000000000000000000000000000000000000081526004016117ea90612d31565b60405180910390fd5b6000600260008781526020019081526020016000209050848160070160016101000a81548173ffffffffffffffffffffffffffffffffffffffff021916908373ffffffffffffffffffffffffffffffffffffffff160217905550838160070160006101000a81548160ff0219169083600381111561187457611873611dae565b5b021790555060006001600081548092919061188e906128b3565b919050559050600360008881526020019081526020016000206040518060a001604052808381526020018981526020014281526020018873ffffffffffffffffffffffffffffffffffffffff16815260200186815250908060018154018082558091505060019003906000526020600020906005020160009091909190915060008201518160000155602082015181600101556040820151816002015560608201518160030160006101000a81548173ffffffffffffffffffffffffffffffffffffffff021916908373ffffffffffffffffffffffffffffffffffffffff160217905550608082015181600401908051906020019061198e929190611aab565b505050816008018190806001815401808255809150506001900390600052602060002001600090919091909150558573ffffffffffffffffffffffffffffffffffffffff163373ffffffffffffffffffffffffffffffffffffffff167f765484102c3104f38803a2407efc4e24f4d21830ba93ceb0692c79034dab73e889428989604051611a1f9493929190612d60565b60405180910390a350505050505050565b6040518061014001604052806000815260200160608152602001606081526020016060815260200160608152602001600081526020016000815260200160006003811115611a8157611a80611dae565b5b8152602001600073ffffffffffffffffffffffffffffffffffffffff168152602001606081525090565b828054611ab790612996565b90600052602060002090601f016020900481019282611ad95760008555611b20565b82601f10611af257805160ff1916838001178555611b20565b82800160010185558215611b20579182015b82811115611b1f578251825591602001919060010190611b04565b5b509050611b2d9190611c72565b5090565b828054828255906000526020600020908101928215611b6d579160200282015b82811115611b6c578251825591602001919060010190611b51565b5b509050611b7a9190611c72565b5090565b82805482825590600052602060002090601f01602090048101928215611c235791602002820160005b83821115611bf457835183826101000a81548160ff02191690836003811115611bd357611bd2611dae565b5b02179055509260200192600101602081600001049283019260010302611ba7565b8015611c215782816101000a81549060ff0219169055600101602081600001049283019260010302611bf4565b505b509050611c309190611c72565b5090565b6040518060800160405280600073ffffffffffffffffffffffffffffffffffffffff1681526020016060815260200160608152602001606081525090565b5b80821115611c8b576000816000905550600101611c73565b5090565b6000604051905090565b600080fd5b600080fd5b6000819050919050565b611cb681611ca3565b8114611cc157600080fd5b50565b600081359050611cd381611cad565b92915050565b600060208284031215611cef57611cee611c99565b5b6000611cfd84828501611cc4565b91505092915050565b611d0f81611ca3565b82525050565b600081519050919050565b600082825260208201905092915050565b60005b83811015611d4f578082015181840152602081019050611d34565b83811115611d5e576000848401525b50505050565b6000601f19601f8301169050919050565b6000611d8082611d15565b611d8a8185611d20565b9350611d9a818560208601611d31565b611da381611d64565b840191505092915050565b7f4e487b7100000000000000000000000000000000000000000000000000000000600052602160045260246000fd5b60048110611dee57611ded611dae565b5b50565b6000819050611dff82611ddd565b919050565b6000611e0f82611df1565b9050919050565b611e1f81611e04565b82525050565b600073ffffffffffffffffffffffffffffffffffffffff82169050919050565b6000611e5082611e25565b9050919050565b611e6081611e45565b82525050565b600081519050919050565b600082825260208201905092915050565b6000819050602082019050919050565b6000611e9e8383611d06565b60208301905092915050565b6000602082019050919050565b6000611ec282611e66565b611ecc8185611e71565b9350611ed783611e82565b8060005b83811015611f08578151611eef8882611e92565b9750611efa83611eaa565b925050600181019050611edb565b5085935050505092915050565b600061014083016000830151611f2e6000860182611d06565b5060208301518482036020860152611f468282611d75565b91505060408301518482036040860152611f608282611d75565b91505060608301518482036060860152611f7a8282611d75565b91505060808301518482036080860152611f948282611d75565b91505060a0830151611fa960a0860182611d06565b5060c0830151611fbc60c0860182611d06565b5060e0830151611fcf60e0860182611e16565b50610100830151611fe4610100860182611e57565b50610120830151848203610120860152611ffe8282611eb7565b9150508091505092915050565b600060208201905081810360008301526120258184611f15565b905092915050565b600080fd5b600080fd5b7f4e487b7100000000000000000000000000000000000000000000000000000000600052604160045260246000fd5b61206f82611d64565b810181811067ffffffffffffffff8211171561208e5761208d612037565b5b80604052505050565b60006120a1611c8f565b90506120ad8282612066565b919050565b600067ffffffffffffffff8211156120cd576120cc612037565b5b6120d682611d64565b9050602081019050919050565b82818337600083830152505050565b6000612105612100846120b2565b612097565b90508281526020810184848401111561212157612120612032565b5b61212c8482856120e3565b509392505050565b600082601f8301126121495761214861202d565b5b81356121598482602086016120f2565b91505092915050565b60008060008060008060c0878903121561217f5761217e611c99565b5b600087013567ffffffffffffffff81111561219d5761219c611c9e565b5b6121a989828a01612134565b965050602087013567ffffffffffffffff8111156121ca576121c9611c9e565b5b6121d689828a01612134565b955050604087013567ffffffffffffffff8111156121f7576121f6611c9e565b5b61220389828a01612134565b945050606087013567ffffffffffffffff81111561222457612223611c9e565b5b61223089828a01612134565b935050608061224189828a01611cc4565b92505060a061225289828a01611cc4565b9150509295509295509295565b600067ffffffffffffffff82111561227a57612279612037565b5b602082029050602081019050919050565b600080fd5b6004811061229d57600080fd5b50565b6000813590506122af81612290565b92915050565b60006122c86122c38461225f565b612097565b905080838252602082019050602084028301858111156122eb576122ea61228b565b5b835b81811015612314578061230088826122a0565b8452602084019350506020810190506122ed565b5050509392505050565b600082601f8301126123335761233261202d565b5b81356123438482602086016122b5565b91505092915050565b60008060006060848603121561236557612364611c99565b5b600084013567ffffffffffffffff81111561238357612382611c9e565b5b61238f86828701612134565b935050602084013567ffffffffffffffff8111156123b0576123af611c9e565b5b6123bc8682870161231e565b925050604084013567ffffffffffffffff8111156123dd576123dc611c9e565b5b6123e986828701612134565b9150509250925092565b6123fc81611e45565b811461240757600080fd5b50565b600081359050612419816123f3565b92915050565b60006020828403121561243557612434611c99565b5b60006124438482850161240a565b91505092915050565b600081519050919050565b600082825260208201905092915050565b6000819050602082019050919050565b6004811061248957612488611dae565b5b50565b600081905061249a82612478565b919050565b60006124aa8261248c565b9050919050565b6124ba8161249f565b82525050565b60006124cc83836124b1565b60208301905092915050565b6000602082019050919050565b60006124f08261244c565b6124fa8185612457565b935061250583612468565b8060005b8381101561253657815161251d88826124c0565b9750612528836124d8565b925050600181019050612509565b5085935050505092915050565b600060808301600083015161255b6000860182611e57565b50602083015184820360208601526125738282611d75565b9150506040830151848203604086015261258d82826124e5565b915050606083015184820360608601526125a78282611d75565b9150508091505092915050565b600060208201905081810360008301526125ce8184612543565b905092915050565b600081519050919050565b600082825260208201905092915050565b6000819050602082019050919050565b600060a08301600083015161261a6000860182611d06565b50602083015161262d6020860182611d06565b5060408301516126406040860182611d06565b5060608301516126536060860182611e57565b506080830151848203608086015261266b8282611d75565b9150508091505092915050565b60006126848383612602565b905092915050565b6000602082019050919050565b60006126a4826125d6565b6126ae81856125e1565b9350836020820285016126c0856125f2565b8060005b858110156126fc57848403895281516126dd8582612678565b94506126e88361268c565b925060208a019950506001810190506126c4565b50829750879550505050505092915050565b600060208201905081810360008301526127288184612699565b905092915050565b6004811061273d57600080fd5b50565b60008135905061274f81612730565b92915050565b6000806000806080858703121561276f5761276e611c99565b5b600061277d87828801611cc4565b945050602061278e8782880161240a565b935050604061279f87828801612740565b925050606085013567ffffffffffffffff8111156127c0576127bf611c9e565b5b6127cc87828801612134565b91505092959194509250565b600082825260208201905092915050565b7f55736572206e6f7420726567697374657265642e000000000000000000000000600082015250565b600061281f6014836127d8565b915061282a826127e9565b602082019050919050565b6000602082019050818103600083015261284e81612812565b9050919050565b7f4e487b7100000000000000000000000000000000000000000000000000000000600052603260045260246000fd5b7f4e487b7100000000000000000000000000000000000000000000000000000000600052601160045260246000fd5b60006128be82611ca3565b91507fffffffffffffffffffffffffffffffffffffffffffffffffffffffffffffffff82036128f0576128ef612884565b5b600182019050919050565b7f4e6f7420617574686f72697a656420666f72207468697320726f6c652e000000600082015250565b6000612931601d836127d8565b915061293c826128fb565b602082019050919050565b6000602082019050818103600083015261296081612924565b9050919050565b7f4e487b7100000000000000000000000000000000000000000000000000000000600052602260045260246000fd5b600060028204905060018216806129ae57607f821691505b6020821081036129c1576129c0612967565b5b50919050565b6129d081611ca3565b82525050565b60006129e182611d15565b6129eb81856127d8565b93506129fb818560208601611d31565b612a0481611d64565b840191505092915050565b600060e082019050612a24600083018a6129c7565b8181036020830152612a3681896129d6565b90508181036040830152612a4a81886129d6565b90508181036060830152612a5e81876129d6565b90508181036080830152612a7281866129d6565b9050612a8160a08301856129c7565b612a8e60c08301846129c7565b98975050505050505050565b7f5573657220616c726561647920726567697374657265642e0000000000000000600082015250565b6000612ad06018836127d8565b9150612adb82612a9a565b602082019050919050565b60006020820190508181036000830152612aff81612ac3565b9050919050565b7f55736572206d7573742068617665206174206c65617374206f6e6520726f6c6560008201527f2e00000000000000000000000000000000000000000000000000000000000000602082015250565b6000612b626021836127d8565b9150612b6d82612b06565b604082019050919050565b60006020820190508181036000830152612b9181612b55565b9050919050565b7f496e76616c696420726f6c652070726f76696465642e00000000000000000000600082015250565b6000612bce6016836127d8565b9150612bd982612b98565b602082019050919050565b60006020820190508181036000830152612bfd81612bc1565b9050919050565b600082825260208201905092915050565b6000612c208261244c565b612c2a8185612c04565b9350612c3583612468565b8060005b83811015612c66578151612c4d88826124c0565b9750612c58836124d8565b925050600181019050612c39565b5085935050505092915050565b60006060820190508181036000830152612c8d81866129d6565b90508181036020830152612ca181856129d6565b90508181036040830152612cb58184612c15565b9050949350505050565b7f4f6e6c79207468652063757272656e74206f776e65722063616e20706572666f60008201527f726d207468697320616374696f6e2e0000000000000000000000000000000000602082015250565b6000612d1b602f836127d8565b9150612d2682612cbf565b604082019050919050565b60006020820190508181036000830152612d4a81612d0e565b9050919050565b612d5a81611e04565b82525050565b6000608082019050612d7560008301876129c7565b612d8260208301866129c7565b612d8f6040830185612d51565b8181036060830152612da181846129d6565b90509594505050505056fea2646970667358221220a8ad014854de3d3a47854c2ceaeb992e6c82ce9202f7be59ebc64c63120ed47064736f6c634300080d0033",
  "immutableReferences": {},
  "source": "// SPDX-License-Identifier: MIT\r\npragma solidity ^0.8.0;\r\n\r\ncontract ShipmentManagement {\r\n\r\n    enum ShipmentState { CREATED, IN_TRANSIT, STORED, DELIVERED }\r\n    enum UserRoles { ADMIN, CUSTOMER, TRANSPORTER, WAREHOUSE }\r\n\r\n    struct Shipment {\r\n        uint256 id;\r\n        string name;\r\n        string description;\r\n        string origin;\r\n        string destination;\r\n        uint256 units;\r\n        uint256 weight;\r\n        ShipmentState currentState;\r\n        address currentOwner;\r\n        uint256[] transferHistory;\r\n    }\r\n\r\n    struct Transfer {\r\n        uint256 id;\r\n        uint256 shipmentId;\r\n        uint256 timestamp;\r\n        address newShipmentOwner;\r\n        string transferNotes;\r\n    }\r\n\r\n    struct User {\r\n        address userAddress;\r\n        string username;\r\n        UserRoles[] roles;\r\n        string email;\r\n    }\r\n\r\n    uint256 private nextShipmentId;\r\n    uint256 private nextTransferId;\r\n\r\n    mapping(uint256 => Shipment) private shipments;\r\n    mapping(uint256 => Transfer[]) private transfersByShipment;\r\n    mapping(address => User) private users;\r\n\r\n    event ShipmentCreated(uint256 shipmentId, string productName, string description, string origin, string destination, uint256 units, uint256 weight, address indexed owner);\r\n    event ShipmentTransfer(uint256 shipmentId, uint256 timestamp, address indexed previousOwner, address indexed newShipmentOwner, ShipmentState newState, string transferNotes);\r\n    event UserRegistered(address indexed userAddress, string name, string email, UserRoles[] roles);\r\n\r\n    // Modifiers\r\n\r\n    modifier onlyOwner(uint256 shipmentId) {\r\n        require(shipments[shipmentId].currentOwner == msg.sender, \"Only the current owner can perform this action.\");\r\n        _;\r\n    }\r\n\r\n    modifier onlyAuthorized(UserRoles requiredRole) {\r\n        User storage user = users[msg.sender];\r\n        require(user.userAddress != address(0), \"User not registered.\");\r\n\r\n        bool hasRole = false;\r\n        for (uint256 i = 0; i < user.roles.length; i++) {\r\n            if (user.roles[i] == requiredRole || user.roles[i] == UserRoles.ADMIN) {\r\n                hasRole = true;\r\n                break;\r\n            }\r\n        }\r\n        \r\n        require(hasRole, \"Not authorized for this role.\");\r\n        _;\r\n    }\r\n\r\n\r\n    // Functions\r\n\r\n    function registerUser(string memory name, UserRoles[] memory roles, string memory email) public {\r\n        require(users[msg.sender].userAddress == address(0), \"User already registered.\");\r\n        require(roles.length > 0, \"User must have at least one role.\");\r\n\r\n        for (uint256 i = 0; i < roles.length; i++) {\r\n            require(\r\n                roles[i] == UserRoles.ADMIN ||\r\n                roles[i] == UserRoles.CUSTOMER ||\r\n                roles[i] == UserRoles.TRANSPORTER ||\r\n                roles[i] == UserRoles.WAREHOUSE,\r\n                \"Invalid role provided.\"\r\n            );\r\n        }\r\n\r\n        users[msg.sender] = User({\r\n            userAddress: msg.sender,\r\n            username: name,\r\n            roles: roles,\r\n            email: email\r\n        });\r\n\r\n        emit UserRegistered(msg.sender, name, email, roles);\r\n    }\r\n\r\n    // Create a new shipment\r\n    function createShipment(\r\n        string memory productName,\r\n        string memory description,\r\n        string memory origin,\r\n        string memory destination,\r\n        uint256 units,\r\n        uint256 weight\r\n    ) public onlyAuthorized(UserRoles.ADMIN) {\r\n\r\n        uint256 shipmentId = nextShipmentId++;\r\n        shipments[shipmentId] = Shipment({\r\n            id: shipmentId,\r\n            name: productName,\r\n            description: description,\r\n            origin: origin,\r\n            destination: destination,\r\n            units: units,\r\n            weight: weight,\r\n            currentState: ShipmentState.CREATED,\r\n            currentOwner: msg.sender,\r\n            transferHistory: new uint256[](0) \r\n        });\r\n    \r\n        emit ShipmentCreated(shipmentId, productName, description, origin, destination, units, weight, msg.sender);\r\n    }\r\n\r\n\r\n    // Transfer ownership of a shipment\r\n    function shipmentTransfer(uint256 shipmentId, address newShipmentOwner, ShipmentState newState, string memory transferNotes) public onlyOwner(shipmentId) {\r\n        Shipment storage shipment = shipments[shipmentId];\r\n        \r\n        shipment.currentOwner = newShipmentOwner;\r\n        shipment.currentState = newState;\r\n\r\n        uint256 transferId = nextTransferId++;\r\n        transfersByShipment[shipmentId].push(Transfer({\r\n            id: transferId,\r\n            shipmentId: shipmentId,\r\n            timestamp: block.timestamp,\r\n            newShipmentOwner: newShipmentOwner,\r\n            transferNotes: transferNotes\r\n        }));\r\n        shipment.transferHistory.push(transferId);\r\n\r\n        emit ShipmentTransfer(shipmentId, block.timestamp, msg.sender, newShipmentOwner, newState, transferNotes);\r\n    }\r\n\r\n    // Get shipment details\r\n    function getShipment(uint256 shipmentId) public view onlyAuthorized(UserRoles.ADMIN) returns (Shipment memory) {\r\n        return shipments[shipmentId];\r\n    }\r\n\r\n    // Get transfer history for a shipment\r\n    function getTransferHistory(uint256 shipmentId) public onlyAuthorized(UserRoles.CUSTOMER) view returns (Transfer[] memory) {\r\n        return transfersByShipment[shipmentId];\r\n    }\r\n\r\n    // Get user details\r\n    function getUser(address userAddress) public onlyAuthorized(UserRoles.ADMIN) view returns (User memory) {\r\n        return users[userAddress];\r\n    }\r\n}\r\n",
  "sourcePath": "C:\\Users\\Usuario\\OneDrive\\Documentos\\GitHub\\blocked-supply\\blocked-supply-truffle\\contracts\\ShipmentManagement.sol",
  "compiler": {
    "name": "solc",
    "version": "0.8.13+commit.abaa5c0e.Emscripten.clang"
  },
  "schemaVersion": "3.4.16",
  "updatedAt": "2025-02-02T11:17:33.611Z",
  "devdoc": {
    "kind": "dev",
    "methods": {},
    "version": 1
  },
  "userdoc": {
    "kind": "user",
    "methods": {},
    "version": 1
  }
}