{
  "contractName": "ShipmentManagement",
  "abi": [
    {
      "anonymous": false,
      "inputs": [
        {
          "indexed": true,
          "internalType": "uint256",
          "name": "id",
          "type": "uint256"
        },
        {
          "indexed": false,
          "internalType": "string",
          "name": "name",
          "type": "string"
        },
        {
          "indexed": false,
          "internalType": "string",
          "name": "description",
          "type": "string"
        },
        {
          "indexed": false,
          "internalType": "string",
          "name": "origin",
          "type": "string"
        },
        {
          "indexed": false,
          "internalType": "string",
          "name": "destination",
          "type": "string"
        },
        {
          "indexed": false,
          "internalType": "uint256",
          "name": "units",
          "type": "uint256"
        },
        {
          "indexed": false,
          "internalType": "uint256",
          "name": "weight",
          "type": "uint256"
        },
        {
          "indexed": false,
          "internalType": "uint256",
          "name": "currentState",
          "type": "uint256"
        },
        {
          "indexed": false,
          "internalType": "address",
          "name": "currentOwner",
          "type": "address"
        }
      ],
      "name": "ShipmentRetrieved",
      "type": "event"
    },
    {
      "inputs": [
        {
          "internalType": "string",
          "name": "productName",
          "type": "string"
        },
        {
          "internalType": "string",
          "name": "description",
          "type": "string"
        },
        {
          "internalType": "string",
          "name": "origin",
          "type": "string"
        },
        {
          "internalType": "string",
          "name": "destination",
          "type": "string"
        },
        {
          "internalType": "uint256",
          "name": "units",
          "type": "uint256"
        },
        {
          "internalType": "uint256",
          "name": "weight",
          "type": "uint256"
        }
      ],
      "name": "createShipment",
      "outputs": [],
      "stateMutability": "nonpayable",
      "type": "function"
    },
    {
      "inputs": [
        {
          "internalType": "uint256",
          "name": "shipmentId",
          "type": "uint256"
        },
        {
          "internalType": "address",
          "name": "newShipmentOwner",
          "type": "address"
        },
        {
          "internalType": "enum ShipmentManagement.State",
          "name": "newState",
          "type": "uint8"
        },
        {
          "internalType": "string",
          "name": "transferNotes",
          "type": "string"
        }
      ],
      "name": "shipmentTransfer",
      "outputs": [],
      "stateMutability": "nonpayable",
      "type": "function"
    },
    {
      "inputs": [
        {
          "internalType": "uint256",
          "name": "shipmentId",
          "type": "uint256"
        }
      ],
      "name": "getShipment",
      "outputs": [],
      "stateMutability": "nonpayable",
      "type": "function"
    },
    {
      "inputs": [
        {
          "internalType": "uint256",
          "name": "shipmentId",
          "type": "uint256"
        }
      ],
      "name": "getTransferHistory",
      "outputs": [
        {
          "internalType": "uint256[]",
          "name": "ids",
          "type": "uint256[]"
        },
        {
          "internalType": "uint256[]",
          "name": "shipmentIds",
          "type": "uint256[]"
        },
        {
          "internalType": "uint256[]",
          "name": "timestamps",
          "type": "uint256[]"
        },
        {
          "internalType": "address[]",
          "name": "newOwners",
          "type": "address[]"
        },
        {
          "internalType": "string[]",
          "name": "transferNotes",
          "type": "string[]"
        }
      ],
      "stateMutability": "view",
      "type": "function"
    },
    {
      "inputs": [],
      "name": "getNextShipmentId",
      "outputs": [
        {
          "internalType": "uint256",
          "name": "",
          "type": "uint256"
        }
      ],
      "stateMutability": "view",
      "type": "function"
    },
    {
      "inputs": [],
      "name": "getNextTransferId",
      "outputs": [
        {
          "internalType": "uint256",
          "name": "",
          "type": "uint256"
        }
      ],
      "stateMutability": "view",
      "type": "function"
    }
  ],
  "bytecode": "0x608060405260016000556001805534801561001957600080fd5b506117d9806100296000396000f3fe608060405234801561001057600080fd5b50600436106100625760003560e01c80630475811114610067578063092b3740146100855780633fd18506146100a15780638bb27d02146100bd578063b465a0f2146100f1578063f0d4e2571461010f575b600080fd5b61006f61012b565b60405161007c9190610c3c565b60405180910390f35b61009f600480360381019061009a9190610c97565b610135565b005b6100bb60048036038101906100b69190610e0a565b6101f5565b005b6100d760048036038101906100d29190610c97565b610427565b6040516100e89594939291906111ff565b60405180910390f35b6100f96107b0565b6040516101069190610c3c565b60405180910390f35b610129600480360381019061012491906112c6565b6107b9565b005b6000600154905090565b600060026000838152602001908152602001600020905080600001547f831e0e8dc3ed954b099430b92578e7986428aea5da8dbbb51bfbddbce460b7af82600101836002018460030185600401866005015487600601548860070160009054906101000a900460ff1660038111156101b0576101af611349565b5b8960070160019054906101000a900473ffffffffffffffffffffffffffffffffffffffff166040516101e998979695949392919061148d565b60405180910390a25050565b60008211610238576040517f08c379a000000000000000000000000000000000000000000000000000000000815260040161022f90611573565b60405180910390fd5b6000811161027b576040517f08c379a0000000000000000000000000000000000000000000000000000000008152600401610272906115df565b60405180910390fd5b600080600081548092919061028f9061162e565b919050559050604051806101200160405280828152602001888152602001878152602001868152602001858152602001848152602001838152602001600060038111156102df576102de611349565b5b81526020013373ffffffffffffffffffffffffffffffffffffffff1681525060026000838152602001908152602001600020600082015181600001556020820151816001019080519060200190610337929190610b80565b506040820151816002019080519060200190610354929190610b80565b506060820151816003019080519060200190610371929190610b80565b50608082015181600401908051906020019061038e929190610b80565b5060a0820151816005015560c0820151816006015560e08201518160070160006101000a81548160ff021916908360038111156103ce576103cd611349565b5b02179055506101008201518160070160016101000a81548173ffffffffffffffffffffffffffffffffffffffff021916908373ffffffffffffffffffffffffffffffffffffffff16021790555090505050505050505050565b60608060608060606000600360008881526020019081526020016000208054905090508067ffffffffffffffff81111561046457610463610cdf565b5b6040519080825280602002602001820160405280156104925781602001602082028036833780820191505090505b5095508067ffffffffffffffff8111156104af576104ae610cdf565b5b6040519080825280602002602001820160405280156104dd5781602001602082028036833780820191505090505b5094508067ffffffffffffffff8111156104fa576104f9610cdf565b5b6040519080825280602002602001820160405280156105285781602001602082028036833780820191505090505b5093508067ffffffffffffffff81111561054557610544610cdf565b5b6040519080825280602002602001820160405280156105735781602001602082028036833780820191505090505b5092508067ffffffffffffffff8111156105905761058f610cdf565b5b6040519080825280602002602001820160405280156105c357816020015b60608152602001906001900390816105ae5790505b50915060005b818110156107a5576000600360008a815260200190815260200160002082815481106105f8576105f7611676565b5b9060005260206000209060050201905080600001548883815181106106205761061f611676565b5b602002602001018181525050806001015487838151811061064457610643611676565b5b602002602001018181525050806002015486838151811061066857610667611676565b5b6020026020010181815250508060030160009054906101000a900473ffffffffffffffffffffffffffffffffffffffff168583815181106106ac576106ab611676565b5b602002602001019073ffffffffffffffffffffffffffffffffffffffff16908173ffffffffffffffffffffffffffffffffffffffff16815250508060040180546106f5906113a7565b80601f0160208091040260200160405190810160405280929190818152602001828054610721906113a7565b801561076e5780601f106107435761010080835404028352916020019161076e565b820191906000526020600020905b81548152906001019060200180831161075157829003601f168201915b505050505084838151811061078657610785611676565b5b602002602001018190525050808061079d9061162e565b9150506105c9565b505091939590929450565b60008054905090565b833373ffffffffffffffffffffffffffffffffffffffff166002600083815260200190815260200160002060070160019054906101000a900473ffffffffffffffffffffffffffffffffffffffff1673ffffffffffffffffffffffffffffffffffffffff161461085e576040517f08c379a000000000000000000000000000000000000000000000000000000000815260040161085590611717565b60405180910390fd5b6002600086815260200190815260200160002060070160009054906101000a900460ff16836000600381111561089757610896611349565b5b8260038111156108aa576108a9611349565b5b1480156108db5750600160038111156108c6576108c5611349565b5b8160038111156108d9576108d8611349565b5b145b8061093a5750600160038111156108f5576108f4611349565b5b82600381111561090857610907611349565b5b14801561093957506002600381111561092457610923611349565b5b81600381111561093757610936611349565b5b145b5b8061099857506002600381111561095457610953611349565b5b82600381111561096757610966611349565b5b148015610997575060038081111561098257610981611349565b5b81600381111561099557610994611349565b5b145b5b6109d7576040517f08c379a00000000000000000000000000000000000000000000000000000000081526004016109ce90611783565b60405180910390fd5b6000600260008981526020019081526020016000209050868160070160016101000a81548173ffffffffffffffffffffffffffffffffffffffff021916908373ffffffffffffffffffffffffffffffffffffffff160217905550858160070160006101000a81548160ff02191690836003811115610a5857610a57611349565b5b0217905550600060016000815480929190610a729061162e565b919050559050600360008a81526020019081526020016000206040518060a001604052808381526020018b81526020014281526020018a73ffffffffffffffffffffffffffffffffffffffff16815260200188815250908060018154018082558091505060019003906000526020600020906005020160009091909190915060008201518160000155602082015181600101556040820151816002015560608201518160030160006101000a81548173ffffffffffffffffffffffffffffffffffffffff021916908373ffffffffffffffffffffffffffffffffffffffff1602179055506080820151816004019080519060200190610b72929190610b80565b505050505050505050505050565b828054610b8c906113a7565b90600052602060002090601f016020900481019282610bae5760008555610bf5565b82601f10610bc757805160ff1916838001178555610bf5565b82800160010185558215610bf5579182015b82811115610bf4578251825591602001919060010190610bd9565b5b509050610c029190610c06565b5090565b5b80821115610c1f576000816000905550600101610c07565b5090565b6000819050919050565b610c3681610c23565b82525050565b6000602082019050610c516000830184610c2d565b92915050565b6000604051905090565b600080fd5b600080fd5b610c7481610c23565b8114610c7f57600080fd5b50565b600081359050610c9181610c6b565b92915050565b600060208284031215610cad57610cac610c61565b5b6000610cbb84828501610c82565b91505092915050565b600080fd5b600080fd5b6000601f19601f8301169050919050565b7f4e487b7100000000000000000000000000000000000000000000000000000000600052604160045260246000fd5b610d1782610cce565b810181811067ffffffffffffffff82111715610d3657610d35610cdf565b5b80604052505050565b6000610d49610c57565b9050610d558282610d0e565b919050565b600067ffffffffffffffff821115610d7557610d74610cdf565b5b610d7e82610cce565b9050602081019050919050565b82818337600083830152505050565b6000610dad610da884610d5a565b610d3f565b905082815260208101848484011115610dc957610dc8610cc9565b5b610dd4848285610d8b565b509392505050565b600082601f830112610df157610df0610cc4565b5b8135610e01848260208601610d9a565b91505092915050565b60008060008060008060c08789031215610e2757610e26610c61565b5b600087013567ffffffffffffffff811115610e4557610e44610c66565b5b610e5189828a01610ddc565b965050602087013567ffffffffffffffff811115610e7257610e71610c66565b5b610e7e89828a01610ddc565b955050604087013567ffffffffffffffff811115610e9f57610e9e610c66565b5b610eab89828a01610ddc565b945050606087013567ffffffffffffffff811115610ecc57610ecb610c66565b5b610ed889828a01610ddc565b9350506080610ee989828a01610c82565b92505060a0610efa89828a01610c82565b9150509295509295509295565b600081519050919050565b600082825260208201905092915050565b6000819050602082019050919050565b610f3c81610c23565b82525050565b6000610f4e8383610f33565b60208301905092915050565b6000602082019050919050565b6000610f7282610f07565b610f7c8185610f12565b9350610f8783610f23565b8060005b83811015610fb8578151610f9f8882610f42565b9750610faa83610f5a565b925050600181019050610f8b565b5085935050505092915050565b600081519050919050565b600082825260208201905092915050565b6000819050602082019050919050565b600073ffffffffffffffffffffffffffffffffffffffff82169050919050565b600061101c82610ff1565b9050919050565b61102c81611011565b82525050565b600061103e8383611023565b60208301905092915050565b6000602082019050919050565b600061106282610fc5565b61106c8185610fd0565b935061107783610fe1565b8060005b838110156110a857815161108f8882611032565b975061109a8361104a565b92505060018101905061107b565b5085935050505092915050565b600081519050919050565b600082825260208201905092915050565b6000819050602082019050919050565b600081519050919050565b600082825260208201905092915050565b60005b8381101561111b578082015181840152602081019050611100565b8381111561112a576000848401525b50505050565b600061113b826110e1565b61114581856110ec565b93506111558185602086016110fd565b61115e81610cce565b840191505092915050565b60006111758383611130565b905092915050565b6000602082019050919050565b6000611195826110b5565b61119f81856110c0565b9350836020820285016111b1856110d1565b8060005b858110156111ed57848403895281516111ce8582611169565b94506111d98361117d565b925060208a019950506001810190506111b5565b50829750879550505050505092915050565b600060a08201905081810360008301526112198188610f67565b9050818103602083015261122d8187610f67565b905081810360408301526112418186610f67565b905081810360608301526112558185611057565b90508181036080830152611269818461118a565b90509695505050505050565b61127e81611011565b811461128957600080fd5b50565b60008135905061129b81611275565b92915050565b600481106112ae57600080fd5b50565b6000813590506112c0816112a1565b92915050565b600080600080608085870312156112e0576112df610c61565b5b60006112ee87828801610c82565b94505060206112ff8782880161128c565b9350506040611310878288016112b1565b925050606085013567ffffffffffffffff81111561133157611330610c66565b5b61133d87828801610ddc565b91505092959194509250565b7f4e487b7100000000000000000000000000000000000000000000000000000000600052602160045260246000fd5b7f4e487b7100000000000000000000000000000000000000000000000000000000600052602260045260246000fd5b600060028204905060018216806113bf57607f821691505b6020821081036113d2576113d1611378565b5b50919050565b600082825260208201905092915050565b60008190508160005260206000209050919050565b6000815461140b816113a7565b61141581866113d8565b94506001821660008114611430576001811461144257611475565b60ff1983168652602086019350611475565b61144b856113e9565b60005b8381101561146d5781548189015260018201915060208101905061144e565b808801955050505b50505092915050565b61148781611011565b82525050565b60006101008201905081810360008301526114a8818b6113fe565b905081810360208301526114bc818a6113fe565b905081810360408301526114d081896113fe565b905081810360608301526114e481886113fe565b90506114f36080830187610c2d565b61150060a0830186610c2d565b61150d60c0830185610c2d565b61151a60e083018461147e565b9998505050505050505050565b7f556e697473206d7573742062652067726561746572207468616e20302e000000600082015250565b600061155d601d836113d8565b915061156882611527565b602082019050919050565b6000602082019050818103600083015261158c81611550565b9050919050565b7f576569676874206d7573742062652067726561746572207468616e20302e0000600082015250565b60006115c9601e836113d8565b91506115d482611593565b602082019050919050565b600060208201905081810360008301526115f8816115bc565b9050919050565b7f4e487b7100000000000000000000000000000000000000000000000000000000600052601160045260246000fd5b600061163982610c23565b91507fffffffffffffffffffffffffffffffffffffffffffffffffffffffffffffffff820361166b5761166a6115ff565b5b600182019050919050565b7f4e487b7100000000000000000000000000000000000000000000000000000000600052603260045260246000fd5b7f4f6e6c79207468652063757272656e74206f776e65722063616e20706572666f60008201527f726d207468697320616374696f6e2e0000000000000000000000000000000000602082015250565b6000611701602f836113d8565b915061170c826116a5565b604082019050919050565b60006020820190508181036000830152611730816116f4565b9050919050565b7f496e76616c6964207374617465207472616e736974696f6e0000000000000000600082015250565b600061176d6018836113d8565b915061177882611737565b602082019050919050565b6000602082019050818103600083015261179c81611760565b905091905056fea2646970667358221220d35f9dd143e2ebff6e0c89c60e23a7664902507c05049932a992c6bce95ea54a64736f6c634300080d0033",
  "immutableReferences": {},
  "source": "// SPDX-License-Identifier: MIT\r\npragma solidity ^0.8.0;\r\n\r\ncontract ShipmentManagement {\r\n    enum State { CREATED, IN_TRANSIT, STORED, DELIVERED }\r\n\r\n    struct Shipment {\r\n        uint256 id;\r\n        string name;\r\n        string description;\r\n        string origin;\r\n        string destination;\r\n        uint256 units;\r\n        uint256 weight;\r\n        State currentState;\r\n        address currentOwner;\r\n    }\r\n\r\n    struct Transfer {\r\n        uint256 id;\r\n        uint256 shipmentId;\r\n        uint256 timestamp;\r\n        address newShipmentOwner;\r\n        string transferNotes;\r\n    }\r\n\r\n    event ShipmentRetrieved(\r\n        uint256 indexed id,\r\n        string name,\r\n        string description,\r\n        string origin,\r\n        string destination,\r\n        uint256 units,\r\n        uint256 weight,\r\n        uint256 currentState,\r\n        address currentOwner\r\n    );\r\n\r\n    uint256 private nextShipmentId = 1;\r\n    uint256 private nextTransferId = 1;\r\n\r\n    mapping(uint256 => Shipment) private shipments;\r\n    mapping(uint256 => Transfer[]) private transfersByShipment;\r\n\r\n    // Modifiers\r\n\r\n    modifier onlyOwner(uint256 shipmentId) {\r\n        require(shipments[shipmentId].currentOwner == msg.sender, \"Only the current owner can perform this action.\");\r\n        _;\r\n    }\r\n    \r\n    modifier validStateChange(State oldState, State newState) {\r\n        require(\r\n            (oldState == State.CREATED && newState == State.IN_TRANSIT) ||\r\n            (oldState == State.IN_TRANSIT && newState == State.STORED) ||\r\n            (oldState == State.STORED && newState == State.DELIVERED),\r\n            \"Invalid state transition\"\r\n        );\r\n        _;\r\n    }\r\n    \r\n    // Functions\r\n\r\n    function createShipment(\r\n        string memory productName,\r\n        string memory description,\r\n        string memory origin,\r\n        string memory destination,\r\n        uint256 units,\r\n        uint256 weight\r\n    ) public {\r\n        require(units > 0, \"Units must be greater than 0.\");\r\n        require(weight > 0, \"Weight must be greater than 0.\");\r\n        \r\n        uint256 shipmentId = nextShipmentId++;\r\n        shipments[shipmentId] = Shipment({\r\n            id: shipmentId,\r\n            name: productName,\r\n            description: description,\r\n            origin: origin,\r\n            destination: destination,\r\n            units: units,\r\n            weight: weight,\r\n            currentState: State.CREATED,\r\n            currentOwner: msg.sender\r\n        });\r\n    }\r\n\r\n    function shipmentTransfer(\r\n        uint256 shipmentId,\r\n        address newShipmentOwner,\r\n        State newState,\r\n        string memory transferNotes\r\n    ) public onlyOwner(shipmentId) validStateChange(shipments[shipmentId].currentState, newState) {\r\n        Shipment storage shipment = shipments[shipmentId];\r\n\r\n        shipment.currentOwner = newShipmentOwner;\r\n        shipment.currentState = newState;\r\n\r\n        uint256 transferId = nextTransferId++;\r\n        transfersByShipment[shipmentId].push(Transfer({\r\n            id: transferId,\r\n            shipmentId: shipmentId,\r\n            timestamp: block.timestamp,\r\n            newShipmentOwner: newShipmentOwner,\r\n            transferNotes: transferNotes\r\n        }));\r\n    }\r\n\r\n    function getShipment(uint256 shipmentId) public {\r\n        Shipment storage shipment = shipments[shipmentId];\r\n\r\n        emit ShipmentRetrieved(\r\n            shipment.id,\r\n            shipment.name,\r\n            shipment.description,\r\n            shipment.origin,\r\n            shipment.destination,\r\n            shipment.units,\r\n            shipment.weight,\r\n            uint256(shipment.currentState),\r\n            shipment.currentOwner\r\n        );\r\n    }\r\n\r\n    function getTransferHistory(uint256 shipmentId) public view returns (\r\n        uint256[] memory ids,\r\n        uint256[] memory shipmentIds,\r\n        uint256[] memory timestamps,\r\n        address[] memory newOwners,\r\n        string[] memory transferNotes\r\n    ) {\r\n        uint256 length = transfersByShipment[shipmentId].length;\r\n        ids = new uint256[](length);\r\n        shipmentIds = new uint256[](length);\r\n        timestamps = new uint256[](length);\r\n        newOwners = new address[](length);\r\n        transferNotes = new string[](length);\r\n\r\n        for (uint256 i = 0; i < length; i++) {\r\n            Transfer storage transfer = transfersByShipment[shipmentId][i];\r\n            ids[i] = transfer.id;\r\n            shipmentIds[i] = transfer.shipmentId;\r\n            timestamps[i] = transfer.timestamp;\r\n            newOwners[i] = transfer.newShipmentOwner;\r\n            transferNotes[i] = transfer.transferNotes;\r\n        }\r\n    }\r\n\r\n    function getNextShipmentId() public view returns (uint256) {\r\n        return nextShipmentId;\r\n    }\r\n\r\n    function getNextTransferId() public view returns (uint256) {\r\n        return nextTransferId;\r\n    }\r\n}\r\n",
  "sourcePath": "C:\\Users\\Usuario\\OneDrive\\Documentos\\GitHub\\blocked-supply\\blocked-supply-truffle\\contracts\\ShipmentManagement.sol",
  "compiler": {
    "name": "solc",
    "version": "0.8.13+commit.abaa5c0e.Emscripten.clang"
  },
  "schemaVersion": "3.4.16",
  "updatedAt": "2025-02-08T11:15:34.554Z",
  "devdoc": {
    "kind": "dev",
    "methods": {},
    "version": 1
  },
  "userdoc": {
    "kind": "user",
    "methods": {},
    "version": 1
  }
}