{
  "contractName": "ShipmentManagement",
  "abi": [
    {
      "anonymous": false,
      "inputs": [
        {
          "indexed": true,
          "internalType": "uint256",
          "name": "id",
          "type": "uint256"
        },
        {
          "indexed": false,
          "internalType": "address",
          "name": "currentOwner",
          "type": "address"
        }
      ],
      "name": "ShipmentCreated",
      "type": "event"
    },
    {
      "anonymous": false,
      "inputs": [
        {
          "indexed": true,
          "internalType": "uint256",
          "name": "id",
          "type": "uint256"
        },
        {
          "indexed": false,
          "internalType": "string",
          "name": "name",
          "type": "string"
        },
        {
          "indexed": false,
          "internalType": "string",
          "name": "description",
          "type": "string"
        },
        {
          "indexed": false,
          "internalType": "string",
          "name": "origin",
          "type": "string"
        },
        {
          "indexed": false,
          "internalType": "string",
          "name": "destination",
          "type": "string"
        },
        {
          "indexed": false,
          "internalType": "uint256",
          "name": "units",
          "type": "uint256"
        },
        {
          "indexed": false,
          "internalType": "uint256",
          "name": "weight",
          "type": "uint256"
        },
        {
          "indexed": false,
          "internalType": "uint256",
          "name": "currentState",
          "type": "uint256"
        },
        {
          "indexed": false,
          "internalType": "address",
          "name": "currentOwner",
          "type": "address"
        }
      ],
      "name": "ShipmentRetrieved",
      "type": "event"
    },
    {
      "anonymous": false,
      "inputs": [
        {
          "indexed": false,
          "internalType": "uint256",
          "name": "shipmentId",
          "type": "uint256"
        },
        {
          "indexed": false,
          "internalType": "uint256",
          "name": "newState",
          "type": "uint256"
        }
      ],
      "name": "TransferCreated",
      "type": "event"
    },
    {
      "anonymous": false,
      "inputs": [
        {
          "indexed": true,
          "internalType": "uint256",
          "name": "id",
          "type": "uint256"
        },
        {
          "indexed": false,
          "internalType": "uint256",
          "name": "shipmentId",
          "type": "uint256"
        },
        {
          "indexed": false,
          "internalType": "uint256",
          "name": "timestamp",
          "type": "uint256"
        },
        {
          "indexed": false,
          "internalType": "uint256",
          "name": "newState",
          "type": "uint256"
        },
        {
          "indexed": false,
          "internalType": "string",
          "name": "location",
          "type": "string"
        },
        {
          "indexed": false,
          "internalType": "address",
          "name": "newShipmentOwner",
          "type": "address"
        },
        {
          "indexed": false,
          "internalType": "string",
          "name": "transferNotes",
          "type": "string"
        }
      ],
      "name": "TransferRetrieved",
      "type": "event"
    },
    {
      "inputs": [
        {
          "internalType": "string",
          "name": "productName",
          "type": "string"
        },
        {
          "internalType": "string",
          "name": "description",
          "type": "string"
        },
        {
          "internalType": "string",
          "name": "origin",
          "type": "string"
        },
        {
          "internalType": "string",
          "name": "destination",
          "type": "string"
        },
        {
          "internalType": "uint256",
          "name": "units",
          "type": "uint256"
        },
        {
          "internalType": "uint256",
          "name": "weight",
          "type": "uint256"
        }
      ],
      "name": "createShipment",
      "outputs": [],
      "stateMutability": "nonpayable",
      "type": "function"
    },
    {
      "inputs": [
        {
          "internalType": "uint256",
          "name": "shipmentId",
          "type": "uint256"
        },
        {
          "internalType": "address",
          "name": "newShipmentOwner",
          "type": "address"
        },
        {
          "internalType": "enum ShipmentManagement.State",
          "name": "newState",
          "type": "uint8"
        },
        {
          "internalType": "string",
          "name": "location",
          "type": "string"
        },
        {
          "internalType": "string",
          "name": "transferNotes",
          "type": "string"
        }
      ],
      "name": "shipmentTransfer",
      "outputs": [],
      "stateMutability": "nonpayable",
      "type": "function"
    },
    {
      "inputs": [
        {
          "internalType": "uint256",
          "name": "shipmentId",
          "type": "uint256"
        }
      ],
      "name": "getShipment",
      "outputs": [],
      "stateMutability": "nonpayable",
      "type": "function"
    },
    {
      "inputs": [
        {
          "internalType": "uint256",
          "name": "shipmentId",
          "type": "uint256"
        },
        {
          "internalType": "uint256",
          "name": "index",
          "type": "uint256"
        }
      ],
      "name": "getTransferByIndex",
      "outputs": [],
      "stateMutability": "nonpayable",
      "type": "function"
    },
    {
      "inputs": [
        {
          "internalType": "uint256",
          "name": "shipmentId",
          "type": "uint256"
        }
      ],
      "name": "getTransferCount",
      "outputs": [
        {
          "internalType": "uint256",
          "name": "",
          "type": "uint256"
        }
      ],
      "stateMutability": "view",
      "type": "function"
    },
    {
      "inputs": [],
      "name": "getNextShipmentId",
      "outputs": [
        {
          "internalType": "uint256",
          "name": "",
          "type": "uint256"
        }
      ],
      "stateMutability": "view",
      "type": "function"
    },
    {
      "inputs": [],
      "name": "getNextTransferId",
      "outputs": [
        {
          "internalType": "uint256",
          "name": "",
          "type": "uint256"
        }
      ],
      "stateMutability": "view",
      "type": "function"
    }
  ],
  "bytecode": "0x608060405260016000556001805534801561001957600080fd5b50611478806100296000396000f3fe608060405234801561001057600080fd5b506004361061007c5760003560e01c80633fd185061161005b5780633fd18506146100eb57806398facc3b14610107578063a896fe4514610123578063b465a0f21461013f5761007c565b80623a4a0f1461008157806304758111146100b1578063092b3740146100cf575b600080fd5b61009b60048036038101906100969190610a93565b61015d565b6040516100a89190610acf565b60405180910390f35b6100b9610206565b6040516100c69190610acf565b60405180910390f35b6100e960048036038101906100e49190610a93565b610210565b005b61010560048036038101906101009190610c30565b610359565b005b610121600480360381019061011c9190610d2d565b6105c3565b005b61013d60048036038101906101389190610df0565b61069a565b005b61014761099d565b6040516101549190610acf565b60405180910390f35b600081600081116101a3576040517f08c379a000000000000000000000000000000000000000000000000000000000815260040161019a90610f26565b60405180910390fd5b60005481106101e7576040517f08c379a00000000000000000000000000000000000000000000000000000000081526004016101de90610f92565b60405180910390fd5b6003600084815260200190815260200160002080549050915050919050565b6000600154905090565b8060008111610254576040517f08c379a000000000000000000000000000000000000000000000000000000000815260040161024b90610f26565b60405180910390fd5b6000548110610298576040517f08c379a000000000000000000000000000000000000000000000000000000000815260040161028f90610f92565b60405180910390fd5b600060026000848152602001908152602001600020905080600001547f831e0e8dc3ed954b099430b92578e7986428aea5da8dbbb51bfbddbce460b7af82600101836002018460030185600401866005015487600601548860070160009054906101000a900460ff16600381111561031357610312610fb2565b5b8960070160019054906101000a900473ffffffffffffffffffffffffffffffffffffffff1660405161034c9897969594939291906110e5565b60405180910390a2505050565b6000821161039c576040517f08c379a0000000000000000000000000000000000000000000000000000000008152600401610393906111cb565b60405180910390fd5b600081116103df576040517f08c379a00000000000000000000000000000000000000000000000000000000081526004016103d690611237565b60405180910390fd5b60008060008154809291906103f390611286565b9190505590506040518061012001604052808281526020018881526020018781526020018681526020018581526020018481526020018381526020016000600381111561044357610442610fb2565b5b81526020013373ffffffffffffffffffffffffffffffffffffffff168152506002600083815260200190815260200160002060008201518160000155602082015181600101908051906020019061049b9291906109a6565b5060408201518160020190805190602001906104b89291906109a6565b5060608201518160030190805190602001906104d59291906109a6565b5060808201518160040190805190602001906104f29291906109a6565b5060a0820151816005015560c0820151816006015560e08201518160070160006101000a81548160ff0219169083600381111561053257610531610fb2565b5b02179055506101008201518160070160016101000a81548173ffffffffffffffffffffffffffffffffffffffff021916908373ffffffffffffffffffffffffffffffffffffffff160217905550905050807fe0f5cc97a7413c8504a43a017dde74af4822f66c59d6014c80548654138bc736336040516105b291906112ce565b60405180910390a250505050505050565b60006003600084815260200190815260200160002082815481106105ea576105e96112e9565b5b9060005260206000209060070201905080600001547fcd3a3f2736fc1d326c90624a647d8290aaa56c1bc81375e79ca971e40da12d65826001015483600201548460030160009054906101000a900460ff16600381111561064e5761064d610fb2565b5b856004018660050160009054906101000a900473ffffffffffffffffffffffffffffffffffffffff168760060160405161068d96959493929190611318565b60405180910390a2505050565b843373ffffffffffffffffffffffffffffffffffffffff166002600083815260200190815260200160002060070160019054906101000a900473ffffffffffffffffffffffffffffffffffffffff1673ffffffffffffffffffffffffffffffffffffffff161461073f576040517f08c379a0000000000000000000000000000000000000000000000000000000008152600401610736906113f9565b60405180910390fd5b6000600260008881526020019081526020016000209050858160070160016101000a81548173ffffffffffffffffffffffffffffffffffffffff021916908373ffffffffffffffffffffffffffffffffffffffff160217905550848160070160006101000a81548160ff021916908360038111156107c0576107bf610fb2565b5b02179055506000600160008154809291906107da90611286565b919050559050600360008981526020019081526020016000206040518060e001604052808381526020018a815260200142815260200188600381111561082357610822610fb2565b5b81526020018781526020018973ffffffffffffffffffffffffffffffffffffffff16815260200186815250908060018154018082558091505060019003906000526020600020906007020160009091909190915060008201518160000155602082015181600101556040820151816002015560608201518160030160006101000a81548160ff021916908360038111156108c0576108bf610fb2565b5b021790555060808201518160040190805190602001906108e19291906109a6565b5060a08201518160050160006101000a81548173ffffffffffffffffffffffffffffffffffffffff021916908373ffffffffffffffffffffffffffffffffffffffff16021790555060c08201518160060190805190602001906109459291906109a6565b5050507f8b787dd444d18433253cf8599645cbb4fe62e7cf6fa82ce67ab60f56ac3957708887600381111561097d5761097c610fb2565b5b60405161098b929190611419565b60405180910390a15050505050505050565b60008054905090565b8280546109b290611010565b90600052602060002090601f0160209004810192826109d45760008555610a1b565b82601f106109ed57805160ff1916838001178555610a1b565b82800160010185558215610a1b579182015b82811115610a1a5782518255916020019190600101906109ff565b5b509050610a289190610a2c565b5090565b5b80821115610a45576000816000905550600101610a2d565b5090565b6000604051905090565b600080fd5b600080fd5b6000819050919050565b610a7081610a5d565b8114610a7b57600080fd5b50565b600081359050610a8d81610a67565b92915050565b600060208284031215610aa957610aa8610a53565b5b6000610ab784828501610a7e565b91505092915050565b610ac981610a5d565b82525050565b6000602082019050610ae46000830184610ac0565b92915050565b600080fd5b600080fd5b6000601f19601f8301169050919050565b7f4e487b7100000000000000000000000000000000000000000000000000000000600052604160045260246000fd5b610b3d82610af4565b810181811067ffffffffffffffff82111715610b5c57610b5b610b05565b5b80604052505050565b6000610b6f610a49565b9050610b7b8282610b34565b919050565b600067ffffffffffffffff821115610b9b57610b9a610b05565b5b610ba482610af4565b9050602081019050919050565b82818337600083830152505050565b6000610bd3610bce84610b80565b610b65565b905082815260208101848484011115610bef57610bee610aef565b5b610bfa848285610bb1565b509392505050565b600082601f830112610c1757610c16610aea565b5b8135610c27848260208601610bc0565b91505092915050565b60008060008060008060c08789031215610c4d57610c4c610a53565b5b600087013567ffffffffffffffff811115610c6b57610c6a610a58565b5b610c7789828a01610c02565b965050602087013567ffffffffffffffff811115610c9857610c97610a58565b5b610ca489828a01610c02565b955050604087013567ffffffffffffffff811115610cc557610cc4610a58565b5b610cd189828a01610c02565b945050606087013567ffffffffffffffff811115610cf257610cf1610a58565b5b610cfe89828a01610c02565b9350506080610d0f89828a01610a7e565b92505060a0610d2089828a01610a7e565b9150509295509295509295565b60008060408385031215610d4457610d43610a53565b5b6000610d5285828601610a7e565b9250506020610d6385828601610a7e565b9150509250929050565b600073ffffffffffffffffffffffffffffffffffffffff82169050919050565b6000610d9882610d6d565b9050919050565b610da881610d8d565b8114610db357600080fd5b50565b600081359050610dc581610d9f565b92915050565b60048110610dd857600080fd5b50565b600081359050610dea81610dcb565b92915050565b600080600080600060a08688031215610e0c57610e0b610a53565b5b6000610e1a88828901610a7e565b9550506020610e2b88828901610db6565b9450506040610e3c88828901610ddb565b935050606086013567ffffffffffffffff811115610e5d57610e5c610a58565b5b610e6988828901610c02565b925050608086013567ffffffffffffffff811115610e8a57610e89610a58565b5b610e9688828901610c02565b9150509295509295909350565b600082825260208201905092915050565b7f536869706d656e74204944206d7573742062652067726561746572207468616e60008201527f20302e0000000000000000000000000000000000000000000000000000000000602082015250565b6000610f10602383610ea3565b9150610f1b82610eb4565b604082019050919050565b60006020820190508181036000830152610f3f81610f03565b9050919050565b7f536869706d656e7420646f6573206e6f742065786973742e0000000000000000600082015250565b6000610f7c601883610ea3565b9150610f8782610f46565b602082019050919050565b60006020820190508181036000830152610fab81610f6f565b9050919050565b7f4e487b7100000000000000000000000000000000000000000000000000000000600052602160045260246000fd5b7f4e487b7100000000000000000000000000000000000000000000000000000000600052602260045260246000fd5b6000600282049050600182168061102857607f821691505b60208210810361103b5761103a610fe1565b5b50919050565b60008190508160005260206000209050919050565b6000815461106381611010565b61106d8186610ea3565b94506001821660008114611088576001811461109a576110cd565b60ff19831686526020860193506110cd565b6110a385611041565b60005b838110156110c5578154818901526001820191506020810190506110a6565b808801955050505b50505092915050565b6110df81610d8d565b82525050565b6000610100820190508181036000830152611100818b611056565b90508181036020830152611114818a611056565b905081810360408301526111288189611056565b9050818103606083015261113c8188611056565b905061114b6080830187610ac0565b61115860a0830186610ac0565b61116560c0830185610ac0565b61117260e08301846110d6565b9998505050505050505050565b7f556e697473206d7573742062652067726561746572207468616e20302e000000600082015250565b60006111b5601d83610ea3565b91506111c08261117f565b602082019050919050565b600060208201905081810360008301526111e4816111a8565b9050919050565b7f576569676874206d7573742062652067726561746572207468616e20302e0000600082015250565b6000611221601e83610ea3565b915061122c826111eb565b602082019050919050565b6000602082019050818103600083015261125081611214565b9050919050565b7f4e487b7100000000000000000000000000000000000000000000000000000000600052601160045260246000fd5b600061129182610a5d565b91507fffffffffffffffffffffffffffffffffffffffffffffffffffffffffffffffff82036112c3576112c2611257565b5b600182019050919050565b60006020820190506112e360008301846110d6565b92915050565b7f4e487b7100000000000000000000000000000000000000000000000000000000600052603260045260246000fd5b600060c08201905061132d6000830189610ac0565b61133a6020830188610ac0565b6113476040830187610ac0565b81810360608301526113598186611056565b905061136860808301856110d6565b81810360a083015261137a8184611056565b9050979650505050505050565b7f4f6e6c79207468652063757272656e74206f776e65722063616e20706572666f60008201527f726d207468697320616374696f6e2e0000000000000000000000000000000000602082015250565b60006113e3602f83610ea3565b91506113ee82611387565b604082019050919050565b60006020820190508181036000830152611412816113d6565b9050919050565b600060408201905061142e6000830185610ac0565b61143b6020830184610ac0565b939250505056fea2646970667358221220e1e4974a43237287917f59c7f4087a98d4955353b32907b43554b4c75183d18864736f6c634300080d0033",
  "immutableReferences": {},
  "source": "// SPDX-License-Identifier: MIT\r\npragma solidity ^0.8.0;\r\n\r\ncontract ShipmentManagement {\r\n    enum State { CREATED, IN_TRANSIT, STORED, DELIVERED }\r\n\r\n    struct Shipment {\r\n        uint256 id;\r\n        string name;\r\n        string description;\r\n        string origin;\r\n        string destination;\r\n        uint256 units;\r\n        uint256 weight;\r\n        State currentState;\r\n        address currentOwner;\r\n    }\r\n\r\n    struct Transfer {\r\n        uint256 id;\r\n        uint256 shipmentId;\r\n        uint256 timestamp;\r\n        State newState;\r\n        string location;\r\n        address newShipmentOwner;\r\n        string transferNotes;\r\n    }\r\n\r\n    event ShipmentCreated(\r\n        uint256 indexed id,\r\n        address currentOwner\r\n    );\r\n\r\n    event TransferCreated(\r\n        uint256 shipmentId,\r\n        uint256 newState\r\n    );\r\n\r\n    event ShipmentRetrieved(\r\n        uint256 indexed id,\r\n        string name,\r\n        string description,\r\n        string origin,\r\n        string destination,\r\n        uint256 units,\r\n        uint256 weight,\r\n        uint256 currentState,\r\n        address currentOwner\r\n    );\r\n\r\n    event TransferRetrieved(\r\n        uint256 indexed id,\r\n        uint256 shipmentId,\r\n        uint256 timestamp,\r\n        uint256 newState,\r\n        string location,\r\n        address newShipmentOwner,\r\n        string transferNotes\r\n    );\r\n\r\n    uint256 private nextShipmentId = 1;\r\n    uint256 private nextTransferId = 1;\r\n\r\n    mapping(uint256 => Shipment) private shipments;\r\n    mapping(uint256 => Transfer[]) private transfersByShipment;\r\n\r\n    modifier onlyOwner(uint256 shipmentId) {\r\n        require(shipments[shipmentId].currentOwner == msg.sender, \"Only the current owner can perform this action.\");\r\n        _;\r\n    }\r\n\r\n    modifier exists(uint256 shipmentId) {\r\n        require(shipmentId > 0, \"Shipment ID must be greater than 0.\");\r\n        require(shipmentId < nextShipmentId, \"Shipment does not exist.\");\r\n        _;\r\n    }\r\n\r\n\r\n    function createShipment(\r\n        string memory productName,\r\n        string memory description,\r\n        string memory origin,\r\n        string memory destination,\r\n        uint256 units,\r\n        uint256 weight\r\n    ) public {\r\n        require(units > 0, \"Units must be greater than 0.\");\r\n        require(weight > 0, \"Weight must be greater than 0.\");\r\n        \r\n        uint256 shipmentId = nextShipmentId++;\r\n        shipments[shipmentId] = Shipment({\r\n            id: shipmentId,\r\n            name: productName,\r\n            description: description,\r\n            origin: origin,\r\n            destination: destination,\r\n            units: units,\r\n            weight: weight,\r\n            currentState: State.CREATED,\r\n            currentOwner: msg.sender\r\n        });\r\n\r\n        emit ShipmentCreated(shipmentId, msg.sender);\r\n    }\r\n\r\n    function shipmentTransfer(\r\n        uint256 shipmentId,\r\n        address newShipmentOwner,\r\n        State newState,\r\n        string memory location,\r\n        string memory transferNotes\r\n    ) public onlyOwner(shipmentId) {\r\n        Shipment storage shipment = shipments[shipmentId];\r\n        \r\n        shipment.currentOwner = newShipmentOwner;\r\n        shipment.currentState = newState;\r\n\r\n        uint256 transferId = nextTransferId++;\r\n        transfersByShipment[shipmentId].push(Transfer({\r\n            id: transferId,\r\n            shipmentId: shipmentId,\r\n            timestamp: block.timestamp,\r\n            newState: newState,\r\n            location: location,\r\n            newShipmentOwner: newShipmentOwner,\r\n            transferNotes: transferNotes\r\n        }));\r\n\r\n        emit TransferCreated(shipmentId, uint256(newState));\r\n    }\r\n\r\n    function getShipment(uint256 shipmentId) public exists(shipmentId){    \r\n        \r\n        Shipment storage shipment = shipments[shipmentId];\r\n\r\n        emit ShipmentRetrieved(\r\n            shipment.id,\r\n            shipment.name,\r\n            shipment.description,\r\n            shipment.origin,\r\n            shipment.destination,\r\n            shipment.units,\r\n            shipment.weight,\r\n            uint256(shipment.currentState),\r\n            shipment.currentOwner\r\n        );\r\n    }\r\n\r\n    function getTransferByIndex(uint256 shipmentId, uint256 index) public {\r\n        Transfer storage transfer = transfersByShipment[shipmentId][index];\r\n\r\n        emit TransferRetrieved(\r\n            transfer.id,\r\n            transfer.shipmentId,\r\n            transfer.timestamp,\r\n            uint256(transfer.newState),\r\n            transfer.location,\r\n            transfer.newShipmentOwner,\r\n            transfer.transferNotes\r\n        );\r\n    }\r\n\r\n    function getTransferCount(uint256 shipmentId) public exists(shipmentId) view returns (uint256) {\r\n        return transfersByShipment[shipmentId].length;\r\n    }\r\n\r\n    function getNextShipmentId() public view returns (uint256) {\r\n        return nextShipmentId;\r\n    }\r\n\r\n    function getNextTransferId() public view returns (uint256) {\r\n        return nextTransferId;\r\n    }\r\n}\r\n",
  "sourcePath": "C:\\Users\\Usuario\\OneDrive\\Documentos\\GitHub\\blocked-supply\\blocked-supply-truffle\\contracts\\ShipmentManagement.sol",
  "compiler": {
    "name": "solc",
    "version": "0.8.13+commit.abaa5c0e.Emscripten.clang"
  },
  "schemaVersion": "3.4.16",
  "updatedAt": "2025-03-15T17:46:48.161Z",
  "devdoc": {
    "kind": "dev",
    "methods": {},
    "version": 1
  },
  "userdoc": {
    "kind": "user",
    "methods": {},
    "version": 1
  }
}