{
  "contractName": "ShipmentManagement",
  "abi": [
    {
      "inputs": [
        {
          "internalType": "string",
          "name": "productName",
          "type": "string"
        },
        {
          "internalType": "string",
          "name": "description",
          "type": "string"
        },
        {
          "internalType": "string",
          "name": "origin",
          "type": "string"
        },
        {
          "internalType": "string",
          "name": "destination",
          "type": "string"
        },
        {
          "internalType": "uint256",
          "name": "units",
          "type": "uint256"
        },
        {
          "internalType": "uint256",
          "name": "weight",
          "type": "uint256"
        }
      ],
      "name": "createShipment",
      "outputs": [],
      "stateMutability": "nonpayable",
      "type": "function"
    },
    {
      "inputs": [
        {
          "internalType": "uint256",
          "name": "shipmentId",
          "type": "uint256"
        },
        {
          "internalType": "address",
          "name": "newShipmentOwner",
          "type": "address"
        },
        {
          "internalType": "enum ShipmentManagement.State",
          "name": "newState",
          "type": "uint8"
        },
        {
          "internalType": "string",
          "name": "transferNotes",
          "type": "string"
        }
      ],
      "name": "shipmentTransfer",
      "outputs": [],
      "stateMutability": "nonpayable",
      "type": "function"
    },
    {
      "inputs": [
        {
          "internalType": "uint256",
          "name": "shipmentId",
          "type": "uint256"
        }
      ],
      "name": "getShipment",
      "outputs": [
        {
          "internalType": "uint256",
          "name": "id",
          "type": "uint256"
        },
        {
          "internalType": "string",
          "name": "name",
          "type": "string"
        },
        {
          "internalType": "string",
          "name": "description",
          "type": "string"
        },
        {
          "internalType": "string",
          "name": "origin",
          "type": "string"
        },
        {
          "internalType": "string",
          "name": "destination",
          "type": "string"
        },
        {
          "internalType": "uint256",
          "name": "units",
          "type": "uint256"
        },
        {
          "internalType": "uint256",
          "name": "weight",
          "type": "uint256"
        },
        {
          "internalType": "enum ShipmentManagement.State",
          "name": "currentState",
          "type": "uint8"
        },
        {
          "internalType": "address",
          "name": "currentOwner",
          "type": "address"
        }
      ],
      "stateMutability": "view",
      "type": "function"
    },
    {
      "inputs": [
        {
          "internalType": "uint256",
          "name": "shipmentId",
          "type": "uint256"
        }
      ],
      "name": "getTransferHistory",
      "outputs": [
        {
          "components": [
            {
              "internalType": "uint256",
              "name": "id",
              "type": "uint256"
            },
            {
              "internalType": "uint256",
              "name": "shipmentId",
              "type": "uint256"
            },
            {
              "internalType": "uint256",
              "name": "timestamp",
              "type": "uint256"
            },
            {
              "internalType": "address",
              "name": "newShipmentOwner",
              "type": "address"
            },
            {
              "internalType": "string",
              "name": "transferNotes",
              "type": "string"
            }
          ],
          "internalType": "struct ShipmentManagement.Transfer[]",
          "name": "",
          "type": "tuple[]"
        }
      ],
      "stateMutability": "view",
      "type": "function"
    }
  ],
  "bytecode": "0x608060405260016000556001805534801561001957600080fd5b50611795806100296000396000f3fe608060405234801561001057600080fd5b506004361061004c5760003560e01c8063092b3740146100515780633fd18506146100895780638bb27d02146100a5578063f0d4e257146100d5575b600080fd5b61006b60048036038101906100669190610d48565b6100f1565b60405161008099989796959493929190610ed5565b60405180910390f35b6100a3600480360381019061009e91906110b3565b6104c0565b005b6100bf60048036038101906100ba9190610d48565b6106f2565b6040516100cc9190611350565b60405180910390f35b6100ef60048036038101906100ea91906113c3565b61086a565b005b60006060806060806000806000806000600260008c81526020019081526020016000206000015403610158576040517f08c379a000000000000000000000000000000000000000000000000000000000815260040161014f90611492565b60405180910390fd5b6000600260008c81526020019081526020016000206040518061012001604052908160008201548152602001600182018054610193906114e1565b80601f01602080910402602001604051908101604052809291908181526020018280546101bf906114e1565b801561020c5780601f106101e15761010080835404028352916020019161020c565b820191906000526020600020905b8154815290600101906020018083116101ef57829003601f168201915b50505050508152602001600282018054610225906114e1565b80601f0160208091040260200160405190810160405280929190818152602001828054610251906114e1565b801561029e5780601f106102735761010080835404028352916020019161029e565b820191906000526020600020905b81548152906001019060200180831161028157829003601f168201915b505050505081526020016003820180546102b7906114e1565b80601f01602080910402602001604051908101604052809291908181526020018280546102e3906114e1565b80156103305780601f1061030557610100808354040283529160200191610330565b820191906000526020600020905b81548152906001019060200180831161031357829003601f168201915b50505050508152602001600482018054610349906114e1565b80601f0160208091040260200160405190810160405280929190818152602001828054610375906114e1565b80156103c25780601f10610397576101008083540402835291602001916103c2565b820191906000526020600020905b8154815290600101906020018083116103a557829003601f168201915b5050505050815260200160058201548152602001600682015481526020016007820160009054906101000a900460ff16600381111561040457610403610e1d565b5b600381111561041657610415610e1d565b5b81526020016007820160019054906101000a900473ffffffffffffffffffffffffffffffffffffffff1673ffffffffffffffffffffffffffffffffffffffff1673ffffffffffffffffffffffffffffffffffffffff16815250509050806000015181602001518260400151836060015184608001518560a001518660c001518760e00151886101000151995099509950995099509950995099509950509193959799909294969850565b60008211610503576040517f08c379a00000000000000000000000000000000000000000000000000000000081526004016104fa9061155e565b60405180910390fd5b60008111610546576040517f08c379a000000000000000000000000000000000000000000000000000000000815260040161053d906115ca565b60405180910390fd5b600080600081548092919061055a90611619565b919050559050604051806101200160405280828152602001888152602001878152602001868152602001858152602001848152602001838152602001600060038111156105aa576105a9610e1d565b5b81526020013373ffffffffffffffffffffffffffffffffffffffff1681525060026000838152602001908152602001600020600082015181600001556020820151816001019080519060200190610602929190610c5b565b50604082015181600201908051906020019061061f929190610c5b565b50606082015181600301908051906020019061063c929190610c5b565b506080820151816004019080519060200190610659929190610c5b565b5060a0820151816005015560c0820151816006015560e08201518160070160006101000a81548160ff0219169083600381111561069957610698610e1d565b5b02179055506101008201518160070160016101000a81548173ffffffffffffffffffffffffffffffffffffffff021916908373ffffffffffffffffffffffffffffffffffffffff16021790555090505050505050505050565b606060036000838152602001908152602001600020805480602002602001604051908101604052809291908181526020016000905b8282101561085f57838290600052602060002090600502016040518060a00160405290816000820154815260200160018201548152602001600282015481526020016003820160009054906101000a900473ffffffffffffffffffffffffffffffffffffffff1673ffffffffffffffffffffffffffffffffffffffff1673ffffffffffffffffffffffffffffffffffffffff1681526020016004820180546107ce906114e1565b80601f01602080910402602001604051908101604052809291908181526020018280546107fa906114e1565b80156108475780601f1061081c57610100808354040283529160200191610847565b820191906000526020600020905b81548152906001019060200180831161082a57829003601f168201915b50505050508152505081526020019060010190610727565b505050509050919050565b833373ffffffffffffffffffffffffffffffffffffffff166002600083815260200190815260200160002060070160019054906101000a900473ffffffffffffffffffffffffffffffffffffffff1673ffffffffffffffffffffffffffffffffffffffff161461090f576040517f08c379a0000000000000000000000000000000000000000000000000000000008152600401610906906116d3565b60405180910390fd5b6002600086815260200190815260200160002060070160009054906101000a900460ff16836000600381111561094857610947610e1d565b5b82600381111561095b5761095a610e1d565b5b14801561098c57506001600381111561097757610976610e1d565b5b81600381111561098a57610989610e1d565b5b145b806109eb5750600160038111156109a6576109a5610e1d565b5b8260038111156109b9576109b8610e1d565b5b1480156109ea5750600260038111156109d5576109d4610e1d565b5b8160038111156109e8576109e7610e1d565b5b145b5b80610a49575060026003811115610a0557610a04610e1d565b5b826003811115610a1857610a17610e1d565b5b148015610a485750600380811115610a3357610a32610e1d565b5b816003811115610a4657610a45610e1d565b5b145b5b610a88576040517f08c379a0000000000000000000000000000000000000000000000000000000008152600401610a7f9061173f565b60405180910390fd5b600060026000898152602001908152602001600020905060008160070160019054906101000a900473ffffffffffffffffffffffffffffffffffffffff169050878260070160016101000a81548173ffffffffffffffffffffffffffffffffffffffff021916908373ffffffffffffffffffffffffffffffffffffffff160217905550868260070160006101000a81548160ff02191690836003811115610b3257610b31610e1d565b5b0217905550600060016000815480929190610b4c90611619565b919050559050600360008b81526020019081526020016000206040518060a001604052808381526020018c81526020014281526020018b73ffffffffffffffffffffffffffffffffffffffff16815260200189815250908060018154018082558091505060019003906000526020600020906005020160009091909190915060008201518160000155602082015181600101556040820151816002015560608201518160030160006101000a81548173ffffffffffffffffffffffffffffffffffffffff021916908373ffffffffffffffffffffffffffffffffffffffff1602179055506080820151816004019080519060200190610c4c929190610c5b565b50505050505050505050505050565b828054610c67906114e1565b90600052602060002090601f016020900481019282610c895760008555610cd0565b82601f10610ca257805160ff1916838001178555610cd0565b82800160010185558215610cd0579182015b82811115610ccf578251825591602001919060010190610cb4565b5b509050610cdd9190610ce1565b5090565b5b80821115610cfa576000816000905550600101610ce2565b5090565b6000604051905090565b600080fd5b600080fd5b6000819050919050565b610d2581610d12565b8114610d3057600080fd5b50565b600081359050610d4281610d1c565b92915050565b600060208284031215610d5e57610d5d610d08565b5b6000610d6c84828501610d33565b91505092915050565b610d7e81610d12565b82525050565b600081519050919050565b600082825260208201905092915050565b60005b83811015610dbe578082015181840152602081019050610da3565b83811115610dcd576000848401525b50505050565b6000601f19601f8301169050919050565b6000610def82610d84565b610df98185610d8f565b9350610e09818560208601610da0565b610e1281610dd3565b840191505092915050565b7f4e487b7100000000000000000000000000000000000000000000000000000000600052602160045260246000fd5b60048110610e5d57610e5c610e1d565b5b50565b6000819050610e6e82610e4c565b919050565b6000610e7e82610e60565b9050919050565b610e8e81610e73565b82525050565b600073ffffffffffffffffffffffffffffffffffffffff82169050919050565b6000610ebf82610e94565b9050919050565b610ecf81610eb4565b82525050565b600061012082019050610eeb600083018c610d75565b8181036020830152610efd818b610de4565b90508181036040830152610f11818a610de4565b90508181036060830152610f258189610de4565b90508181036080830152610f398188610de4565b9050610f4860a0830187610d75565b610f5560c0830186610d75565b610f6260e0830185610e85565b610f70610100830184610ec6565b9a9950505050505050505050565b600080fd5b600080fd5b7f4e487b7100000000000000000000000000000000000000000000000000000000600052604160045260246000fd5b610fc082610dd3565b810181811067ffffffffffffffff82111715610fdf57610fde610f88565b5b80604052505050565b6000610ff2610cfe565b9050610ffe8282610fb7565b919050565b600067ffffffffffffffff82111561101e5761101d610f88565b5b61102782610dd3565b9050602081019050919050565b82818337600083830152505050565b600061105661105184611003565b610fe8565b90508281526020810184848401111561107257611071610f83565b5b61107d848285611034565b509392505050565b600082601f83011261109a57611099610f7e565b5b81356110aa848260208601611043565b91505092915050565b60008060008060008060c087890312156110d0576110cf610d08565b5b600087013567ffffffffffffffff8111156110ee576110ed610d0d565b5b6110fa89828a01611085565b965050602087013567ffffffffffffffff81111561111b5761111a610d0d565b5b61112789828a01611085565b955050604087013567ffffffffffffffff81111561114857611147610d0d565b5b61115489828a01611085565b945050606087013567ffffffffffffffff81111561117557611174610d0d565b5b61118189828a01611085565b935050608061119289828a01610d33565b92505060a06111a389828a01610d33565b9150509295509295509295565b600081519050919050565b600082825260208201905092915050565b6000819050602082019050919050565b6111e581610d12565b82525050565b6111f481610eb4565b82525050565b600082825260208201905092915050565b600061121682610d84565b61122081856111fa565b9350611230818560208601610da0565b61123981610dd3565b840191505092915050565b600060a08301600083015161125c60008601826111dc565b50602083015161126f60208601826111dc565b50604083015161128260408601826111dc565b50606083015161129560608601826111eb565b50608083015184820360808601526112ad828261120b565b9150508091505092915050565b60006112c68383611244565b905092915050565b6000602082019050919050565b60006112e6826111b0565b6112f081856111bb565b935083602082028501611302856111cc565b8060005b8581101561133e578484038952815161131f85826112ba565b945061132a836112ce565b925060208a01995050600181019050611306565b50829750879550505050505092915050565b6000602082019050818103600083015261136a81846112db565b905092915050565b61137b81610eb4565b811461138657600080fd5b50565b60008135905061139881611372565b92915050565b600481106113ab57600080fd5b50565b6000813590506113bd8161139e565b92915050565b600080600080608085870312156113dd576113dc610d08565b5b60006113eb87828801610d33565b94505060206113fc87828801611389565b935050604061140d878288016113ae565b925050606085013567ffffffffffffffff81111561142e5761142d610d0d565b5b61143a87828801611085565b91505092959194509250565b7f536869706d656e7420646f6573206e6f74206578697374000000000000000000600082015250565b600061147c601783610d8f565b915061148782611446565b602082019050919050565b600060208201905081810360008301526114ab8161146f565b9050919050565b7f4e487b7100000000000000000000000000000000000000000000000000000000600052602260045260246000fd5b600060028204905060018216806114f957607f821691505b60208210810361150c5761150b6114b2565b5b50919050565b7f556e697473206d7573742062652067726561746572207468616e20302e000000600082015250565b6000611548601d83610d8f565b915061155382611512565b602082019050919050565b600060208201905081810360008301526115778161153b565b9050919050565b7f576569676874206d7573742062652067726561746572207468616e20302e0000600082015250565b60006115b4601e83610d8f565b91506115bf8261157e565b602082019050919050565b600060208201905081810360008301526115e3816115a7565b9050919050565b7f4e487b7100000000000000000000000000000000000000000000000000000000600052601160045260246000fd5b600061162482610d12565b91507fffffffffffffffffffffffffffffffffffffffffffffffffffffffffffffffff8203611656576116556115ea565b5b600182019050919050565b7f4f6e6c79207468652063757272656e74206f776e65722063616e20706572666f60008201527f726d207468697320616374696f6e2e0000000000000000000000000000000000602082015250565b60006116bd602f83610d8f565b91506116c882611661565b604082019050919050565b600060208201905081810360008301526116ec816116b0565b9050919050565b7f496e76616c6964207374617465207472616e736974696f6e0000000000000000600082015250565b6000611729601883610d8f565b9150611734826116f3565b602082019050919050565b600060208201905081810360008301526117588161171c565b905091905056fea26469706673582212206c6e16f03f963405b10767d6409c857f50c1f1848b1bb4fba41eecc410aa6f4f64736f6c634300080d0033",
  "immutableReferences": {},
  "source": "// SPDX-License-Identifier: MIT\r\npragma solidity ^0.8.0;\r\n\r\ncontract ShipmentManagement {\r\n    enum State { CREATED, IN_TRANSIT, STORED, DELIVERED }\r\n\r\n    struct Shipment {\r\n        uint256 id;\r\n        string name;\r\n        string description;\r\n        string origin;\r\n        string destination;\r\n        uint256 units;\r\n        uint256 weight;\r\n        State currentState;\r\n        address currentOwner;\r\n    }\r\n\r\n    struct Transfer {\r\n        uint256 id;\r\n        uint256 shipmentId;\r\n        uint256 timestamp;\r\n        address newShipmentOwner;\r\n        string transferNotes;\r\n    }\r\n\r\n    uint256 private nextShipmentId = 1;\r\n    uint256 private nextTransferId = 1;\r\n\r\n    mapping(uint256 => Shipment) private shipments;\r\n    mapping(uint256 => Transfer[]) private transfersByShipment;\r\n\r\n    //event ShipmentCreated(uint256 shipmentId, string name, address owner);\r\n    //event ShipmentTransfer(uint256 shipmentId, uint256 timestamp, address indexed previousOwner, address indexed newShipmentOwner, State newState, string transferNotes);\r\n\r\n    // Modifiers\r\n\r\n    modifier onlyOwner(uint256 shipmentId) {\r\n        require(shipments[shipmentId].currentOwner == msg.sender, \"Only the current owner can perform this action.\");\r\n        _;\r\n    }\r\n    \r\n    modifier validStateChange(State oldState, State newState) {\r\n        require(\r\n            (oldState == State.CREATED && newState == State.IN_TRANSIT) ||\r\n            (oldState == State.IN_TRANSIT && newState == State.STORED) ||\r\n            (oldState == State.STORED && newState == State.DELIVERED),\r\n            \"Invalid state transition\"\r\n        );\r\n        _;\r\n    }\r\n    \r\n    // Functions\r\n\r\n    function createShipment(\r\n        string memory productName,\r\n        string memory description,\r\n        string memory origin,\r\n        string memory destination,\r\n        uint256 units,\r\n        uint256 weight\r\n    ) public {\r\n        require(units > 0, \"Units must be greater than 0.\");\r\n        require(weight > 0, \"Weight must be greater than 0.\");\r\n        \r\n        uint256 shipmentId = nextShipmentId++;\r\n        shipments[shipmentId] = Shipment({\r\n            id: shipmentId,\r\n            name: productName,\r\n            description: description,\r\n            origin: origin,\r\n            destination: destination,\r\n            units: units,\r\n            weight: weight,\r\n            currentState: State.CREATED,\r\n            currentOwner: msg.sender\r\n        });\r\n\r\n        //emit ShipmentCreated(shipmentId, productName, msg.sender);\r\n    }\r\n\r\n    function shipmentTransfer(\r\n        uint256 shipmentId,\r\n        address newShipmentOwner,\r\n        State newState,\r\n        string memory transferNotes\r\n    ) public onlyOwner(shipmentId) validStateChange(shipments[shipmentId].currentState, newState) {\r\n        Shipment storage shipment = shipments[shipmentId];\r\n\r\n        address previousOwner = shipment.currentOwner;\r\n        shipment.currentOwner = newShipmentOwner;\r\n        shipment.currentState = newState;\r\n\r\n        uint256 transferId = nextTransferId++;\r\n        transfersByShipment[shipmentId].push(Transfer({\r\n            id: transferId,\r\n            shipmentId: shipmentId,\r\n            timestamp: block.timestamp,\r\n            newShipmentOwner: newShipmentOwner,\r\n            transferNotes: transferNotes\r\n        }));\r\n\r\n        //emit ShipmentTransfer(shipmentId, block.timestamp, previousOwner, newShipmentOwner, newState, transferNotes);\r\n    }\r\n\r\n    function getShipment(uint256 shipmentId) public view returns (\r\n        uint256 id,\r\n        string memory name,\r\n        string memory description,\r\n        string memory origin,\r\n        string memory destination,\r\n        uint256 units,\r\n        uint256 weight,\r\n        State currentState,\r\n        address currentOwner\r\n    ) \r\n    {\r\n        require(shipments[shipmentId].id != 0, \"Shipment does not exist\"); // Ensure shipment exists\r\n\r\n        Shipment memory shipment = shipments[shipmentId];\r\n        return (\r\n            shipment.id,\r\n            shipment.name,\r\n            shipment.description,\r\n            shipment.origin,\r\n            shipment.destination,\r\n            shipment.units,\r\n            shipment.weight,\r\n            shipment.currentState,\r\n            shipment.currentOwner\r\n        );\r\n    }\r\n\r\n    function getTransferHistory(uint256 shipmentId) public view returns (Transfer[] memory) {\r\n        return transfersByShipment[shipmentId];\r\n    }\r\n}\r\n",
  "sourcePath": "C:\\Users\\Usuario\\OneDrive\\Documentos\\GitHub\\blocked-supply\\blocked-supply-truffle\\contracts\\ShipmentManagement.sol",
  "compiler": {
    "name": "solc",
    "version": "0.8.13+commit.abaa5c0e.Emscripten.clang"
  },
  "schemaVersion": "3.4.16",
  "updatedAt": "2025-02-07T14:46:09.668Z",
  "devdoc": {
    "kind": "dev",
    "methods": {},
    "version": 1
  },
  "userdoc": {
    "kind": "user",
    "methods": {},
    "version": 1
  }
}