{
  "contractName": "ShipmentManagement",
  "abi": [
    {
      "anonymous": false,
      "inputs": [
        {
          "indexed": false,
          "internalType": "uint256",
          "name": "shipmentId",
          "type": "uint256"
        },
        {
          "indexed": false,
          "internalType": "string",
          "name": "name",
          "type": "string"
        },
        {
          "indexed": false,
          "internalType": "address",
          "name": "owner",
          "type": "address"
        }
      ],
      "name": "ShipmentCreated",
      "type": "event"
    },
    {
      "anonymous": false,
      "inputs": [
        {
          "indexed": false,
          "internalType": "uint256",
          "name": "shipmentId",
          "type": "uint256"
        },
        {
          "indexed": false,
          "internalType": "uint256",
          "name": "timestamp",
          "type": "uint256"
        },
        {
          "indexed": true,
          "internalType": "address",
          "name": "previousOwner",
          "type": "address"
        },
        {
          "indexed": true,
          "internalType": "address",
          "name": "newShipmentOwner",
          "type": "address"
        },
        {
          "indexed": false,
          "internalType": "enum ShipmentManagement.State",
          "name": "newState",
          "type": "uint8"
        },
        {
          "indexed": false,
          "internalType": "string",
          "name": "transferNotes",
          "type": "string"
        }
      ],
      "name": "ShipmentTransfer",
      "type": "event"
    },
    {
      "inputs": [
        {
          "internalType": "string",
          "name": "productName",
          "type": "string"
        },
        {
          "internalType": "string",
          "name": "description",
          "type": "string"
        },
        {
          "internalType": "string",
          "name": "origin",
          "type": "string"
        },
        {
          "internalType": "string",
          "name": "destination",
          "type": "string"
        },
        {
          "internalType": "uint256",
          "name": "units",
          "type": "uint256"
        },
        {
          "internalType": "uint256",
          "name": "weight",
          "type": "uint256"
        }
      ],
      "name": "createShipment",
      "outputs": [],
      "stateMutability": "nonpayable",
      "type": "function"
    },
    {
      "inputs": [
        {
          "internalType": "uint256",
          "name": "shipmentId",
          "type": "uint256"
        },
        {
          "internalType": "address",
          "name": "newShipmentOwner",
          "type": "address"
        },
        {
          "internalType": "enum ShipmentManagement.State",
          "name": "newState",
          "type": "uint8"
        },
        {
          "internalType": "string",
          "name": "transferNotes",
          "type": "string"
        }
      ],
      "name": "shipmentTransfer",
      "outputs": [],
      "stateMutability": "nonpayable",
      "type": "function"
    },
    {
      "inputs": [
        {
          "internalType": "uint256",
          "name": "shipmentId",
          "type": "uint256"
        }
      ],
      "name": "getShipment",
      "outputs": [
        {
          "components": [
            {
              "internalType": "uint256",
              "name": "id",
              "type": "uint256"
            },
            {
              "internalType": "string",
              "name": "name",
              "type": "string"
            },
            {
              "internalType": "string",
              "name": "description",
              "type": "string"
            },
            {
              "internalType": "string",
              "name": "origin",
              "type": "string"
            },
            {
              "internalType": "string",
              "name": "destination",
              "type": "string"
            },
            {
              "internalType": "uint256",
              "name": "units",
              "type": "uint256"
            },
            {
              "internalType": "uint256",
              "name": "weight",
              "type": "uint256"
            },
            {
              "internalType": "enum ShipmentManagement.State",
              "name": "currentState",
              "type": "uint8"
            },
            {
              "internalType": "address",
              "name": "currentOwner",
              "type": "address"
            }
          ],
          "internalType": "struct ShipmentManagement.Shipment",
          "name": "",
          "type": "tuple"
        }
      ],
      "stateMutability": "view",
      "type": "function"
    },
    {
      "inputs": [
        {
          "internalType": "uint256",
          "name": "shipmentId",
          "type": "uint256"
        }
      ],
      "name": "getTransferHistory",
      "outputs": [
        {
          "components": [
            {
              "internalType": "uint256",
              "name": "id",
              "type": "uint256"
            },
            {
              "internalType": "uint256",
              "name": "shipmentId",
              "type": "uint256"
            },
            {
              "internalType": "uint256",
              "name": "timestamp",
              "type": "uint256"
            },
            {
              "internalType": "address",
              "name": "newShipmentOwner",
              "type": "address"
            },
            {
              "internalType": "string",
              "name": "transferNotes",
              "type": "string"
            }
          ],
          "internalType": "struct ShipmentManagement.Transfer[]",
          "name": "",
          "type": "tuple[]"
        }
      ],
      "stateMutability": "view",
      "type": "function"
    }
  ],
  "bytecode": "0x608060405260016000556001805534801561001957600080fd5b506117f5806100296000396000f3fe608060405234801561001057600080fd5b506004361061004c5760003560e01c8063092b3740146100515780633fd18506146100815780638bb27d021461009d578063f0d4e257146100cd575b600080fd5b61006b60048036038101906100669190610d75565b6100e9565b6040516100789190610fdc565b60405180910390f35b61009b60048036038101906100969190611133565b61040e565b005b6100b760048036038101906100b29190610d75565b610640565b6040516100c49190611368565b60405180910390f35b6100e760048036038101906100e291906113db565b6107b8565b005b6100f1610c14565b60026000838152602001908152602001600020604051806101200160405290816000820154815260200160018201805461012a9061148d565b80601f01602080910402602001604051908101604052809291908181526020018280546101569061148d565b80156101a35780601f10610178576101008083540402835291602001916101a3565b820191906000526020600020905b81548152906001019060200180831161018657829003601f168201915b505050505081526020016002820180546101bc9061148d565b80601f01602080910402602001604051908101604052809291908181526020018280546101e89061148d565b80156102355780601f1061020a57610100808354040283529160200191610235565b820191906000526020600020905b81548152906001019060200180831161021857829003601f168201915b5050505050815260200160038201805461024e9061148d565b80601f016020809104026020016040519081016040528092919081815260200182805461027a9061148d565b80156102c75780601f1061029c576101008083540402835291602001916102c7565b820191906000526020600020905b8154815290600101906020018083116102aa57829003601f168201915b505050505081526020016004820180546102e09061148d565b80601f016020809104026020016040519081016040528092919081815260200182805461030c9061148d565b80156103595780601f1061032e57610100808354040283529160200191610359565b820191906000526020600020905b81548152906001019060200180831161033c57829003601f168201915b5050505050815260200160058201548152602001600682015481526020016007820160009054906101000a900460ff16600381111561039b5761039a610e4a565b5b60038111156103ad576103ac610e4a565b5b81526020016007820160019054906101000a900473ffffffffffffffffffffffffffffffffffffffff1673ffffffffffffffffffffffffffffffffffffffff1673ffffffffffffffffffffffffffffffffffffffff16815250509050919050565b60008211610451576040517f08c379a00000000000000000000000000000000000000000000000000000000081526004016104489061151b565b60405180910390fd5b60008111610494576040517f08c379a000000000000000000000000000000000000000000000000000000000815260040161048b90611587565b60405180910390fd5b60008060008154809291906104a8906115d6565b919050559050604051806101200160405280828152602001888152602001878152602001868152602001858152602001848152602001838152602001600060038111156104f8576104f7610e4a565b5b81526020013373ffffffffffffffffffffffffffffffffffffffff1681525060026000838152602001908152602001600020600082015181600001556020820151816001019080519060200190610550929190610c88565b50604082015181600201908051906020019061056d929190610c88565b50606082015181600301908051906020019061058a929190610c88565b5060808201518160040190805190602001906105a7929190610c88565b5060a0820151816005015560c0820151816006015560e08201518160070160006101000a81548160ff021916908360038111156105e7576105e6610e4a565b5b02179055506101008201518160070160016101000a81548173ffffffffffffffffffffffffffffffffffffffff021916908373ffffffffffffffffffffffffffffffffffffffff16021790555090505050505050505050565b606060036000838152602001908152602001600020805480602002602001604051908101604052809291908181526020016000905b828210156107ad57838290600052602060002090600502016040518060a00160405290816000820154815260200160018201548152602001600282015481526020016003820160009054906101000a900473ffffffffffffffffffffffffffffffffffffffff1673ffffffffffffffffffffffffffffffffffffffff1673ffffffffffffffffffffffffffffffffffffffff16815260200160048201805461071c9061148d565b80601f01602080910402602001604051908101604052809291908181526020018280546107489061148d565b80156107955780601f1061076a57610100808354040283529160200191610795565b820191906000526020600020905b81548152906001019060200180831161077857829003601f168201915b50505050508152505081526020019060010190610675565b505050509050919050565b833373ffffffffffffffffffffffffffffffffffffffff166002600083815260200190815260200160002060070160019054906101000a900473ffffffffffffffffffffffffffffffffffffffff1673ffffffffffffffffffffffffffffffffffffffff161461085d576040517f08c379a000000000000000000000000000000000000000000000000000000000815260040161085490611690565b60405180910390fd5b6002600086815260200190815260200160002060070160009054906101000a900460ff16836000600381111561089657610895610e4a565b5b8260038111156108a9576108a8610e4a565b5b1480156108da5750600160038111156108c5576108c4610e4a565b5b8160038111156108d8576108d7610e4a565b5b145b806109395750600160038111156108f4576108f3610e4a565b5b82600381111561090757610906610e4a565b5b14801561093857506002600381111561092357610922610e4a565b5b81600381111561093657610935610e4a565b5b145b5b8061099757506002600381111561095357610952610e4a565b5b82600381111561096657610965610e4a565b5b148015610996575060038081111561098157610980610e4a565b5b81600381111561099457610993610e4a565b5b145b5b6109d6576040517f08c379a00000000000000000000000000000000000000000000000000000000081526004016109cd906116fc565b60405180910390fd5b600060026000898152602001908152602001600020905060008160070160019054906101000a900473ffffffffffffffffffffffffffffffffffffffff169050878260070160016101000a81548173ffffffffffffffffffffffffffffffffffffffff021916908373ffffffffffffffffffffffffffffffffffffffff160217905550868260070160006101000a81548160ff02191690836003811115610a8057610a7f610e4a565b5b0217905550600060016000815480929190610a9a906115d6565b919050559050600360008b81526020019081526020016000206040518060a001604052808381526020018c81526020014281526020018b73ffffffffffffffffffffffffffffffffffffffff16815260200189815250908060018154018082558091505060019003906000526020600020906005020160009091909190915060008201518160000155602082015181600101556040820151816002015560608201518160030160006101000a81548173ffffffffffffffffffffffffffffffffffffffff021916908373ffffffffffffffffffffffffffffffffffffffff1602179055506080820151816004019080519060200190610b9a929190610c88565b5050508873ffffffffffffffffffffffffffffffffffffffff168273ffffffffffffffffffffffffffffffffffffffff167f765484102c3104f38803a2407efc4e24f4d21830ba93ceb0692c79034dab73e88c428c8c604051610c009493929190611773565b60405180910390a350505050505050505050565b6040518061012001604052806000815260200160608152602001606081526020016060815260200160608152602001600081526020016000815260200160006003811115610c6557610c64610e4a565b5b8152602001600073ffffffffffffffffffffffffffffffffffffffff1681525090565b828054610c949061148d565b90600052602060002090601f016020900481019282610cb65760008555610cfd565b82601f10610ccf57805160ff1916838001178555610cfd565b82800160010185558215610cfd579182015b82811115610cfc578251825591602001919060010190610ce1565b5b509050610d0a9190610d0e565b5090565b5b80821115610d27576000816000905550600101610d0f565b5090565b6000604051905090565b600080fd5b600080fd5b6000819050919050565b610d5281610d3f565b8114610d5d57600080fd5b50565b600081359050610d6f81610d49565b92915050565b600060208284031215610d8b57610d8a610d35565b5b6000610d9984828501610d60565b91505092915050565b610dab81610d3f565b82525050565b600081519050919050565b600082825260208201905092915050565b60005b83811015610deb578082015181840152602081019050610dd0565b83811115610dfa576000848401525b50505050565b6000601f19601f8301169050919050565b6000610e1c82610db1565b610e268185610dbc565b9350610e36818560208601610dcd565b610e3f81610e00565b840191505092915050565b7f4e487b7100000000000000000000000000000000000000000000000000000000600052602160045260246000fd5b60048110610e8a57610e89610e4a565b5b50565b6000819050610e9b82610e79565b919050565b6000610eab82610e8d565b9050919050565b610ebb81610ea0565b82525050565b600073ffffffffffffffffffffffffffffffffffffffff82169050919050565b6000610eec82610ec1565b9050919050565b610efc81610ee1565b82525050565b600061012083016000830151610f1b6000860182610da2565b5060208301518482036020860152610f338282610e11565b91505060408301518482036040860152610f4d8282610e11565b91505060608301518482036060860152610f678282610e11565b91505060808301518482036080860152610f818282610e11565b91505060a0830151610f9660a0860182610da2565b5060c0830151610fa960c0860182610da2565b5060e0830151610fbc60e0860182610eb2565b50610100830151610fd1610100860182610ef3565b508091505092915050565b60006020820190508181036000830152610ff68184610f02565b905092915050565b600080fd5b600080fd5b7f4e487b7100000000000000000000000000000000000000000000000000000000600052604160045260246000fd5b61104082610e00565b810181811067ffffffffffffffff8211171561105f5761105e611008565b5b80604052505050565b6000611072610d2b565b905061107e8282611037565b919050565b600067ffffffffffffffff82111561109e5761109d611008565b5b6110a782610e00565b9050602081019050919050565b82818337600083830152505050565b60006110d66110d184611083565b611068565b9050828152602081018484840111156110f2576110f1611003565b5b6110fd8482856110b4565b509392505050565b600082601f83011261111a57611119610ffe565b5b813561112a8482602086016110c3565b91505092915050565b60008060008060008060c087890312156111505761114f610d35565b5b600087013567ffffffffffffffff81111561116e5761116d610d3a565b5b61117a89828a01611105565b965050602087013567ffffffffffffffff81111561119b5761119a610d3a565b5b6111a789828a01611105565b955050604087013567ffffffffffffffff8111156111c8576111c7610d3a565b5b6111d489828a01611105565b945050606087013567ffffffffffffffff8111156111f5576111f4610d3a565b5b61120189828a01611105565b935050608061121289828a01610d60565b92505060a061122389828a01610d60565b9150509295509295509295565b600081519050919050565b600082825260208201905092915050565b6000819050602082019050919050565b600060a0830160008301516112746000860182610da2565b5060208301516112876020860182610da2565b50604083015161129a6040860182610da2565b5060608301516112ad6060860182610ef3565b50608083015184820360808601526112c58282610e11565b9150508091505092915050565b60006112de838361125c565b905092915050565b6000602082019050919050565b60006112fe82611230565b611308818561123b565b93508360208202850161131a8561124c565b8060005b85811015611356578484038952815161133785826112d2565b9450611342836112e6565b925060208a0199505060018101905061131e565b50829750879550505050505092915050565b6000602082019050818103600083015261138281846112f3565b905092915050565b61139381610ee1565b811461139e57600080fd5b50565b6000813590506113b08161138a565b92915050565b600481106113c357600080fd5b50565b6000813590506113d5816113b6565b92915050565b600080600080608085870312156113f5576113f4610d35565b5b600061140387828801610d60565b9450506020611414878288016113a1565b9350506040611425878288016113c6565b925050606085013567ffffffffffffffff81111561144657611445610d3a565b5b61145287828801611105565b91505092959194509250565b7f4e487b7100000000000000000000000000000000000000000000000000000000600052602260045260246000fd5b600060028204905060018216806114a557607f821691505b6020821081036114b8576114b761145e565b5b50919050565b600082825260208201905092915050565b7f556e697473206d7573742062652067726561746572207468616e20302e000000600082015250565b6000611505601d836114be565b9150611510826114cf565b602082019050919050565b60006020820190508181036000830152611534816114f8565b9050919050565b7f576569676874206d7573742062652067726561746572207468616e20302e0000600082015250565b6000611571601e836114be565b915061157c8261153b565b602082019050919050565b600060208201905081810360008301526115a081611564565b9050919050565b7f4e487b7100000000000000000000000000000000000000000000000000000000600052601160045260246000fd5b60006115e182610d3f565b91507fffffffffffffffffffffffffffffffffffffffffffffffffffffffffffffffff8203611613576116126115a7565b5b600182019050919050565b7f4f6e6c79207468652063757272656e74206f776e65722063616e20706572666f60008201527f726d207468697320616374696f6e2e0000000000000000000000000000000000602082015250565b600061167a602f836114be565b91506116858261161e565b604082019050919050565b600060208201905081810360008301526116a98161166d565b9050919050565b7f496e76616c6964207374617465207472616e736974696f6e0000000000000000600082015250565b60006116e66018836114be565b91506116f1826116b0565b602082019050919050565b60006020820190508181036000830152611715816116d9565b9050919050565b61172581610d3f565b82525050565b61173481610ea0565b82525050565b600061174582610db1565b61174f81856114be565b935061175f818560208601610dcd565b61176881610e00565b840191505092915050565b6000608082019050611788600083018761171c565b611795602083018661171c565b6117a2604083018561172b565b81810360608301526117b4818461173a565b90509594505050505056fea26469706673582212205df4a2c97f3861d2a9e962a5a8aedaf62919904761103cd553374f4b542658a964736f6c634300080d0033",
  "immutableReferences": {},
  "source": "// SPDX-License-Identifier: MIT\r\npragma solidity ^0.8.0;\r\n\r\ncontract ShipmentManagement {\r\n    enum State { Created, InTransit, Stored, Delivered }\r\n\r\n    struct Shipment {\r\n        uint256 id;\r\n        string name;\r\n        string description;\r\n        string origin;\r\n        string destination;\r\n        uint256 units;\r\n        uint256 weight;\r\n        State currentState;\r\n        address currentOwner;\r\n    }\r\n\r\n    struct Transfer {\r\n        uint256 id;\r\n        uint256 shipmentId;\r\n        uint256 timestamp;\r\n        address newShipmentOwner;\r\n        string transferNotes;\r\n    }\r\n\r\n    uint256 private nextShipmentId = 1;\r\n    uint256 private nextTransferId = 1;\r\n\r\n    mapping(uint256 => Shipment) private shipments;\r\n    mapping(uint256 => Transfer[]) private transfersByShipment;\r\n\r\n    event ShipmentCreated(uint256 shipmentId, string name, address owner);\r\n    event ShipmentTransfer(uint256 shipmentId, uint256 timestamp, address indexed previousOwner, address indexed newShipmentOwner, State newState, string transferNotes);\r\n\r\n    // Modifiers\r\n\r\n    modifier onlyOwner(uint256 shipmentId) {\r\n        require(shipments[shipmentId].currentOwner == msg.sender, \"Only the current owner can perform this action.\");\r\n        _;\r\n    }\r\n    \r\n    modifier validStateChange(State oldState, State newState) {\r\n        require(\r\n            (oldState == State.Created && newState == State.InTransit) ||\r\n            (oldState == State.InTransit && newState == State.Stored) ||\r\n            (oldState == State.Stored && newState == State.Delivered),\r\n            \"Invalid state transition\"\r\n        );\r\n        _;\r\n    }\r\n    \r\n    // Functions\r\n\r\n    function createShipment(\r\n        string memory productName,\r\n        string memory description,\r\n        string memory origin,\r\n        string memory destination,\r\n        uint256 units,\r\n        uint256 weight\r\n    ) public {\r\n        require(units > 0, \"Units must be greater than 0.\");\r\n        require(weight > 0, \"Weight must be greater than 0.\");\r\n        \r\n        uint256 shipmentId = nextShipmentId++;\r\n        shipments[shipmentId] = Shipment({\r\n            id: shipmentId,\r\n            name: productName,\r\n            description: description,\r\n            origin: origin,\r\n            destination: destination,\r\n            units: units,\r\n            weight: weight,\r\n            currentState: State.Created,\r\n            currentOwner: msg.sender\r\n        });\r\n\r\n        //emit ShipmentCreated(shipmentId, productName, msg.sender);\r\n    }\r\n\r\n    function shipmentTransfer(\r\n        uint256 shipmentId,\r\n        address newShipmentOwner,\r\n        State newState,\r\n        string memory transferNotes\r\n    ) public onlyOwner(shipmentId) validStateChange(shipments[shipmentId].currentState, newState) {\r\n        Shipment storage shipment = shipments[shipmentId];\r\n\r\n        address previousOwner = shipment.currentOwner;\r\n        shipment.currentOwner = newShipmentOwner;\r\n        shipment.currentState = newState;\r\n\r\n        uint256 transferId = nextTransferId++;\r\n        transfersByShipment[shipmentId].push(Transfer({\r\n            id: transferId,\r\n            shipmentId: shipmentId,\r\n            timestamp: block.timestamp,\r\n            newShipmentOwner: newShipmentOwner,\r\n            transferNotes: transferNotes\r\n        }));\r\n\r\n        emit ShipmentTransfer(shipmentId, block.timestamp, previousOwner, newShipmentOwner, newState, transferNotes);\r\n    }\r\n\r\n    function getShipment(uint256 shipmentId) public view returns (Shipment memory) {\r\n        return shipments[shipmentId];\r\n    }\r\n\r\n    function getTransferHistory(uint256 shipmentId) public view returns (Transfer[] memory) {\r\n        return transfersByShipment[shipmentId];\r\n    }\r\n}\r\n",
  "sourcePath": "C:\\Users\\Usuario\\OneDrive\\Documentos\\GitHub\\blocked-supply\\blocked-supply-truffle\\contracts\\ShipmentManagement.sol",
  "compiler": {
    "name": "solc",
    "version": "0.8.13+commit.abaa5c0e.Emscripten.clang"
  },
  "schemaVersion": "3.4.16",
  "updatedAt": "2025-02-07T11:16:20.168Z",
  "devdoc": {
    "kind": "dev",
    "methods": {},
    "version": 1
  },
  "userdoc": {
    "kind": "user",
    "methods": {},
    "version": 1
  }
}