{
  "contractName": "ShipmentManagement",
  "abi": [
    {
      "anonymous": false,
      "inputs": [
        {
          "indexed": true,
          "internalType": "uint256",
          "name": "id",
          "type": "uint256"
        },
        {
          "indexed": false,
          "internalType": "string",
          "name": "name",
          "type": "string"
        },
        {
          "indexed": false,
          "internalType": "string",
          "name": "description",
          "type": "string"
        },
        {
          "indexed": false,
          "internalType": "string",
          "name": "origin",
          "type": "string"
        },
        {
          "indexed": false,
          "internalType": "string",
          "name": "destination",
          "type": "string"
        },
        {
          "indexed": false,
          "internalType": "uint256",
          "name": "units",
          "type": "uint256"
        },
        {
          "indexed": false,
          "internalType": "uint256",
          "name": "weight",
          "type": "uint256"
        },
        {
          "indexed": false,
          "internalType": "uint256",
          "name": "currentState",
          "type": "uint256"
        },
        {
          "indexed": false,
          "internalType": "address",
          "name": "currentOwner",
          "type": "address"
        }
      ],
      "name": "ShipmentRetrieved",
      "type": "event"
    },
    {
      "anonymous": false,
      "inputs": [
        {
          "indexed": true,
          "internalType": "uint256",
          "name": "id",
          "type": "uint256"
        },
        {
          "indexed": false,
          "internalType": "uint256",
          "name": "shipmentId",
          "type": "uint256"
        },
        {
          "indexed": false,
          "internalType": "uint256",
          "name": "timestamp",
          "type": "uint256"
        },
        {
          "indexed": false,
          "internalType": "uint256",
          "name": "newState",
          "type": "uint256"
        },
        {
          "indexed": false,
          "internalType": "address",
          "name": "newShipmentOwner",
          "type": "address"
        },
        {
          "indexed": false,
          "internalType": "string",
          "name": "transferNotes",
          "type": "string"
        }
      ],
      "name": "TransferRetrieved",
      "type": "event"
    },
    {
      "inputs": [
        {
          "internalType": "string",
          "name": "productName",
          "type": "string"
        },
        {
          "internalType": "string",
          "name": "description",
          "type": "string"
        },
        {
          "internalType": "string",
          "name": "origin",
          "type": "string"
        },
        {
          "internalType": "string",
          "name": "destination",
          "type": "string"
        },
        {
          "internalType": "uint256",
          "name": "units",
          "type": "uint256"
        },
        {
          "internalType": "uint256",
          "name": "weight",
          "type": "uint256"
        }
      ],
      "name": "createShipment",
      "outputs": [],
      "stateMutability": "nonpayable",
      "type": "function"
    },
    {
      "inputs": [
        {
          "internalType": "uint256",
          "name": "shipmentId",
          "type": "uint256"
        },
        {
          "internalType": "address",
          "name": "newShipmentOwner",
          "type": "address"
        },
        {
          "internalType": "enum ShipmentManagement.State",
          "name": "newState",
          "type": "uint8"
        },
        {
          "internalType": "string",
          "name": "transferNotes",
          "type": "string"
        }
      ],
      "name": "shipmentTransfer",
      "outputs": [],
      "stateMutability": "nonpayable",
      "type": "function"
    },
    {
      "inputs": [
        {
          "internalType": "uint256",
          "name": "shipmentId",
          "type": "uint256"
        }
      ],
      "name": "getShipment",
      "outputs": [],
      "stateMutability": "nonpayable",
      "type": "function"
    },
    {
      "inputs": [
        {
          "internalType": "uint256",
          "name": "shipmentId",
          "type": "uint256"
        },
        {
          "internalType": "uint256",
          "name": "index",
          "type": "uint256"
        }
      ],
      "name": "getTransferByIndex",
      "outputs": [],
      "stateMutability": "nonpayable",
      "type": "function"
    },
    {
      "inputs": [
        {
          "internalType": "uint256",
          "name": "shipmentId",
          "type": "uint256"
        }
      ],
      "name": "getTransferCount",
      "outputs": [
        {
          "internalType": "uint256",
          "name": "",
          "type": "uint256"
        }
      ],
      "stateMutability": "view",
      "type": "function",
      "constant": true
    },
    {
      "inputs": [],
      "name": "getNextShipmentId",
      "outputs": [
        {
          "internalType": "uint256",
          "name": "",
          "type": "uint256"
        }
      ],
      "stateMutability": "view",
      "type": "function",
      "constant": true
    },
    {
      "inputs": [],
      "name": "getNextTransferId",
      "outputs": [
        {
          "internalType": "uint256",
          "name": "",
          "type": "uint256"
        }
      ],
      "stateMutability": "view",
      "type": "function",
      "constant": true
    }
  ],
  "bytecode": "0x608060405260016000556001805534801561001957600080fd5b506111f7806100296000396000f3fe608060405234801561001057600080fd5b506004361061007c5760003560e01c80633fd185061161005b5780633fd18506146100eb57806398facc3b14610107578063b465a0f214610123578063f0d4e257146101415761007c565b80623a4a0f1461008157806304758111146100b1578063092b3740146100cf575b600080fd5b61009b6004803603810190610096919061092d565b61015d565b6040516100a89190610969565b60405180910390f35b6100b961017d565b6040516100c69190610969565b60405180910390f35b6100e960048036038101906100e4919061092d565b610187565b005b61010560048036038101906101009190610aca565b610247565b005b610121600480360381019061011c9190610bc7565b610479565b005b61012b6105a3565b6040516101389190610969565b60405180910390f35b61015b60048036038101906101569190610c8a565b6105ac565b005b600060036000838152602001908152602001600020805490509050919050565b6000600154905090565b600060026000838152602001908152602001600020905080600001547f831e0e8dc3ed954b099430b92578e7986428aea5da8dbbb51bfbddbce460b7af82600101836002018460030185600401866005015487600601548860070160009054906101000a900460ff16600381111561020257610201610d0d565b5b8960070160019054906101000a900473ffffffffffffffffffffffffffffffffffffffff1660405161023b989796959493929190610e51565b60405180910390a25050565b6000821161028a576040517f08c379a000000000000000000000000000000000000000000000000000000000815260040161028190610f37565b60405180910390fd5b600081116102cd576040517f08c379a00000000000000000000000000000000000000000000000000000000081526004016102c490610fa3565b60405180910390fd5b60008060008154809291906102e190610ff2565b9190505590506040518061012001604052808281526020018881526020018781526020018681526020018581526020018481526020018381526020016000600381111561033157610330610d0d565b5b81526020013373ffffffffffffffffffffffffffffffffffffffff1681525060026000838152602001908152602001600020600082015181600001556020820151816001019080519060200190610389929190610840565b5060408201518160020190805190602001906103a6929190610840565b5060608201518160030190805190602001906103c3929190610840565b5060808201518160040190805190602001906103e0929190610840565b5060a0820151816005015560c0820151816006015560e08201518160070160006101000a81548160ff021916908360038111156104205761041f610d0d565b5b02179055506101008201518160070160016101000a81548173ffffffffffffffffffffffffffffffffffffffff021916908373ffffffffffffffffffffffffffffffffffffffff16021790555090505050505050505050565b600360008381526020019081526020016000208054905081106104d1576040517f08c379a00000000000000000000000000000000000000000000000000000000081526004016104c890611086565b60405180910390fd5b60006003600084815260200190815260200160002082815481106104f8576104f76110a6565b5b9060005260206000209060050201905080600001547febbbd34185f1c952de9c4ad32d1b9ff8d4e8cb3461501e88890c793438498372826001015483600201548460030160009054906101000a900460ff16600381111561055c5761055b610d0d565b5b8560030160019054906101000a900473ffffffffffffffffffffffffffffffffffffffff16866004016040516105969594939291906110d5565b60405180910390a2505050565b60008054905090565b833373ffffffffffffffffffffffffffffffffffffffff166002600083815260200190815260200160002060070160019054906101000a900473ffffffffffffffffffffffffffffffffffffffff1673ffffffffffffffffffffffffffffffffffffffff1614610651576040517f08c379a0000000000000000000000000000000000000000000000000000000008152600401610648906111a1565b60405180910390fd5b6000600260008781526020019081526020016000209050848160070160016101000a81548173ffffffffffffffffffffffffffffffffffffffff021916908373ffffffffffffffffffffffffffffffffffffffff160217905550838160070160006101000a81548160ff021916908360038111156106d2576106d1610d0d565b5b02179055506000600160008154809291906106ec90610ff2565b919050559050600360008881526020019081526020016000206040518060c0016040528083815260200189815260200142815260200187600381111561073557610734610d0d565b5b81526020018873ffffffffffffffffffffffffffffffffffffffff16815260200186815250908060018154018082558091505060019003906000526020600020906005020160009091909190915060008201518160000155602082015181600101556040820151816002015560608201518160030160006101000a81548160ff021916908360038111156107cc576107cb610d0d565b5b021790555060808201518160030160016101000a81548173ffffffffffffffffffffffffffffffffffffffff021916908373ffffffffffffffffffffffffffffffffffffffff16021790555060a0820151816004019080519060200190610834929190610840565b50505050505050505050565b82805461084c90610d6b565b90600052602060002090601f01602090048101928261086e57600085556108b5565b82601f1061088757805160ff19168380011785556108b5565b828001600101855582156108b5579182015b828111156108b4578251825591602001919060010190610899565b5b5090506108c291906108c6565b5090565b5b808211156108df5760008160009055506001016108c7565b5090565b6000604051905090565b600080fd5b600080fd5b6000819050919050565b61090a816108f7565b811461091557600080fd5b50565b60008135905061092781610901565b92915050565b600060208284031215610943576109426108ed565b5b600061095184828501610918565b91505092915050565b610963816108f7565b82525050565b600060208201905061097e600083018461095a565b92915050565b600080fd5b600080fd5b6000601f19601f8301169050919050565b7f4e487b7100000000000000000000000000000000000000000000000000000000600052604160045260246000fd5b6109d78261098e565b810181811067ffffffffffffffff821117156109f6576109f561099f565b5b80604052505050565b6000610a096108e3565b9050610a1582826109ce565b919050565b600067ffffffffffffffff821115610a3557610a3461099f565b5b610a3e8261098e565b9050602081019050919050565b82818337600083830152505050565b6000610a6d610a6884610a1a565b6109ff565b905082815260208101848484011115610a8957610a88610989565b5b610a94848285610a4b565b509392505050565b600082601f830112610ab157610ab0610984565b5b8135610ac1848260208601610a5a565b91505092915050565b60008060008060008060c08789031215610ae757610ae66108ed565b5b600087013567ffffffffffffffff811115610b0557610b046108f2565b5b610b1189828a01610a9c565b965050602087013567ffffffffffffffff811115610b3257610b316108f2565b5b610b3e89828a01610a9c565b955050604087013567ffffffffffffffff811115610b5f57610b5e6108f2565b5b610b6b89828a01610a9c565b945050606087013567ffffffffffffffff811115610b8c57610b8b6108f2565b5b610b9889828a01610a9c565b9350506080610ba989828a01610918565b92505060a0610bba89828a01610918565b9150509295509295509295565b60008060408385031215610bde57610bdd6108ed565b5b6000610bec85828601610918565b9250506020610bfd85828601610918565b9150509250929050565b600073ffffffffffffffffffffffffffffffffffffffff82169050919050565b6000610c3282610c07565b9050919050565b610c4281610c27565b8114610c4d57600080fd5b50565b600081359050610c5f81610c39565b92915050565b60048110610c7257600080fd5b50565b600081359050610c8481610c65565b92915050565b60008060008060808587031215610ca457610ca36108ed565b5b6000610cb287828801610918565b9450506020610cc387828801610c50565b9350506040610cd487828801610c75565b925050606085013567ffffffffffffffff811115610cf557610cf46108f2565b5b610d0187828801610a9c565b91505092959194509250565b7f4e487b7100000000000000000000000000000000000000000000000000000000600052602160045260246000fd5b7f4e487b7100000000000000000000000000000000000000000000000000000000600052602260045260246000fd5b60006002820490506001821680610d8357607f821691505b602082108103610d9657610d95610d3c565b5b50919050565b600082825260208201905092915050565b60008190508160005260206000209050919050565b60008154610dcf81610d6b565b610dd98186610d9c565b94506001821660008114610df45760018114610e0657610e39565b60ff1983168652602086019350610e39565b610e0f85610dad565b60005b83811015610e3157815481890152600182019150602081019050610e12565b808801955050505b50505092915050565b610e4b81610c27565b82525050565b6000610100820190508181036000830152610e6c818b610dc2565b90508181036020830152610e80818a610dc2565b90508181036040830152610e948189610dc2565b90508181036060830152610ea88188610dc2565b9050610eb7608083018761095a565b610ec460a083018661095a565b610ed160c083018561095a565b610ede60e0830184610e42565b9998505050505050505050565b7f556e697473206d7573742062652067726561746572207468616e20302e000000600082015250565b6000610f21601d83610d9c565b9150610f2c82610eeb565b602082019050919050565b60006020820190508181036000830152610f5081610f14565b9050919050565b7f576569676874206d7573742062652067726561746572207468616e20302e0000600082015250565b6000610f8d601e83610d9c565b9150610f9882610f57565b602082019050919050565b60006020820190508181036000830152610fbc81610f80565b9050919050565b7f4e487b7100000000000000000000000000000000000000000000000000000000600052601160045260246000fd5b6000610ffd826108f7565b91507fffffffffffffffffffffffffffffffffffffffffffffffffffffffffffffffff820361102f5761102e610fc3565b5b600182019050919050565b7f496e646578206f7574206f6620626f756e647300000000000000000000000000600082015250565b6000611070601383610d9c565b915061107b8261103a565b602082019050919050565b6000602082019050818103600083015261109f81611063565b9050919050565b7f4e487b7100000000000000000000000000000000000000000000000000000000600052603260045260246000fd5b600060a0820190506110ea600083018861095a565b6110f7602083018761095a565b611104604083018661095a565b6111116060830185610e42565b81810360808301526111238184610dc2565b90509695505050505050565b7f4f6e6c79207468652063757272656e74206f776e65722063616e20706572666f60008201527f726d207468697320616374696f6e2e0000000000000000000000000000000000602082015250565b600061118b602f83610d9c565b91506111968261112f565b604082019050919050565b600060208201905081810360008301526111ba8161117e565b905091905056fea2646970667358221220fdf0f531b847ef2502fd9aacbeacedd1ded4d41d2fa718544ecf13f2b631132964736f6c634300080d0033",
  "immutableReferences": {},
  "source": "// SPDX-License-Identifier: MIT\r\npragma solidity ^0.8.0;\r\n\r\ncontract ShipmentManagement {\r\n    enum State { CREATED, IN_TRANSIT, STORED, DELIVERED }\r\n\r\n    struct Shipment {\r\n        uint256 id;\r\n        string name;\r\n        string description;\r\n        string origin;\r\n        string destination;\r\n        uint256 units;\r\n        uint256 weight;\r\n        State currentState;\r\n        address currentOwner;\r\n    }\r\n\r\n    struct Transfer {\r\n        uint256 id;\r\n        uint256 shipmentId;\r\n        uint256 timestamp;\r\n        State newState;\r\n        address newShipmentOwner;\r\n        string transferNotes;\r\n    }\r\n\r\n    event ShipmentRetrieved(\r\n        uint256 indexed id,\r\n        string name,\r\n        string description,\r\n        string origin,\r\n        string destination,\r\n        uint256 units,\r\n        uint256 weight,\r\n        uint256 currentState,\r\n        address currentOwner\r\n    );\r\n\r\n    event TransferRetrieved(\r\n        uint256 indexed id,\r\n        uint256 shipmentId,\r\n        uint256 timestamp,\r\n        uint256 newState,\r\n        address newShipmentOwner,\r\n        string transferNotes\r\n    );\r\n\r\n    uint256 private nextShipmentId = 1;\r\n    uint256 private nextTransferId = 1;\r\n\r\n    mapping(uint256 => Shipment) private shipments;\r\n    mapping(uint256 => Transfer[]) private transfersByShipment;\r\n\r\n    modifier onlyOwner(uint256 shipmentId) {\r\n        require(shipments[shipmentId].currentOwner == msg.sender, \"Only the current owner can perform this action.\");\r\n        _;\r\n    }\r\n\r\n    function createShipment(\r\n        string memory productName,\r\n        string memory description,\r\n        string memory origin,\r\n        string memory destination,\r\n        uint256 units,\r\n        uint256 weight\r\n    ) public {\r\n        require(units > 0, \"Units must be greater than 0.\");\r\n        require(weight > 0, \"Weight must be greater than 0.\");\r\n        \r\n        uint256 shipmentId = nextShipmentId++;\r\n        shipments[shipmentId] = Shipment({\r\n            id: shipmentId,\r\n            name: productName,\r\n            description: description,\r\n            origin: origin,\r\n            destination: destination,\r\n            units: units,\r\n            weight: weight,\r\n            currentState: State.CREATED,\r\n            currentOwner: msg.sender\r\n        });\r\n    }\r\n\r\n    function shipmentTransfer(\r\n        uint256 shipmentId,\r\n        address newShipmentOwner,\r\n        State newState,\r\n        string memory transferNotes\r\n    ) public onlyOwner(shipmentId) {\r\n        Shipment storage shipment = shipments[shipmentId];\r\n\r\n        shipment.currentOwner = newShipmentOwner;\r\n        shipment.currentState = newState;\r\n\r\n        uint256 transferId = nextTransferId++;\r\n        transfersByShipment[shipmentId].push(Transfer({\r\n            id: transferId,\r\n            shipmentId: shipmentId,\r\n            timestamp: block.timestamp,\r\n            newShipmentOwner: newShipmentOwner,\r\n            transferNotes: transferNotes,\r\n            newState: newState\r\n        }));\r\n    }\r\n\r\n    function getShipment(uint256 shipmentId) public {    \r\n        \r\n        Shipment storage shipment = shipments[shipmentId];\r\n\r\n        emit ShipmentRetrieved(\r\n            shipment.id,\r\n            shipment.name,\r\n            shipment.description,\r\n            shipment.origin,\r\n            shipment.destination,\r\n            shipment.units,\r\n            shipment.weight,\r\n            uint256(shipment.currentState),\r\n            shipment.currentOwner\r\n        );\r\n    }\r\n\r\n    function getTransferByIndex(uint256 shipmentId, uint256 index) public {\r\n        require(index < transfersByShipment[shipmentId].length, \"Index out of bounds\");\r\n\r\n        Transfer storage transfer = transfersByShipment[shipmentId][index];\r\n\r\n        emit TransferRetrieved(\r\n            transfer.id,\r\n            transfer.shipmentId,\r\n            transfer.timestamp,\r\n            uint256(transfer.newState),\r\n            transfer.newShipmentOwner,\r\n            transfer.transferNotes\r\n        );\r\n    }\r\n\r\n    function getTransferCount(uint256 shipmentId) public view returns (uint256) {\r\n        return transfersByShipment[shipmentId].length;\r\n    }\r\n\r\n    function getNextShipmentId() public view returns (uint256) {\r\n        return nextShipmentId;\r\n    }\r\n\r\n    function getNextTransferId() public view returns (uint256) {\r\n        return nextTransferId;\r\n    }\r\n}\r\n",
  "sourcePath": "/app/contracts/ShipmentManagement.sol",
  "compiler": {
    "name": "solc",
    "version": "0.8.13+commit.abaa5c0e.Emscripten.clang"
  },
  "schemaVersion": "3.4.16",
  "updatedAt": "2025-02-24T15:37:37.334Z",
  "networkType": "ethereum",
  "devdoc": {
    "kind": "dev",
    "methods": {},
    "version": 1
  },
  "userdoc": {
    "kind": "user",
    "methods": {},
    "version": 1
  }
}