{
  "contractName": "ShipmentManagement",
  "abi": [
    {
      "anonymous": false,
      "inputs": [
        {
          "indexed": true,
          "internalType": "uint256",
          "name": "id",
          "type": "uint256"
        },
        {
          "indexed": false,
          "internalType": "string",
          "name": "deliveryDate",
          "type": "string"
        },
        {
          "indexed": false,
          "internalType": "address",
          "name": "currentOwner",
          "type": "address"
        }
      ],
      "name": "ShipmentCreated",
      "type": "event"
    },
    {
      "anonymous": false,
      "inputs": [
        {
          "indexed": true,
          "internalType": "uint256",
          "name": "id",
          "type": "uint256"
        },
        {
          "indexed": false,
          "internalType": "string",
          "name": "name",
          "type": "string"
        },
        {
          "indexed": false,
          "internalType": "string",
          "name": "description",
          "type": "string"
        },
        {
          "indexed": false,
          "internalType": "string",
          "name": "origin",
          "type": "string"
        },
        {
          "indexed": false,
          "internalType": "string",
          "name": "destination",
          "type": "string"
        },
        {
          "indexed": false,
          "internalType": "string",
          "name": "deliveryDate",
          "type": "string"
        },
        {
          "indexed": false,
          "internalType": "uint256",
          "name": "units",
          "type": "uint256"
        },
        {
          "indexed": false,
          "internalType": "uint256",
          "name": "weight",
          "type": "uint256"
        },
        {
          "indexed": false,
          "internalType": "uint256",
          "name": "currentState",
          "type": "uint256"
        },
        {
          "indexed": false,
          "internalType": "address",
          "name": "currentOwner",
          "type": "address"
        }
      ],
      "name": "ShipmentRetrieved",
      "type": "event"
    },
    {
      "anonymous": false,
      "inputs": [
        {
          "indexed": false,
          "internalType": "uint256",
          "name": "shipmentId",
          "type": "uint256"
        },
        {
          "indexed": false,
          "internalType": "uint256",
          "name": "newState",
          "type": "uint256"
        }
      ],
      "name": "TransferCreated",
      "type": "event"
    },
    {
      "anonymous": false,
      "inputs": [
        {
          "indexed": true,
          "internalType": "uint256",
          "name": "id",
          "type": "uint256"
        },
        {
          "indexed": false,
          "internalType": "uint256",
          "name": "shipmentId",
          "type": "uint256"
        },
        {
          "indexed": false,
          "internalType": "uint256",
          "name": "timestamp",
          "type": "uint256"
        },
        {
          "indexed": false,
          "internalType": "uint256",
          "name": "newState",
          "type": "uint256"
        },
        {
          "indexed": false,
          "internalType": "string",
          "name": "location",
          "type": "string"
        },
        {
          "indexed": false,
          "internalType": "address",
          "name": "newShipmentOwner",
          "type": "address"
        },
        {
          "indexed": false,
          "internalType": "string",
          "name": "transferNotes",
          "type": "string"
        }
      ],
      "name": "TransferRetrieved",
      "type": "event"
    },
    {
      "inputs": [
        {
          "internalType": "string",
          "name": "productName",
          "type": "string"
        },
        {
          "internalType": "string",
          "name": "description",
          "type": "string"
        },
        {
          "internalType": "string",
          "name": "origin",
          "type": "string"
        },
        {
          "internalType": "string",
          "name": "destination",
          "type": "string"
        },
        {
          "internalType": "string",
          "name": "deliveryDate",
          "type": "string"
        },
        {
          "internalType": "uint256",
          "name": "units",
          "type": "uint256"
        },
        {
          "internalType": "uint256",
          "name": "weight",
          "type": "uint256"
        }
      ],
      "name": "createShipment",
      "outputs": [],
      "stateMutability": "nonpayable",
      "type": "function"
    },
    {
      "inputs": [
        {
          "internalType": "uint256",
          "name": "shipmentId",
          "type": "uint256"
        },
        {
          "internalType": "address",
          "name": "newShipmentOwner",
          "type": "address"
        },
        {
          "internalType": "enum ShipmentManagement.State",
          "name": "newState",
          "type": "uint8"
        },
        {
          "internalType": "string",
          "name": "location",
          "type": "string"
        },
        {
          "internalType": "string",
          "name": "transferNotes",
          "type": "string"
        }
      ],
      "name": "shipmentTransfer",
      "outputs": [],
      "stateMutability": "nonpayable",
      "type": "function"
    },
    {
      "inputs": [
        {
          "internalType": "uint256",
          "name": "shipmentId",
          "type": "uint256"
        }
      ],
      "name": "getShipment",
      "outputs": [],
      "stateMutability": "nonpayable",
      "type": "function"
    },
    {
      "inputs": [
        {
          "internalType": "uint256",
          "name": "shipmentId",
          "type": "uint256"
        },
        {
          "internalType": "uint256",
          "name": "index",
          "type": "uint256"
        }
      ],
      "name": "getTransferByIndex",
      "outputs": [],
      "stateMutability": "nonpayable",
      "type": "function"
    },
    {
      "inputs": [
        {
          "internalType": "uint256",
          "name": "shipmentId",
          "type": "uint256"
        }
      ],
      "name": "getTransferCount",
      "outputs": [
        {
          "internalType": "uint256",
          "name": "",
          "type": "uint256"
        }
      ],
      "stateMutability": "view",
      "type": "function"
    },
    {
      "inputs": [],
      "name": "getNextShipmentId",
      "outputs": [
        {
          "internalType": "uint256",
          "name": "",
          "type": "uint256"
        }
      ],
      "stateMutability": "view",
      "type": "function"
    },
    {
      "inputs": [],
      "name": "getNextTransferId",
      "outputs": [
        {
          "internalType": "uint256",
          "name": "",
          "type": "uint256"
        }
      ],
      "stateMutability": "view",
      "type": "function"
    }
  ],
  "bytecode": "0x608060405260016000556001805534801561001957600080fd5b50611577806100296000396000f3fe608060405234801561001057600080fd5b506004361061007c5760003560e01c806398facc3b1161005b57806398facc3b146100eb578063a896fe4514610107578063b465a0f214610123578063fad8919f146101415761007c565b80623a4a0f1461008157806304758111146100b1578063092b3740146100cf575b600080fd5b61009b60048036038101906100969190610abf565b61015d565b6040516100a89190610afb565b60405180910390f35b6100b9610206565b6040516100c69190610afb565b60405180910390f35b6100e960048036038101906100e49190610abf565b610210565b005b61010560048036038101906101009190610b16565b61035e565b005b610121600480360381019061011c9190610d1f565b610435565b005b61012b610738565b6040516101389190610afb565b60405180910390f35b61015b60048036038101906101569190610dd2565b610741565b005b600081600081116101a3576040517f08c379a000000000000000000000000000000000000000000000000000000000815260040161019a90610f83565b60405180910390fd5b60005481106101e7576040517f08c379a00000000000000000000000000000000000000000000000000000000081526004016101de90610fef565b60405180910390fd5b6003600084815260200190815260200160002080549050915050919050565b6000600154905090565b8060008111610254576040517f08c379a000000000000000000000000000000000000000000000000000000000815260040161024b90610f83565b60405180910390fd5b6000548110610298576040517f08c379a000000000000000000000000000000000000000000000000000000000815260040161028f90610fef565b60405180910390fd5b600060026000848152602001908152602001600020905080600001547fd971ffcf5cbed286d16eb9cb90509d330418947e2cc832c8bda5dd2b4fbf8c7a8260010183600201846003018560040186600501876006015488600701548960080160009054906101000a900460ff1660038111156103175761031661100f565b5b8a60080160019054906101000a900473ffffffffffffffffffffffffffffffffffffffff1660405161035199989796959493929190611142565b60405180910390a2505050565b6000600360008481526020019081526020016000208281548110610385576103846111f2565b5b9060005260206000209060070201905080600001547fcd3a3f2736fc1d326c90624a647d8290aaa56c1bc81375e79ca971e40da12d65826001015483600201548460030160009054906101000a900460ff1660038111156103e9576103e861100f565b5b856004018660050160009054906101000a900473ffffffffffffffffffffffffffffffffffffffff168760060160405161042896959493929190611221565b60405180910390a2505050565b843373ffffffffffffffffffffffffffffffffffffffff166002600083815260200190815260200160002060080160019054906101000a900473ffffffffffffffffffffffffffffffffffffffff1673ffffffffffffffffffffffffffffffffffffffff16146104da576040517f08c379a00000000000000000000000000000000000000000000000000000000081526004016104d190611302565b60405180910390fd5b6000600260008881526020019081526020016000209050858160080160016101000a81548173ffffffffffffffffffffffffffffffffffffffff021916908373ffffffffffffffffffffffffffffffffffffffff160217905550848160080160006101000a81548160ff0219169083600381111561055b5761055a61100f565b5b021790555060006001600081548092919061057590611351565b919050559050600360008981526020019081526020016000206040518060e001604052808381526020018a81526020014281526020018860038111156105be576105bd61100f565b5b81526020018781526020018973ffffffffffffffffffffffffffffffffffffffff16815260200186815250908060018154018082558091505060019003906000526020600020906007020160009091909190915060008201518160000155602082015181600101556040820151816002015560608201518160030160006101000a81548160ff0219169083600381111561065b5761065a61100f565b5b0217905550608082015181600401908051906020019061067c9291906109d2565b5060a08201518160050160006101000a81548173ffffffffffffffffffffffffffffffffffffffff021916908373ffffffffffffffffffffffffffffffffffffffff16021790555060c08201518160060190805190602001906106e09291906109d2565b5050507f8b787dd444d18433253cf8599645cbb4fe62e7cf6fa82ce67ab60f56ac395770888760038111156107185761071761100f565b5b604051610726929190611399565b60405180910390a15050505050505050565b60008054905090565b60008211610784576040517f08c379a000000000000000000000000000000000000000000000000000000000815260040161077b9061140e565b60405180910390fd5b600081116107c7576040517f08c379a00000000000000000000000000000000000000000000000000000000081526004016107be9061147a565b60405180910390fd5b60008060008154809291906107db90611351565b919050559050604051806101400160405280828152602001898152602001888152602001878152602001868152602001858152602001848152602001838152602001600060038111156108315761083061100f565b5b81526020013373ffffffffffffffffffffffffffffffffffffffff16815250600260008381526020019081526020016000206000820151816000015560208201518160010190805190602001906108899291906109d2565b5060408201518160020190805190602001906108a69291906109d2565b5060608201518160030190805190602001906108c39291906109d2565b5060808201518160040190805190602001906108e09291906109d2565b5060a08201518160050190805190602001906108fd9291906109d2565b5060c0820151816006015560e082015181600701556101008201518160080160006101000a81548160ff0219169083600381111561093e5761093d61100f565b5b02179055506101208201518160080160016101000a81548173ffffffffffffffffffffffffffffffffffffffff021916908373ffffffffffffffffffffffffffffffffffffffff160217905550905050807f8e4c701ce5fb405651e38e1b8e96ea0a29ddec2fc923811b52b9c87f1da33ef485336040516109c0929190611511565b60405180910390a25050505050505050565b8280546109de9061106d565b90600052602060002090601f016020900481019282610a005760008555610a47565b82601f10610a1957805160ff1916838001178555610a47565b82800160010185558215610a47579182015b82811115610a46578251825591602001919060010190610a2b565b5b509050610a549190610a58565b5090565b5b80821115610a71576000816000905550600101610a59565b5090565b6000604051905090565b600080fd5b600080fd5b6000819050919050565b610a9c81610a89565b8114610aa757600080fd5b50565b600081359050610ab981610a93565b92915050565b600060208284031215610ad557610ad4610a7f565b5b6000610ae384828501610aaa565b91505092915050565b610af581610a89565b82525050565b6000602082019050610b106000830184610aec565b92915050565b60008060408385031215610b2d57610b2c610a7f565b5b6000610b3b85828601610aaa565b9250506020610b4c85828601610aaa565b9150509250929050565b600073ffffffffffffffffffffffffffffffffffffffff82169050919050565b6000610b8182610b56565b9050919050565b610b9181610b76565b8114610b9c57600080fd5b50565b600081359050610bae81610b88565b92915050565b60048110610bc157600080fd5b50565b600081359050610bd381610bb4565b92915050565b600080fd5b600080fd5b6000601f19601f8301169050919050565b7f4e487b7100000000000000000000000000000000000000000000000000000000600052604160045260246000fd5b610c2c82610be3565b810181811067ffffffffffffffff82111715610c4b57610c4a610bf4565b5b80604052505050565b6000610c5e610a75565b9050610c6a8282610c23565b919050565b600067ffffffffffffffff821115610c8a57610c89610bf4565b5b610c9382610be3565b9050602081019050919050565b82818337600083830152505050565b6000610cc2610cbd84610c6f565b610c54565b905082815260208101848484011115610cde57610cdd610bde565b5b610ce9848285610ca0565b509392505050565b600082601f830112610d0657610d05610bd9565b5b8135610d16848260208601610caf565b91505092915050565b600080600080600060a08688031215610d3b57610d3a610a7f565b5b6000610d4988828901610aaa565b9550506020610d5a88828901610b9f565b9450506040610d6b88828901610bc4565b935050606086013567ffffffffffffffff811115610d8c57610d8b610a84565b5b610d9888828901610cf1565b925050608086013567ffffffffffffffff811115610db957610db8610a84565b5b610dc588828901610cf1565b9150509295509295909350565b600080600080600080600060e0888a031215610df157610df0610a7f565b5b600088013567ffffffffffffffff811115610e0f57610e0e610a84565b5b610e1b8a828b01610cf1565b975050602088013567ffffffffffffffff811115610e3c57610e3b610a84565b5b610e488a828b01610cf1565b965050604088013567ffffffffffffffff811115610e6957610e68610a84565b5b610e758a828b01610cf1565b955050606088013567ffffffffffffffff811115610e9657610e95610a84565b5b610ea28a828b01610cf1565b945050608088013567ffffffffffffffff811115610ec357610ec2610a84565b5b610ecf8a828b01610cf1565b93505060a0610ee08a828b01610aaa565b92505060c0610ef18a828b01610aaa565b91505092959891949750929550565b600082825260208201905092915050565b7f536869706d656e74204944206d7573742062652067726561746572207468616e60008201527f20302e0000000000000000000000000000000000000000000000000000000000602082015250565b6000610f6d602383610f00565b9150610f7882610f11565b604082019050919050565b60006020820190508181036000830152610f9c81610f60565b9050919050565b7f536869706d656e7420646f6573206e6f742065786973742e0000000000000000600082015250565b6000610fd9601883610f00565b9150610fe482610fa3565b602082019050919050565b6000602082019050818103600083015261100881610fcc565b9050919050565b7f4e487b7100000000000000000000000000000000000000000000000000000000600052602160045260246000fd5b7f4e487b7100000000000000000000000000000000000000000000000000000000600052602260045260246000fd5b6000600282049050600182168061108557607f821691505b6020821081036110985761109761103e565b5b50919050565b60008190508160005260206000209050919050565b600081546110c08161106d565b6110ca8186610f00565b945060018216600081146110e557600181146110f75761112a565b60ff198316865260208601935061112a565b6111008561109e565b60005b8381101561112257815481890152600182019150602081019050611103565b808801955050505b50505092915050565b61113c81610b76565b82525050565b600061012082019050818103600083015261115d818c6110b3565b90508181036020830152611171818b6110b3565b90508181036040830152611185818a6110b3565b9050818103606083015261119981896110b3565b905081810360808301526111ad81886110b3565b90506111bc60a0830187610aec565b6111c960c0830186610aec565b6111d660e0830185610aec565b6111e4610100830184611133565b9a9950505050505050505050565b7f4e487b7100000000000000000000000000000000000000000000000000000000600052603260045260246000fd5b600060c0820190506112366000830189610aec565b6112436020830188610aec565b6112506040830187610aec565b818103606083015261126281866110b3565b90506112716080830185611133565b81810360a083015261128381846110b3565b9050979650505050505050565b7f4f6e6c79207468652063757272656e74206f776e65722063616e20706572666f60008201527f726d207468697320616374696f6e2e0000000000000000000000000000000000602082015250565b60006112ec602f83610f00565b91506112f782611290565b604082019050919050565b6000602082019050818103600083015261131b816112df565b9050919050565b7f4e487b7100000000000000000000000000000000000000000000000000000000600052601160045260246000fd5b600061135c82610a89565b91507fffffffffffffffffffffffffffffffffffffffffffffffffffffffffffffffff820361138e5761138d611322565b5b600182019050919050565b60006040820190506113ae6000830185610aec565b6113bb6020830184610aec565b9392505050565b7f556e697473206d7573742062652067726561746572207468616e20302e000000600082015250565b60006113f8601d83610f00565b9150611403826113c2565b602082019050919050565b60006020820190508181036000830152611427816113eb565b9050919050565b7f576569676874206d7573742062652067726561746572207468616e20302e0000600082015250565b6000611464601e83610f00565b915061146f8261142e565b602082019050919050565b6000602082019050818103600083015261149381611457565b9050919050565b600081519050919050565b60005b838110156114c35780820151818401526020810190506114a8565b838111156114d2576000848401525b50505050565b60006114e38261149a565b6114ed8185610f00565b93506114fd8185602086016114a5565b61150681610be3565b840191505092915050565b6000604082019050818103600083015261152b81856114d8565b905061153a6020830184611133565b939250505056fea2646970667358221220214b4e43c21b3ccbc68efbae4bd1d049a2ba653aaefc30133e0d398bd185a71164736f6c634300080d0033",
  "immutableReferences": {},
  "source": "// SPDX-License-Identifier: MIT\r\npragma solidity ^0.8.0;\r\n\r\ncontract ShipmentManagement {\r\n    enum State { CREATED, IN_TRANSIT, STORED, DELIVERED }\r\n\r\n    struct Shipment {\r\n        uint256 id;\r\n        string name;\r\n        string description;\r\n        string origin;\r\n        string destination;\r\n        string deliveryDate;\r\n        uint256 units;\r\n        uint256 weight;\r\n        State currentState;\r\n        address currentOwner;\r\n    }\r\n\r\n    struct Transfer {\r\n        uint256 id;\r\n        uint256 shipmentId;\r\n        uint256 timestamp;\r\n        State newState;\r\n        string location;\r\n        address newShipmentOwner;\r\n        string transferNotes;\r\n    }\r\n\r\n    event ShipmentCreated(\r\n        uint256 indexed id,\r\n        string deliveryDate,\r\n        address currentOwner\r\n    );\r\n\r\n    event TransferCreated(\r\n        uint256 shipmentId,\r\n        uint256 newState\r\n    );\r\n\r\n    event ShipmentRetrieved(\r\n        uint256 indexed id,\r\n        string name,\r\n        string description,\r\n        string origin,\r\n        string destination,\r\n        string deliveryDate,\r\n        uint256 units,\r\n        uint256 weight,\r\n        uint256 currentState,\r\n        address currentOwner\r\n    );\r\n\r\n    event TransferRetrieved(\r\n        uint256 indexed id,\r\n        uint256 shipmentId,\r\n        uint256 timestamp,\r\n        uint256 newState,\r\n        string location,\r\n        address newShipmentOwner,\r\n        string transferNotes\r\n    );\r\n\r\n    uint256 private nextShipmentId = 1;\r\n    uint256 private nextTransferId = 1;\r\n\r\n    mapping(uint256 => Shipment) private shipments;\r\n    mapping(uint256 => Transfer[]) private transfersByShipment;\r\n\r\n    modifier onlyOwner(uint256 shipmentId) {\r\n        require(shipments[shipmentId].currentOwner == msg.sender, \"Only the current owner can perform this action.\");\r\n        _;\r\n    }\r\n\r\n    modifier exists(uint256 shipmentId) {\r\n        require(shipmentId > 0, \"Shipment ID must be greater than 0.\");\r\n        require(shipmentId < nextShipmentId, \"Shipment does not exist.\");\r\n        _;\r\n    }\r\n\r\n\r\n    function createShipment(\r\n        string memory productName,\r\n        string memory description,\r\n        string memory origin,\r\n        string memory destination,\r\n        string memory deliveryDate,\r\n        uint256 units,\r\n        uint256 weight\r\n    ) public {\r\n        require(units > 0, \"Units must be greater than 0.\");\r\n        require(weight > 0, \"Weight must be greater than 0.\");\r\n        \r\n        uint256 shipmentId = nextShipmentId++;\r\n        shipments[shipmentId] = Shipment({\r\n            id: shipmentId,\r\n            name: productName,\r\n            description: description,\r\n            origin: origin,\r\n            destination: destination,\r\n            deliveryDate: deliveryDate,\r\n            units: units,\r\n            weight: weight,\r\n            currentState: State.CREATED,\r\n            currentOwner: msg.sender\r\n        });\r\n\r\n        emit ShipmentCreated(shipmentId, deliveryDate, msg.sender);\r\n    }\r\n\r\n    function shipmentTransfer(\r\n        uint256 shipmentId,\r\n        address newShipmentOwner,\r\n        State newState,\r\n        string memory location,\r\n        string memory transferNotes\r\n    ) public onlyOwner(shipmentId) {\r\n        Shipment storage shipment = shipments[shipmentId];\r\n        \r\n        shipment.currentOwner = newShipmentOwner;\r\n        shipment.currentState = newState;\r\n\r\n        uint256 transferId = nextTransferId++;\r\n        transfersByShipment[shipmentId].push(Transfer({\r\n            id: transferId,\r\n            shipmentId: shipmentId,\r\n            timestamp: block.timestamp,\r\n            newState: newState,\r\n            location: location,\r\n            newShipmentOwner: newShipmentOwner,\r\n            transferNotes: transferNotes\r\n        }));\r\n\r\n        emit TransferCreated(shipmentId, uint256(newState));\r\n    }\r\n\r\n    function getShipment(uint256 shipmentId) public exists(shipmentId){    \r\n        \r\n        Shipment storage shipment = shipments[shipmentId];\r\n\r\n        emit ShipmentRetrieved(\r\n            shipment.id,\r\n            shipment.name,\r\n            shipment.description,\r\n            shipment.origin,\r\n            shipment.destination,\r\n            shipment.deliveryDate,\r\n            shipment.units,\r\n            shipment.weight,\r\n            uint256(shipment.currentState),\r\n            shipment.currentOwner\r\n        );\r\n    }\r\n\r\n    function getTransferByIndex(uint256 shipmentId, uint256 index) public {\r\n        Transfer storage transfer = transfersByShipment[shipmentId][index];\r\n\r\n        emit TransferRetrieved(\r\n            transfer.id,\r\n            transfer.shipmentId,\r\n            transfer.timestamp,\r\n            uint256(transfer.newState),\r\n            transfer.location,\r\n            transfer.newShipmentOwner,\r\n            transfer.transferNotes\r\n        );\r\n    }\r\n\r\n    function getTransferCount(uint256 shipmentId) public exists(shipmentId) view returns (uint256) {\r\n        return transfersByShipment[shipmentId].length;\r\n    }\r\n\r\n    function getNextShipmentId() public view returns (uint256) {\r\n        return nextShipmentId;\r\n    }\r\n\r\n    function getNextTransferId() public view returns (uint256) {\r\n        return nextTransferId;\r\n    }\r\n}\r\n",
  "sourcePath": "C:\\Users\\Usuario\\OneDrive\\Documentos\\GitHub\\blocked-supply\\blocked-supply-truffle\\contracts\\ShipmentManagement.sol",
  "compiler": {
    "name": "solc",
    "version": "0.8.13+commit.abaa5c0e.Emscripten.clang"
  },
  "schemaVersion": "3.4.16",
  "updatedAt": "2025-04-13T17:08:20.024Z",
  "devdoc": {
    "kind": "dev",
    "methods": {},
    "version": 1
  },
  "userdoc": {
    "kind": "user",
    "methods": {},
    "version": 1
  }
}