{
  "contractName": "ShipmentManagement",
  "abi": [
    {
      "anonymous": false,
      "inputs": [
        {
          "indexed": false,
          "internalType": "uint256",
          "name": "shipmentId",
          "type": "uint256"
        },
        {
          "indexed": false,
          "internalType": "string",
          "name": "productName",
          "type": "string"
        },
        {
          "indexed": true,
          "internalType": "address",
          "name": "owner",
          "type": "address"
        }
      ],
      "name": "ShipmentCreated",
      "type": "event"
    },
    {
      "anonymous": false,
      "inputs": [
        {
          "indexed": false,
          "internalType": "uint256",
          "name": "shipmentId",
          "type": "uint256"
        },
        {
          "indexed": true,
          "internalType": "address",
          "name": "previousOwner",
          "type": "address"
        },
        {
          "indexed": true,
          "internalType": "address",
          "name": "newShipmentOwner",
          "type": "address"
        },
        {
          "indexed": false,
          "internalType": "enum ShipmentManagement.ShipmentState",
          "name": "newState",
          "type": "uint8"
        }
      ],
      "name": "ShipmentTransfer",
      "type": "event"
    },
    {
      "anonymous": false,
      "inputs": [
        {
          "indexed": true,
          "internalType": "address",
          "name": "userAddress",
          "type": "address"
        },
        {
          "indexed": false,
          "internalType": "string",
          "name": "name",
          "type": "string"
        },
        {
          "indexed": false,
          "internalType": "string",
          "name": "email",
          "type": "string"
        },
        {
          "indexed": false,
          "internalType": "string[]",
          "name": "roles",
          "type": "string[]"
        }
      ],
      "name": "UserRegistered",
      "type": "event"
    },
    {
      "inputs": [
        {
          "internalType": "string",
          "name": "name",
          "type": "string"
        },
        {
          "internalType": "string[]",
          "name": "roles",
          "type": "string[]"
        },
        {
          "internalType": "string",
          "name": "email",
          "type": "string"
        }
      ],
      "name": "registerUser",
      "outputs": [],
      "stateMutability": "nonpayable",
      "type": "function"
    },
    {
      "inputs": [
        {
          "internalType": "string",
          "name": "productName",
          "type": "string"
        },
        {
          "internalType": "string",
          "name": "description",
          "type": "string"
        },
        {
          "internalType": "string",
          "name": "origin",
          "type": "string"
        },
        {
          "internalType": "string",
          "name": "destination",
          "type": "string"
        },
        {
          "internalType": "uint256",
          "name": "units",
          "type": "uint256"
        },
        {
          "internalType": "uint256",
          "name": "weight",
          "type": "uint256"
        }
      ],
      "name": "createShipment",
      "outputs": [],
      "stateMutability": "nonpayable",
      "type": "function"
    },
    {
      "inputs": [
        {
          "internalType": "uint256",
          "name": "shipmentId",
          "type": "uint256"
        },
        {
          "internalType": "address",
          "name": "newShipmentOwner",
          "type": "address"
        },
        {
          "internalType": "enum ShipmentManagement.ShipmentState",
          "name": "newState",
          "type": "uint8"
        },
        {
          "internalType": "string",
          "name": "transferNotes",
          "type": "string"
        }
      ],
      "name": "shipmentTransfer",
      "outputs": [],
      "stateMutability": "nonpayable",
      "type": "function"
    },
    {
      "inputs": [
        {
          "internalType": "uint256",
          "name": "shipmentId",
          "type": "uint256"
        }
      ],
      "name": "getShipment",
      "outputs": [
        {
          "internalType": "uint256",
          "name": "id",
          "type": "uint256"
        },
        {
          "internalType": "string",
          "name": "productName",
          "type": "string"
        },
        {
          "internalType": "string",
          "name": "description",
          "type": "string"
        },
        {
          "internalType": "string",
          "name": "origin",
          "type": "string"
        },
        {
          "internalType": "string",
          "name": "destination",
          "type": "string"
        },
        {
          "internalType": "uint256",
          "name": "units",
          "type": "uint256"
        },
        {
          "internalType": "uint256",
          "name": "weight",
          "type": "uint256"
        },
        {
          "internalType": "enum ShipmentManagement.ShipmentState",
          "name": "currentState",
          "type": "uint8"
        },
        {
          "internalType": "address",
          "name": "currentOwner",
          "type": "address"
        },
        {
          "internalType": "uint256[]",
          "name": "transferHistory",
          "type": "uint256[]"
        }
      ],
      "stateMutability": "view",
      "type": "function",
      "constant": true
    },
    {
      "inputs": [
        {
          "internalType": "uint256",
          "name": "shipmentId",
          "type": "uint256"
        }
      ],
      "name": "getTransferHistory",
      "outputs": [
        {
          "components": [
            {
              "internalType": "uint256",
              "name": "id",
              "type": "uint256"
            },
            {
              "internalType": "uint256",
              "name": "shipmentId",
              "type": "uint256"
            },
            {
              "internalType": "uint256",
              "name": "timestamp",
              "type": "uint256"
            },
            {
              "internalType": "address",
              "name": "newShipmentOwner",
              "type": "address"
            },
            {
              "internalType": "string",
              "name": "transferNotes",
              "type": "string"
            }
          ],
          "internalType": "struct ShipmentManagement.Transfer[]",
          "name": "",
          "type": "tuple[]"
        }
      ],
      "stateMutability": "view",
      "type": "function",
      "constant": true
    },
    {
      "inputs": [
        {
          "internalType": "address",
          "name": "userAddress",
          "type": "address"
        }
      ],
      "name": "getUser",
      "outputs": [
        {
          "components": [
            {
              "internalType": "address",
              "name": "userAddress",
              "type": "address"
            },
            {
              "internalType": "string",
              "name": "username",
              "type": "string"
            },
            {
              "internalType": "string[]",
              "name": "roles",
              "type": "string[]"
            },
            {
              "internalType": "string",
              "name": "email",
              "type": "string"
            }
          ],
          "internalType": "struct ShipmentManagement.User",
          "name": "",
          "type": "tuple"
        }
      ],
      "stateMutability": "view",
      "type": "function",
      "constant": true
    }
  ],
  "bytecode": "0x608060405234801561001057600080fd5b50612c55806100206000396000f3fe608060405234801561001057600080fd5b50600436106100625760003560e01c8063092b3740146100675780633fd18506146100a05780636f77926b146100bc5780638bb27d02146100ec578063d3a0ace31461011c578063f0d4e25714610138575b600080fd5b610081600480360381019061007c9190611bf5565b610154565b6040516100979a99989796959493929190611e40565b60405180910390f35b6100ba60048036038101906100b59190612034565b6105fd565b005b6100d660048036038101906100d1919061215d565b610c92565b6040516100e39190612316565b60405180910390f35b61010660048036038101906101019190611bf5565b61100f565b6040516101139190612470565b60405180910390f35b61013660048036038101906101319190612578565b611258565b005b610152600480360381019061014d9190612644565b6116db565b005b60006060806060806000806000806060600073ffffffffffffffffffffffffffffffffffffffff16600460003373ffffffffffffffffffffffffffffffffffffffff1673ffffffffffffffffffffffffffffffffffffffff16815260200190815260200160002060000160009054906101000a900473ffffffffffffffffffffffffffffffffffffffff1673ffffffffffffffffffffffffffffffffffffffff1603610235576040517f08c379a000000000000000000000000000000000000000000000000000000000815260040161022c90612713565b60405180910390fd5b6000600260008d8152602001908152602001600020604051806101400160405290816000820154815260200160018201805461027090612762565b80601f016020809104026020016040519081016040528092919081815260200182805461029c90612762565b80156102e95780601f106102be576101008083540402835291602001916102e9565b820191906000526020600020905b8154815290600101906020018083116102cc57829003601f168201915b5050505050815260200160028201805461030290612762565b80601f016020809104026020016040519081016040528092919081815260200182805461032e90612762565b801561037b5780601f106103505761010080835404028352916020019161037b565b820191906000526020600020905b81548152906001019060200180831161035e57829003601f168201915b5050505050815260200160038201805461039490612762565b80601f01602080910402602001604051908101604052809291908181526020018280546103c090612762565b801561040d5780601f106103e25761010080835404028352916020019161040d565b820191906000526020600020905b8154815290600101906020018083116103f057829003601f168201915b5050505050815260200160048201805461042690612762565b80601f016020809104026020016040519081016040528092919081815260200182805461045290612762565b801561049f5780601f106104745761010080835404028352916020019161049f565b820191906000526020600020905b81548152906001019060200180831161048257829003601f168201915b5050505050815260200160058201548152602001600682015481526020016007820160009054906101000a900460ff1660038111156104e1576104e0611cca565b5b60038111156104f3576104f2611cca565b5b81526020016007820160019054906101000a900473ffffffffffffffffffffffffffffffffffffffff1673ffffffffffffffffffffffffffffffffffffffff1673ffffffffffffffffffffffffffffffffffffffff1681526020016008820180548060200260200160405190810160405280929190818152602001828054801561059c57602002820191906000526020600020905b815481526020019060010190808311610588575b5050505050815250509050806000015181602001518260400151836060015184608001518560a001518660c001518760e001518861010001518961012001519a509a509a509a509a509a509a509a509a509a50509193959799509193959799565b6040518060400160405280600781526020017f4d414e41474552000000000000000000000000000000000000000000000000008152506000600460003373ffffffffffffffffffffffffffffffffffffffff1673ffffffffffffffffffffffffffffffffffffffff1681526020019081526020016000206040518060800160405290816000820160009054906101000a900473ffffffffffffffffffffffffffffffffffffffff1673ffffffffffffffffffffffffffffffffffffffff1673ffffffffffffffffffffffffffffffffffffffff1681526020016001820180546106e590612762565b80601f016020809104026020016040519081016040528092919081815260200182805461071190612762565b801561075e5780601f106107335761010080835404028352916020019161075e565b820191906000526020600020905b81548152906001019060200180831161074157829003601f168201915b5050505050815260200160028201805480602002602001604051908101604052809291908181526020016000905b828210156108385783829060005260206000200180546107ab90612762565b80601f01602080910402602001604051908101604052809291908181526020018280546107d790612762565b80156108245780601f106107f957610100808354040283529160200191610824565b820191906000526020600020905b81548152906001019060200180831161080757829003601f168201915b50505050508152602001906001019061078c565b50505050815260200160038201805461085090612762565b80601f016020809104026020016040519081016040528092919081815260200182805461087c90612762565b80156108c95780601f1061089e576101008083540402835291602001916108c9565b820191906000526020600020905b8154815290600101906020018083116108ac57829003601f168201915b5050505050815250509050600073ffffffffffffffffffffffffffffffffffffffff16816000015173ffffffffffffffffffffffffffffffffffffffff1603610947576040517f08c379a000000000000000000000000000000000000000000000000000000000815260040161093e90612713565b60405180910390fd5b6000805b8260400151518110156109e5578360405160200161096991906127cf565b6040516020818303038152906040528051906020012083604001518281518110610996576109956127e6565b5b60200260200101516040516020016109ae91906127cf565b60405160208183030381529060405280519060200120036109d257600191506109e5565b80806109dd90612844565b91505061094b565b5080610a26576040517f08c379a0000000000000000000000000000000000000000000000000000000008152600401610a1d906128d8565b60405180910390fd5b6000806000815480929190610a3a90612844565b9190505590506040518061014001604052808281526020018b81526020018a815260200189815260200188815260200187815260200186815260200160006003811115610a8a57610a89611cca565b5b81526020013373ffffffffffffffffffffffffffffffffffffffff168152602001600067ffffffffffffffff811115610ac657610ac5611f09565b5b604051908082528060200260200182016040528015610af45781602001602082028036833780820191505090505b5081525060026000838152602001908152602001600020600082015181600001556020820151816001019080519060200190610b319291906119b9565b506040820151816002019080519060200190610b4e9291906119b9565b506060820151816003019080519060200190610b6b9291906119b9565b506080820151816004019080519060200190610b889291906119b9565b5060a0820151816005015560c0820151816006015560e08201518160070160006101000a81548160ff02191690836003811115610bc857610bc7611cca565b5b02179055506101008201518160070160016101000a81548173ffffffffffffffffffffffffffffffffffffffff021916908373ffffffffffffffffffffffffffffffffffffffff160217905550610120820151816008019080519060200190610c32929190611a3f565b509050503373ffffffffffffffffffffffffffffffffffffffff167f8e4c701ce5fb405651e38e1b8e96ea0a29ddec2fc923811b52b9c87f1da33ef4828c604051610c7e9291906128f8565b60405180910390a250505050505050505050565b610c9a611a8c565b600073ffffffffffffffffffffffffffffffffffffffff16600460003373ffffffffffffffffffffffffffffffffffffffff1673ffffffffffffffffffffffffffffffffffffffff16815260200190815260200160002060000160009054906101000a900473ffffffffffffffffffffffffffffffffffffffff1673ffffffffffffffffffffffffffffffffffffffff1603610d6b576040517f08c379a0000000000000000000000000000000000000000000000000000000008152600401610d6290612713565b60405180910390fd5b600460008373ffffffffffffffffffffffffffffffffffffffff1673ffffffffffffffffffffffffffffffffffffffff1681526020019081526020016000206040518060800160405290816000820160009054906101000a900473ffffffffffffffffffffffffffffffffffffffff1673ffffffffffffffffffffffffffffffffffffffff1673ffffffffffffffffffffffffffffffffffffffff168152602001600182018054610e1b90612762565b80601f0160208091040260200160405190810160405280929190818152602001828054610e4790612762565b8015610e945780601f10610e6957610100808354040283529160200191610e94565b820191906000526020600020905b815481529060010190602001808311610e7757829003601f168201915b5050505050815260200160028201805480602002602001604051908101604052809291908181526020016000905b82821015610f6e578382906000526020600020018054610ee190612762565b80601f0160208091040260200160405190810160405280929190818152602001828054610f0d90612762565b8015610f5a5780601f10610f2f57610100808354040283529160200191610f5a565b820191906000526020600020905b815481529060010190602001808311610f3d57829003601f168201915b505050505081526020019060010190610ec2565b505050508152602001600382018054610f8690612762565b80601f0160208091040260200160405190810160405280929190818152602001828054610fb290612762565b8015610fff5780601f10610fd457610100808354040283529160200191610fff565b820191906000526020600020905b815481529060010190602001808311610fe257829003601f168201915b5050505050815250509050919050565b6060600073ffffffffffffffffffffffffffffffffffffffff16600460003373ffffffffffffffffffffffffffffffffffffffff1673ffffffffffffffffffffffffffffffffffffffff16815260200190815260200160002060000160009054906101000a900473ffffffffffffffffffffffffffffffffffffffff1673ffffffffffffffffffffffffffffffffffffffff16036110e2576040517f08c379a00000000000000000000000000000000000000000000000000000000081526004016110d990612713565b60405180910390fd5b60036000838152602001908152602001600020805480602002602001604051908101604052809291908181526020016000905b8282101561124d57838290600052602060002090600502016040518060a00160405290816000820154815260200160018201548152602001600282015481526020016003820160009054906101000a900473ffffffffffffffffffffffffffffffffffffffff1673ffffffffffffffffffffffffffffffffffffffff1673ffffffffffffffffffffffffffffffffffffffff1681526020016004820180546111bc90612762565b80601f01602080910402602001604051908101604052809291908181526020018280546111e890612762565b80156112355780601f1061120a57610100808354040283529160200191611235565b820191906000526020600020905b81548152906001019060200180831161121857829003601f168201915b50505050508152505081526020019060010190611115565b505050509050919050565b600073ffffffffffffffffffffffffffffffffffffffff16600460003373ffffffffffffffffffffffffffffffffffffffff1673ffffffffffffffffffffffffffffffffffffffff16815260200190815260200160002060000160009054906101000a900473ffffffffffffffffffffffffffffffffffffffff1673ffffffffffffffffffffffffffffffffffffffff1614611329576040517f08c379a000000000000000000000000000000000000000000000000000000000815260040161132090612974565b60405180910390fd5b600082511161136d576040517f08c379a000000000000000000000000000000000000000000000000000000000815260040161136490612a06565b60405180910390fd5b60005b825181101561156c577fdf8b4c520ffe197c5343c6f5aec59570151ef9a492f2c624fd45ddde6135ec428382815181106113ad576113ac6127e6565b5b60200260200101516040516020016113c591906127cf565b60405160208183030381529060405280519060200120148061144657507faf290d8680820aad922855f39b306097b20e28774d6c1ad35a20325630c3a02c838281518110611416576114156127e6565b5b602002602001015160405160200161142e91906127cf565b60405160208183030381529060405280519060200120145b806114b057507f523a704056dcd17bcf83bed8b68c59416dac1119be77755efe3bde0a64e46e0c8382815181106114805761147f6127e6565b5b602002602001015160405160200161149891906127cf565b60405160208183030381529060405280519060200120145b8061151a57507fdfb118e7fb180cb21baebdc5d0b33ccc34c8e0be422c1a4f57131ff74b98ca6e8382815181106114ea576114e96127e6565b5b602002602001015160405160200161150291906127cf565b60405160208183030381529060405280519060200120145b611559576040517f08c379a000000000000000000000000000000000000000000000000000000000815260040161155090612a72565b60405180910390fd5b808061156490612844565b915050611370565b5060405180608001604052803373ffffffffffffffffffffffffffffffffffffffff16815260200184815260200183815260200182815250600460003373ffffffffffffffffffffffffffffffffffffffff1673ffffffffffffffffffffffffffffffffffffffff16815260200190815260200160002060008201518160000160006101000a81548173ffffffffffffffffffffffffffffffffffffffff021916908373ffffffffffffffffffffffffffffffffffffffff16021790555060208201518160010190805190602001906116469291906119b9565b506040820151816002019080519060200190611663929190611aca565b5060608201518160030190805190602001906116809291906119b9565b509050503373ffffffffffffffffffffffffffffffffffffffff167f9dca0e96f2bb072d23c844aaab3f8a25a4c83051d5a70d2ec693152c580829d48483856040516116ce93929190612b18565b60405180910390a2505050565b833373ffffffffffffffffffffffffffffffffffffffff166002600083815260200190815260200160002060070160019054906101000a900473ffffffffffffffffffffffffffffffffffffffff1673ffffffffffffffffffffffffffffffffffffffff1614611780576040517f08c379a000000000000000000000000000000000000000000000000000000000815260040161177790612bd6565b60405180910390fd5b6000600260008781526020019081526020016000209050848160070160016101000a81548173ffffffffffffffffffffffffffffffffffffffff021916908373ffffffffffffffffffffffffffffffffffffffff160217905550838160070160006101000a81548160ff0219169083600381111561180157611800611cca565b5b021790555060006001600081548092919061181b90612844565b919050559050600360008881526020019081526020016000206040518060a001604052808381526020018981526020014281526020018873ffffffffffffffffffffffffffffffffffffffff16815260200186815250908060018154018082558091505060019003906000526020600020906005020160009091909190915060008201518160000155602082015181600101556040820151816002015560608201518160030160006101000a81548173ffffffffffffffffffffffffffffffffffffffff021916908373ffffffffffffffffffffffffffffffffffffffff160217905550608082015181600401908051906020019061191b9291906119b9565b505050816008018190806001815401808255809150506001900390600052602060002001600090919091909150558573ffffffffffffffffffffffffffffffffffffffff163373ffffffffffffffffffffffffffffffffffffffff167fe59ca647a5502871b930c7e58c9f1672aef089ff05084e0b47828427a7696d2d89886040516119a8929190612bf6565b60405180910390a350505050505050565b8280546119c590612762565b90600052602060002090601f0160209004810192826119e75760008555611a2e565b82601f10611a0057805160ff1916838001178555611a2e565b82800160010185558215611a2e579182015b82811115611a2d578251825591602001919060010190611a12565b5b509050611a3b9190611b2a565b5090565b828054828255906000526020600020908101928215611a7b579160200282015b82811115611a7a578251825591602001919060010190611a5f565b5b509050611a889190611b2a565b5090565b6040518060800160405280600073ffffffffffffffffffffffffffffffffffffffff1681526020016060815260200160608152602001606081525090565b828054828255906000526020600020908101928215611b19579160200282015b82811115611b18578251829080519060200190611b089291906119b9565b5091602001919060010190611aea565b5b509050611b269190611b47565b5090565b5b80821115611b43576000816000905550600101611b2b565b5090565b5b80821115611b675760008181611b5e9190611b6b565b50600101611b48565b5090565b508054611b7790612762565b6000825580601f10611b895750611ba8565b601f016020900490600052602060002090810190611ba79190611b2a565b5b50565b6000604051905090565b600080fd5b600080fd5b6000819050919050565b611bd281611bbf565b8114611bdd57600080fd5b50565b600081359050611bef81611bc9565b92915050565b600060208284031215611c0b57611c0a611bb5565b5b6000611c1984828501611be0565b91505092915050565b611c2b81611bbf565b82525050565b600081519050919050565b600082825260208201905092915050565b60005b83811015611c6b578082015181840152602081019050611c50565b83811115611c7a576000848401525b50505050565b6000601f19601f8301169050919050565b6000611c9c82611c31565b611ca68185611c3c565b9350611cb6818560208601611c4d565b611cbf81611c80565b840191505092915050565b7f4e487b7100000000000000000000000000000000000000000000000000000000600052602160045260246000fd5b60048110611d0a57611d09611cca565b5b50565b6000819050611d1b82611cf9565b919050565b6000611d2b82611d0d565b9050919050565b611d3b81611d20565b82525050565b600073ffffffffffffffffffffffffffffffffffffffff82169050919050565b6000611d6c82611d41565b9050919050565b611d7c81611d61565b82525050565b600081519050919050565b600082825260208201905092915050565b6000819050602082019050919050565b611db781611bbf565b82525050565b6000611dc98383611dae565b60208301905092915050565b6000602082019050919050565b6000611ded82611d82565b611df78185611d8d565b9350611e0283611d9e565b8060005b83811015611e33578151611e1a8882611dbd565b9750611e2583611dd5565b925050600181019050611e06565b5085935050505092915050565b600061014082019050611e56600083018d611c22565b8181036020830152611e68818c611c91565b90508181036040830152611e7c818b611c91565b90508181036060830152611e90818a611c91565b90508181036080830152611ea48189611c91565b9050611eb360a0830188611c22565b611ec060c0830187611c22565b611ecd60e0830186611d32565b611edb610100830185611d73565b818103610120830152611eee8184611de2565b90509b9a5050505050505050505050565b600080fd5b600080fd5b7f4e487b7100000000000000000000000000000000000000000000000000000000600052604160045260246000fd5b611f4182611c80565b810181811067ffffffffffffffff82111715611f6057611f5f611f09565b5b80604052505050565b6000611f73611bab565b9050611f7f8282611f38565b919050565b600067ffffffffffffffff821115611f9f57611f9e611f09565b5b611fa882611c80565b9050602081019050919050565b82818337600083830152505050565b6000611fd7611fd284611f84565b611f69565b905082815260208101848484011115611ff357611ff2611f04565b5b611ffe848285611fb5565b509392505050565b600082601f83011261201b5761201a611eff565b5b813561202b848260208601611fc4565b91505092915050565b60008060008060008060c0878903121561205157612050611bb5565b5b600087013567ffffffffffffffff81111561206f5761206e611bba565b5b61207b89828a01612006565b965050602087013567ffffffffffffffff81111561209c5761209b611bba565b5b6120a889828a01612006565b955050604087013567ffffffffffffffff8111156120c9576120c8611bba565b5b6120d589828a01612006565b945050606087013567ffffffffffffffff8111156120f6576120f5611bba565b5b61210289828a01612006565b935050608061211389828a01611be0565b92505060a061212489828a01611be0565b9150509295509295509295565b61213a81611d61565b811461214557600080fd5b50565b60008135905061215781612131565b92915050565b60006020828403121561217357612172611bb5565b5b600061218184828501612148565b91505092915050565b61219381611d61565b82525050565b600082825260208201905092915050565b60006121b582611c31565b6121bf8185612199565b93506121cf818560208601611c4d565b6121d881611c80565b840191505092915050565b600081519050919050565b600082825260208201905092915050565b6000819050602082019050919050565b600061221b83836121aa565b905092915050565b6000602082019050919050565b600061223b826121e3565b61224581856121ee565b935083602082028501612257856121ff565b8060005b858110156122935784840389528151612274858261220f565b945061227f83612223565b925060208a0199505060018101905061225b565b50829750879550505050505092915050565b60006080830160008301516122bd600086018261218a565b50602083015184820360208601526122d582826121aa565b915050604083015184820360408601526122ef8282612230565b9150506060830151848203606086015261230982826121aa565b9150508091505092915050565b6000602082019050818103600083015261233081846122a5565b905092915050565b600081519050919050565b600082825260208201905092915050565b6000819050602082019050919050565b600060a08301600083015161237c6000860182611dae565b50602083015161238f6020860182611dae565b5060408301516123a26040860182611dae565b5060608301516123b5606086018261218a565b50608083015184820360808601526123cd82826121aa565b9150508091505092915050565b60006123e68383612364565b905092915050565b6000602082019050919050565b600061240682612338565b6124108185612343565b93508360208202850161242285612354565b8060005b8581101561245e578484038952815161243f85826123da565b945061244a836123ee565b925060208a01995050600181019050612426565b50829750879550505050505092915050565b6000602082019050818103600083015261248a81846123fb565b905092915050565b600067ffffffffffffffff8211156124ad576124ac611f09565b5b602082029050602081019050919050565b600080fd5b60006124d66124d184612492565b611f69565b905080838252602082019050602084028301858111156124f9576124f86124be565b5b835b8181101561254057803567ffffffffffffffff81111561251e5761251d611eff565b5b80860161252b8982612006565b855260208501945050506020810190506124fb565b5050509392505050565b600082601f83011261255f5761255e611eff565b5b813561256f8482602086016124c3565b91505092915050565b60008060006060848603121561259157612590611bb5565b5b600084013567ffffffffffffffff8111156125af576125ae611bba565b5b6125bb86828701612006565b935050602084013567ffffffffffffffff8111156125dc576125db611bba565b5b6125e88682870161254a565b925050604084013567ffffffffffffffff81111561260957612608611bba565b5b61261586828701612006565b9150509250925092565b6004811061262c57600080fd5b50565b60008135905061263e8161261f565b92915050565b6000806000806080858703121561265e5761265d611bb5565b5b600061266c87828801611be0565b945050602061267d87828801612148565b935050604061268e8782880161262f565b925050606085013567ffffffffffffffff8111156126af576126ae611bba565b5b6126bb87828801612006565b91505092959194509250565b7f55736572206e6f7420726567697374657265642e000000000000000000000000600082015250565b60006126fd601483611c3c565b9150612708826126c7565b602082019050919050565b6000602082019050818103600083015261272c816126f0565b9050919050565b7f4e487b7100000000000000000000000000000000000000000000000000000000600052602260045260246000fd5b6000600282049050600182168061277a57607f821691505b60208210810361278d5761278c612733565b5b50919050565b600081905092915050565b60006127a982611c31565b6127b38185612793565b93506127c3818560208601611c4d565b80840191505092915050565b60006127db828461279e565b915081905092915050565b7f4e487b7100000000000000000000000000000000000000000000000000000000600052603260045260246000fd5b7f4e487b7100000000000000000000000000000000000000000000000000000000600052601160045260246000fd5b600061284f82611bbf565b91507fffffffffffffffffffffffffffffffffffffffffffffffffffffffffffffffff820361288157612880612815565b5b600182019050919050565b7f4e6f7420617574686f72697a656420666f72207468697320726f6c652e000000600082015250565b60006128c2601d83611c3c565b91506128cd8261288c565b602082019050919050565b600060208201905081810360008301526128f1816128b5565b9050919050565b600060408201905061290d6000830185611c22565b818103602083015261291f8184611c91565b90509392505050565b7f5573657220616c726561647920726567697374657265642e0000000000000000600082015250565b600061295e601883611c3c565b915061296982612928565b602082019050919050565b6000602082019050818103600083015261298d81612951565b9050919050565b7f55736572206d7573742068617665206174206c65617374206f6e6520726f6c6560008201527f2e00000000000000000000000000000000000000000000000000000000000000602082015250565b60006129f0602183611c3c565b91506129fb82612994565b604082019050919050565b60006020820190508181036000830152612a1f816129e3565b9050919050565b7f496e76616c696420726f6c652070726f76696465642e00000000000000000000600082015250565b6000612a5c601683611c3c565b9150612a6782612a26565b602082019050919050565b60006020820190508181036000830152612a8b81612a4f565b9050919050565b600082825260208201905092915050565b6000612aae826121e3565b612ab88185612a92565b935083602082028501612aca856121ff565b8060005b85811015612b065784840389528151612ae7858261220f565b9450612af283612223565b925060208a01995050600181019050612ace565b50829750879550505050505092915050565b60006060820190508181036000830152612b328186611c91565b90508181036020830152612b468185611c91565b90508181036040830152612b5a8184612aa3565b9050949350505050565b7f4f6e6c79207468652063757272656e74206f776e65722063616e20706572666f60008201527f726d207468697320616374696f6e2e0000000000000000000000000000000000602082015250565b6000612bc0602f83611c3c565b9150612bcb82612b64565b604082019050919050565b60006020820190508181036000830152612bef81612bb3565b9050919050565b6000604082019050612c0b6000830185611c22565b612c186020830184611d32565b939250505056fea264697066735822122031adc42ac8cf9ba5ef10f668b58754d7d080fe45a3eaa8ac4b52a3ba3d136b8364736f6c634300080d0033",
  "immutableReferences": {},
  "source": "// SPDX-License-Identifier: MIT\r\npragma solidity ^0.8.0;\r\n\r\ncontract ShipmentManagement {\r\n\r\n    enum ShipmentState { CREATED, IN_TRANSIT, STORED, DELIVERED }\r\n    enum UserRoles { ADMIN, MANAGER, OPERATOR, VIEWER }\r\n\r\n    struct Shipment {\r\n        uint256 id;\r\n        string name;\r\n        string description;\r\n        string origin;\r\n        string destination;\r\n        uint256 units;\r\n        uint256 weight;\r\n        ShipmentState currentState;\r\n        address currentOwner;\r\n        uint256[] transferHistory;\r\n    }\r\n\r\n    struct Transfer {\r\n        uint256 id;\r\n        uint256 shipmentId;\r\n        uint256 timestamp;\r\n        address newShipmentOwner;\r\n        string transferNotes;\r\n    }\r\n\r\n    struct User {\r\n        address userAddress;\r\n        string username;\r\n        string[] roles;\r\n        string email;\r\n    }\r\n\r\n    uint256 private nextShipmentId;\r\n    uint256 private nextTransferId;\r\n\r\n    mapping(uint256 => Shipment) private shipments;\r\n    mapping(uint256 => Transfer[]) private transfersByShipment;\r\n    mapping(address => User) private users;\r\n\r\n    event ShipmentCreated(uint256 shipmentId, string productName, address indexed owner);\r\n    event ShipmentTransfer(uint256 shipmentId, address indexed previousOwner, address indexed newShipmentOwner, ShipmentState newState);\r\n    event UserRegistered(address indexed userAddress, string name, string email, string[] roles);\r\n\r\n    // Modifiers\r\n\r\n    modifier onlyRegistered() {\r\n        require(users[msg.sender].userAddress != address(0), \"User not registered.\");\r\n        _;\r\n    }\r\n\r\n    modifier onlyOwner(uint256 shipmentId) {\r\n        require(shipments[shipmentId].currentOwner == msg.sender, \"Only the current owner can perform this action.\");\r\n        _;\r\n    }\r\n\r\n    modifier onlyAuthorized(string memory requiredRole) {\r\n        User memory user = users[msg.sender];\r\n        require(user.userAddress != address(0), \"User not registered.\");\r\n        \r\n        bool hasRole = false;\r\n        for (uint256 i = 0; i < user.roles.length; i++) {\r\n            if (keccak256(abi.encodePacked(user.roles[i])) == keccak256(abi.encodePacked(requiredRole))) {\r\n                hasRole = true;\r\n                break;\r\n            }\r\n        }\r\n        require(hasRole, \"Not authorized for this role.\");\r\n        _;\r\n    }\r\n\r\n\r\n    // Functions\r\n\r\n    function registerUser(string memory name, string[] memory roles, string memory email) public {\r\n        require(users[msg.sender].userAddress == address(0), \"User already registered.\");\r\n        require(roles.length > 0, \"User must have at least one role.\");\r\n\r\n        // Validate roles\r\n        for (uint256 i = 0; i < roles.length; i++) {\r\n            require(\r\n                keccak256(abi.encodePacked(roles[i])) == keccak256(\"ADMIN\") ||\r\n                keccak256(abi.encodePacked(roles[i])) == keccak256(\"MANAGER\") ||\r\n                keccak256(abi.encodePacked(roles[i])) == keccak256(\"OPERATOR\") ||\r\n                keccak256(abi.encodePacked(roles[i])) == keccak256(\"VIEWER\"),\r\n                \"Invalid role provided.\"\r\n            );\r\n        }\r\n\r\n        users[msg.sender] = User({\r\n            userAddress: msg.sender,\r\n            username: name,\r\n            roles: roles,\r\n            email: email\r\n        });\r\n\r\n        emit UserRegistered(msg.sender, name, email, roles);\r\n    }\r\n\r\n    // Create a new shipment\r\n    function createShipment(\r\n        string memory productName,\r\n        string memory description,\r\n        string memory origin,\r\n        string memory destination,\r\n        uint256 units,\r\n        uint256 weight\r\n    ) public onlyAuthorized(\"MANAGER\") {\r\n        uint256 shipmentId = nextShipmentId++;\r\n        shipments[shipmentId] = Shipment({\r\n            id: shipmentId,\r\n            name: productName,\r\n            description: description,\r\n            origin: origin,\r\n            destination: destination,\r\n            units: units,\r\n            weight: weight,\r\n            currentState: ShipmentState.CREATED,\r\n            currentOwner: msg.sender,\r\n            transferHistory: new uint256[](0)\r\n        });\r\n        emit ShipmentCreated(shipmentId, productName, msg.sender);\r\n    }\r\n\r\n    // Transfer ownership of a shipment\r\n    function shipmentTransfer(uint256 shipmentId, address newShipmentOwner, ShipmentState newState, string memory transferNotes) public onlyOwner(shipmentId) {\r\n        Shipment storage shipment = shipments[shipmentId];\r\n        \r\n        shipment.currentOwner = newShipmentOwner;\r\n        shipment.currentState = newState;\r\n\r\n        uint256 transferId = nextTransferId++;\r\n        transfersByShipment[shipmentId].push(Transfer({\r\n            id: transferId,\r\n            shipmentId: shipmentId,\r\n            timestamp: block.timestamp,\r\n            newShipmentOwner: newShipmentOwner,\r\n            transferNotes: transferNotes\r\n        }));\r\n        shipment.transferHistory.push(transferId);\r\n\r\n        emit ShipmentTransfer(shipmentId, msg.sender, newShipmentOwner, newState);\r\n    }\r\n\r\n    // Get shipment details\r\n    function getShipment(uint256 shipmentId) public onlyRegistered() view returns (\r\n        uint256 id,\r\n        string memory productName,\r\n        string memory description,\r\n        string memory origin,\r\n        string memory destination,\r\n        uint256 units,\r\n        uint256 weight,\r\n        ShipmentState currentState,\r\n        address currentOwner,\r\n        uint256[] memory transferHistory\r\n    ) {\r\n        Shipment memory shipment = shipments[shipmentId];\r\n        return (\r\n            shipment.id,\r\n            shipment.name,\r\n            shipment.description,\r\n            shipment.origin,\r\n            shipment.destination,\r\n            shipment.units,\r\n            shipment.weight,\r\n            shipment.currentState,\r\n            shipment.currentOwner,\r\n            shipment.transferHistory\r\n        );\r\n    }\r\n\r\n    // Get transfer history for a shipment\r\n    function getTransferHistory(uint256 shipmentId) public onlyRegistered() view returns (Transfer[] memory) {\r\n        return transfersByShipment[shipmentId];\r\n    }\r\n\r\n    // Get user details\r\n    function getUser(address userAddress) public onlyRegistered() view returns (User memory) {\r\n        return users[userAddress];\r\n    }\r\n}\r\n",
  "sourcePath": "C:\\Users\\Usuario\\OneDrive\\Documentos\\GitHub\\blocked-supply\\blocked-supply-truffle\\contracts\\ShipmentManagement.sol",
  "compiler": {
    "name": "solc",
    "version": "0.8.13+commit.abaa5c0e.Emscripten.clang"
  },
  "schemaVersion": "3.4.16",
  "updatedAt": "2025-01-30T19:46:18.819Z",
  "networkType": "ethereum",
  "devdoc": {
    "kind": "dev",
    "methods": {},
    "version": 1
  },
  "userdoc": {
    "kind": "user",
    "methods": {},
    "version": 1
  }
}